:020000040800F2
:10000000D8090020D5010008E5130008F112000806
:10001000E11300087D040008FB2300080000000035
:100020000000000000000000000000003918000877
:100030001D0F000800000000951400084D1900086D
:10004000EF010008EF010008EF010008EF010008D0
:10005000EF010008EF010008EF010008EF010008C0
:10006000EF010008EF010008210F0008EF01000870
:10007000EF010008EF010008EF010008EF010008A0
:10008000EF010008EF010008EF010008EF01000890
:10009000EF010008EF010008EF010008EF01000880
:1000A000EF010008EF010008EF010008EF01000870
:1000B000B1190008251A0008951B0008EF01000877
:1000C000EF010008EF010008EF010008EF01000850
:1000D000EF01000815210008AD210008EF0100081C
:1000E000EF010008EF010008EF010008EF01000830
:1000F000EF010008EF010008EF010008EF01000820
:10010000EF010008EF010008811C0008EF01000862
:10011000EF010008EF010008EF010008EF010008FF
:10012000EF010008EF010008EF010008EF010008EF
:1001300000F002F800F03FF80AA090E8000C8244BA
:100140008344AAF10107DA4501D100F034F8AFF297
:10015000090EBAE80F0013F0010F18BFFB1A43F0A5
:10016000010318472859000048590000103A24BFDD
:1001700078C878C1FAD8520724BF30C830C144BF0C
:1001800004680C607047000000230024002500264E
:10019000103A28BF78C1FBD8520728BF30C148BFEA
:1001A0000B607047642900F07F80002070471FB506
:1001B0001FBD10B510BD00F02EF91146FFF7F7FF77
:1001C00003F0AEFC00F04CF903B4FFF7F2FF03BC00
:1001D00002F030F90948804709480047FEE7FEE78A
:1001E000FEE7FEE7FEE7FEE7FEE7FEE7FEE7FEE7E7
:1001F00004480549054A064B70470000511900089C
:1002000031010008D8030020D8090020D8050020BB
:10021000D8050020704700000FB41CB5074B06AA94
:100220007B4469460090059800F0DDF8002069469F
:1002300000F0ECF81CBC5DF814FB0000E9010000C4
:100240002DE9F0410E460446002020622046E16878
:10025000884730B3252805D0D4E901219047206A8A
:10026000401CF2E7E168204600278847050018D0C7
:10027000A5F14100192802D820354FF40067324615
:10028000294620462760FFF78DFF40B1012804D0A2
:10029000F61D26F007060836D8E7361DD6E72846AD
:1002A000DAE7206ABDE8F0812DE9F0410646002436
:1002B00010687529314616A510D0AFF300800028CC
:1002C00002DA404213A507E031688A0701D512A57A
:1002D00002E0490704D511A5012401E0AFF3008035
:1002E00000210A2206F1240709E0B0FBF2FCB0FB72
:1002F000F2F302FB1C00303078541846491C0028E9
:10030000F3D123462A463046BDE8F04100F00CB850
:10031000000000002D0000002B0000002000000065
:1003200070477047704770472DE9F0470D46994672
:100330009246044600F124080168880604D5E06965
:1003400021F01001216000E00120A84201DD471BDF
:1003500000E00027A1697A1902EB0900081AA061E0
:100360002078C00602D42046AFF30080002608E0C3
:10037000D4E901211AF806009047206A401C761C37
:1003800020624E45F4DB2078C0060AD52046AFF344
:10039000008006E0D4E9012130209047206A401C0B
:1003A0002062381EA7F10107F4DC07E0D4E901213F
:1003B00018F805009047206A401C2062281EA5F10D
:1003C0000105F3DC2046AFF300802078000602D55B
:1003D0000220BDE8F0870120FBE7000001694A1C0C
:1003E00002610878704700B58FB0CDE90131002176
:1003F000059105497944CDE9031011466846FFF798
:100400001FFF0FB000BD0000E5FFFFFF0A6802F804
:10041000010B0A607047754600F02CF8AE460500E7
:100420006946534620F00700854618B020B5FFF70F
:10043000DFFEBDE820404FF000064FF000074FF010
:1004400000084FF0000B21F00701AC46ACE8C009F2
:10045000ACE8C009ACE8C009ACE8C0098D467047FB
:1004600010B50446AFF300802046BDE81040FFF70A
:10047000ABBE0000004870477403002000BFFEE7D9
:100480002DE9F04F91B004468B46154600201090A0
:1004900080460F90814682460E900D900C9025B9B3
:1004A00008200E9004200C900DE0012D04D10820AE
:1004B0000E9003200C9006E0022D02D103200E9036
:1004C00001E004200E90002623E0771C1BF80600B4
:1004D00001281DD106E01BF80700012801D17F1C6F
:1004E00000E002E00E988742F5DB00BFB81BC0B207
:1004F0000F900F9840450BDD06F0FF09781E00F0C5
:10050000FF0AB8F1000F01D001200D90DDF83C800A
:100510003E460E988642D8DBC4F800A0C4F804908A
:10052000C4F80880012D18D10AEB090005F036F94E
:10053000059005F089F80022AB07CDE9060104F02B
:100540007BFD00225E4BCDE9080104F093FFCDE96D
:100550000A0104F08BFCE06048E0022D18D10AEBA0
:10056000090005F01BF9059005F06EF800226B07F5
:10057000CDE9060104F060FD0022524BCDE90801EF
:1005800004F078FFCDE90A0104F070FCE0602DE092
:100590000E9805F01BF9019005F056F800224FF077
:1005A0008043CDE9020104F047FD0022464BCDE92E
:1005B000040104F05FFFCDE908010AEB090005F032
:1005C000EDF8039005F040F800224FF08043CDE9AC
:1005D000040104F031FDCDE90601DDE9082304F052
:1005E00049FFCDE90A0104F041FCE06000202074DD
:1005F0000DB1012D56D1012D03D14FF07E500B903E
:1006000001E032480B90A1680C98814205DC607CC7
:10061000002844D0A068032841DB01202074E06852
:1006200005F012F80022284BCDE9080104F0ECFE99
:1006300015D8606805F0B2F804900B9905F030F811
:10064000059005F001F800221D4BCDE9060104F0EC
:1006500011FFCDE9080104F009FCE06021E0E06849
:1006600004F0F2FF00221A4BCDE9080104F03CFE31
:1006700017D8206805F092F804900B9905F090F9CE
:10068000059004F0E1FF00220D4BCDE9060104F0D6
:10069000F1FECDE9080104F0E9FBE06001E0002093
:1006A000207400BFB8F1000F02D00D98012802D1CC
:1006B0000120A07401E00020A07411B0BDE8F08F0B
:1006C00000000C400000F83F0000E03F9A99193FFD
:1006D0000000E0BF70B504460D462946204604F0F0
:1006E000F1F970BD38B504460D46002000900DB1FB
:1006F000022D20D164B901208DF80000684600F079
:1007000091FF1548007C08B1012038BD0020FCE7AE
:10071000022C1FD101208DF802008DF803008DF806
:100720000000684600F07EFF0B48007C08B1012005
:10073000EBE70020E9E7012C0CD101208DF8010046
:10074000684600F06FFF0548007C08B10120DCE737
:100750000020DAE70020D8E7C8000020DC000020F5
:1007600010B500F00FF80121014801F0F4FA10BDB6
:100770000008004010B50021014801F0ECFA10BD5E
:100780000008004010B5084803F013FE074803F0C6
:1007900010FE074803F00DFE064803F00AFE002095
:1007A0000549086010BD0000180100203401002038
:1007B0006C010020500100205C00002070B505464F
:1007C0000C46284603F0FAFDB4F57A7F05DD4FF4B8
:1007D0007A7002F0F5FCA4F57A74A0B202F0F0FC95
:1007E000002070BD70B504460D4624B929460B485B
:1007F00003F0D9FD11E0012C04D12946084803F08B
:10080000D2FD0AE0022C04D12946064803F0CBFDB4
:1008100003E02946044803F0C6FD70BD180100201E
:1008200050010020340100206C01002010B5FFF7BA
:10083000A1FF03F0F3FA10BD10B5FFF79BFF03F023
:10084000EDFA10BD2DE9F04F89B0824689460024AB
:10085000002005900690079008900490B9F1000FD1
:1008600002D0B9F1020F71D1BAF1000F6FD101209E
:100870008DF8100004A800F0D5FEB9F1000F4CD19E
:10088000FE48807CA8B3FE480068401CFC49086014
:100890000846006803280CDCFA48016902F072FF80
:1008A0000646F94904F0A6FF054604F05BFF04463E
:1008B0007DE0F3480068032811DDF4480068002853
:1008C0000DDDF0484168F24804F094FF0646EE4919
:1008D00004F090FF054604F045FF044667E0E94850
:1008E0004168EC4804F086FF054604F03BFF0446EF
:1008F0005DE0FFE7E148C168E24802F043FF0646D9
:10090000E14904F077FF054604F02CFF044600207F
:10091000DB490860DD48046049E0D848807C98B332
:10092000D7480068401CD64908600846006803287C
:100930000EDCD948016902F025FF0646D24904F0D1
:1009400059FF054604F00EFF044630E05EE13EE04C
:10095000CB48006803280DDDCC480068002809DD7D
:10096000CD484168CD4804F045FF054604F0FAFE45
:1009700004461CE0C8484168C64804F03BFF0546F1
:1009800004F0F0FE044612E0FFE7BC48C168C2482C
:1009900002F0F8FE0646BC4904F02CFF054604F0C0
:1009A000E1FE04460020B6490860B8480460604291
:1009B0000590069405A9484603F0CCFEAF48007C9C
:1009C00018B1012009B0BDE8F08F0020FAE7BAF1B4
:1009D000020F7CD101208DF812008DF813008DF8E4
:1009E000100004A800F01EFEB9F1000F70D14FF006
:1009F000000BBBF1000F7BD1A948807C28B3A9482C
:100A0000807C10B39E480068401C9D4908600846E1
:100A1000006803280CDC9B48016902F0B3FE06461F
:100A2000A14904F0E7FE054604F09CFE04465FE0A1
:100A300093480068032805DD94480068002801DD1C
:100A4000ED2455E06FF0EC0452E09548807C90B1C5
:100A50009448C1688B4802F095FE0646924904F01E
:100A6000C9FE054604F07EFE044688480460002066
:100A7000834908603CE08B48807C90B18848C1681D
:100A8000804802F07FFE0646874904F0B3FE054623
:100A900004F068FE04467D48046000207849086040
:100AA00026E0804AD1687E4AD06804F0F9FD0090C3
:100AB00004F0CAFD074600224FF0804304F0BCFA60
:100AC000054604F0D3F9014601906E4801E010E1BB
:100AD0000FE002F057FE7449029004F08BFE039081
:100AE00004F040FE04466948046000206449086040
:100AF0007EE04FF0000BBBF1000F78D16848807C9E
:100B000028B36848807C10B35D480068401C5C498D
:100B100008600846006803280CDC5F48016902F0A1
:100B200031FE0646604904F065FE054604F01AFEF3
:100B300004465CE052480068032805DD534800681D
:100B4000002801DDED2452E06FF0EC044FE0544842
:100B5000807C90B15348C1684F4802F013FE0646AE
:100B6000514904F047FE054604F0FCFD04464748A1
:100B7000046000204249086039E04A48807C90B116
:100B80004748C168444802F0FDFD0646464904F066
:100B900031FE054604F0E6FD04463C4804600020B2
:100BA0003749086023E03F4AD1683D4AD06804F0E5
:100BB00077FD009004F048FD074600224FF0804387
:100BC00004F03AFA054604F051F901460190324822
:100BD00002F0D8FD3449029004F00CFE039004F0BA
:100BE000C1FD04462948046000202549086000BF73
:100BF00060420590069405A9484603F0ABFD1F48E6
:100C0000007C08B10120DDE60020DBE6BAF1010F2F
:100C10006FD101208DF8110004A800F003FDB9F197
:100C2000010F68D12148807C30B315480068401C12
:100C3000134908600846006803280CDC1C48016959
:100C400002F0A0FD0646104904F0D4FD054604F06C
:100C500089FD044697E00A48006803282CDD0B480C
:100C60000068002828DD124841680C4804F0C2FDE5
:100C7000054604F077FD1DE028E00000C8000020D4
:100C800060000020180100200000B4425C00002039
:100C90000000A0400000E1C3340100200000E14357
:100CA000F0000020040100200000BE42DC00002013
:100CB00050010020044666E03B4841683B4804F090
:100CC00099FD054604F04EFD04465CE03848C168D5
:100CD000354802F057FD0646364904F08BFD0546BF
:100CE00004F040FD044600203349086033480460A6
:100CF00049E056E0FFE72E48807C88B32E48006824
:100D0000401C2D4908600846006803280CDC2C486C
:100D1000016902F037FD0646264904F06BFD0546E1
:100D200004F020FD04462EE02348006803280DDD72
:100D300022480068002809DD21484168214804F064
:100D400059FD054604F00EFD04461CE01C484168B0
:100D5000164804F04FFD054604F004FD044612E079
:100D6000FFE71348C168164802F00CFD064611491A
:100D700004F040FD054604F0F5FC044600200E4951
:100D800008600E48046008946042079005A9484630
:100D900003F0E0FC0648007C08B1012012E60020C8
:100DA00010E600200EE60000500100200000E1C324
:100DB000DC0000200000B442600000205C00002045
:100DC0006C0100200000E1431FB5044600200090A4
:100DD0000190029003906946204603F073FE1FBD08
:100DE00010B500F05FFA10BD10B51C4803F0D2FA40
:100DF0001B4803F0CFFA1B4803F0CCFA1A4803F063
:100E0000C9FA0021154803F0CEFA0021144803F076
:100E1000CAFA4FF07C51144803F0C5FA4FF07C51E8
:100E2000104803F0C0FA114B002211490B4803F09F
:100E3000BCFA0E4B00220F49094803F0B6FA0E4BDC
:100E400000224FF07C51084803F0AFFA0A4B002211
:100E50004FF07C51034803F0A8FA10BD18010020A0
:100E600034010020500100206C010020CDCCCC3D8D
:100E70006666263F9A99193FCDCC4C3F10B5232189
:100E80004FF47A7000F0E6FDFA231A461946184628
:100E900000F0F6FAFA231A461946184600F0E6FA68
:100EA0000120064908600649C1F898010349083144
:100EB00008600349C1F8900110BD000094812142EF
:100EC0000080214270B505460C46012D0FD1284601
:100ED00003F00CFBB4F57A7F05DB4FF47A7002F077
:100EE0006FF9A4F57A74A0B202F06AF912E0002654
:100EF0000FE0284603F0FAFA00210846FFF7F2FB5C
:100F000005488068022803DB761C022E01DD70BDD7
:100F10000026EEE700BFFAE7C80000207047000097
:100F200010B5102000F050F8002837D01C48006899
:100F3000F0B91C48007870B31B4800F018FF044655
:100F400000201849087019480078C0F1050040F2E7
:100F50007121484304EB401015490968401A1549AE
:100F6000086000201149087001201349087012E040
:100F70000D482430048805200C49087000200A49D7
:100F800024310880012007490870074800F0EFFE6F
:100F90000749086000BF102000F010F810BD0000E5
:100FA0001001214280000020000C0040820000203F
:100FB0007C000020780000208C000020014908609F
:100FC0007047000014040140014600200022074B36
:100FD0001B6803EA0102054B14331B680B4013B175
:100FE0000AB1012000E00020704700000004014029
:100FF00010B500201F49087036E065211E4801F039
:10100000F8F900BF40211C4801F026F90128F9D168
:101010006E21194801F0EDF900BF4021164801F09A
:101020001BF90128F9D16421134801F0E2F900BF4E
:101030004021114801F010F90128F9D10D210E4885
:1010400001F0D7F900BF40210B4801F005F9012854
:10105000F9D10A21084801F0CCF900BF4021064827
:1010600001F0FAF80128F9D1024800780028C4D02C
:1010700010BD0000A20000200038014010B5002083
:101080001A4908702BE04621194801F0B2F900BF57
:101090004021174801F0E0F80128F9D171211448E6
:1010A00001F0A7F900BF4021114801F0D5F801284F
:1010B000F9D10D210E4801F09CF900BF40210C48E8
:1010C00001F0CAF80128F9D10A21094801F091F983
:1010D00000BF4021064801F0BFF80128F9D10348BC
:1010E00000780028CFD003F091FE10BD9B000020B7
:1010F000003801402DE9F04102460025002600207D
:1011000000230024002791F803C00CF00F0591F88C
:1011100003C00CF0100CBCF1000F03D091F802C01A
:101120004CEA050591F800C0BCF1000F31D01468FD
:1011300000202BE04FF0010C0CFA00F3B1F800C0D6
:101140000CEA03069E4220D183004FF00F0C0CFAEC
:1011500003F7BC4305FA03FC4CEA040491F803C00E
:10116000BCF1280F06D14FF0010C0CFA00FCC2F8BC
:1011700014C00AE091F803C0BCF1480F05D14FF04C
:10118000010C0CFA00FCC2F810C0401C0828D1D396
:101190001460B1F800C0BCF1FF0F34DD54680020CA
:1011A0002EE000F1080C4FF0010808FA0CF3B1F83A
:1011B00000C00CEA03069E4221D183004FF00F0CC1
:1011C0000CFA03F7BC4305FA03FC4CEA040491F85B
:1011D00003C0BCF1280F05D100F1080C08FA0CF887
:1011E000C2F8148091F803C0BCF1480F07D100F198
:1011F000080C4FF0010808FA0CF8C2F81080401CE7
:101200000828CED35460BDE8F0810000F0B50A464E
:10121000002300240021002500F00046B6F1004F15
:1012200002D11D4EF16901E01B4E7168C0F3034508
:1012300083B200F44016B6F5401F08D121F070616A
:10124000154E766826F07066134F7E6012E000F44B
:101250008016B6F5801F06D1032606FA05F4A143D1
:1012600041F0706106E0460D360103FA06F6B1431F
:1012700041F0706122B1460D360103FA06F63143A2
:1012800000F00046B6F1004F02D1034EF16101E0DB
:10129000014E7160F0BD00000000014041617047E7
:1012A0000161704708B50121602000F041F947F65F
:1012B0008170ADF8000004208DF8030003208DF844
:1012C000020069460848FFF715FF4FF6FF70ADF8BA
:1012D000000004208DF8030003208DF80200694609
:1012E0000248FFF707FF08BD001801400014014045
:1012F00000BFFEE710B500201A4908702BE04C2112
:10130000194801F076F800BF4021174800F0A4FF0B
:101310000128F9D16321144801F06BF800BF402186
:10132000114800F099FF0128F9D10D210E4801F074
:1013300060F800BF40210C4800F08EFF0128F9D171
:101340000A21094801F055F800BF4021064800F085
:1013500083FF0128F9D1034800780028CFD003F09B
:1013600061FD10BDA30000200038014010B5002031
:10137000194908702BE04C21184801F03AF800BFD9
:101380004021164800F068FF0128F9D17121134867
:1013900001F02FF800BF4021104800F05DFF012848
:1013A000F9D10D210D4801F024F800BF40210B4870
:1013B00000F052FF0128F9D10A21084801F019F87C
:1013C00000BF4021054800F047FF0128F9D102483D
:1013D00000780028CFD010BD9800002000380140D0
:1013E00000BFFEE77047000070B5002100230F2208
:1013F000C47804B3154C246804F4E064C4F5E064D4
:10140000210AC1F10403CA40447804FA03F1847844
:101410001440214309010E4C0678A155047804F0CC
:101420001F050124AC4005786D11AD0005F1E025E4
:10143000C5F8004109E0047804F01F050124AC4020
:10144000044D0678761145F8264070BD0CED00E09D
:1014500000E400E080E100E002490143024A11603B
:10146000704700000000FA050CED00E010B5034CD9
:1014700020606160A260E36010BD00008801002070
:1014800010B5034C20606160A260E36010BD0000F5
:10149000980100207047000010B500201A4908701C
:1014A0002BE05021194800F0A4FF00BF402117484D
:1014B00000F0D2FE0128F9D17121144800F099FF03
:1014C00000BF4021114800F0C7FE0128F9D10D21CD
:1014D0000E4800F08EFF00BF40210C4800F0BCFE1B
:1014E0000128F9D10A21094800F083FF00BF4021FB
:1014F000064800F0B1FE0128F9D103480078002821
:10150000CFD003F09BFC10BD9A00002000380140B2
:1015100029B1064AD2690243044BDA6104E0034A66
:10152000D2698243014BDA6170470000001002402B
:1015300029B1064A92690243044B9A6104E0034AC6
:1015400092698243014B9A6170470000001002408B
:1015500030B500210022002400232D4D6D6805F0D8
:101560000C0121B1042905D0082923D105E0294D1A
:10157000056022E0274D05601FE0254D6D6805F4EC
:101580007012234D6D6805F48034022505EB9242FC
:101590001CB9214D554305600BE01D4D6D6805F4E8
:1015A00000351DB11C4D5543056002E0194D5543F2
:1015B000056002E0174D056000BF00BF144D6D6867
:1015C00005F0F0010909154D6B5C0568DD404560CB
:1015D0000F4D6D6805F4E061090A104D6B5C4568BC
:1015E000DD4085600A4D6D6805F46051C90A0B4DF8
:1015F0006B5C4568DD40C560054D6D6805F4404194
:10160000890B074D6B5CC568B5FBF3F5056130BD13
:101610000010024000127A0000093D00B4000020D2
:10162000C400002010B586B0044600200490059048
:101630000290039001900090207838B104A800F047
:101640002DF8002204A91148FEF71AFF607838B17E
:1016500002A800F03DF8012202A90D48FEF710FF94
:10166000A07838B101A800F04DF8022201A909487C
:10167000FEF706FFE07838B1684600F055F803221F
:1016800069460548FEF7FCFE06B010BDC800002004
:10169000DC000020F00000200401002010B5002133
:1016A00009E0C1F10E03094C04EB8303D3F80031C8
:1016B00043544B1CD9B20829F3DB027943790371F7
:1016C00042718279C3798371C27110BD00002342D7
:1016D000002109E0C1F10702084B03EB8202D2F8B6
:1016E000002142544A1CD1B20829F3DB044A126893
:1016F0004270034A2C321268C27070470080224246
:10170000000123420146002009E000F10802054BD8
:1017100003EB8202D2F800210A54421CD0B2032803
:10172000F3DB7047008022420146002009E000F10F
:101730000C02054B03EB8202D2F800210A54421C32
:10174000D0B20428F3DB70470080224210B500209D
:101750001A4908702BE05221194800F04AFE00BFD8
:101760004021174800F078FD0128F9D16321144881
:1017700000F03FFE00BF4021114800F06DFD012840
:10178000F9D10D210E4800F034FE00BF40210C4875
:1017900000F062FD0128F9D10A21094800F029FE74
:1017A00000BF4021064800F057FD0128F9D1034849
:1017B00000780028CFD003F04DFB10BDA40000201E
:1017C0000038014010B50020194908702BE0522163
:1017D000184800F00EFE00BF4021164800F03CFD06
:1017E0000128F9D17121134800F003FE00BF402108
:1017F000104800F031FD0128F9D10D210D4800F00D
:10180000F8FD00BF40210B4800F026FD0128F9D16A
:101810000A21084800F0EDFD00BF4021054800F016
:101820001BFD0128F9D1024800780028CFD010BD57
:101830009900002000380140704710B500F002F810
:1018400010BD00000CB500200190009033480068E6
:1018500040F480303149086000BF3048006800F42F
:10186000003000900198401C0190009818B9019830
:10187000B0F5A06FF1D12948006800F4003010B134
:101880000120009001E0002000900098012843D141
:101890002348006840F010002149086008460068AD
:1018A00020F0030008600846006840F0020008606D
:1018B0001A48406819494860084640684860084628
:1018C000406840F4806048600846406820F47C101E
:1018D00048600846406840F4E810486008460068E0
:1018E00040F08070086000BF0C48006800F0007095
:1018F0000028F9D00948406820F0030007494860F3
:101900000846406840F00200486000BF0348406855
:1019100000F00C000828F9D10CBD000000100240B6
:1019200000200240042808D14FF0E021096941F06D
:1019300004014FF0E022116107E04FF0E021096956
:1019400021F004014FF0E022116170477047000060
:1019500010B51348006840F00100114908600846BE
:101960004068104908400E494860084600680E4922
:1019700008400B4908600846006820F48020086091
:101980000846406820F4FE0048604FF41F0088605D
:10199000FFF753FF4FF000600449086010BD0000DE
:1019A000001002400000FFF8FFFFF6FE08ED00E027
:1019B00010B50121880700F0DDF918B10121880771
:1019C00000F0C6F910BD7FB505460C46012108465A
:1019D000FFF79EFDADF80850ADF804400020ADF8CB
:1019E0000A00ADF8060001A94FF0804000F040FB6E
:1019F00001221146900700F0CEF91C208DF800005E
:101A000003208DF8010000208DF8020001208DF8E0
:101A100003006846FFF7E8FC0121880700F09BF906
:101A20007FBD000010B50121084800F0A3F958B1AE
:101A30000121064800F08CF90548006808B901202A
:101A400000E000200249086010BD000000040040D2
:101A50009401234230B589B005460C46012102208D
:101A6000FFF756FD012140F23D10FFF761FD012116
:101A70004148FFF7CBFB4FF47070ADF82000182001
:101A80008DF8230003208DF8220008A93B48FFF7BA
:101A900031FB4FF4F870ADF8200010208DF82300D2
:101AA00003208DF8220008A93548FFF723FB4FF4E7
:101AB0001060ADF8200010208DF8230003208DF871
:101AC000220008A92F48FFF715FB4FF48040ADF81E
:101AD000200010208DF8230003208DF8220008A993
:101AE0002948FFF707FBF020ADF8200010208DF803
:101AF000230003208DF8220008A92448FFF7FAFAF2
:101B0000ADF81850ADF814400020ADF81A00ADF84B
:101B1000160005A91E4800F0ABFA7020ADF80400CD
:101B20000120ADF806000020ADF80C0001A918480E
:101B300000F03AF901A9164800F08CF901A91448FF
:101B400000F0E8F901A9124800F03EFA0821104817
:101B500000F076F908210E4800F0CEF908210C4873
:101B600000F028FA08210A4800F06CFA0121084820
:101B700000F0F1F809B030BD000C1A00001001406F
:101B8000002001400008014000140140000C014009
:101B90000004004010B501210C4800F0EBF8A0B1A2
:101BA00001210A4800F0D4F809480078012804D13E
:101BB00008480068401C0749086007480168074852
:101BC0000078FEF73FFE0649087010BD000800408F
:101BD0006400002068000020700000206C000020DD
:101BE000740000207FB505460C4601210420FFF754
:101BF0008FFCADF80850ADF804400020ADF80A00A5
:101C0000ADF8060001A90D4800F032FA0122114694
:101C10000A4800F0C0F81E208DF8000001208DF861
:101C200001008DF802008DF803006846FFF7DCFB29
:101C30000021024800F08FF87FBD0000000800403E
:101C40003EB504460D4601210820FFF761FCADF8C2
:101C50000050ADF804400020ADF80600ADF80200D9
:101C60000121064800F068F86946044800F000FACF
:101C700000200249243108803EBD0000000C0040D5
:101C800010B501211C4800F075F818B101211A485F
:101C900000F05EF81948007878B9012017490870FB
:101CA00020211748FFF7FAFA472144F61F60FFF793
:101CB000C7FF0520134908701CE010480078012870
:101CC00018D11048007880B900200C4908700E49DE
:101CD000087005200B49087047213C20FFF7B0FF32
:101CE00020210748FFF7DCFA04E006480078401E90
:101CF0000449087010BD0000000C00408100002065
:101D000000080140820000208000002008B5012169
:101D10001020FFF70DFC4FF48060ADF8000010209C
:101D20008DF8030003208DF8020069460148FFF793
:101D3000E1F908BD0010014021B1028842F08002A3
:101D4000028004E002884FF67F731A4002807047D9
:101D5000CA430282704721B1028842F00102028028
:101D600004E002884FF6FE731A4002807047014675
:101D7000888C704730B50246002000230024158A65
:101D800005EA0103958905EA010413B10CB10120AC
:101D900000E0002030BD1AB183890B43838102E04B
:101DA00083898B438381704770B500240022002310
:101DB000058C4FF6FE7635400584028C8388048BB3
:101DC0004FF68F752C40B51E2C400D882C43751E88
:101DD0002A400D892A434D882A43144DA8420BD02E
:101DE000134DA84208D0134DA84205D0124DA84269
:101DF00002D0124DA84213D14FF6F7752A404D89F3
:101E00002A434FF6FB752A408D882A434FF6FF651B
:101E10002B404FF6FF552B408D892B43CD892B430B
:101E200083800483CD888586028470BD002C0140A8
:101E3000003401400040014000440140004801409E
:101E40000A460021018B4FF6F773194011430183B5
:101E50007047000070B5002400220023058C4FF667
:101E6000EF7635400584028C8388048B48F6FF7535
:101E70002C404FF6FF452C400D884FF6FF7606EAC2
:101E800005252C434FF6DF752A400D8906EA051516
:101E90002A434D8806EA05152A43154DA84202D06B
:101EA000144DA8421DD14FF67F752A404D894FF63B
:101EB000FF7606EA05152A434FF6BF752A408D883E
:101EC00006EA05152A434FF6FF352B404FF2FF7502
:101ED0002B408D8906EA85052B43CD8906EA8505C9
:101EE0002B4383800483CD880587028470BD000066
:101EF000002C0140003401400A460021018B4FF2C2
:101F0000FF7319404FF6FF7303EA0223194301835D
:101F10007047000070B5002400220023058C4FF6A6
:101F2000FF6635400584028C8388848B4FF68F755D
:101F30002C404FF6FC752C400D882C434FF6FF5576
:101F40002A400D894FF6FF7606EA05252A434D887B
:101F500006EA05252A43154DA84202D0144DA84291
:101F60001DD14FF2FF752A404D894FF6FF7606EAE4
:101F700005252A434FF6FF352A408D8806EA0525B8
:101F80002A434EF6FF752B404DF6FF752B408D8989
:101F900006EA05152B43CD8906EA05152B438380F8
:101FA0008483CD888587028470BD0000002C0140A9
:101FB000003401400A460021818B4FF6F773194027
:101FC000114381837047000070B500220023002474
:101FD000058C4EF6FF7635400584038C8488828B11
:101FE00048F6FF752A404FF6FF452A400D884FF608
:101FF000FF7606EA05252A434DF6FF752B400D892D
:1020000006EA05352B434D8806EA05352B430B4D73
:10201000A84202D00A4DA84208D14BF6FF752C40C9
:102020008D894FF6FF7606EA85152C4384808283DE
:10203000CD88A0F84050038470BD0000002C014002
:10204000003401400A460021818B4FF2FF73194092
:102050004FF6FF7303EA0223194381837047818699
:1020600070470187704781877047A0F8401070471C
:10207000002202881D4B98420ED01D4B98420BD077
:10208000B0F1804F08D01B4B984205D01A4B9842B4
:1020900002D01A4B984204D14FF68F731A404B88E6
:1020A0001A43174B984207D0164B984204D04FF66C
:1020B000FF431A40CB881A4302808B8883850B88A4
:1020C00003850A4B98420BD0094B984208D00E4B1F
:1020D000984205D00D4B984202D00D4B984201D149
:1020E0000B7A03860123838270470000002C014095
:1020F000003401400004004000080040000C004093
:102100000010004000140040004001400044014025
:102110000048014010B540F22551214800F0A9F8CF
:1021200010B31F4800F060F9C4B21E48008800F4E4
:102130000040C8B91B48008800F4804060B10A2CF8
:1021400003D000201749088020E01648008840F49A
:1021500000401449088019E00D2C06D11148008870
:1021600040F480400F49088010E00E480088C0F31A
:102170000D000D490C540B480088401C094908808B
:1021800008460088C72801DD00200880054800882F
:1021900000F40040B0F5004F01D101F045F810BD4A
:1021A00000380140B0000020E301002010B540F2EB
:1021B0002551204800F05DF810B31E4800F014F9D6
:1021C000C4B21D48008800F40040C8B91A4800880D
:1021D00000F4804060B10A2C03D00020164908802A
:1021E00020E01548008840F400401349088019E0B9
:1021F0000D2C06D11048008840F480400E4908801C
:1022000010E00D480088C0F30D000C490C540A483A
:102210000088401C0849088008460088C72801DD5E
:10222000002008800448008800F4004008B100F055
:1022300063FF10BD00440040B2000020AB0200204C
:1022400021B1828942F40052828104E082894DF6F4
:10225000FF731A408281704702460020B1F5007F6B
:1022600000D100BF13880B400BB1012000E000201B
:10227000704770B50246002400230025002040F678
:102280006A16B14200D100BFC1F3421501F01F032D
:10229000012606FA03F3012D02D19689334006E0A8
:1022A000022D02D1168A334001E0968A33400C1287
:1022B000012606FA04F41688344013B10CB101204B
:1022C00000E0002070BDF0B5034600240026002584
:1022D000002040F66A17B94200D100BF1846C1F38A
:1022E000421401F01F06012707FA06F5012C01D15F
:1022F0000C3004E0022C01D1103000E014301AB18F
:1023000007682F43076002E00768AF430760F0BD2E
:102310002DE9F04786B005460E460024A24600BFD0
:10232000A1460027B08900B100BF2F462C8A4CF689
:10233000FF700440F08804432C82AC894EF6F31001
:102340000440B08831890843718908430443AC8153
:10235000AC8A4FF6FF400440B0890443AC8201A828
:10236000FFF7F6F81F48874202D1DDF810A001E020
:10237000DDF80CA0A88900F4004040B10AEBCA00C7
:1023800000EB0A1031684900B0FBF1F807E00AEBF6
:10239000CA0000EB0A1031688900B0FBF1F8642034
:1023A000B8FBF0F004012009642101FB1089A88921
:1023B00000F4004040B1322000EBC900B0FBF1F066
:1023C00000F00700044308E0322000EB091064210C
:1023D000B0FBF1F000F00F0004432C8106B0BDE823
:1023E000F08700000038014001468888C0F30800EB
:1023F0007047C1F308028280704700BFFEE770B5E6
:1024000005460C4612E000BF80212846FFF724FF56
:102410000028F9D021782846FFF7EBFF00BF4021C4
:102420002846FFF719FF0028F9D1641C20780028FE
:10243000E9D170BD014600BF7047000010B50246EB
:1024400009B1022925D1002020E052F82030244C87
:1024500054F820402344B3F5167F07DD204B53F892
:102460002030C3F5167342F820300EE052F82030C9
:102470001B4C54F820402344962B06DA184B53F893
:102480002030C3F1960342F82030401C0428DCDBE6
:1024900024E0002020E052F82030114C54F8204075
:1024A0002344B3F5167F07DD0D4B53F82030C3F5F9
:1024B000167342F820300EE052F82030084C54F8E1
:1024C00020402344962B06DA054B53F82030C3F105
:1024D000960342F82030401C0428DCDB10BD0000CD
:1024E0009801002010B500202F4908702F4908607E
:1024F00019E02E4801682C480078FEF7F3F82C49C3
:1025000008700846007858B12A480068401C2949DC
:10251000086008460068032805DD0020086003E025
:10252000002024490860E4E700BF19E01F48016863
:102530001D480078FEF7D6F81D4908700846007857
:1025400058B91D480068401C1B49086008460068CF
:102550000A2805DD0020086003E000201649086015
:10256000E4E700BF1CE0114801680F480078FEF75F
:10257000B9F80F4908700846007870B10D48006836
:10258000401C0C49086008460068032808DD00204C
:102590000A4908700749086003E0002005490860FF
:1025A000E1E700BF10BD00006C00002070000020BB
:1025B00038000020340000203C0000202C000020C7
:1025C00010B548480078032190FBF1F0464951F8D6
:1025D00020004649097801EB4101C1F10701884219
:1025E0000FD040480078032190FBF1F03E4951F8AC
:1025F00020003E49097801EB4101C1F10801884200
:1026000004D101F05FFC00F0F9FB01E001F058FE9D
:1026100001F0F6F801203649086001F0E5FF0020DE
:10262000344908702F480078032190FBF1F02E49BF
:1026300051F820002D490978C1F1050188420DD0DB
:1026400028480078032190FBF1F0274951F8200039
:1026500026490978C1F10601884204D101F02EF91A
:1026600000F05CFC01E001F0F7F90120224908705C
:102670001E480078401C214908604FF07C51012021
:10268000FEF7B0F84FF07C510320FEF7ABF8FEF7F1
:1026900067F84FF4967000F093FD20E01848016849
:1026A00018480078FEF71EF81749087008460078A9
:1026B00090B916480068401C144908600846006834
:1026C00003280CDD14200749087001200849086020
:1026D00000200E49086003E000200C490860DDE797
:1026E00000BF10BD2C0000200800002000000020CA
:1026F00030000020400000206C000020700000200E
:102700000400002001000020380000203C000020D0
:1027100001F092FC10B546480078032190FBF1F0DF
:10272000444951F820004449097801EB4101C1F1C5
:10273000070188420FD03E480078032190FBF1F05A
:102740003C4951F820003C49097801EB4101C1F1B5
:10275000080188423BD13648007830B934480078C7
:1027600028B936480068012801D1FEF75FF800203B
:102770003349087033490860FEF726FB4FF4967022
:1027800000F01EFDFDF7ECFF1FE02E4801682C480D
:102790000078FDF7A7FF2C4908700846007888B933
:1027A0002A480068401C2949086008460068032838
:1027B0000BDD1F480078401C1D490870002023498C
:1027C000086003E0002021490860DEE72FE00120D7
:1027D0001B49087018480078C0F1030019490860C7
:1027E0004FF4FA7000F0ECFC1FE016480168144842
:1027F0000078FDF777FF144908700846007888B91B
:1028000012480068401C11490860084600680A2800
:102810000BDD07480078801C0549087000200B4933
:10282000086003E0002009490860DEE700BF10BD32
:102830002C000020080000200000002030000020B4
:102840006C00002070000020380000203C000020B8
:1028500010B557480078032190FBF1F0554951F825
:10286000200055490978C1F1050188420DD0504832
:102870000078032190FBF1F04E4951F820004E49B9
:102880000978C1F10601884231D1FDF7CFFF002060
:102890004A4908704A490860FEF796FA4FF4C87032
:1028A00000F08EFCFDF75CFF1FE0454801684348DF
:1028B0000078FDF717FF434908700846007888B98B
:1028C00041480068401C40490860084600680328E9
:1028D0000BDD37480078401C3549087000203A4924
:1028E000086003E0002038490860DEE75FE0374811
:1028F000007802282EDA0120304908702E4800782E
:10290000401C2F4908604FF4C87000F059FC1FE0CC
:102910002B48016829480078FDF7E4FE2949087032
:102920000846007888B928480068401C2649086095
:102930000846006803280BDD1D480078401E1C492E
:10294000087000202049086003E000201E4908604C
:10295000DEE72CE001201949087017480078C0F123
:102960000300174908604FF4C87000F029FC1CE010
:102970001348016811480078FDF7B4FE114908704A
:102980000846007888B910480068401C0E49086065
:1029900008460068032808DD05480078801C0449C3
:1029A000087000200849086000E0E1E700BF10BDA2
:1029B0002C00002008000020000000206C000020F7
:1029C00070000020380000203C0000204000002063
:1029D00010B501201449087014480078C0F10300B4
:1029E00013490860084601680F480078FDF77AFE31
:1029F000104908700846007888B10F480068401CEC
:102A00000D4908600846006803280BDD0B48007874
:102A1000401C0A49087000200749086002E00020B5
:102A20000549086010BD00006C0000200000002077
:102A30007000002038000020340000202C0000200E
:102A400010B52B480078022828DA0120294908709F
:102A500029480078401C2949086008460168254833
:102A60000078FDF73FFE264908700846007888B1D7
:102A700024480068401C2349086008460068032871
:102A800035DD21480078801E1F49087000201D494F
:102A900008602CE000201B49086028E0012015494F
:102AA000087015480078C0F1030014490860084612
:102AB000016810480078FDF715FE114908700846B6
:102AC000007888B10F480068401C0E49086008462D
:102AD000006803280BDD0C480078401C0A49087088
:102AE00000200849086002E000200649086010BD87
:102AF000400000206C00002000000020700000203A
:102B000038000020340000202C00002010B5B2480E
:102B10000078401E032190FBF1F0B04951F82000ED
:102B2000AF49097801EB4101C1F10701884210D09A
:102B3000A9480078401E032190FBF1F0A74951F805
:102B40002000A749097801EB4101C1F10801884241
:102B500002D1A448006808B39F480078401E0321B2
:102B600090FBF1F09D4951F820009D490978C1F191
:102B7000050188420ED098480078401E032190FB42
:102B8000F1F0964951F8200095490978C1F1060104
:102B900088427AD1934800680128FAD100209249EE
:102BA0000870924908608C480078401E032190FB11
:102BB000F1F08A4951F82000062820D08648007894
:102BC000401E032190FBF1F0844951F820000428B5
:102BD00015D081480078401E032190FBF1F07F4919
:102BE00051F8200002280AD07B480078401E0321BB
:102BF00090FBF1F0794951F82000082806D1FDF743
:102C0000C1FD00210846FDF7EDFD05E0FDF7BAFD29
:102C100000210846FDF7E6FDFDF7A2FD4FF4C87060
:102C200000F0CEFA4FF4167000F0CAFA4FF4487074
:102C300000F0C6FAFDF7FAFD67480078401E032150
:102C400090FBF1F0654951F82010654800780522A5
:102C5000A2EB400081420FD05F480078401E032164
:102C600090FBF1F05D4951F820105D480078072293
:102C7000A2EB4000814209D1022001F043FD5C48F3
:102C80000078401C5A49087008E04BE0042001F02D
:102C900039FD57480078401C554908704E48007867
:102CA000401E032190FBF1F04C4951F8200006280A
:102CB00020D049480078401E032190FBF1F047499D
:102CC00051F82000022815D043480078401E032107
:102CD00090FBF1F0414951F8200004280AD03E4809
:102CE0000078401E032190FBF1F03C4951F8200090
:102CF00008280BD138480078401E032190FBF1F0E2
:102D000036494FF0FF3241F8202063E03248007826
:102D1000401E032190FBF1F030496FF0010241F8B1
:102D2000202057E000210846FDF75CFD2A48007886
:102D3000401E032190FBF1F0284951F82000801C2F
:102D400020B900210220FDF74DFD03E00021022003
:102D5000FDF748FD0020244908700220234908603F
:102D600036E02248016820480078FDF7BBFC214985
:102D700008700846007840B31F480068401C1E4990
:102D8000086008460068032822DD13480078401ECA
:102D90001149087000201849086000210220FDF741
:102DA00021FDFDF743FD0C480078032190FBF1F075
:102DB0000A4951F82000801C18B9032001F0A2FC38
:102DC00002E0012001F09EFC03E000200A490860B7
:102DD000C7E700BF10BD00002C0000200800002045
:102DE00000000020300000206C0000207000002057
:102DF00040000020380000203400002010B50020E2
:102E00003E49087002203E4908603E48007820B9DB
:102E10003D490220FDF7E6FC03E03C490220FDF7B6
:102E2000E1FCFDF79DFC19E0354801683348007866
:102E3000FDF758FC3649087036480068401C354993
:102E400008603348007830B108460068032805DD83
:102E50000020086003E000202E490860E4E700BF7E
:102E600028480078022839D119E02548016823480C
:102E70000078FDF737FC2649087027480068401C99
:102E8000254908602248007830B9084600680528BE
:102E900005DD0020086003E000201F490860E4E72A
:102EA00000BF19E01648016814480078FDF71AFCC5
:102EB0001749087017480068401C164908601448F4
:102EC000007830B108460068032805DD002008605E
:102ED00003E000200F490860E4E70DE0FDF7A6FCE1
:102EE0004FF4AF610120FDF769FC4FF4AF610120A1
:102EF000FDF764FCFDF7A0FC10BD00006C00002095
:102F0000700000200000002000002040000080BF72
:102F100038000020340000203C00002010B50220C2
:102F20003A49086000203A490870FDF719FC19E099
:102F30003648016836480078FDF7D4FB35490870FB
:102F40000846007858B134480068401C324908608F
:102F500008460068032805DD0020086003E0002023
:102F60002D490860E4E700BF19E0284801682848B7
:102F70000078FDF7B7FB274908700846007858B974
:102F800026480068401C2549086008460068052856
:102F900005DD0020086003E0002020490860E4E728
:102FA00000BF2FE01948016819480078FDF79AFB27
:102FB000184908700846007808B317480068401C94
:102FC000154908600846006803281BDD00200860DA
:102FD000152013490870FDF729FC114800780321DA
:102FE00090FBF1F00F4951F82000801C18B9032024
:102FF00001F088FB02E0012001F084FB03E00020E7
:1030000005490860CEE700BF10BD00007000002039
:103010006C00002038000020340000203C0000201C
:103020002C0000200800002070B5314D2D7875BBB4
:1030300000201CE02F4D55F82050052D01D10146F0
:1030400013E02C4D55F82050062D01D102460CE01E
:10305000284D55F82050072D01D1034605E0254D98
:1030600055F82050082D00D10446451CE8B2082828
:10307000E0DB07251F4E46F82150082546F8225070
:10308000052546F82350062546F824502EE0FFE794
:1030900000201CE0174D55F82050012D01D10146AC
:1030A00013E0144D55F82050022D01D102460CE0DA
:1030B000104D55F82050032D01D1034605E00D4D6C
:1030C00055F82050042D00D10446451CE8B20828CC
:1030D000E0DB0325074E46F82150042546F8225030
:1030E000012546F82350022546F8245070BD000003
:1030F000000000200800002010B51B4B1B8803F4C3
:10310000004363B3184B1B88C3F30D02092A27D170
:10311000164B1B7A392B23D16423154C23700021C5
:1031200005E0124B5B5C134C63544B1CD9B29142CB
:10313000F7DB002011E0104B53F820305B1C53B13B
:103140000D4B53F820309B1C2BB10A4B1B5C303BC2
:10315000094C44F82030431CD8B20928EBDB02E0CC
:103160000023014C238010BDB2000020AB020020E0
:1031700075000020A80100200800002010B56FF0A5
:103180000400FEF7CFFB0A4800680A49B0FBF1F0E3
:10319000094908700846007800EB4001C1EBC010F7
:1031A0004FF6FF7101EAC0000449088010BD00001D
:1031B0004800002000127A008E00002090000020BD
:1031C0000146114A12884A434FF0E0235A61002217
:1031D0009A611A46126942F001021A6100BF4FF06B
:1031E000E022106900F001021AB100F48032002AD6
:1031F000F5D04FF0E022126922F001024FF0E023F7
:103200001A6100229A61704790000020002008E0B7
:103210000449096821B9401C642802DB002070477A
:103220000020F5E70C01224210B5FC480088C0F3ED
:103230000D00FB490880FB480078522874D00CDC54
:1032400047286ED004DC42286CD046286BD15FE161
:103250004C280BD05028F9D1C5E061287ED06328D6
:103260007DD065287CD07328F0D1FFE1ED4840780F
:10327000642840D10120EC4908702EE04C21EB4835
:10328000FFF7B7F800BF4021E848FEF7E5FF012847
:10329000F9D16421E548FFF7ACF800BF4021E348CD
:1032A000FEF7DAFF0128F9D10D21E048FFF7A1F878
:1032B00000BF4021DD48FEF7CFFF0128F9D10A21E8
:1032C000DA48FFF796F800BF4021D848FEF7C4FF60
:1032D0000128F9D10020D1490880D048008800F4A5
:1032E000004090B1CF4800784C280ED1CD484078AE
:1032F0006428C3D009E0CB484078722805D101206A
:10330000CB4908700020C5490880C648407863282A
:1033100005D10120C74908700020C049088015E286
:1033200002E044E16CE110E2BE484078642844D1F8
:103330000120C149087032E05221BC48FFF759F81A
:1033400000BF4021B948FEF787FF0128F9D1642169
:10335000B648FFF74EF800BF402102E03AE1ADE188
:1033600090E0B248FEF778FF0128F5D10D21AF4873
:10337000FFF73FF800BF4021AC48FEF76DFF012882
:10338000F9D10A21A948FFF734F800BF4021A74826
:10339000FEF762FF0128F9D10020A04908809F486C
:1033A000008800F40040E8B19E480078522819D106
:1033B0009C4840786428BFD014E09A48407872282E
:1033C00006D101209D49087000209449088009E039
:1033D00094484078632805D101209949087000205D
:1033E0008E490880B2E18F48407864283FD101209F
:1033F000944908702EE050218C48FEF7FAFF00BF78
:1034000040218A48FEF728FF0128F9D16421874826
:10341000FEF7EFFF00BF40218448FEF71DFF0128A3
:10342000F9D10D218148FEF7E4FF00BF40217F481C
:10343000FEF712FF0128F9D10A217C48FEF7D9FFD7
:1034400000BF40217948FEF707FF0128F9D100208D
:10345000724908807148008800F4004038B1714812
:103460000078502803D16F4840786428C3D06D4855
:103470004078722805D101207349087000206749FF
:10348000088063E1674840786E2840D165488078BD
:1034900064283CD101206D49087065216348FEF71E
:1034A000A8FF00BF40216148FEF7D6FE0128F9D1F0
:1034B0006E215E48FEF79DFF00BF40215B48FEF78E
:1034C000CBFE0128F9D164215848FEF792FF00BFD6
:1034D00040215648FEF7C0FE0128F9D10D2153487E
:1034E000FEF787FF00BF40215048FEF7B5FE0128D8
:1034F000F9D10A214D48FEF77CFF00BF40214B481F
:10350000FEF7AAFE0128F9D10020444908801DE1F8
:103510004448407864283FD101204D4908702EE08E
:1035200046214248FEF765FF00BF40213F48FEF7B5
:1035300093FE0128F9D164213C48FEF75AFF00BFF1
:1035400040213A48FEF788FE0128F9D10D2137487D
:10355000FEF74FFF00BF40213448FEF77DFE0128F3
:10356000F9D10A213148FEF744FF00BF40212F481E
:10357000FEF772FE0128F9D100202849088027486B
:10358000008800F4004038B126480078462803D16E
:10359000244840786428C3D022484078722805D156
:1035A00001202C49087000201C490880CEE01D48ED
:1035B000407820B91B4840782749087009E019482D
:1035C0004078722805D10120244908700020134951
:1035D0000880BBE0012222A12248FCF71DFE214900
:1035E0001248FEF70CFF40F60A511048FEF701FFA3
:1035F00000BF40210D48FEF72FFE0128F9D1A5E0BC
:1036000008484078722808D11748007810B901207E
:103610001549087000200149088097E0B00000209B
:10362000A8000020E30100209E0000200038014097
:1036300098000020A30000209F0000209900002097
:10364000A4000020A00000209A000020A20000207A
:10365000A10000209B000020970000209C0000207B
:1036600025640000B10100209D00002001203A499E
:10367000087019E073213948FEF7BBFE00BF4021F6
:103680003648FEF7E9FD0128F9D140F60A513348E2
:10369000FEF7AFFE00BF40213048FEF7DDFD0128F8
:1036A000F9D100202E4908802D48008800F4004000
:1036B00018B12C4800787328DCD047E029484078BE
:1036C0006C2841D12748807863283DD100202649C5
:1036D000087026490870264908702649087026494E
:1036E000087026490870264908701B490870632134
:1036F0001A48FEF77EFE00BF40211848FEF7ACFDD9
:103700000128F9D16C211548FEF773FE00BF402156
:103710001248FEF7A1FD0128F9D163210F48FEF7F9
:1037200068FE00BF40210D48FEF796FD0128F9D143
:1037300040F60A510948FEF75CFE00BF40210748E9
:10374000FEF78AFD0128F9D100E000BF00BF00208C
:103750000349088010BD0000A60000200038014089
:10376000B0000020E30100209B0000209800002012
:10377000990000209D000020A50000209A00002054
:103780009C0000202DE9F84F04460D46284621688C
:1037900002F006F905464FF08040216902F02AF850
:1037A0002946009002F0F2F88346616901F078FF43
:1037B0008246E16802F01EF880462169A06802F0A6
:1037C00019F800902846216902F0EAF883466168FA
:1037D00002F010F88246009901F062FF81464146EE
:1037E00001F05EFF07463946A06901F059FF064621
:1037F000206960612561A6613046BDE8F88F000050
:1038000010B501202849087028490860FCF7A8FF76
:10381000FCF7B8FF4FF040410120FCF7E3FF40F216
:10382000DC50FFF7CDFCFDF707F842F210710120E4
:10383000FDF748FBFDF700F84FF07C510120FCF745
:10384000D1FF052000F05EFF0020194908704FF4F9
:10385000FA61FDF737FBFCF7EFFF01201249087012
:10386000032012490860FCF77BFF19E00F4801684C
:103870000D480078FCF736FF0E49087008460078BE
:1038800058B10D480068401C0B49086008460068A4
:10389000052805DD0020086003E0002006490860D7
:1038A000E4E700BF10BD00006C00002070000020A5
:1038B00040000020380000203400002010B560488F
:1038C000007830B9FCF7B2FF4FF4AF610020FCF78D
:1038D00075FFFCF7B1FF00205A4908605A4908708B
:1038E0005A480078032190FBF1F0594951F8200023
:1038F00006281DD055480078032190FBF1F054496B
:1039000051F82000042813D050480078032190FB80
:10391000F1F04F4951F82000022809D04B480078B7
:10392000032190FBF1F04A4951F82000082804D106
:1039300000210846FCF756FF03E000210846FCF78B
:1039400051FFFCF70DFF4FF47A70FFF739FC4FF48D
:103950007A70FFF735FCFCF769FF3C4800780321DB
:1039600090FBF1F03A4951F82010354800780522D3
:10397000A2EB400081420ED034480078032190FB36
:10398000F1F0334951F820102D4800780722A2EBBE
:103990004000814208D1022000F0B4FE2D4800789A
:1039A000401C2C49087007E0042000F0ABFE2948B9
:1039B0000078401C2749087024480078032190FBB8
:1039C000F1F0234951F8200006281DD01F48007847
:1039D000032190FBF1F01E4951F82000022813D07A
:1039E0001A480078032190FBF1F0194951F82000A2
:1039F000042809D015480078032190FBF1F0144900
:103A000051F8200008280AD110480078032190FBC3
:103A1000F1F00F494FF0FF3241F8202009E00B4848
:103A20000078032190FBF1F009496FF0010241F8A1
:103A3000202000210846FCF7D5FEFCF7A3FE10BDB0
:103A400000000020700000206C0000202C000020EE
:103A5000080000204000002010B52B480078002806
:103A600050D1FCF7E3FE4FF4AF610120FCF7A6FE56
:103A7000FCF7E2FE02202549086000202449087076
:103A8000FCF76EFE4FF44870FFF79AFB19E01F48F1
:103A900001681F480078FCF725FE1E4908701E4883
:103AA0000068401C1C4908601A48007830B9084674
:103AB00000680A2805DD0020086003E000201649A0
:103AC0000860E4E700BF1BE0104801681048007878
:103AD000FCF708FE0F4908700846007868B10F48E7
:103AE0000068401C0D49086008460068052807DD8D
:103AF00000200860FCF79AFE03E0002007490860F8
:103B0000E2E700BF10BD00000000002070000020B0
:103B10006C000020380000203C0000203400002011
:103B2000FFF72CFBFDF75CF9FDF75EF9FDF7A6F951
:103B3000C820FFF745FB4FF4A060FDF78DFC4FF464
:103B4000165001F0C1F84FF4165001F00DF9FEF7D0
:103B5000DDF8472140F2CF70FEF744F840F2CF2164
:103B600042F20F70FDF72FFF03E0A448006A00B196
:103B700000E0FAE700BFA148006A012873D10020E5
:103B800000F032FD7BE0FCF7EBFD9D48007803215F
:103B900090FBF1F201FB120058B99A480068012825
:103BA00007D1FCF743FE4FF47A70FFF709FBFCF7EF
:103BB000D7FD934800787F2805D19248006810B956
:103BC000FEF790FC5BE08E480078152805D18D4803
:103BD000006810B9FEF7F4FC51E089480078152818
:103BE00005D188480068012801D1FEF791FD84487D
:103BF0000078032190FBF1F201FB120028B9814803
:103C0000006810B9FEF786FD39E07D480078032191
:103C100090FBF1F201FB120030B97A4800680128EC
:103C200002D1FEF715FE2AE075480078032190FBCB
:103C3000F1F201FB1200022805D17248006810B9A8
:103C4000FEF7C6FE1BE06E480078032190FBF1F200
:103C500001FB1200022807D16A480068012803D13D
:103C6000FEF7EEFE0BE00BE065480078032190FBC9
:103C7000F1F201FB1200012801D1FEF747FF82E7B4
:103C8000FFF7D2F9002000F0AFFCB6E0FCF768FDCA
:103C90005B4800787F2805D15A48006810B9FEF7C4
:103CA00021FCAAE056480078152855D155480068EF
:103CB00090BB53480078032190FBF1F04F4951F835
:103CC00020005149097801EB4101C1F10701884207
:103CD0000FD04B480078032190FBF1F0474951F891
:103CE00020004949097801EB4101C1F108018842EE
:103CF00003D100F0E7F8FFF781F84348007840BBB4
:103D000000204249086042490870FCF729FD4FF441
:103D10009670FFF755FA1AE01EE03C4801683C48EF
:103D20000078FCF7DFFC3B4908700846007858B182
:103D300039480068401C3849086008460068052872
:103D400005DD0020086003E0002033490860E4E757
:103D500000BFFEF735FC50E029480078152805D152
:103D600028480068012801D1FEF7D2FC24480078D9
:103D7000032190FBF1F201FB120028B921480068F1
:103D800010B9FEF7C7FC38E01D480078032190FB0E
:103D9000F1F201FB120030B91A480068012802D183
:103DA000FEF756FD29E016480078032190FBF1F25A
:103DB00001FB1200022805D11248006810B9FEF775
:103DC00007FE1AE00E480078032190FBF1F201FB98
:103DD0001200022806D10B480068012802D1FEF724
:103DE0002FFE0AE006480078032190FBF1F201FB68
:103DF0001200012801D1FEF789FE47E708000020E4
:103E00002C00002030000020000000207000002066
:103E10006C000020380000203400002010B5202164
:103E20002548FDF73BFA80212348FDF737FA10219A
:103E30002148FDF733FA4FF480711F48FDF72EFA41
:103E40004FF400611D48FDF729FA4FF480711B48BB
:103E5000FDF724FA4FF480411948FDF71FFA40217D
:103E60001548FDF71BFA6420FFF7AAF92021124834
:103E7000FDF716FA80211048FDF712FA10210E48BE
:103E8000FDF70EFA4FF480710B48FDF709FA4FF475
:103E900000610A48FDF704FA4FF480710748FDF706
:103EA000FFF94FF480410648FDF7FAF94021024836
:103EB000FDF7F6F910BD00000020014000080140A8
:103EC0000014014010B5002055490870554908609C
:103ED000FCF758FC54480078032190FBF1F053495B
:103EE00051F8200006281DD04F480078032190FB90
:103EF000F1F04E4951F82000042813D04A480078C8
:103F0000032190FBF1F0494951F82000022809D023
:103F100045480078032190FBF1F0444951F8200016
:103F2000082804D100210846FCF75CFC03E00021CE
:103F30000846FCF757FCFFF769F9FCF777FC3A48AD
:103F40000078032190FBF1F0384951F820103848EF
:103F500000780522A2EB400081420ED03248007862
:103F6000032190FBF1F0314951F8201030480078DE
:103F70000722A2EB4000814208D1022000F0C2FBE0
:103F80002C480078401C2B49087007E0042000F002
:103F9000B9FB28480078401C264908702248007860
:103FA000032190FBF1F0214951F8200006281DD093
:103FB0001D480078032190FBF1F01C4951F82000C6
:103FC000022813D018480078032190FBF1F017491C
:103FD00051F82000042809D013480078032190FBF1
:103FE000F1F0124951F8200008280AD10E48007853
:103FF000032190FBF1F00D494FF0FF3241F82020F2
:1040000009E009480078032190FBF1F007496FF0BF
:10401000010241F8202000210846FCF7E3FB10BD17
:104020006C000020700000202C0000200800002000
:1040300000000020400000201FB5002000900190EB
:10404000029003909648007802287DD19549086037
:1040500000209549087095490220FCF7C3FBFCF746
:1040600091FBFCF77DFB4FF42F70FFF7A9F819E0E7
:104070008C4801688C480078FCF734FB8C49087048
:104080000846007858B98B480068401C8949086088
:1040900008460068032805DD0020086003E00020D2
:1040A00084490860E4E700BF19E07E4801687E4863
:1040B0000078FCF717FB7E4908700846007858B175
:1040C0007D480068401C7C49086008460068032859
:1040D00005DD0020086003E0002077490860E4E780
:1040E00000BF4FF4C870FFF76BF819E06D48016826
:1040F0006D480078FCF7F6FA6D49087008460078BC
:1041000058B96C480068401C6A4908600846006855
:10411000032805DD0020086003E0002065490860F1
:10412000E4E700BF1DE05F4801685F480078FCF7E6
:10413000D9FA5F4908700846007878B15E4800688F
:10414000401C5D49086000E00DE008460068032857
:1041500007DD00200860FCF769FB03E000205649FA
:104160000860E0E74FE0FCF761FB4FF4AF6100202F
:10417000FCF724FBFCF760FB00204A4908604A4931
:104180000870FCF7EDFA4FF41670FFF719F819E014
:104190004448016844480078FCF7A4FA4449087090
:1041A0000846007858B943480068401C41490860F7
:1041B000084600680A2805DD0020086003E00020AA
:1041C0003C490860E4E700BF1BE036480168364818
:1041D0000078FCF787FA364908700846007868B11D
:1041E00035480068401C34490860084600680328C8
:1041F00007DD00200860FCF719FB03E000202E49D2
:104200000860E2E700BF01202649086026490870DF
:104210002A49FCF7E7FAFCF7A3FA4FF47A70FEF7A5
:10422000CFFF4FF47A70FEF7CBFFFCF7FFFA42F2B4
:1042300010710120FCF746FEFCF7FEFA062000F0A4
:1042400061FA69460320FCF745FA4FF47A70FEF7ED
:10425000B7FF4FF47A70FEF7B3FF4FF47A70FEF7B2
:10426000AFFF4FF47A70FEF7ABFF4FF47A70FEF7B2
:10427000A7FF4FF47A70FEF7A3FF4FF47A70FEF7B2
:104280009FFF4FF47A70FEF79BFF4FF47A70FEF7B2
:1042900097FFFCF7CBFA072000F034FA00BFFEE7E7
:1042A00000000020700000206C000020000080BF93
:1042B000380000203C000020340000200000C0BF77
:1042C00010B52E480078002857D1FCF7AFFA00202F
:1042D0002B4908602B4908704FF07E51FCF782FA99
:1042E000FCF73EFA4FF4C870FEF76AFF19E0244865
:1042F000016824480078FCF7F5F923490870234841
:104300000068401C214908601F48007830B9084601
:1043100000680A2805DD0020086003E000201B4932
:104320000860E4E700BF19E0154801681548007807
:10433000FCF7D8F9144908700846007858B11448B9
:104340000068401C1249086008460068052805DD21
:104350000020086003E000200D490860E4E700BF8A
:10436000FCF764FA00210846FCF73CFA4FF4AF6111
:104370000020FCF723FAFCF75FFA10BD00000020D4
:10438000700000206C000020380000203C0000205D
:1043900034000020002141608160C1600160016142
:1043A0004161816170470160704741608260C36014
:1043B00070470021016141618161704710B5044679
:1043C000002C44DD20214448FCF768FF802142484E
:1043D000FCF766FF10214048FCF762FF4FF4807144
:1043E0003D48FCF75BFF4FF400613C48FCF758FF89
:1043F0004FF480713948FCF751FF4FF48041384841
:10440000FCF74CFF40213448FCF74AFF3548006870
:10441000C0F57A7081B23448FDF721FE314840681A
:10442000C0F57A7081B23048FDF71BFE2D488068D8
:10443000C0F57A7081B22C48FDF715FE2948C06896
:10444000C0F57A7081B22848FDF70FFE43E0802165
:104450002148FCF723FF20211F48FCF721FF4FF4E0
:1044600080711D48FCF71CFF10211B48FCF716FF4C
:104470004FF480711948FCF713FF4FF4006117489F
:10448000FCF70CFF40211448FCF708FF4FF4804173
:104490001348FCF705FF13480068C0F57A7081B235
:1044A0001148FDF7DCFD0F484068C0F57A7081B215
:1044B0000D48FDF7D6FD0B488068C0F57A7081B2D3
:1044C0000948FDF7D0FD0748C068C0F57A7081B291
:1044D0000548FDF7CAFD10BD00200140000801405D
:1044E00000140140880100200004004010B504467B
:1044F000002C38DD80213848FCF7D0FE20213648DA
:10450000FCF7CEFE10213448FCF7CAFE4FF4807150
:104510003148FCF7C3FE4FF480713048FCF7C0FE11
:104520004FF400612D48FCF7B9FE4FF480412C4850
:10453000FCF7B4FE40212848FCF7B2FE40F2EE2121
:104540002848FDF78CFD40F2EE212648FDF789FD55
:1045500040F252312348FDF786FD40F2EE2121481A
:10456000FDF783FD37E020211B48FCF797FE8021F3
:104570001948FCF795FE4FF480711748FCF790FE40
:1045800010211548FCF78AFE4FF480711348FCF7A0
:1045900087FE4FF400611148FCF780FE40210E4871
:1045A000FCF77CFE4FF480410D48FCF779FE40F2A9
:1045B00052310C48FDF753FD40F2EE210948FDF75A
:1045C00050FD40F2EE210748FDF74DFD40F2EE218F
:1045D0000448FDF74AFD10BD0020014000080140DD
:1045E00000140140000400402DE9F0410546434815
:1045F0000078E0B9DDB900240EE0414850F824000D
:10460000072801D1264605E03D4850F82400082837
:1046100000D12746601CC4B2082CEEDBBE4203DA90
:10462000012000F06FF802E0032000F06BF833483F
:104630000078E8B9012D1BD100240EE0304850F875
:104640002400052801D1264605E02D4850F8240015
:10465000062800D12746601CC4B2082CEEDBBE42FF
:1046600003DD012000F04EF802E0032000F04AF8DC
:104670002248007802281CD1DDB900240EE0204831
:1046800050F82400012801D1264605E01C4850F8C6
:104690002400022800D12746601CC4B2082CEEDB9F
:1046A000BE4203DA012000F02DF802E0032000F002
:1046B00029F81248007802281DD1012D1BD10024B1
:1046C0000EE00F4850F82400032801D1264605E0EB
:1046D0000B4850F82400042800D12746601CC4B2BF
:1046E000082CEEDBBE4203DD012000F00BF802E0F7
:1046F000032000F007F8BDE8F08100000000002072
:104700000800002010B504460B2C1FD2DFE804F08F
:104710001E06090C0F1215181B1C1D00FCF726FEA7
:1047200015E0FCF7E7FD12E0FDF74CF80FE0FDF7B0
:104730000DF80CE0FCF7B0FE09E0FCF79FFC06E08A
:10474000FCF756FC03E002E001E000E000BF00BF20
:1047500010BD000070B505460C46284605EBD0712B
:104760004910A5EB410100297DD1012D66DA2021F8
:10477000CF48FCF795FD8021CD48FCF78FFD102137
:10478000CB48FCF78DFD4FF48071C948FCF786FDDE
:104790004FF40061C748FCF783FD4FF48071C548B2
:1047A000FCF77EFD606857280EDB4FF48041C2485D
:1047B000FCF774FD4021BE48FCF772FD4FF45C71BC
:1047C000BE48FDF752FC20E0606810F1570F0EDC88
:1047D0004FF48041B848FCF763FD4021B448FCF732
:1047E0005DFD4FF45C71B548FDF73FFC0DE040F214
:1047F0004C41B248FDF739FC4FF48041AE48FCF71C
:104800004FFD4021AA48FCF74BFD29462046FDF705
:1048100015FEAB48006822681044C0F57A7081B27A
:10482000A648FDF71CFCA648406862681044C0F525
:104830007A7081B2A148FDF714FC37E120219C4831
:10484000FCF72CFD80219A48FCF72AFD102198489E
:10485000FCF724FD4FF480719548FCF721FD4FF4DF
:104860008041954800E054E0FCF71AFD4021904853
:10487000FCF716FD606857280FDD4FF400618D4886
:10488000FCF70CFD4FF480718A48FCF709FD4FF4EA
:104890005C718A48FDF7E7FB22E0606810F1570F72
:1048A0000FDA4FF400618348FCF7FAFC4FF4807193
:1048B0008048FCF7F3FC4FF45C718048FDF7D3FBB4
:1048C0000EE040F25B417D48FDF7CDFB4FF4006107
:1048D0007848FCF7E5FC4FF480717648FCF7E0FC83
:1048E00029462046FDF7AAFD754800682268104455
:1048F000C0F57A7081B27148FDF7B1FB704840682D
:1049000062681044C0F57A7081B26C48FDF7A9FB6B
:10491000CCE0022D64DA4FF400616648FCF7BEFC7F
:104920004FF480716348FCF7BBFC4FF48041624850
:10493000FCF7B4FC40215E48FCF7B2FC10215C4857
:10494000FCF7AEFC4FF480715948FCF7A9FCE06815
:104950003C280DDD20215648FCF7A0FC802154485E
:10496000FCF79EFC40F275315448FDF778FB1EE0E1
:10497000E06810F13C0F0DDA20214D48FCF790FC67
:1049800080214B48FCF78AFC40F275314B48FDF71B
:1049900066FB0CE040F25B414848FDF760FB2021DC
:1049A0004348FCF77DFC80214148FCF779FC29460F
:1049B0002046FDF743FD42488068A2681044C0F5D8
:1049C0007A7081B23D48FDF74EFB3D48C068E26811
:1049D0001044C0F57A7081B23848FDF746FB65E0B7
:1049E0004FF400613348FCF75BFC4FF480713148B1
:1049F000FCF754FC4FF480412F48FCF751FC402158
:104A00002B48FCF74BFC20212948FCF749FC80216E
:104A10002748FCF745FCE0683C280EDD10212448BF
:104A2000FCF73CFC4FF480712148FCF739FC40F264
:104A300075312248FDF715FB20E0E06810F13C0FCE
:104A40000EDA4FF480711A48FCF728FC1021184840
:104A5000FCF726FC40F275311848FDF702FB0DE02B
:104A600040F25B411548FDF7FCFA10211048FCF7B5
:104A700015FC4FF480710E48FCF710FC29462046C7
:104A8000FDF7DCFC0E488068A2681044C0F57A701F
:104A900081B20A48FDF7E7FA0948C068E2681044A5
:104AA000C0F57A7081B20548FDF7DFFA70BD0000ED
:104AB00000200140000801400014014000040040B3
:104AC0009801002070B505460C4629462046FDF7A2
:104AD000B5FC284605EBD0714910A5EB4101002932
:104AE00074D1012D38DA20217248FCF7D9FB8021DE
:104AF0007048FCF7D3FB10216E48FCF7D1FB4FF454
:104B000080716C48FCF7CAFB6B480068226810444F
:104B1000C0F57A7081B26948FDF7A1FA664840682D
:104B200062681044C0F57A7081B26448FDF799FA62
:104B30004FF400616248FCF7B3FB4FF480716048AA
:104B4000FCF7AEFB4FF480415E48FCF7A9FB402127
:104B50005848FCF7A5FBACE020215648FCF79EFB2B
:104B600080215448FCF79CFB10215248FCF796FB2F
:104B70004FF480714F48FCF793FB4F480068226860
:104B80001044C0F57A7081B24C48FDF768FA4A4883
:104B9000406862681044C0F57A7081B24748FDF7FA
:104BA00060FA4FF400614648FCF77AFB4FF48071DD
:104BB0004348FCF775FB4FF480414248FCF770FB1B
:104BC00040213C48FCF76CFB73E0FFE7022D38DA2C
:104BD0004FF400613A48FCF761FB4FF480713848AC
:104BE000FCF75EFB4FF480413648FCF757FB402151
:104BF0003048FCF755FB30488068A2681044C0F587
:104C00007A7081B22D48FDF72EFA2B48C068E26811
:104C10001044C0F57A7081B22848FDF726FA1021B9
:104C20002448FCF73DFB4FF480712248FCF738FB29
:104C300020212048FCF734FB80211E48FCF730FB84
:104C400037E04FF400611E48FCF72AFB4FF48071F7
:104C50001B48FCF723FB4FF480411A48FCF720FB6C
:104C600040211448FCF71AFB13488068A2681044DE
:104C7000C0F57A7081B21148FDF7F5F90E48C068A9
:104C8000E2681044C0F57A7081B20C48FDF7EDF986
:104C900020210848FCF704FB80210648FCF700FBB4
:104CA00010210448FCF7FCFA4FF480710148FCF72E
:104CB000F7FA70BD00200140980100200004004078
:104CC000000801400014014010B586B004460121DF
:104CD00044F20400FCF72CFC4FF40070ADF8140013
:104CE00003208DF8160018208DF8170005A91C4820
:104CF000FCF700FA4FF48060ADF8140004208DF842
:104D0000170005A91648FCF7F5F925208DF80000D5
:104D100003208DF801008DF8020001208DF80300BA
:104D20006846FCF761FB01940020ADF80800ADF87F
:104D30000A00ADF80C00ADF810000C20ADF80E0024
:104D400001A90848FDF7E4FA012240F2255105487F
:104D5000FDF7B9FA01210348FDF772FA06B010BD5C
:104D6000000801400038014010B586B0044601211A
:104D70000420FCF7DDFB01214804FCF7C9FB0420FB
:104D8000ADF8140003208DF8160018208DF81700D8
:104D900005A91C48FCF7AEF90820ADF81400042062
:104DA0008DF8170005A91748FCF7A4F926208DF8FF
:104DB000000003208DF8010002208DF80200012080
:104DC0008DF803006846FCF70FFB01940020ADF856
:104DD0000800ADF80A00ADF80C00ADF810000C208A
:104DE000ADF80E0001A90848FDF792FA012240F241
:104DF00025510548FDF767FA01210348FDF720FA20
:104E000006B010BD000801400044004000200449E5
:104E1000087000BF024800780028FBD070470000EF
:104E2000A100002000200449087000BF024800785B
:104E30000028FBD0704700009E000020002004499D
:104E4000087000BF024800780028FBD070470000BF
:104E5000A000002000200449087000BF024800782C
:104E60000028FBD0704700009F00002021F0004286
:104E7000A2F16052B2F5801F01F0004328BFD2F1C9
:104E80007F6C0BD95FEA001C43EAC20242EB507010
:104E900018BF704728BF20F001007047B2F5801F8F
:104EA000BCBF184670474FEA410C1CF5001F02D2E8
:104EB000084600F066BD70B500F052FA00000089A7
:104EC000FFF7F6BF4FF00040A0F5800070470000EC
:104ED00010B591EA030F48BF83F0004300F1D2827E
:104EE000841A71EB030C05D2121943EB0C03001B5F
:104EF00061EB0C01DFF824E14FEA1154A4EB135CE1
:104F00001EEA430F18BF9EEA445F73D023EA0E03E4
:104F1000DCF1200E21EA045143F4801332D322FA4B
:104F20000CFE10EB0E0023FA0CFE41EB0E01CCF14F
:104F3000200E03FA0EFE10EB0E0051F10001B1F548
:104F4000801FCCF1200E32D201EB045112FA0EF286
:104F5000BDE8104058BF7047401C38BF5FEA4202AE
:104F600018BF7047002814BF20F0010041F1000174
:104F70004FEA410313F5001F38BF7047A1F1C0414C
:104F800000F03CBA012A43EB0302ACF1200CDCF147
:104F90001F0E32BF4FF0000E23FA0CF310EB03008C
:104FA00041EB0451B4EB115FD0D0A1EB045101F5FA
:104FB000801149085FEA300001EB04510ED350F133
:104FC000000038BF12FA0EFE08D1BDE81040C9E754
:104FD000401C38BF5FEA4202CAD1C3E7BDE81040B7
:104FE0004FEA410313F5001F38BF7047A1F1C041DC
:104FF00000F004BA9EEA445F08D011EA5E0FBDE8F3
:10500000104004BF01F0004100207047BDE810408F
:1050100070B500F0A5F900BF64FBBE3E0000E0FFE4
:10502000491058BFC1F140415B1058BFC3F1404324
:105030008B42EFF3008070472DE9C04130B4DFF8B8
:10504000A0C23CEA111418BF3CEA131400F0EC8033
:1050500081EA03051CEA111444EAD57418BF1CEA5E
:10506000131500F0C780A4EB05044FF0004545EA96
:10507000C12145EAC32341EA505143EA525304F1A6
:105080007F74994204F500344FEAC0204FEAC222EF
:1050900008BF904200F09C804FEA13650FF2401663
:1050A000765D4FEA134506FB05F7C7F1807706FBEF
:1050B00007F74FEAD737A7FB03687642C8F5803871
:1050C000A7FB06CE38BFA8F1010807FB08E64FF0A2
:1050D000000EA6FB028CE6FB03CEDCF1000CCEF149
:1050E000004E38BFAEF1010EA6FB0C584FF0000782
:1050F0004FF00005E6FB0E87A1FB08C6A0FB07CE1C
:1051000016EB0E0645F10005E1FB076515F1E04ED3
:105110007EBFA4F580345FEA46066D4116F1800734
:1051200045F100054FEA17274FEA066647EA05678B
:10513000A6F1DE46B6F1805F4FEA15251FD9384645
:1051400024F0010C05EBC471BCF1FE6F01EB0C11F6
:1051500002D8F0BCBDE8008124425CBF01F5801E8E
:105160009EEAC47F02D4F0BCBDE80081244238D45A
:10517000F0BCA1F1C041BDE8004100F03FB94FEAE9
:10518000D22242EA43524FEAD323A7FB02864FEAD8
:10519000D02040EA415007FB03661EEA0E0F4FEA9B
:1051A000D12105FB026658BFA6EB0056B6EB0056B0
:1051B0004FEA520E4EEAC37E18EB0E0E56EB530E1C
:1051C000BDD518EB02085E417F1C55F10005B6E71E
:1051D0004FF480154FF000074FF000064FF0000825
:1051E000ADE7F0BC4FF0000001F1C04101F000411B
:1051F000BDE8008111EA0C1F0CEA131500D00CE089
:1052000013EA0C1F00F025804FF00000F0BC81EA8B
:10521000030101F00041BDE80081F0BCBDE80041A0
:1052200081EA030100F0EAB8F0BCBDE8004170B5C6
:1052300000F096F8097EFC3E00F007B881EA030111
:105240004FF0000001F00041704781EA030100F0D7
:10525000D5B8F0BCBDE800414FF0000021497047CF
:10526000FFFDFBF9F7F5F4F2F0EEEDEBE9E8E6E42B
:10527000E3E1E0DEDDDBDAD8D7D5D4D3D1D0CFCDB2
:10528000CCCBCAC8C7C6C5C4C2C1C0BFBEBDBCBBEB
:10529000BAB9B8B7B6B5B4B3B2B1B0AFAEADACABE6
:1052A000AAA9A8A8A7A6A5A4A3A3A2A1A09F9F9EC0
:1052B0009D9C9C9B9A999998979796959594939372
:1052C000929191908F8F8E8E8D8C8C8B8B8A898909
:1052D000888887878685858484838382828181808C
:1052E0000000FF070000F87F51EA030C17D41CF5FB
:1052F000801F58BFBCF5801F00F10680994218BF7F
:10530000704708BF9042704707D711F5801F58BFFC
:1053100013F5801F19D499427047894270471CF5D4
:10532000801F08D5BCF5801FF7D58B4218BF70478A
:1053300008BF824270474FF4001C1CEB410F38BF7E
:105340001CEB430F01D28B42704770B500F008F898
:10535000922449004FF000514FF08053FFF760BE98
:105360000EF1020E2EF0030E5EF8046B364205D4E9
:10537000012A43EB030515F5001F12D8012841EB64
:10538000010C1CF5001F0CD80ED14FEAD17C15F58D
:10539000001F0CEB4C0C0CF1020C08BF4CEBD37C47
:1053A00004E04FF0080C01E04FEAD37C0CEB4C0515
:1053B00026FA05F606F00706B6F1040C06D20EEB47
:1053C000860CBDE870404CF0010C6047DFE80CF043
:1053D000090B02024FF000414FF00000A1F500213F
:1053E00070BD19461046012851EB010418BFD4F5D1
:1053F000001484BF002001F0004170BD0808A0F532
:1054000000114FEA3101704753EA010C17D41CF523
:10541000801F58BFBCF5801F00F106808B4218BF6B
:10542000704708BF8242704707D713F5801F58BFE7
:1054300011F5801F19D48B4270479B4270471CF5B1
:10544000801F08D5BCF5801FF7D5994218BF70475B
:1054500008BF904270474FF4001C1CEB430F38BF4D
:105460001CEB410F01D2994270470FB40CBC03BC36
:10547000FFF76BBF10B591EA030F48BF83F00043FD
:105480003FF52EAD841A71EB030C07D212198CF084
:10549000004C43EB0C03001B61EB0C01DFF8A4E1B3
:1054A0004FEA1154A4EB135C1EEA430F18BF9EEAA7
:1054B000445F00F0B08023EA6E03524221EA0451B7
:1054C000C3EB6E0338BF5B1EDCF1200E25D322FA3E
:1054D0000CFE10EB0E0043FA0CFE41EB0E01CCF17A
:1054E000200E03FA0EFE10EB0E0051F10001CCF17C
:1054F000200E29D412FA0EF201EB0451BDE810403F
:1055000058BF7047401C1CBFB2F1004F70470028C5
:105510000CBF491C20F00100704712EB020E43EB58
:10552000030218BF4FF0010E4EEA4202ACF1200C0C
:10553000DCF11E0E54D943FA0CFE10EB0E0051F1B3
:10554000FF31CCF11E0ED5D50EF1010E12FA0EFE72
:10555000404141EB010101EB445C5FEA5C5C10D926
:1055600010EBDE7001EB045138BFBEF1004FBDE817
:10557000104018BF704700280CBF491C20F00100E4
:10558000704730D24FEAD42C11F5001124F4006496
:105590001BD0B1FA81F20B3AA41AA41ED2F1200357
:1055A000914030FA03F31943904001EBCC71002C89
:1055B00001EB0451BDE81040A8BF704701F1C041A4
:1055C0004FF0000001F000417047B0FA80F310FA8C
:1055D00003F100D110BDE41A173C4805C90AE4E7FD
:1055E00001EB045110BD491001EB0451BDE810401E
:1055F0004FEA300002E04FF0000170474A0008BF58
:105600000042F8D0B2F5001F28BF704701F00041FA
:105610004FF0000070479EEA445F07D011EA5E0F2A
:10562000BDE8104004BF002100207047BDE81040D5
:1056300070B5FFF795FE00BF40DFF63E83F00041F6
:10564000104670470000E0FF43004FEAD30C4FEADA
:105650003C0C43401FBF40070CF1605113F0FE4F5C
:1056600070471CF0006F03D100200CF00041704720
:105670000CF0004343EA507010B540EACC0000F053
:105680003AF900BF000000924FEA0001FFF7B6BEF2
:105690004FF000414FF00000A1F5002170470000DD
:1056A00090EA010F48BF81F0004100F18081421A69
:1056B0003CBF801A89184FEAD0524FF07F4C1CEA49
:1056C000410FA2EBD15318BF9CEA026F00F03B8060
:1056D0004FF0004C4CEA00204CEA012121FA03FC77
:1056E00010EB0C0C1ED202F1FF325FEA1C2040EBE3
:1056F000C25038BF70471CF07F0F4FEA400C18BFF4
:10570000BCF17F4F38BF7047C3F12003994008BFF9
:1057100020F00100BCF17F4F38BF7047A0F1C040BE
:1057200000F02FB94FEA3C00000A40EBC25028BFFE
:105730001CF0FF0F4FEA400CE6D018BFBCF17F4FC2
:1057400038BF7047EAE79CEA026F05D010EA5C0FA9
:1057500008BF00F00040704710B500F0CCF800BF63
:1057600064FBBE3E41000B0ED3F19E0208D950F4FB
:1057700000034FEA032323FA02F048BF4042704778
:1057800010B500F0B8F800BF49922480002070479F
:105790006FF0004282EA20007047000010F00041E4
:1057A00048BF4042B0FA80F310FA03F2C3F19D0300
:1057B0000BD051EAC35101EB1220530638BF70479A
:1057C00000F1010008BF20F001007047B0FA80F33B
:1057D00010FA03F2C3F19D030AD0D90501EB1220A0
:1057E000530638BF704700F1010008BF20F00100E8
:1057F000704700004FF47F0C1CEAD0121EBF1CEA59
:10580000D11392EA0C0F93EA0C0F00F0478090EA54
:10581000010F48BF42F480724FF0004C4CEA002068
:105820004CEA012102EB0302A0FB0113A2F50002E6
:10583000002918BF43F001035B0028BF4FEA330380
:1058400042EB22425FEA132C4CEBC2502EBFBCEB62
:10585000436FB2F57C0F70474FEA036CBCF1004F09
:1058600008BF20F00100B2F57C0F38BF70470BD5A0
:1058700082F0FF0212F5803FC8BF704700F1C040C0
:10588000D8BF00F00040704700F5000C5FEA4C0CF8
:1058900048BF7047B0F1C04000F073B890EA010F04
:1058A0000CEAD11348BF42F48072624538BF6345A9
:1058B00004D280EA010000F00040704710B500F00B
:1058C0001AF800BF8900013E00F007B800F009B8DF
:1058D0005FEA410C5FEA1C6C08D080EA010000F02E
:1058E00050B85FEA400C5FEA1C6CF6D14FF0004004
:1058F000A0F5800070470EF1020E2EF0030E5EF848
:10590000044B244204D44FEA4102B2F17F4F11D834
:105910004FEA4003B3F17F4F0CD80ED14FEAD07C51
:10592000B2F17F4F0CEB4C0C0CF1020C08BF4CEBAE
:10593000D17C04E04FF0080C01E04FEAD17C0CEB85
:105940004C0324FA03F404F00704B4F1040C06D267
:105950000EEB840CBDE810404CF0010C6047DFE812
:105960000CF0070802024FF00040A0F5800010BDC7
:105970000846420018BFD2F1807288BF00F0004094
:1059800010BDFF2141EAD050C005704780F00040B3
:1059900090EA010F7FF58BAE81F0004100F007B86F
:1059A00090EA010F48BF81F000413FF580AE421AF6
:1059B00004D882F00042A0EB020011444FEAD0521A
:1059C0004FF07F4C1CEA410FA2EBD15318BF9CEA69
:1059D000026F4AD04FF0004C4CEA00204CEA012103
:1059E00021FA03FCB0EB0C0C0FD412F0FE0F36D0F2
:1059F0005FEA4C001DD5001240EBC25038BF704723
:105A00001CF03F0F18BF70470BE0A2F101025FEAE4
:105A10001C2040EBC25038BF70471CF07F0F18BFEE
:105A20007047C3F12003994014BF401E20F00100CD
:105A3000704780084FEA122308BF7047B0FA80FC15
:105A4000A2EB0C02CCF1280C60FA0CF093EA122FB6
:105A500004BF00EBC25070474FEAC3707047130A8F
:105A60005FEADC1008BF7047F6E79CEA026F04D0DB
:105A700010EA5C0F08BF0020704710B5FFF73BFF2E
:105A800040DFF63E81F0004070470000AC5A00084D
:105A900000000020C80000006C010008745B0008D2
:105AA000C800002010090000880100080200000062
:105AB00000000000070000000800000005000000D2
:105AC00006000000010000000200000003000000CA
:105AD00004000000010000007F0000000000000042
