:020000040800F2
:10000000D8090020D5010008D1130008DD1200082E
:10001000CD1300087D040008B7230008000000008D
:10002000000000000000000000000000111800089F
:10003000370E000800000000811400082519000890
:10004000EF010008EF010008EF010008EF010008D0
:10005000EF010008EF010008EF010008EF010008C0
:10006000EF010008EF010008390E0008EF01000859
:10007000EF010008EF010008EF010008EF010008A0
:10008000EF010008EF010008EF010008EF01000890
:10009000EF010008EF010008EF010008EF01000880
:1000A000EF010008EF010008EF010008EF01000870
:1000B00089190008FD1900082D1B0008EF01000830
:1000C000EF010008EF010008EF010008EF01000850
:1000D000EF010008D120000869210008EF010008A5
:1000E000EF010008EF010008EF010008EF01000830
:1000F000EF010008EF010008EF010008EF01000820
:10010000EF010008EF010008191C0008EF010008CA
:10011000EF010008EF010008EF010008EF010008FF
:10012000EF010008EF010008EF010008EF010008EF
:1001300000F002F800F03FF80AA090E8000C8244BA
:100140008344AAF10107DA4501D100F034F8AFF297
:10015000090EBAE80F0013F0010F18BFFB1A43F0A5
:1001600001031847C0440000E0440000103A24BFD7
:1001700078C878C1FAD8520724BF30C830C144BF0C
:1001800004680C607047000000230024002500264E
:10019000103A28BF78C1FBD8520728BF30C148BFEA
:1001A0000B607047642900F07F80002070471FB506
:1001B0001FBD10B510BD00F02EF91146FFF7F7FF77
:1001C00002F00DFE00F04CF903B4FFF7F2FF03BCA0
:1001D00002F00EF90948804709480047FEE7FEE7AC
:1001E000FEE7FEE7FEE7FEE7FEE7FEE7FEE7FEE7E7
:1001F00004480549054A064B7047000029190008C4
:1002000031010008D8030020D8090020D8050020BB
:10021000D8050020704700000FB41CB5074B06AA94
:100220007B4469460090059800F0DDF8002069469F
:1002300000F0ECF81CBC5DF814FB0000E9010000C4
:100240002DE9F0410E460446002020622046E16878
:10025000884730B3252805D0D4E901219047206A8A
:10026000401CF2E7E168204600278847050018D0C7
:10027000A5F14100192802D820354FF40067324615
:10028000294620462760FFF78DFF40B1012804D0A2
:10029000F61D26F007060836D8E7361DD6E72846AD
:1002A000DAE7206ABDE8F0812DE9F0410646002436
:1002B00010687529314616A510D0AFF300800028CC
:1002C00002DA404213A507E031688A0701D512A57A
:1002D00002E0490704D511A5012401E0AFF3008035
:1002E00000210A2206F1240709E0B0FBF2FCB0FB72
:1002F000F2F302FB1C00303078541846491C0028E9
:10030000F3D123462A463046BDE8F04100F00CB850
:10031000000000002D0000002B0000002000000065
:1003200070477047704770472DE9F0470D46994672
:100330009246044600F124080168880604D5E06965
:1003400021F01001216000E00120A84201DD471BDF
:1003500000E00027A1697A1902EB0900081AA061E0
:100360002078C00602D42046AFF30080002608E0C3
:10037000D4E901211AF806009047206A401C761C37
:1003800020624E45F4DB2078C0060AD52046AFF344
:10039000008006E0D4E9012130209047206A401C0B
:1003A0002062381EA7F10107F4DC07E0D4E901213F
:1003B00018F805009047206A401C2062281EA5F10D
:1003C0000105F3DC2046AFF300802078000602D55B
:1003D0000220BDE8F0870120FBE7000001694A1C0C
:1003E00002610878704700B58FB0CDE90131002176
:1003F000059105497944CDE9031011466846FFF798
:100400001FFF0FB000BD0000E5FFFFFF0A6802F804
:10041000010B0A607047754600F02CF8AE460500E7
:100420006946534620F00700854618B020B5FFF70F
:10043000DFFEBDE820404FF000064FF000074FF010
:1004400000084FF0000B21F00701AC46ACE8C009F2
:10045000ACE8C009ACE8C009ACE8C0098D467047FB
:1004600010B50446AFF300802046BDE81040FFF70A
:10047000ABBE0000004870477803002000BFFEE7D5
:100480002DE9F04F91B004468B46154600201090A0
:1004900080460F90814682460E900D900C9025B9B3
:1004A00008200E9004200C900DE0012D04D10820AE
:1004B0000E9004200C9006E0022D02D103200E9035
:1004C00001E004200E90002623E0771C1BF80600B4
:1004D00001281DD106E01BF80700012801D17F1C6F
:1004E00000E002E00E988742F5DB00BFB81BC0B207
:1004F0000F900F9840450BDD06F0FF09781E00F0C5
:10050000FF0AB8F1000F01D001200D90DDF83C800A
:100510003E460E988642D8DBC4F800A0C4F804908A
:10052000C4F80880012D18D10AEB090003F002FF7E
:10053000059003F055FE0022AB07CDE9060103F05C
:100540004DFA0022514BCDE9080103F05FFDCDE9E2
:100550000A0103F05DF9E06048E0022D18D10AEBD2
:10056000090003F0E7FE059003F03AFE00226B0756
:10057000CDE9060103F032FA0022454BCDE908012E
:1005800003F044FDCDE90A0103F042F9E0602DE0FB
:100590000E9803F0E7FE019003F022FE00224FF0D8
:1005A0008043CDE9020103F019FA0022394BCDE96D
:1005B000040103F02BFDCDE908010AEB090003F06B
:1005C000B9FE039003F00CFE00224FF08043CDE90A
:1005D000040103F003FACDE90601DDE9082303F085
:1005E00015FDCDE90A0103F013F9E0600020207445
:1005F0000DB1012D3BD1012D03D14FF07E500B9059
:1006000001E025480B90A1680C98814204DC607CD5
:1006100050B3A068032827DB01202074E06803F0B2
:10062000DFFD00221B4BCDE9080103F0ADFC08D82B
:10063000606803F07FFE0A900B9903F0FDFDE06017
:1006400014E0E06803F0CCFD0022144BCDE9080172
:1006500003F060FB0AD8206803F06CFE0A900B9947
:1006600003F06AFFE06001E00020207400BFB8F1F1
:10067000000F02D00D98012802D10120A07401E0E2
:100680000020A07411B0BDE8F08F000000000C4005
:100690000000F83F0000E03F9A99193F0000E0BFDA
:1006A00038B504460D46002000900DB1022D20D132
:1006B00064B901208DF80000684600F0A9FF1548D4
:1006C000007C08B1012038BD0020FCE7022C1FD1BE
:1006D00001208DF802008DF803008DF800006846B7
:1006E00000F096FF0B48007C08B10120EBE70020EA
:1006F000E9E7012C0CD101208DF80100684600F0DB
:1007000087FF0548007C08B10120DCE70020DAE71C
:100710000020D8E7EC0000200001002010B500F018
:100720000FF80121014801F0F4FA10BD0008004063
:1007300010B50021014801F0ECFA10BD000800409E
:1007400010B5084802F015FC074802F012FC0748F3
:1007500002F00FFC064802F00CFC0020054908607E
:1007600010BD00003C010020580100209001002035
:10077000740100205C00002070B504460D4624B9C9
:1007800029460B4802F0EFFB11E0012C04D1294669
:10079000084802F0E8FB0AE0022C04D1294606488A
:1007A00002F0E1FB03E02946044802F0DCFB70BDE7
:1007B0003C0100207401002058010020900100201D
:1007C00010B5FFF7B5FF02F097FB10BD2DE9F04F14
:1007D00089B0824689460024002005900690079043
:1007E00008900490B9F1000F02D0B9F1020F71D155
:1007F000BAF1000F6FD101208DF8100004A800F0AD
:1008000007FFB9F1000F4CD1FE48807CA8B3FE4829
:100810000068401CFC4908600846006803280CDC9E
:10082000FA48016902F09EFA0646F94903F0AEFD66
:10083000054603F063FD04467DE0F34800680328A5
:1008400011DDF448006800280DDDF0484168F248E9
:1008500003F09CFD0646EE4903F098FD054603F0C3
:100860004DFD044667E0E9484168EC4803F08EFD21
:10087000054603F043FD04465DE0FFE7E148C1683B
:10088000E24802F06FFA0646E14903F07FFD0546B3
:1008900003F034FD04460020DB490860DD480460B5
:1008A00049E0D848807C98B3D7480068401CD649B6
:1008B00008600846006803280EDCD948016902F088
:1008C00051FA0646D24903F061FD054603F016FDD4
:1008D000044630E05EE13EE0CB48006803280DDDD1
:1008E000CC480068002809DDCD484168CD4803F0B8
:1008F0004DFD054603F002FD04461CE0C848416872
:10090000C64803F043FD054603F0F8FC044612E038
:10091000FFE7BC48C168C24802F024FA0646BC4959
:1009200003F034FD054603F0E9FC04460020B64917
:100930000860B848046060420590069405A94846DE
:1009400002F044FBAF48007C18B1012009B0BDE8BB
:10095000F08F0020FAE7BAF1020F7CD101208DF868
:1009600012008DF813008DF8100004A800F050FE5E
:10097000B9F1000F70D14FF0000BBBF1000F7BD12C
:10098000A948807C28B3A948807C10B39E480068A1
:10099000401C9D4908600846006803280CDC9B4801
:1009A000016902F0DFF90646A14903F0EFFC0546B4
:1009B00003F0A4FC04465FE093480068032805DDCB
:1009C00094480068002801DDED2455E06FF0EC0448
:1009D00052E09548807C90B19448C1688B4802F001
:1009E000C1F90646924903F0D1FC054603F086FCA6
:1009F0000446884804600020834908603CE08B4836
:100A0000807C90B18848C168804802F0ABF9064606
:100A1000874903F0BBFC054603F070FC04467D48A3
:100A2000046000207849086026E0804AD1687E4A48
:100A3000D06803F001FC009003F0D2FB07460022CF
:100A40004FF0804302F0CAFF054602F0E1FE014686
:100A500001906E4801E010E10FE002F083F9744963
:100A6000029003F093FC039003F048FC04466948AD
:100A700004600020644908607EE04FF0000BBBF189
:100A8000000F78D16848807C28B36848807C10B318
:100A90005D480068401C5C490860084600680328FF
:100AA0000CDC5F48016902F05DF90646604903F01D
:100AB0006DFC054603F022FC04465CE052480068E9
:100AC000032805DD53480068002801DDED2452E0CD
:100AD0006FF0EC044FE05448807C90B15348C168FB
:100AE0004F4802F03FF90646514903F04FFC0546D6
:100AF00003F004FC044647480460002042490860B3
:100B000039E04A48807C90B14748C168444802F0C7
:100B100029F90646464903F039FC054603F0EEFB89
:100B200004463C48046000203749086023E03F4AFF
:100B3000D1683D4AD06803F07FFB009003F050FB82
:100B4000074600224FF0804302F048FF054602F0BE
:100B50005FFE01460190324802F004F934490290E8
:100B600003F014FC039003F0C9FB04462948046019
:100B700000202549086000BF60420590069405A941
:100B8000484602F023FA1F48007C08B10120DDE648
:100B90000020DBE6BAF1010F6FD101208DF81100C2
:100BA00004A800F035FDB9F1010F68D12148807C1F
:100BB00030B315480068401C1349086008460068B7
:100BC00003280CDC1C48016902F0CCF806461049E9
:100BD00003F0DCFB054603F091FB044697E00A486E
:100BE000006803282CDD0B480068002828DD124827
:100BF00041680C4803F0CAFB054603F07FFB1DE08B
:100C000028E00000EC000020600000203C010020F3
:100C10000000B4425C00002000004040000087C398
:100C20005801002000008743140100202801002003
:100C30000000BE420001002074010020044666E06E
:100C40003B4841683B4803F0A1FB054603F056FBD7
:100C500004465CE03848C168354802F083F806462F
:100C6000364903F093FB054603F048FB0446002099
:100C7000334908603348046049E056E0FFE72E48F6
:100C8000807C88B32E480068401C2D4908600846C7
:100C9000006803280CDC2C48016902F063F8064662
:100CA000264903F073FB054603F028FB04462EE0BB
:100CB0002348006803280DDD22480068002809DD6C
:100CC00021484168214803F061FB054603F016FB0B
:100CD00004461CE01C484168164803F057FB0546D3
:100CE00003F00CFB044612E0FFE71348C168164806
:100CF00002F038F80646114903F048FB054603F0B8
:100D0000FDFA044600200E4908600E48046008946D
:100D10006042079005A9484602F058F90648007C51
:100D200008B1012012E6002010E600200EE60000C7
:100D300074010020000087C3000100200000B442BD
:100D4000600000205C00002090010020000087432C
:100D500010B500F09DFA10BD10B51C4802F0FAF86D
:100D60001B4802F0F7F81B4802F0F4F81A4802F0AA
:100D7000F1F80021154802F0F6F80021144802F0BD
:100D8000F2F81649144802F0EEF81449114802F03E
:100D9000EAF8134B00224FF07C510C4802F0E5F8C2
:100DA0000F4B00224FF07C51094802F0DEF80D4B4A
:100DB00000224FF07C51084802F0D7F80A4B00227D
:100DC0000A49044802F0D1F810BD00003C0100209F
:100DD0005801002074010020900100209A99993E4A
:100DE000CDCCCC3EB81E053EEC51383E3333333FBC
:100DF00010B500214FF47A7000F018FEFFF7E0FC08
:100E000040F2EE231A461946184600F02FFB4FF425
:100E10002F731A461946184600F01EFB10BD1FB569
:100E200004460020009001900290039069462046FD
:100E300002F0D4FA1FBD704710B5102000F050F832
:100E4000002837D01C480068F0B91C48007870B3FF
:100E50001B4800F06AFF0446002018490870194832
:100E60000078C0F1050040F27121484304EB4010C6
:100E700015490968401A1549086000201149087091
:100E800001201349087012E00D4824300488052021
:100E90000C49087000200A492431088001200749C4
:100EA0000870074800F041FF0749086000BF1020A4
:100EB00000F010F810BD000010012142A400002035
:100EC000000C0040A6000020A00000209C00002094
:100ED000B000002001490860704700001404014080
:100EE000014600200022074B1B6803EA0102054B64
:100EF00014331B680B4013B10AB1012000E000203D
:100F00007047000000040140002123498279002A33
:100F10003AD00A46126803689A430B461A600A1DC3
:100F2000126803689A430B1D1A60027911440A681B
:100F300003681A430A60184A0832126803689A4321
:100F4000154B08331A601A1D126803689A43124B36
:100F50000C331A604279102A0ED11A1F12680368E6
:100F60001A430D4B08331A601A1D126803681A439E
:100F7000094B0C331A600DE00749427911440A68A5
:100F800003681A430A6005E0027911440A6803689D
:100F90009A430A60704700000004014010B5002029
:100FA0001F49087036E065211E4801F000FA00BFB5
:100FB00040211C4801F02EF90128F9D16E21194871
:100FC00001F0F5F900BF4021164801F023F901288E
:100FD000F9D16421134801F0EAF900BF402111481A
:100FE00001F018F90128F9D10D210E4801F0DFF9BF
:100FF00000BF40210B4801F00DF90128F9D10A2169
:10100000084801F0D4F900BF4021064801F002F978
:101010000128F9D1024800780028C4D010BD000092
:10102000C60000200038014010B500201A490870A1
:101030002BE04621194801F0BAF900BF40211748BA
:1010400001F0E8F80128F9D17121144801F0AFF955
:1010500000BF4021114801F0DDF80128F9D10D2130
:101060000E4801F0A4F900BF40210C4801F0D2F86D
:101070000128F9D10A21094801F099F900BF40215E
:10108000064801F0C7F80128F9D103480078002884
:10109000CFD002F08DFB10BDBF0000200038014012
:1010A00030B500228B071C0F0F2303FA04F20B4B01
:1010B0008C1053F824309343084C8D1044F825309D
:1010C00023468C1053F824308C07240F00FA04F4C4
:1010D0002343024C8D1044F8253030BD08000140F8
:1010E0002DE9F041024600250026002000230024BF
:1010F000002791F803C00CF00F0591F803C00CF025
:10110000100CBCF1000F03D091F802C04CEA0505A9
:1011100091F800C0BCF1000F31D0146800202BE022
:101120004FF0010C0CFA00F3B1F800C00CEA030612
:101130009E4220D183004FF00F0C0CFA03F7BC4302
:1011400005FA03FC4CEA040491F803C0BCF1280F33
:1011500006D14FF0010C0CFA00FCC2F814C00AE0F2
:1011600091F803C0BCF1480F05D14FF0010C0CFA07
:1011700000FCC2F810C0401C0828D1D31460B1F89C
:1011800000C0BCF1FF0F34DD546800202EE000F1F8
:10119000080C4FF0010808FA0CF3B1F800C00CEA93
:1011A00003069E4221D183004FF00F0C0CFA03F787
:1011B000BC4305FA03FC4CEA040491F803C0BCF1FB
:1011C000280F05D100F1080C08FA0CF8C2F81480B9
:1011D00091F803C0BCF1480F07D100F1080C4FF0A3
:1011E000010808FA0CF8C2F81080401C0828CED379
:1011F0005460BDE8F0810000F0B50A4600230024E9
:101200000021002500F00046B6F1004F02D11D4E2E
:10121000F16901E01B4E7168C0F3034583B200F42D
:101220004016B6F5401F08D121F07061154E766862
:1012300026F07066134F7E6012E000F48016B6F55B
:10124000801F06D1032606FA05F4A14341F0706120
:1012500006E0460D360103FA06F6B14341F070612F
:1012600022B1460D360103FA06F6314300F000467E
:10127000B6F1004F02D1034EF16101E0014E716001
:10128000F0BD0000000001404161704701617047FE
:1012900008B50121602000F041F947F68170ADF8F2
:1012A000000004208DF8030003208DF80200694639
:1012B0000848FFF715FF4FF6FF70ADF80000042057
:1012C0008DF8030003208DF8020069460248FFF7FD
:1012D00007FF08BD001801400014014000BFFEE7F1
:1012E00010B500201A4908702BE04C21194801F074
:1012F0005EF800BF4021174800F08CFF0128F9D1AB
:101300006321144801F053F800BF4021114800F058
:1013100081FF0128F9D10D210E4801F048F800BFE6
:1013200040210C4800F076FF0128F9D10A21094834
:1013300001F03DF800BF4021064800F06BFF012896
:10134000F9D1034800780028CFD002F03DFA10BD53
:10135000C70000200038014010B50020194908706E
:101360002BE04C21184801F022F800BF402116481C
:1013700000F050FF0128F9D17121134801F017F84E
:1013800000BF4021104800F045FF0128F9D10D2190
:101390000D4801F00CF800BF40210B4800F03AFF67
:1013A0000128F9D10A21084801F001F800BF4021C5
:1013B000054800F02FFF0128F9D1024800780028E5
:1013C000CFD010BDBC0000200038014000BFFEE7B8
:1013D0007047000070B5002100230F22C47804B3C9
:1013E000154C246804F4E064C4F5E064210AC1F1FA
:1013F0000403CA40447804FA03F18478144021437A
:1014000009010E4C0678A155047804F01F0501244B
:10141000AC4005786D11AD0005F1E025C5F800413F
:1014200009E0047804F01F050124AC40044D06785F
:10143000761145F8264070BD0CED00E000E400E0B8
:1014400080E100E002490143024A11607047000058
:101450000000FA050CED00E010B5034C206061605F
:10146000A260E36010BD00007800002010B5034CBE
:1014700020606160A260E36010BD00008800002071
:101480007047000010B500201A4908702BE0502169
:10149000194800F08CFF00BF4021174800F0BAFE49
:1014A0000128F9D17121144800F081FF00BF4021CB
:1014B000114800F0AFFE0128F9D10D210E4800F0CF
:1014C00076FF00BF40210C4800F0A4FE0128F9D1AE
:1014D0000A21094800F06BFF00BF4021064800F0D8
:1014E00099FE0128F9D1034800780028CFD002F0F6
:1014F00077F910BDBE0000200038014029B1064A2E
:10150000D2690243044BDA6104E0034AD2698243A0
:10151000014BDA61704700000010024029B1064A11
:1015200092690243044B9A6104E0034A9269824340
:10153000014B9A61704700000010024030B5002155
:101540000022002400232D4D6D6805F00C0121B10F
:10155000042905D0082923D105E0294D056022E0A2
:10156000274D05601FE0254D6D6805F47012234D71
:101570006D6805F48034022505EB92421CB9214DBB
:10158000554305600BE01D4D6D6805F400351DB138
:101590001C4D5543056002E0194D5543056002E0BE
:1015A000174D056000BF00BF144D6D6805F0F001D8
:1015B0000909154D6B5C0568DD4045600F4D6D6890
:1015C00005F4E061090A104D6B5C4568DD408560FB
:1015D0000A4D6D6805F46051C90A0B4D6B5C456896
:1015E000DD40C560054D6D6805F44041890B074D30
:1015F0006B5CC568B5FBF3F5056130BD00100240BA
:1016000000127A0000093D00D8000020E800002008
:1016100010B586B004460020049005900290039017
:1016200001900090207838B104A800F02DF8002235
:1016300004A91148FEF724FF607838B102A800F031
:1016400035F8012202A90D48FEF71AFFA07838B13B
:1016500001A800F043F8022201A90948FEF710FF93
:10166000E07838B1684600F04BF803226946054837
:10167000FEF706FF06B010BDEC00002000010020C0
:1016800014010020280100200146002009E0C0F1DB
:101690000E02054B03EB8202D2F800210A54421CD1
:1016A000D0B20828F3DB7047000023420146002037
:1016B00009E0C0F10702074B03EB8202D2F80021D8
:1016C0000A54421CD0B20828F3DB034A12684A705D
:1016D00070470000008022420001234201460020A2
:1016E00009E000F10802054B03EB8202D2F8002169
:1016F0000A54421CD0B20328F3DB70470080224218
:101700000146002009E000F10C02054B03EB8202C8
:10171000D2F800210A54421CD0B20428F3DB7047EF
:101720000080224210B500201A4908702BE0522197
:10173000194800F03CFE00BF4021174800F06AFD48
:101740000128F9D16321144800F031FE00BF402187
:10175000114800F05FFD0128F9D10D210E4800F07D
:1017600026FE00BF40210C4800F054FD0128F9D1AD
:101770000A21094800F01BFE00BF4021064800F086
:1017800049FD0128F9D1034800780028CFD002F0A4
:1017900033F810BDC80000200038014010B500200B
:1017A000194908702BE05221184800F000FE00BFD4
:1017B0004021164800F02EFD0128F9D1712113486F
:1017C00000F0F5FD00BF4021104800F023FD012886
:1017D000F9D10D210D4800F0EAFD00BF40210B4872
:1017E00000F018FD0128F9D10A21084800F0DFFDBA
:1017F00000BF4021054800F00DFD0128F9D1024845
:1018000000780028CFD010BDBD0000200038014076
:10181000704710B500F002F810BD00000CB50020B4
:10182000019000903348006840F4803031490860EE
:1018300000BF3048006800F4003000900198401C60
:101840000190009818B90198B0F5A06FF1D129481E
:10185000006800F4003010B10120009001E0002089
:1018600000900098012843D12348006840F0100000
:10187000214908600846006820F003000860084617
:10188000006840F0020008601A4840681949486042
:101890000846406848600846406840F480604860F8
:1018A0000846406820F47C1048600846406840F4D0
:1018B000E81048600846006840F08070086000BF8B
:1018C0000C48006800F000700028F9D00948406812
:1018D00020F00300074948600846406840F00200D5
:1018E000486000BF0348406800F00C000828F9D1A8
:1018F0000CBD00000010024000200240042808D166
:101900004FF0E021096941F004014FF0E02211613C
:1019100007E04FF0E021096921F004014FF0E022D7
:10192000116170477047000010B51348006840F01F
:1019300001001149086008464068104908400E49F6
:101940004860084600680E4908400B490860084690
:10195000006820F4802008600846406820F4FE00FB
:1019600048604FF41F008860FFF753FF4FF000609E
:101970000449086010BD0000001002400000FFF89C
:10198000FFFFF6FE08ED00E010B50121880700F02A
:10199000CFF918B10121880700F0B8F910BD7FB563
:1019A00005460C4601210846FFF7A8FDADF8085092
:1019B000ADF804400020ADF80A00ADF8060001A91A
:1019C0004FF0804000F032FB01221146900700F0FA
:1019D000C0F91C208DF8000003208DF801000020C4
:1019E0008DF8020001208DF803006846FFF7F2FC35
:1019F0000121880700F08DF97FBD000010B501219D
:101A0000084800F095F958B10121064800F07EF928
:101A10000548006808B9012000E00020024908607C
:101A200010BD0000000400409401234230B589B08D
:101A300005460C4601210220FFF760FD012140F21E
:101A40001510FFF76BFD01213348FFF7D5FB4FF46D
:101A50007070ADF8200018208DF8230003208DF859
:101A6000220008A92D48FFF73BFB4FF4E070ADF8CA
:101A7000200010208DF8230003208DF8220008A9F3
:101A80002748FFF72DFB08A92548FFF729FB08A9E0
:101A90002448FFF725FB08A92148FFF721FBADF8F3
:101AA0001850ADF814400020ADF81A00ADF816003B
:101AB00005A91D4800F0BAFA7020ADF80400012015
:101AC000ADF806000020ADF80C0001A9164800F0A2
:101AD00049F901A9144800F09BF901A9124800F046
:101AE000F7F901A9104800F04DFA08210E4800F05E
:101AF00085F908210C4800F0DDF908210A4800F0BA
:101B000037FA0821084800F07BFA0121064800F066
:101B100000F909B030BD0000000C1A0000100140AF
:101B200000200140000801400004004010B50121E0
:101B30000C4800F0FDF8A0B101210A4800F0E6F8D9
:101B400009480078012804D108480068401C07496A
:101B500008600748016807480078FEF737FE064925
:101B6000087010BD000800406400002068000020DC
:101B7000700000206C000020740000207FB5054636
:101B80000C4601210420FFF7B9FCADF80850ADF870
:101B900004400020ADF80A00ADF8060001A90D4888
:101BA00000F044FA012211460A4800F0D2F81E2043
:101BB0008DF8000001208DF801008DF802008DF8ED
:101BC00003006846FFF706FC0021024800F0A1F878
:101BD0007FBD0000000800403EB504460D460121CF
:101BE0000820FFF78BFCADF80050ADF80440002052
:101BF000ADF80600ADF802000121064800F07AF8C1
:101C00006946044800F012FA002002492431088095
:101C10003EBD0000000C004010B501211C4800F042
:101C200087F818B101211A4800F070F819480078B7
:101C300078B901201749087020211748FFF724FBC5
:101C4000472144F61F60FFF7C7FF052013490870BE
:101C50001CE010480078012818D11048007880B99D
:101C600000200C4908700E49087005200B490870C7
:101C700047213C20FFF7B0FF20210748FFF706FB74
:101C800004E006480078401E0449087010BD0000BA
:101C9000000C0040A500002000080140A600002024
:101CA000A400002008B532208DF8000001208DF836
:101CB000010002208DF8020001208DF80300684623
:101CC000FFF788FB08BD000008B501211020FFF7D1
:101CD00025FC4FF48060ADF8000010208DF8030063
:101CE00003208DF8020069460148FFF7F9F908BDA5
:101CF0000010014021B1028842F08002028004E01D
:101D000002884FF67F731A4002807047CA430282EE
:101D1000704721B1028842F00102028004E002888B
:101D20004FF6FE731A40028070470146888C704758
:101D300030B50246002000230024158A05EA01037D
:101D4000958905EA010413B10CB1012000E00020DF
:101D500030BD1AB183890B43838102E083898B43B1
:101D60008381704770B5002400220023058C4FF654
:101D7000FE7635400584028C8388048B4FF68F7580
:101D80002C40B51E2C400D882C43751E2A400D8911
:101D90002A434D882A43144DA8420BD0134DA84224
:101DA00008D0134DA84205D0124DA84202D0124DC2
:101DB000A84213D14FF6F7752A404D892A434FF6B2
:101DC000FB752A408D882A434FF6FF652B404FF65E
:101DD000FF552B408D892B43CD892B438380048372
:101DE000CD888586028470BD002C014000340140FE
:101DF0000040014000440140004801400A460021E3
:101E0000018B4FF6F77319401143018370470000AF
:101E100070B5002400220023058C4FF6EF76354084
:101E20000584028C8388048B48F6FF752C404FF69E
:101E3000FF452C400D884FF6FF7606EA05252C431A
:101E40004FF6DF752A400D8906EA05152A434D88AD
:101E500006EA05152A43154DA84202D0144DA842A2
:101E60001DD14FF67F752A404D894FF6FF7606EA61
:101E700005152A434FF6BF752A408D8806EA0515D9
:101E80002A434FF6FF352B404FF2FF752B408D89CB
:101E900006EA85052B43CD8906EA85052B43838019
:101EA0000483CD880587028470BD0000002C0140AA
:101EB000003401400A460021018B4FF2FF731940A4
:101EC0004FF6FF7303EA02231943018370470000B2
:101ED00070B5002400220023058C4FF6FF663540C4
:101EE0000584028C8388848B4FF68F752C404FF6C7
:101EF000FC752C400D882C434FF6FF552A400D8968
:101F00004FF6FF7606EA05252A434D8806EA0525A1
:101F10002A43154DA84202D0144DA8421DD14FF2BC
:101F2000FF752A404D894FF6FF7606EA05252A43BC
:101F30004FF6FF352A408D8806EA05252A434EF6DE
:101F4000FF752B404DF6FF752B408D8906EA051570
:101F50002B43CD8906EA05152B4383808483CD88E6
:101F60008587028470BD0000002C014000340140D0
:101F70000A460021818B4FF6F77319401143818384
:101F80007047000070B5002200230024058C4EF637
:101F9000FF7635400584038C8488828B48F6FF7574
:101FA0002A404FF6FF452A400D884FF6FF7606EA95
:101FB00005252A434DF6FF752B400D8906EA0535A8
:101FC0002B434D8806EA05352B430B4DA84202D022
:101FD0000A4DA84208D14BF6FF752C408D894FF66B
:101FE000FF7606EA85152C4384808283CD88A0F88D
:101FF0004050038470BD0000002C014000340140BB
:102000000A460021818B4FF2FF7319404FF6FF7390
:1020100003EA022319438183704781867047018751
:10202000704781877047A0F84010704700220288EF
:102030001D4B98420ED01D4B98420BD0B0F1804FF3
:1020400008D01B4B984205D01A4B984202D01A4B2D
:10205000984204D14FF68F731A404B881A43174B9E
:10206000984207D0164B984204D04FF6FF431A40CF
:10207000CB881A4302808B8883850B8803850A4BA3
:1020800098420BD0094B984208D00E4B984205D08D
:102090000D4B984202D00D4B984201D10B7A03862A
:1020A0000123838270470000002C0140003401406E
:1020B0000004004000080040000C004000100040F8
:1020C000001400400040014000440140004801402D
:1020D00010B540F22551214800F0A9F810B31F486F
:1020E00000F060F9C4B21E48008800F40040C8B98E
:1020F0001B48008800F4804060B10A2C03D0002007
:102100001749088020E01648008840F40040144930
:10211000088019E00D2C06D11148008840F4804059
:102120000F49088010E00E480088C0F30D000D49EB
:102130000C540B480088401C094908800846008858
:10214000C72801DD002008800548008800F4004011
:10215000B0F5004F01D100F057FB10BD0038014031
:10216000D4000020E701002010B540F2255120489E
:1021700000F05DF810B31E4800F014F9C4B21D4819
:10218000008800F40040C8B91A48008800F4804074
:1021900060B10A2C03D000201649088020E01548C1
:1021A000008840F400401349088019E00D2C06D146
:1021B0001048008840F480400E49088010E00D4827
:1021C0000088C0F30D000C490C540A480088401CDC
:1021D0000849088008460088C72801DD00200880DB
:1021E0000448008800F4004008B100F075FA10BD02
:1021F00000440040D6000020AF02002021B18289B7
:1022000042F40052828104E082894DF6FF731A4045
:102210008281704702460020B1F5007F00D100BFE7
:1022200013880B400BB1012000E00020704770B50F
:102230000246002400230025002040F66A16B14221
:1022400000D100BFC1F3421501F01F03012606FAB9
:1022500003F3012D02D19689334006E0022D02D10D
:10226000168A334001E0968A33400C12012606FAA2
:1022700004F41688344013B10CB1012000E00020B2
:1022800070BDF0B50346002400260025002040F66E
:102290006A17B94200D100BF1846C1F3421401F0D9
:1022A0001F06012707FA06F5012C01D10C3004E0C6
:1022B000022C01D1103000E014301AB107682F430E
:1022C000076002E00768AF430760F0BD2DE9F04703
:1022D00086B005460E460024A24600BFA146002750
:1022E000B08900B100BF2F462C8A4CF6FF70044025
:1022F000F08804432C82AC894EF6F3100440B08879
:1023000031890843718908430443AC81AC8A4FF694
:10231000FF400440B0890443AC8201A8FFF70EF9E6
:102320001F48874202D1DDF810A001E0DDF80CA0C3
:10233000A88900F4004040B10AEBCA0000EB0A1083
:1023400031684900B0FBF1F807E00AEBCA0000EB86
:102350000A1031688900B0FBF1F86420B8FBF0F096
:1023600004012009642101FB1089A88900F40040C0
:1023700040B1322000EBC900B0FBF1F000F00700E3
:10238000044308E0322000EB09106421B0FBF1F0B7
:1023900000F00F0004432C8106B0BDE8F087000078
:1023A0000038014001468888C0F308007047C1F337
:1023B00008028280704700BFFEE770B505460C46F4
:1023C00012E000BF80212846FFF724FF0028F9D043
:1023D00021782846FFF7EBFF00BF40212846FFF792
:1023E00019FF0028F9D1641C20780028E9D170BDBC
:1023F000014600BF70470000014600202BE051F865
:102400002020002A03DA51F8202041F8202051F83A
:102410002020124B53F820301A4440F2B6339A422F
:1024200008DD0E4A52F82020C2F57A72323A41F89D
:1024300020200FE051F82020084B53F820301A4498
:10244000B2F5FA7F06DA054A52F82020C2F5FA7290
:1024500041F82020401C0428D1DB70478800002070
:1024600010B593480078401E032190FBF1F091498C
:1024700051F820009049097801EB4101C1F10701B1
:10248000884210D08A480078401E032190FBF1F06A
:10249000884951F820008849097801EB4101C1F1D0
:1024A0000801884202D18548006808B38048007856
:1024B000401E032190FBF1F07E4951F820007E4937
:1024C0000978C1F1050188420ED079480078401E94
:1024D000032190FBF1F0774951F820007649097803
:1024E000C1F1060188427DD1744800680128FAD103
:1024F00000207349087073490860FEF70FF94FF424
:10250000C87000F04DF96A480078401E032190FB26
:10251000F1F0684951F82000062820D0644800787E
:10252000401E032190FBF1F0624951F8200004287D
:1025300015D05F480078401E032190FBF1F05D4903
:1025400051F8200002280AD059480078401E032183
:1025500090FBF1F0574951F82000082806D1FEF70A
:10256000EFF859490020FEF707F906E0FEF7E8F812
:102570004FF07F510020FEF7FFF800F037F9FEF72B
:102580001FF952480078401C5049087048480078AC
:10259000401E032190FBF1F0464951F82000062827
:1025A00022D043480078401E032190FBF1F04149BE
:1025B00051F82000022817D03D480078401E032122
:1025C00090FBF1F03B4951F8200004280CD038482A
:1025D0000078401E032190FBF1F0364951F82000AD
:1025E000082800E018E00BD131480078401E032194
:1025F00090FBF1F02F494FF0FF3241F8202055E0D9
:102600002B480078401E032190FBF1F029496FF020
:10261000010241F8202049E0FEF792F80021084627
:10262000FEF7AAF822480078401E032190FBF1F043
:10263000204951F82000801C28B94FF07F5102201A
:10264000FEF79AF803E020490220FEF795F80020F3
:102650001B49087002201B49086025E019480168E1
:1026600017480078FEF71CF81949087008460078EA
:10267000B8B118480068401C164908600846006850
:10268000032811DD0A480078401E0949087000201F
:102690001049086000210220FEF76EF8FEF790F85E
:1026A00003E000200B490860D8E700BF10BD000020
:1026B0002C00002008000020000000203000002036
:1026C0006C0000207000002000004040400000200E
:1026D000380000203400002010B51B4B1B8803F489
:1026E000004363B3184B1B88C3F30D02092A27D19B
:1026F000164B1B7A392B23D16423154C23700021F0
:1027000005E0124B5B5C134C63544B1CD9B29142F5
:10271000F7DB002011E0104B53F820305B1C53B165
:102720000D4B53F820309B1C2BB10A4B1B5C303BEC
:10273000094C44F82030431CD8B20928EBDB02E0F6
:102740000023014C238010BDD6000020AF020020E2
:1027500098000020AC0100200800002010B56FF0A8
:102760000400FFF7CBF80A4800680A49B0FBF1F013
:10277000094908700846007800EB4001C1EBC01021
:102780004FF6FF7101EAC0000449088010BD000047
:102790004800002000127A00B2000020B40000209F
:1027A0000146114A12884A434FF0E0235A61002241
:1027B0009A611A46126942F001021A6100BF4FF095
:1027C000E022106900F001021AB100F48032002A00
:1027D000F5D04FF0E022126922F001024FF0E02321
:1027E0001A6100229A617047B4000020002008E0BE
:1027F0000449096821B9401C032802DB0020704706
:102800000020F5E70C01224210B5FC480088C0F317
:102810000D00FB490880FB480078522874D00CDC7E
:1028200047286ED004DC42286CD046286BD15FE18B
:102830004C280BD05028F9D1C5E061287ED0632800
:102840007DD065287CD07328F0D1FFE1ED48407839
:10285000642840D10120EC4908702EE04C21EB485F
:10286000FFF7A5FD00BF4021E848FFF7D3FC012892
:10287000F9D16421E548FFF79AFD00BF4021E34804
:10288000FFF7C8FC0128F9D10D21E048FFF78FFDC3
:1028900000BF4021DD48FFF7BDFC0128F9D10A2126
:1028A000DA48FFF784FD00BF4021D848FFF7B2FCAB
:1028B0000128F9D10020D1490880D048008800F4CF
:1028C000004090B1CF4800784C280ED1CD484078D8
:1028D0006428C3D009E0CB484078722805D1012094
:1028E000CB4908700020C5490880C6484078632855
:1028F00005D10120C74908700020C049088015E2B1
:1029000002E044E16CE110E2BE484078642844D122
:102910000120C149087032E05221BC48FFF747FD51
:1029200000BF4021B948FFF775FC0128F9D16421A7
:10293000B648FFF73CFD00BF402102E03AE1ADE1BF
:1029400090E0B248FFF766FC0128F5D10D21AF48B1
:10295000FFF72DFD00BF4021AC48FFF75BFC0128CD
:10296000F9D10A21A948FFF722FD00BF4021A7485D
:10297000FFF750FC0128F9D10020A04908809F48AA
:10298000008800F40040E8B19E480078522819D130
:102990009C4840786428BFD014E09A484078722858
:1029A00006D101209D49087000209449088009E063
:1029B00094484078632805D1012099490870002087
:1029C0008E490880B2E18F48407864283FD10120C9
:1029D000944908702EE050218C48FFF7E8FC00BFB6
:1029E00040218A48FFF716FC0128F9D16421874865
:1029F000FFF7DDFC00BF40218448FFF70BFC0128F6
:102A0000F9D10D218148FFF7D2FC00BF40217F485A
:102A1000FFF700FC0128F9D10A217C48FFF7C7FC29
:102A200000BF40217948FFF7F5FB0128F9D10020CC
:102A3000724908807148008800F4004038B171483C
:102A40000078502803D16F4840786428C3D06D487F
:102A50004078722805D10120734908700020674929
:102A6000088063E1674840786E2840D165488078E7
:102A700064283CD101206D49087065216348FFF747
:102A800096FC00BF40216148FFF7C4FB0128F9D143
:102A90006E215E48FFF78BFC00BF40215B48FFF7CB
:102AA000B9FB0128F9D164215848FFF780FC00BF29
:102AB00040215648FFF7AEFB0128F9D10D215348BC
:102AC000FFF775FC00BF40215048FFF7A3FB01282A
:102AD000F9D10A214D48FFF76AFC00BF40214B485D
:102AE000FFF798FB0128F9D10020444908801DE137
:102AF0004448407864283FD101204D4908702EE0B9
:102B000046214248FFF753FC00BF40213F48FFF7F2
:102B100081FB0128F9D164213C48FFF748FC00BF44
:102B200040213A48FFF776FB0128F9D10D213748BB
:102B3000FFF73DFC00BF40213448FFF76BFB012845
:102B4000F9D10A213148FFF732FC00BF40212F485C
:102B5000FFF760FB0128F9D10020284908802748A9
:102B6000008800F4004038B126480078462803D198
:102B7000244840786428C3D022484078722805D180
:102B800001202C49087000201C490880CEE01D4817
:102B9000407820B91B4840782749087009E0194857
:102BA0004078722805D1012024490870002013497B
:102BB0000880BBE0012222A12248FDF72DFB21491C
:102BC0001248FFF7FAFB40F60A511048FFF7EFFBF7
:102BD00000BF40210D48FFF71DFB0128F9D1A5E0FA
:102BE00008484078722808D11748007810B90120A9
:102BF0001549087000200149088097E0D4000020A2
:102C0000CC000020E7010020C20000200038014075
:102C1000BC000020C7000020C3000020BD00002031
:102C2000C8000020C4000020BE000020C600002014
:102C3000C5000020BF000020BB000020C000002015
:102C400025640000B5010020C100002001203A49A0
:102C5000087019E073213948FFF7A9FB00BF402134
:102C60003648FFF7D7FA0128F9D140F60A51334820
:102C7000FFF79DFB00BF40213048FFF7CBFA01284A
:102C8000F9D100202E4908802D48008800F400402A
:102C900018B12C4800787328DCD047E029484078E8
:102CA0006C2841D12748807863283DD100202649EF
:102CB0000870264908702649087026490870264978
:102CC000087026490870264908701B49087063215E
:102CD0001A48FFF76CFB00BF40211848FFF79AFA2B
:102CE0000128F9D16C211548FFF761FB00BF402195
:102CF0001248FFF78FFA0128F9D163210F48FFF737
:102D000056FB00BF40210D48FFF784FA0128F9D196
:102D100040F60A510948FFF74AFB00BF4021074827
:102D2000FFF778FA0128F9D100E000BF00BF0020CA
:102D30000349088010BD0000CA000020003801408F
:102D4000D4000020E7010020BF000020BC000020CC
:102D5000BD000020C1000020C9000020BE000020EE
:102D6000C00000202DE9F84F04460D462846216892
:102D700001F0E2FB05464FF08040216901F006FBBF
:102D80002946009001F0CEFB8346616901F054FAB8
:102D90008246E16801F0FAFA80462169A06801F0F4
:102DA000F5FA00902846216901F0C6FB8346616868
:102DB00001F0ECFA8246009901F03EFA8146414664
:102DC00001F03AFA07463946A06901F035FA06469D
:102DD000206960612561A6613046BDE8F88FFFF784
:102DE000BDFCFDF7B5FFFDF7B7FFFEF701F8C82002
:102DF000FFF7D6FC4FF4A060FEF724FB4FF416500B
:102E000000F0EAFB4FF4165000F036FC00F0BAFC7C
:102E100000F084FCFEF758FF472140F2E730FEF750
:102E2000ADFE472144F61F60FEF7D6FE40F2CF21EB
:102E300042F20F70FEF7B3FD00F0A6FBFDF7C0FCF9
:102E4000012000F09BF84FF47A70FFF7A9FC0220F4
:102E500000F094F84FF47A70FFF7A2FC4FF47A7008
:102E6000FFF79EFC4FF47A70FFF79AFC032000F006
:102E700085F84FF47A70FFF793FC042000F07EF899
:102E80004FF47A70FFF78CFC4FF47A70FFF788FCF0
:102E90004FF47A70FFF784FC052000F06FF84FF4D0
:102EA0007A70FFF77DFC4FF47A70FFF779FC4FF4EE
:102EB0007A70FFF775FC062000F060F84FF47A7026
:102EC000FFF76EFC4FF47A70FFF76AFC4FF47A70EC
:102ED000FFF766FC072000F051F84FF47A70FFF717
:102EE0005FFC0220FDF79BFF4FF47A70FFF758FC60
:102EF000FFF7B6FA00BFFEE710B580211248FEF7D3
:102F0000C3F94FF480711048FEF7BEF94FF4807199
:102F10000E48FEF7B9F940210B48FEF7B5F940F22B
:102F2000E9310B48FFF779F840F2E9310848FFF73B
:102F300076F840F2E9310648FFF773F840F2E931DC
:102F40000348FFF770F810BD002001400008014061
:102F500000040040002141608160C16001600161A6
:102F60004161816170470160704741608260C36068
:102F700070470021016141618161704710B50446CD
:102F80000B2C1FD2DFE804F01E06090C0F121518D7
:102F90001B1C1D00FEF7E0F915E0FEF7A1F912E099
:102FA000FEF7FCFB0FE0FEF7BDFB0CE0FEF76AFA54
:102FB00009E0FEF739F806E0FDF7F0FF03E002E074
:102FC00001E000E000BF00BF10BD00002DE9F84F98
:102FD00081460C462046FFF70FFA484609EBD071B0
:102FE0004910A9EB4101002975D1B9F1010F74DA3B
:102FF0008021EF48FEF74AF94FF48071EC48FEF764
:1030000045F9EC4800882288104481B2EA48FFF76D
:1030100004F8E8488088A288104481B2E648FEF7A8
:10302000FEFF40F2E931E448FEF7FBFF4021E348B0
:10303000FEF72AF9606814281ADD4021DC48FEF703
:1030400023F9606800F04FFE82460022DC4B00F05E
:103050009DFE07460022DB4B00F0CCFF054600F04A
:1030600015FE80B201460090D348FEF7DCFF9CE1DC
:10307000606810F1140F1ADA4021CD48FEF706F906
:10308000606800F030FE82460022CD4B00F07EFEEC
:1030900007460022CC4B00F0ADFF054600F0F6FDE0
:1030A00080B201460090C448FEF7BDFF7DE14FF4B9
:1030B0008071C248FEF7E8F840F2E931BE48FEF7F9
:1030C000B0FF4021BA48FEF7DFF840F2E931BA48D4
:1030D000FEF7A9FF69E179E0FFE78021B448FEF738
:1030E000D3F84FF48071B248FEF7CEF8B1480068CB
:1030F000C0F57A702288801A81B2AF48FEF78DFF42
:10310000AC484068C0F57A70A288801A81B2AA489B
:10311000FEF785FF40F2E931A748FEF784FF402122
:10312000A348FEF7B1F8606814281BDD4FF48071E6
:10313000A248FEF7A9F8606800F0D5FD0546A34A4D
:10314000A34B00F023FE074600229E4B00F052FFE7
:10315000824600F09BFD80B2014600909648FEF743
:1031600060FF22E1606810F1140F1BDA4FF48071E8
:103170009248FEF78BF8606800F0B5FD0546934A6B
:10318000934B00F003FE074600228F4B00F032FF06
:10319000824600F07BFD80B2014600908648FEF733
:1031A00040FF02E14FF480718448FEF76DF840F271
:1031B000E9318148FEF735FF40217D48FEF764F88C
:1031C00040F2E9317C48FEF72EFFEEE0B9F1020F44
:1031D00078DA4FF480717948FEF756F84021744848
:1031E000FEF752F873488068C0F57A702289801A19
:1031F00081B27148FEF715FF6E48C068C0F57A705D
:10320000A289801A81B26C48FEF70DFF40F2E931C5
:103210006948FEF704FF4FF480716548FEF734F803
:10322000E06814281ADD80216148FEF72DF8E06877
:1032300000F059FD07460022614B00F0A7FD05464E
:103240000022644B00F0D6FE824600F01FFD80B2E3
:10325000014600905848FEF7E0FEA6E0E06810F155
:10326000140F1ADA80215248FEF710F8E06800F0D7
:103270003AFD82460022524B00F088FD07460022AC
:10328000554B00F0B7FE054600F000FD80B2014648
:1032900000904948FEF7C1FE87E040F2E931464818
:1032A000FEF7BBFE80214248FDF7EEFF40F2E93118
:1032B0004148FEF7B4FE4FF480713D48FDF7E4FF4E
:1032C00073E0FFE74FF480713C48FDF7DFFF4021DA
:1032D0003748FDF7DBFF374800892289104481B267
:1032E0003548FEF79EFE33488089A289104481B29A
:1032F0003148FEF798FE80212D48FDF7C5FF40F2CA
:10330000E9312D48FEF789FEE06814281BDD4FF4F3
:1033100080712748FDF7B8FFE06800F0E4FC07463D
:103320000022274B00F032FD05460022254B00F01D
:1033300061FE824600F0AAFC80B2014600901E4861
:10334000FEF76DFE31E0E06814281BDA4FF480715F
:103350001748FDF79BFFE06800F0C5FC054600221A
:10336000174B00F013FD07460022174B00F042FEFA
:10337000824600F08BFC80B2014600900E48FEF7BA
:103380004EFE12E040F2E9310B48FEF746FE802186
:103390000748FDF779FF40F2E9310748FEF73FFEA5
:1033A0004FF480710248FDF76FFFBDE8F88F000011
:1033B0000020014088000020000400400008014077
:1033C0000000E03F0050844000E075409A999999D0
:1033D0009999D93F0000794000C0824070B50546F8
:1033E0000C462046FFF708F8284605EBD071491037
:1033F000A5EB410100295FD1012D2CDA80215E4827
:10340000FDF744FF4FF480715B48FDF73FFF5B48D9
:1034100000882288104481B25948FEF7FEFD5748C3
:103420008088A288104481B25548FEF7F8FD4FF419
:1034300080715448FDF728FF40F2E9315048FEF70B
:10344000F0FD40214C48FDF71FFF40F2E9314C48A8
:10345000FEF7E9FD8FE080214748FDF715FF4FF4A7
:1034600080714548FDF710FF44480068C0F57A7048
:103470002288801A81B24248FEF7CFFD3F4840685B
:10348000C0F57A70A288801A81B23D48FEF7C7FD68
:103490004FF480713B48FDF7F7FE40F2E9313848C0
:1034A000FEF7BFFD40213448FDF7EEFE40F2E93162
:1034B0003348FEF7B8FD5EE0022D30DA4FF480713C
:1034C0003048FDF7E1FE40212B48FDF7DDFE2B489B
:1034D0008068C0F57A702289801A81B22848FEF788
:1034E000A0FD2648C068C0F57A70A289801A81B212
:1034F0002348FEF798FD40F2E9312148FEF78DFDA3
:1035000080211D48FDF7C0FE40F2E9311C48FEF75E
:1035100086FD4FF480711848FDF7B6FE2BE04FF49E
:1035200080711848FDF7B2FE40211348FDF7AEFE4A
:10353000124800892289104481B21148FEF771FDBA
:103540000E488089A289104481B20D48FEF76BFDB8
:1035500040F2E9310A48FEF760FD80210648FDF798
:1035600093FE40F2E9310648FEF759FD4FF48071B1
:103570000148FDF789FE70BD002001408800002051
:10358000000400400008014010B500200D4908600B
:103590000D49087005200D49087047213C20FEF7B1
:1035A0001BFBFEF77FFB20210948FDF76FFE012280
:1035B00011460848FEF7CDFB01210648FEF7A9FB9E
:1035C00010BD00009C000020A5000020A6000020E7
:1035D00000080140000C004010B586B004460121EF
:1035E00044F20400FDF79AFF4FF40070ADF81400A8
:1035F00003208DF8160018208DF8170005A91C4827
:10360000FDF76EFD4FF48060ADF8140004208DF8D6
:10361000170005A91648FDF763FD25208DF8000069
:1036200003208DF801008DF8020001208DF80300C1
:103630006846FDF7CFFE01940020ADF80800ADF814
:103640000A00ADF80C00ADF810000C20ADF80E002B
:1036500001A90848FEF73AFE012240F2255105482B
:10366000FEF70FFE01210348FEF7C8FD06B010BDAE
:10367000000801400038014010B586B00446012121
:103680000420FDF74BFF01214804FDF737FF04201C
:10369000ADF8140003208DF8160018208DF81700DF
:1036A00005A91C48FDF71CFD0820ADF814000420F6
:1036B0008DF8170005A91748FDF712FD26208DF893
:1036C000000003208DF8010002208DF80200012087
:1036D0008DF803006846FDF77DFE01940020ADF8EB
:1036E0000800ADF80A00ADF80C00ADF810000C2091
:1036F000ADF80E0001A90848FEF7E8FD012240F2EE
:1037000025510548FEF7BDFD01210348FEF776FD72
:1037100006B010BD00080140004400400EB5012174
:103720000420FDF7FBFE1020ADF8080028208DF8DE
:103730000B0003208DF80A0002A91148FDF7D0FC08
:1037400004210020FDF7ACFC1020009000208DF833
:10375000040010208DF8050001208DF80600684651
:10376000FDF7D2FB2020ADF8080010208DF80B00EB
:1037700003208DF80A0002A90148FDF7B1FC0EBD37
:103780000008014008B54FF4A060FDF75BFE0A2079
:103790008DF8000000208DF8010002208DF8020055
:1037A00001208DF803006846FDF714FE08BD0000F7
:1037B00000200449087000BF024800780028FBD0B0
:1037C00070470000C500002000200449087000BFB9
:1037D000024800780028FBD070470000C20000209B
:1037E00000200449087000BF024800780028FBD080
:1037F00070470000C400002000200449087000BF8A
:10380000024800780028FBD070470000C300002069
:1038100021F00042A2F16052B2F5801F01F0004396
:1038200028BFD2F17F6C0BD95FEA001C43EAC202C9
:1038300042EB507018BF704728BF20F0010070475E
:10384000B2F5801FBCBF184670474FEA410C1CF50B
:10385000001F02D2084600F060BE70B500F040FBC9
:1038600000000089FFF7F6BF4FF00040A0F5800090
:103870007047000010B591EA030F48BF83F0004382
:1038800000F1CC83841A71EB030C05D2121943EBBF
:103890000C03001B61EB0C01DFF824E14FEA11542B
:1038A000A4EB135C1EEA430F18BF9EEA445F73D07B
:1038B00023EA0E03DCF1200E21EA045143F48013C5
:1038C00032D322FA0CFE10EB0E0023FA0CFE41EB71
:1038D0000E01CCF1200E03FA0EFE10EB0E0051F19A
:1038E0000001B1F5801FCCF1200E32D201EB045162
:1038F00012FA0EF2BDE8104058BF7047401C38BFA6
:103900005FEA420218BF7047002814BF20F0010090
:1039100041F100014FEA410313F5001F38BF704722
:10392000A1F1C04100F02ABB012A43EB0302ACF134
:10393000200CDCF11F0E32BF4FF0000E23FA0CF307
:1039400010EB030041EB0451B4EB115FD0D0A1EBBD
:10395000045101F5801149085FEA300001EB045180
:103960000ED350F1000038BF12FA0EFE08D1BDE8A8
:103970001040C9E7401C38BF5FEA4202CAD1C3E722
:10398000BDE810404FEA410313F5001F38BF7047F0
:10399000A1F1C04100F0F2BA9EEA445F08D011EAFA
:1039A0005E0FBDE8104004BF01F0004100207047E9
:1039B000BDE8104070B500F093FA00BF64FBBE3E56
:1039C0000000E0FF491058BFC1F140415B1058BFF3
:1039D000C3F140438B42EFF3008070472DE9C041B3
:1039E00030B4DFF8A0C23CEA111418BF3CEA13144B
:1039F00000F0EC8081EA03051CEA111444EAD57456
:103A000018BF1CEA131500F0C780A4EB05044FF0A3
:103A1000004545EAC12145EAC32341EA505143EA42
:103A2000525304F17F74994204F500344FEAC020E8
:103A30004FEAC22208BF904200F09C804FEA136513
:103A40000FF24016765D4FEA134506FB05F7C7F106
:103A5000807706FB07F74FEAD737A7FB0368764264
:103A6000C8F58038A7FB06CE38BFA8F1010807FBD0
:103A700008E64FF0000EA6FB028CE6FB03CEDCF15D
:103A8000000CCEF1004E38BFAEF1010EA6FB0C5873
:103A90004FF000074FF00005E6FB0E87A1FB08C6BC
:103AA000A0FB07CE16EB0E0645F10005E1FB07650E
:103AB00015F1E04E7EBFA4F580345FEA46066D4105
:103AC00016F1800745F100054FEA17274FEA066611
:103AD00047EA0567A6F1DE46B6F1805F4FEA152595
:103AE0001FD9384624F0010C05EBC471BCF1FE6F00
:103AF00001EB0C1102D8F0BCBDE8008124425CBF90
:103B000001F5801E9EEAC47F02D4F0BCBDE80081AE
:103B1000244238D4F0BCA1F1C041BDE8004100F01E
:103B20002DBA4FEAD22242EA43524FEAD323A7FBEF
:103B300002864FEAD02040EA415007FB03661EEAA6
:103B40000E0F4FEAD12105FB026658BFA6EB0056C7
:103B5000B6EB00564FEA520E4EEAC37E18EB0E0E3D
:103B600056EB530EBDD518EB02085E417F1C55F194
:103B70000005B6E74FF480154FF000074FF0000640
:103B80004FF00008ADE7F0BC4FF0000001F1C0417C
:103B900001F00041BDE8008111EA0C1F0CEA131589
:103BA00000D00CE013EA0C1F00F025804FF000005D
:103BB000F0BC81EA030101F00041BDE80081F0BCE6
:103BC000BDE8004181EA030100F0D8B9F0BCBDE8CE
:103BD000004170B500F084F9097EFC3E00F007B8A2
:103BE00081EA03014FF0000001F00041704781EAD3
:103BF000030100F0C3B9F0BCBDE800414FF0000084
:103C000021497047FFFDFBF9F7F5F4F2F0EEEDEB1B
:103C1000E9E8E6E4E3E1E0DEDDDBDAD8D7D5D4D3CA
:103C2000D1D0CFCDCCCBCAC8C7C6C5C4C2C1C0BF16
:103C3000BEBDBCBBBAB9B8B7B6B5B4B3B2B1B0AF1C
:103C4000AEADACABAAA9A8A8A7A6A5A4A3A3A2A100
:103C5000A09F9F9E9D9C9C9B9A99999897979695BB
:103C600095949393929191908F8F8E8E8D8C8C8B57
:103C70008B8A8989888887878685858484838382DF
:103C8000828181800000FF070000F87F4FEA115316
:103C9000A3F58063D3F11E03A8BFD3F1200C08DB8A
:103CA0004FF0004242EAC12252EA505232FA03F087
:103CB000704709420BD4102BC4BF0020704703F596
:103CC000787CBCF1FF3F05D04FF0FF3070474FF0DC
:103CD0000000704770B500F003F900BF49922480DE
:103CE00000207047F0E710F0004248BF4042B0FAB1
:103CF00080F310FA03F10AD0C3F11D0303F58063CA
:103D00004FEA415002EB035202EBD12170474FF0D2
:103D10000000704751EA030C17D41CF5801F58BFF0
:103D2000BCF5801F00F10680994218BF704708BF9C
:103D30009042704707D711F5801F58BF13F5801FB9
:103D400019D499427047894270471CF5801F08D5E5
:103D5000BCF5801FF7D58B4218BF704708BF824261
:103D600070474FF4001C1CEB410F38BF1CEB430F96
:103D700001D28B42704770B500F0B2F8922449002E
:103D80004FF000514FF08053FFF71CBEDFF848C1E1
:103D900070B51CEA111E1EBF1CEA13159EEA0C0F1B
:103DA00095EA0C0F00F06F8081EA030423EA4C13BC
:103DB0004EEAD47E21EA4C1141F4801143F4801381
:103DC000AE44A1FB024CA0FB0365AEF17F7E361929
:103DD00055EB0C05A1FB034C4CF10003A0FB021CAE
:103DE00016EB0C06654153F10003094218BF46F07B
:103DF000010613F4007F0BD14FEA03314FEA05307F
:103E0000340341EA155140EA16506FF003020AE00C
:103E10004FEAC3214FEAC520F40241EA555140EA76
:103E200056506FF0020202EB2E4201EB025585EA7A
:103E3000CE710AD05FEA440C18BF24F0004450F160
:103E4000000041F1000120EAD47040F2FE7C62459E
:103E500000D270BDA84214BF4FF080444FF04044E0
:103E6000002E08BF0024BEF1806FA8BFA1F1C041A1
:103E7000BDE8704080F282804FF0000001F1C04147
:103E800001F0004170479EEA0C0F0CEA131518BFB1
:103E900095EA0C0F06D04FF0000081EA030E0EF0F9
:103EA000004170BD00F01CF88900013E00F007B829
:103EB00000F009B84FEA430C5FEA5C5C08D081EA85
:103EC000030100F05BB84FEA410C5FEA5C5CF6D19D
:103ED0004FF00000014970470000FF070000F87F25
:103EE0000EF1020E2EF0030E5EF8046B364205D47E
:103EF000012A43EB030515F5001F12D8012841EBF9
:103F0000010C1CF5001F0CD80ED14FEAD17C15F521
:103F1000001F0CEB4C0C0CF1020C08BF4CEBD37CDB
:103F200004E04FF0080C01E04FEAD37C0CEB4C05A9
:103F300026FA05F606F00706B6F1040C06D20EEBDB
:103F4000860CBDE870404CF0010C6047DFE80CF0D7
:103F5000090B02024FF000414FF00000A1F50021D3
:103F600070BD19461046012851EB010418BFD4F565
:103F7000001484BF002001F0004170BD0808A0F5C6
:103F800000114FEA3101704753EA010C17D41CF5B8
:103F9000801F58BFBCF5801F00F106808B4218BF00
:103FA000704708BF8242704707D713F5801F58BF7C
:103FB00011F5801F19D48B4270479B4270471CF546
:103FC000801F08D5BCF5801FF7D5994218BF7047F0
:103FD00008BF904270474FF4001C1CEB430F38BFE2
:103FE0001CEB410F01D2994270470FB40CBC03BCCB
:103FF000FFF7C1BE91EA030F10B581F000413FF514
:1040000041AC83F0004300F009B8000010B591EA1C
:10401000030F48BF83F000433FF534AC841A71EBC3
:10402000030C07D212198CF0004C43EB0C03001B5D
:1040300061EB0C01DFF8A4E14FEA1154A4EB135C2F
:104040001EEA430F18BF9EEA445F00F0B08023EAE7
:104050006E03524221EA0451C3EB6E0338BF5B1E6C
:10406000DCF1200E25D322FA0CFE10EB0E0043FAF1
:104070000CFE41EB0E01CCF1200E03FA0EFE10EB0C
:104080000E0051F10001CCF1200E29D412FA0EF2EB
:1040900001EB0451BDE8104058BF7047401C1CBFE5
:1040A000B2F1004F704700280CBF491C20F00100FE
:1040B000704712EB020E43EB030218BF4FF0010EE4
:1040C0004EEA4202ACF1200CDCF11E0E54D943FA48
:1040D0000CFE10EB0E0051F1FF31CCF11E0ED5D5C8
:1040E0000EF1010E12FA0EFE404141EB010101EB0F
:1040F000445C5FEA5C5C10D910EBDE7001EB0451AC
:1041000038BFBEF1004FBDE8104018BF704700280F
:104110000CBF491C20F00100704730D24FEAD42C6C
:1041200011F5001124F400641BD0B1FA81F20B3AAE
:10413000A41AA41ED2F12003914030FA03F31943CC
:10414000904001EBCC71002C01EB0451BDE8104014
:10415000A8BF704701F1C0414FF0000001F00041DD
:104160007047B0FA80F310FA03F100D110BDE41AE1
:10417000173C4805C90AE4E701EB045110BD49109A
:1041800001EB0451BDE810404FEA300002E04FF06F
:10419000000170474A0008BF0042F8D0B2F5001F86
:1041A00028BF704701F000414FF0000070479EEAC1
:1041B000445F07D011EA5E0FBDE8104004BF002144
:1041C00000207047BDE8104070B5FFF789FE00BFC2
:1041D00040DFF63E83F00041104670470000E0FFEC
:1041E00043004FEAD30C4FEA3C0C43401FBF40074B
:1041F0000CF1605113F0FE4F70471CF0006F03D1BB
:1042000000200CF0004170470CF0004343EA50706E
:1042100010B540EACC0000F03AF900BF000000926F
:104220004FEA0001FFF7AABE4FF000414FF0000037
:10423000A1F500217047000090EA010F48BF81F00E
:10424000004100F18081421A3CBF801A89184FEA70
:10425000D0524FF07F4C1CEA410FA2EBD15318BF54
:104260009CEA026F00F03B804FF0004C4CEA0020CB
:104270004CEA012121FA03FC10EB0C0C1ED202F1D6
:10428000FF325FEA1C2040EBC25038BF70471CF081
:104290007F0F4FEA400C18BFBCF17F4F38BF70470B
:1042A000C3F12003994008BF20F00100BCF17F4F0B
:1042B00038BF7047A0F1C04000F02FB94FEA3C0072
:1042C000000A40EBC25028BF1CF0FF0F4FEA400C21
:1042D000E6D018BFBCF17F4F38BF7047EAE79CEAD1
:1042E000026F05D010EA5C0F08BF00F00040704775
:1042F00010B500F0CCF800BF64FBBE3E41000B0ED1
:10430000D3F19E0208D950F400034FEA032323FAA5
:1043100002F048BF4042704710B500F0B8F800BF47
:1043200049922480002070476FF0004282EA20000A
:104330007047000010F0004148BF4042B0FA80F3DF
:1043400010FA03F2C3F19D030BD051EAC35101EB04
:104350001220530638BF704700F1010008BF20F05B
:1043600001007047B0FA80F310FA03F2C3F19D0325
:104370000AD0D90501EB1220530638BF704700F16F
:10438000010008BF20F00100704700004FF47F0CCF
:104390001CEAD0121EBF1CEAD11392EA0C0F93EA5A
:1043A0000C0F00F0478090EA010F48BF42F4807282
:1043B0004FF0004C4CEA00204CEA012102EB0302D2
:1043C000A0FB0113A2F50002002918BF43F001036E
:1043D0005B0028BF4FEA330342EB22425FEA132C13
:1043E0004CEBC2502EBFBCEB436FB2F57C0F704755
:1043F0004FEA036CBCF1004F08BF20F00100B2F59A
:104400007C0F38BF70470BD582F0FF0212F5803F5A
:10441000C8BF704700F1C040D8BF00F000407047EF
:1044200000F5000C5FEA4C0C48BF7047B0F1C0408B
:1044300000F073B890EA010F0CEAD11348BF42F4C0
:104440008072624538BF634504D280EA010000F003
:104450000040704710B500F01AF800BF8900013E17
:1044600000F007B800F009B85FEA410C5FEA1C6C85
:1044700008D080EA010000F050B85FEA400C5FEA23
:104480001C6CF6D14FF00040A0F5800070470EF193
:10449000020E2EF0030E5EF8044B244204D44FEAC1
:1044A0004102B2F17F4F11D84FEA4003B3F17F4F81
:1044B0000CD80ED14FEAD07CB2F17F4F0CEB4C0CF4
:1044C0000CF1020C08BF4CEBD17C04E04FF0080C5F
:1044D00001E04FEAD17C0CEB4C0324FA03F404F026
:1044E0000704B4F1040C06D20EEB840CBDE81040B6
:1044F0004CF0010C6047DFE80CF0070802024FF0B7
:104500000040A0F5800010BD0846420018BFD2F15F
:10451000807288BF00F0004010BDFF2141EAD050FA
:10452000C005704780F0004090EA010F7FF58BAE28
:1045300081F0004100F007B890EA010F48BF81F018
:1045400000413FF580AE421A04D882F00042A0EB51
:10455000020011444FEAD0524FF07F4C1CEA410F49
:10456000A2EBD15318BF9CEA026F4AD04FF0004C27
:104570004CEA00204CEA012121FA03FCB0EB0C0CC0
:104580000FD412F0FE0F36D05FEA4C001DD500129A
:1045900040EBC25038BF70471CF03F0F18BF704748
:1045A0000BE0A2F101025FEA1C2040EBC25038BFD1
:1045B00070471CF07F0F18BF7047C3F1200399406C
:1045C00014BF401E20F00100704780084FEA1223FC
:1045D00008BF7047B0FA80FCA2EB0C02CCF1280CAB
:1045E00060FA0CF093EA122F04BF00EBC250704740
:1045F0004FEAC3707047130A5FEADC1008BF7047C8
:10460000F6E79CEA026F04D010EA5C0F08BF0020B6
:10461000704710B5FFF73BFF40DFF63E81F00040EA
:10462000704700004446000800000020EC00000035
:104630006C01000830470008EC000020EC08000086
:1046400088010008020000000000000004000000D3
:104650000600000008000000050000000700000040
:10466000030000000200000001000000090000003B
:104670007F000000000000000000000000000000BB
:1046800000000000000000000000000000A24A043A
:1046900000000000000000000102030406070809F2
:1046A000000000000000000000000000000000000A
:1046B0000000000000000000000000009001000069
:1046C0009001000090010000900100002003000014
:1046D0002003000020030000200300000000000071
:1046E00000000000000000000000000001000000C9
:1046F00000000000000000000000000000000000BA
:1047000000000000000000000000000000000000A9
:104710000000000000000000000000000000000099
:104720000102030401020304060708090204060843
:04000005080001D519
:00000001FF
