:020000040800F2
:10000000A0070020CD010008C5040008BD040008B9
:10001000C10400087D0200089F07000800000000DE
:100020000000000000000000000000004105000882
:100030007103000800000000C7040008550600080E
:10004000E7010008E7010008E7010008E7010008F0
:10005000E7010008E7010008E7010008E7010008E0
:10006000E7010008E7010008E7010008E7010008D0
:10007000E7010008E7010008E7010008E7010008C0
:10008000E7010008E7010008E7010008E7010008B0
:10009000E7010008E7010008E7010008E7010008A0
:1000A000E7010008E7010008E7010008E701000890
:1000B000E7010008E7010008E7010008E701000880
:1000C000E7010008E7010008E7010008E701000870
:1000D000E7010008B9060008E7010008E701000889
:1000E000E7010008E7010008E7010008E701000850
:1000F000E7010008E7010008E7010008E701000840
:10010000E7010008E7010008E7010008E70100082F
:10011000E7010008E7010008E7010008E70100081F
:10012000E7010008E7010008E7010008E70100080F
:1001300000F002F800F03AF80AA090E8000C8244BF
:100140008344AAF10107DA4501D100F02FF8AFF29C
:10015000090EBAE80F0013F0010F18BFFB1A43F0A5
:10016000010318477810000098100000103A24BFCF
:1001700078C878C1FAD8520724BF30C830C144BF0C
:1001800004680C607047000000230024002500264E
:10019000103A28BF78C1FBD8520728BF30C148BFEA
:1001A0000B6070471FB51FBD10B510BD00F033F8D0
:1001B0001146FFF7F7FF00F03FFB00F051F803B4E2
:1001C000FFF7F2FF03BC00F0ECFA0000094880479B
:1001D00009480047FEE7FEE7FEE7FEE7FEE7FEE729
:1001E000FEE7FEE7FEE7FEE704480549054A064B41
:1001F000704700005906000831010008A0010020E6
:10020000A0070020A0030020A00300207047704733
:10021000704770477047754600F02CF8AE460500F1
:100220006946534620F00700854618B020B5FFF711
:10023000DBFFBDE820404FF000064FF000074FF015
:1002400000084FF0000B21F00701AC46ACE8C009F4
:10025000ACE8C009ACE8C009ACE8C0098D467047FD
:1002600010B50446AFF300802046BDE81040FFF70C
:10027000A6BF0000004870473C01002000BFFEE719
:100280002DE9F04F89B004460F46002008908046C3
:1002900081468246834600261DE0751CB85D012814
:1002A00018D105E0785D012801D16D1C00E001E066
:1002B000082DF7DB00BFA5EB0609C14506DDB246F8
:1002C000A5F1010BC8460020089003E0C14501D10B
:1002D000012008902E46082EDFDBC4F800B0C4F8D9
:1002E00004A0C4F808800BEB0A0000F0DFFE0190C8
:1002F00000F0A4FE00224FF08043CDE9020100F09F
:1003000095FB0022174BCDE9040100F0ADFDCDE9CE
:10031000060100F0A5FAE060A06805281CDB0120BA
:100320002061E06800F08AFE00220F4BCDE9060153
:1003300000F064FD05D86168481C00F0B7FEE0607D
:100340000CE00A49E06800F0C9FE07D82168481EA1
:1003500000F0ACFEE06001E00020206109B0BDE8E3
:10036000F08F000000000C400000E03F000080BF64
:1003700070472DE9F04102460025002600200023A9
:100380000024002791F803C00CF00F0591F803C07A
:100390000CF0100CBCF1000F03D091F802C04CEA35
:1003A000050591F800C0BCF1000F31D014680020A1
:1003B0002BE04FF0010C0CFA00F3B1F800C00CEA8E
:1003C00003069E4220D183004FF00F0C0CFA03F776
:1003D000BC4305FA03FC4CEA040491F803C0BCF1E9
:1003E000280F06D14FF0010C0CFA00FCC2F814C023
:1003F0000AE091F803C0BCF1480F05D14FF0010CA1
:100400000CFA00FCC2F810C0401C0828D1D31460BC
:10041000B1F800C0BCF1FF0F34DD546800202EE0BD
:1004200000F1080C4FF0010808FA0CF3B1F800C015
:100430000CEA03069E4221D183004FF00F0C0CFA08
:1004400003F7BC4305FA03FC4CEA040491F803C02B
:10045000BCF1280F05D100F1080C08FA0CF8C2F81D
:10046000148091F803C0BCF1480F07D100F1080CCB
:100470004FF0010808FA0CF8C2F81080401C082858
:10048000CED35460BDE8F08108B50121482000F0CA
:100490001BF84FF4FF40ADF8000004208DF8030076
:1004A00003208DF8020069460148FFF762FF08BD8E
:1004B0000018014010B5FFF7E7FF10BD00BFFEE7D1
:1004C00000BFFEE77047704729B1064A92690243B0
:1004D000044B9A6104E0034A92698243014B9A619A
:1004E000704700000010024010B588B0044600209C
:1004F0000690079004900590029003900090019060
:100500002078012806D106A800F008F806A90248BC
:10051000FFF7B6FE08B010BD240000200146002001
:1005200008E0C21D054B03EB8202D2F800210A54F9
:10053000421CD0B20828F4DB7047000000002342C0
:10054000704710B500F002F810BD00000CB5002097
:10055000019000903348006840F4803031490860D1
:1005600000BF3048006800F4003000900198401C43
:100570000190009818B90198B0F5A06FF1D1294801
:10058000006800F4003010B10120009001E000206C
:1005900000900098012843D12348006840F01000E3
:1005A000214908600846006820F0030008600846FA
:1005B000006840F0020008601A4840681949486025
:1005C0000846406848600846406840F480604860DB
:1005D0000846406820F47C1048600846406840F4B3
:1005E000E81048600846006840F08070086000BF6E
:1005F0000C48006800F000700028F9D009484068F5
:1006000020F00300074948600846406840F00200B7
:10061000486000BF0348406800F00C000828F9D18A
:100620000CBD00000010024000200240042808D148
:100630004FF0E021096941F004014FF0E02211611F
:1006400007E04FF0E021096921F004014FF0E022BA
:10065000116170477047000010B51348006840F002
:1006600001001149086008464068104908400E49D9
:100670004860084600680E4908400B490860084673
:10068000006820F4802008600846406820F4FE00DE
:1006900048604FF41F008860FFF753FF4FF0006081
:1006A0000449086010BD0000001002400000FFF87F
:1006B000FFFFF6FE08ED00E010B540F225511D48A1
:1006C00000F03EF810B31B4800F064F8C4B21A48BA
:1006D000008800F40040C8B91748008800F4804042
:1006E00060B10A2C03D000201349088020E0124892
:1006F000008840F400401049088019E00D2C06D114
:100700000D48008840F480400B49088010E00A48FA
:100710000088C0F30D0009490C5407480088401CAC
:100720000549088008460088C72801DD00200880A8
:1007300010BD00000038014020000020740000209F
:1007400070B50246002400230025002040F66A16FA
:10075000B14200D100BFC1F3421501F01F030126D1
:1007600006FA03F3012D02D19689334006E0022DEB
:1007700002D1168A334001E0968A33400C120126DA
:1007800006FA04F41688344013B10CB1012000E0DD
:10079000002070BD01468888C0F30800704700BF84
:1007A000FEE7014600BF704710B56FF00400FFF789
:1007B0003DFF0A4800680A49B0FBF1F0094908709A
:1007C0000846007800EB4001C1EBC0104FF6FF7106
:1007D00001EAC0000449088010BD000000000020AC
:1007E00000127A0016000020180000200146114A6D
:1007F00012884A434FF0E0235A6100229A611A4658
:10080000126942F001021A6100BF4FF0E022106944
:1008100000F001021AB100F48032002AF5D04FF046
:10082000E022126922F001024FF0E0231A61002257
:100830009A6170471800002008B500200090074911
:100840000870FFF7B1FFFFF735FE06E04FF4967032
:10085000FFF7CCFF6846FFF747FEF7E714000020DC
:1008600021F00042A2F16052B2F5801F01F0004376
:1008700028BFD2F17F6C0BD95FEA001C43EAC202A9
:1008800042EB507018BF704728BF20F0010070473E
:10089000B2F5801FBCBF184670474FEA410C1CF5EB
:1008A000001F02D2084600F093BC70B500F052FA67
:1008B00000000089FFF7F6BF4FF00040A0F5800070
:1008C0007047000010B591EA030F48BF83F0004362
:1008D00000F1D282841A71EB030C05D2121943EB9A
:1008E0000C03001B61EB0C01DFF824E14FEA11540B
:1008F000A4EB135C1EEA430F18BF9EEA445F73D05B
:1009000023EA0E03DCF1200E21EA045143F48013A4
:1009100032D322FA0CFE10EB0E0023FA0CFE41EB50
:100920000E01CCF1200E03FA0EFE10EB0E0051F179
:100930000001B1F5801FCCF1200E32D201EB045141
:1009400012FA0EF2BDE8104058BF7047401C38BF85
:100950005FEA420218BF7047002814BF20F0010070
:1009600041F100014FEA410313F5001F38BF704702
:10097000A1F1C04100F03CBA012A43EB0302ACF103
:10098000200CDCF11F0E32BF4FF0000E23FA0CF3E7
:1009900010EB030041EB0451B4EB115FD0D0A1EB9D
:1009A000045101F5801149085FEA300001EB045160
:1009B0000ED350F1000038BF12FA0EFE08D1BDE888
:1009C0001040C9E7401C38BF5FEA4202CAD1C3E702
:1009D000BDE810404FEA410313F5001F38BF7047D0
:1009E000A1F1C04100F004BA9EEA445F08D011EAC8
:1009F0005E0FBDE8104004BF01F0004100207047C9
:100A0000BDE8104070B500F0A5F900BF64FBBE3E24
:100A10000000E0FF491058BFC1F140415B1058BFD2
:100A2000C3F140438B42EFF3008070472DE9C04192
:100A300030B4DFF8A0C23CEA111418BF3CEA13142A
:100A400000F0EC8081EA03051CEA111444EAD57435
:100A500018BF1CEA131500F0C780A4EB05044FF083
:100A6000004545EAC12145EAC32341EA505143EA22
:100A7000525304F17F74994204F500344FEAC020C8
:100A80004FEAC22208BF904200F09C804FEA1365F3
:100A90000FF24016765D4FEA134506FB05F7C7F1E6
:100AA000807706FB07F74FEAD737A7FB0368764244
:100AB000C8F58038A7FB06CE38BFA8F1010807FBB0
:100AC00008E64FF0000EA6FB028CE6FB03CEDCF13D
:100AD000000CCEF1004E38BFAEF1010EA6FB0C5853
:100AE0004FF000074FF00005E6FB0E87A1FB08C69C
:100AF000A0FB07CE16EB0E0645F10005E1FB0765EE
:100B000015F1E04E7EBFA4F580345FEA46066D41E4
:100B100016F1800745F100054FEA17274FEA0666F0
:100B200047EA0567A6F1DE46B6F1805F4FEA152574
:100B30001FD9384624F0010C05EBC471BCF1FE6FDF
:100B400001EB0C1102D8F0BCBDE8008124425CBF6F
:100B500001F5801E9EEAC47F02D4F0BCBDE800818E
:100B6000244238D4F0BCA1F1C041BDE8004100F0FE
:100B70003FB94FEAD22242EA43524FEAD323A7FBBE
:100B800002864FEAD02040EA415007FB03661EEA86
:100B90000E0F4FEAD12105FB026658BFA6EB0056A7
:100BA000B6EB00564FEA520E4EEAC37E18EB0E0E1D
:100BB00056EB530EBDD518EB02085E417F1C55F174
:100BC0000005B6E74FF480154FF000074FF0000620
:100BD0004FF00008ADE7F0BC4FF0000001F1C0415C
:100BE00001F00041BDE8008111EA0C1F0CEA131569
:100BF00000D00CE013EA0C1F00F025804FF000003D
:100C0000F0BC81EA030101F00041BDE80081F0BCC5
:100C1000BDE8004181EA030100F0EAB8F0BCBDE89C
:100C2000004170B500F096F8097EFC3E00F007B870
:100C300081EA03014FF0000001F00041704781EAB2
:100C4000030100F0D5B8F0BCBDE800414FF0000052
:100C500021497047FFFDFBF9F7F5F4F2F0EEEDEBFB
:100C6000E9E8E6E4E3E1E0DEDDDBDAD8D7D5D4D3AA
:100C7000D1D0CFCDCCCBCAC8C7C6C5C4C2C1C0BFF6
:100C8000BEBDBCBBBAB9B8B7B6B5B4B3B2B1B0AFFC
:100C9000AEADACABAAA9A8A8A7A6A5A4A3A3A2A1E0
:100CA000A09F9F9E9D9C9C9B9A999998979796959B
:100CB00095949393929191908F8F8E8E8D8C8C8B37
:100CC0008B8A8989888887878685858484838382BF
:100CD000828181800000FF070000F87F51EA030C49
:100CE00017D41CF5801F58BFBCF5801F00F106808B
:100CF000994218BF704708BF9042704707D711F557
:100D0000801F58BF13F5801F19D49942704789423C
:100D100070471CF5801F08D5BCF5801FF7D58B42A6
:100D200018BF704708BF824270474FF4001C1CEB8D
:100D3000410F38BF1CEB430F01D28B42704770B597
:100D400000F008F8922449004FF000514FF0805312
:100D5000FFF760BE0EF1020E2EF0030E5EF8046B7C
:100D6000364205D4012A43EB030515F5001F12D8BE
:100D7000012841EB010C1CF5001F0CD80ED14FEAE5
:100D8000D17C15F5001F0CEB4C0C0CF1020C08BFCC
:100D90004CEBD37C04E04FF0080C01E04FEAD37C2D
:100DA0000CEB4C0526FA05F606F00706B6F1040C26
:100DB00006D20EEB860CBDE870404CF0010C60478B
:100DC000DFE80CF0090B02024FF000414FF0000089
:100DD000A1F5002170BD19461046012851EB010410
:100DE00018BFD4F5001484BF002001F0004170BD8D
:100DF0000808A0F500114FEA3101704753EA010CD1
:100E000017D41CF5801F58BFBCF5801F00F1068069
:100E10008B4218BF704708BF8242704707D713F54F
:100E2000801F58BF11F5801F19D48B4270479B4219
:100E300070471CF5801F08D5BCF5801FF7D5994277
:100E400018BF704708BF904270474FF4001C1CEB5E
:100E5000430F38BF1CEB410F01D2994270470FB4CA
:100E60000CBC03BCFFF76BBF10B591EA030F48BF82
:100E700083F000433FF52EAD841A71EB030C07D2CB
:100E800012198CF0004C43EB0C03001B61EB0C01BE
:100E9000DFF8A4E14FEA1154A4EB135C1EEA430F00
:100EA00018BF9EEA445F00F0B08023EA6E0352420E
:100EB00021EA0451C3EB6E0338BF5B1EDCF1200E48
:100EC00025D322FA0CFE10EB0E0043FA0CFE41EB88
:100ED0000E01CCF1200E03FA0EFE10EB0E0051F1C4
:100EE0000001CCF1200E29D412FA0EF201EB0451CC
:100EF000BDE8104058BF7047401C1CBFB2F1004F06
:100F0000704700280CBF491C20F00100704712EB0D
:100F1000020E43EB030218BF4FF0010E4EEA4202ED
:100F2000ACF1200CDCF11E0E54D943FA0CFE10EB90
:100F30000E0051F1FF31CCF11E0ED5D50EF1010E90
:100F400012FA0EFE404141EB010101EB445C5FEA05
:100F50005C5C10D910EBDE7001EB045138BFBEF1C0
:100F6000004FBDE8104018BF704700280CBF491C57
:100F700020F00100704730D24FEAD42C11F5001157
:100F800024F400641BD0B1FA81F20B3AA41AA41E17
:100F9000D2F12003914030FA03F31943904001EB62
:100FA000CC71002C01EB0451BDE81040A8BF704784
:100FB00001F1C0414FF0000001F000417047B0FA6C
:100FC00080F310FA03F100D110BDE41A173C480574
:100FD000C90AE4E701EB045110BD491001EB0451CB
:100FE000BDE810404FEA300002E04FF000017047CA
:100FF0004A0008BF0042F8D0B2F5001F28BF704772
:1010000001F000414FF0000070479EEA445F07D0B6
:1010100011EA5E0FBDE8104004BF002100207047B8
:10102000BDE8104070B5FFF795FE00BF40DFF63E0B
:1010300083F00041104670470000E0FF43004FEA94
:10104000D30C4FEA3C0C43401FBF40070CF16051EA
:1010500013F0FE4F70471CF0006F03D100200CF01E
:10106000004170470CF0004343EA507010B540EA6D
:10107000CC0000F067F800BF000000924FEA0001CA
:10108000FFF7B6BE4FF000414FF00000A1F5002180
:101090007047401058BFC0F14040491058BFC1F1DF
:1010A00040418142EFF300807047000010F00041A2
:1010B00048BF4042B0FA80F310FA03F2C3F19D0337
:1010C0000BD051EAC35101EB1220530638BF7047D1
:1010D00000F1010008BF20F00100704750EA010C48
:1010E00000F113801CF5000F58BFBCF5000F01D4B0
:1010F0008842704707D710F5000F58BF11F5000F51
:1011000015D488427047894270471CF5000F04D5FA
:10111000BCF5000FF7D5814270474FF0807C1CEB87
:10112000400F38BF1CEB410F01D28142704710B510
:1011300000F008F8922449004FF000504FF0805121
:10114000FFF7A7BF0EF1020E2EF0030E5EF8044B60
:10115000244204D44FEA4102B2F17F4F11D84FEA42
:101160004003B3F17F4F0CD80ED14FEAD07CB2F1DF
:101170007F4F0CEB4C0C0CF1020C08BF4CEBD17CFC
:1011800004E04FF0080C01E04FEAD17C0CEB4C037B
:1011900024FA03F404F00704B4F1040C06D20EEBB5
:1011A000840CBDE810404CF0010C6047DFE80CF007
:1011B000070802024FF00040A0F5800010BD08466D
:1011C000420018BFD2F1807288BF00F0004010BD0D
:1011D000FF2141EAD050C00570470000FC11000813
:1011E00000000020240000006C010008201200080C
:1011F000240000207C0700008801000800A24A04A7
:1012000000000000000000000102030406070809B6
:1012100000000000000000000000000000000000CE
:04000005080001CD21
:00000001FF
