:020000040800F2
:10000000D8090020D5010008C9100008C110000857
:10001000C51000087D0400084F1F00080000000004
:10002000000000000000000000000000CD130008E8
:10003000F30D0008000000008D110008E114000815
:10004000EF010008EF010008EF010008EF010008D0
:10005000EF010008EF010008EF010008EF010008C0
:10006000EF010008EF010008F50D0008EF0100089E
:10007000EF010008EF010008EF010008EF010008A0
:10008000EF010008EF010008EF010008EF01000890
:10009000EF010008EF010008EF010008EF01000880
:1000A000EF010008EF010008EF010008EF01000870
:1000B00045150008B9150008E9160008EF01000809
:1000C000EF010008EF010008EF010008EF01000850
:1000D000EF010008691C0008011D0008EF0100087D
:1000E000EF010008EF010008EF010008EF01000830
:1000F000EF010008EF010008EF010008EF01000820
:10010000EF010008EF010008D5170008EF01000813
:10011000EF010008EF010008EF010008EF010008FF
:10012000EF010008EF010008EF010008EF010008EF
:1001300000F002F800F03FF80AA090E8000C8244BA
:100140008344AAF10107DA4501D100F034F8AFF297
:10015000090EBAE80F0013F0010F18BFFB1A43F0A5
:10016000010318479C3A0000BC3A0000103A24BF33
:1001700078C878C1FAD8520724BF30C830C144BF0C
:1001800004680C607047000000230024002500264E
:10019000103A28BF78C1FBD8520728BF30C148BFEA
:1001A0000B607047642900F07F80002070471FB506
:1001B0001FBD10B510BD00F02EF91146FFF7F7FF77
:1001C00002F090FA00F04CF903B4FFF7F2FF03BC21
:1001D00001F0DAFE0948804709480047FEE7FEE7DC
:1001E000FEE7FEE7FEE7FEE7FEE7FEE7FEE7FEE7E7
:1001F00004480549054A064B70470000E51400080D
:1002000031010008D8030020D8090020D8050020BB
:10021000D8050020704700000FB41CB5074B06AA94
:100220007B4469460090059800F0DDF8002069469F
:1002300000F0ECF81CBC5DF814FB0000E9010000C4
:100240002DE9F0410E460446002020622046E16878
:10025000884730B3252805D0D4E901219047206A8A
:10026000401CF2E7E168204600278847050018D0C7
:10027000A5F14100192802D820354FF40067324615
:10028000294620462760FFF78DFF40B1012804D0A2
:10029000F61D26F007060836D8E7361DD6E72846AD
:1002A000DAE7206ABDE8F0812DE9F0410646002436
:1002B00010687529314616A510D0AFF300800028CC
:1002C00002DA404213A507E031688A0701D512A57A
:1002D00002E0490704D511A5012401E0AFF3008035
:1002E00000210A2206F1240709E0B0FBF2FCB0FB72
:1002F000F2F302FB1C00303078541846491C0028E9
:10030000F3D123462A463046BDE8F04100F00CB850
:10031000000000002D0000002B0000002000000065
:1003200070477047704770472DE9F0470D46994672
:100330009246044600F124080168880604D5E06965
:1003400021F01001216000E00120A84201DD471BDF
:1003500000E00027A1697A1902EB0900081AA061E0
:100360002078C00602D42046AFF30080002608E0C3
:10037000D4E901211AF806009047206A401C761C37
:1003800020624E45F4DB2078C0060AD52046AFF344
:10039000008006E0D4E9012130209047206A401C0B
:1003A0002062381EA7F10107F4DC07E0D4E901213F
:1003B00018F805009047206A401C2062281EA5F10D
:1003C0000105F3DC2046AFF300802078000602D55B
:1003D0000220BDE8F0870120FBE7000001694A1C0C
:1003E00002610878704700B58FB0CDE90131002176
:1003F000059105497944CDE9031011466846FFF798
:100400001FFF0FB000BD0000E5FFFFFF0A6802F804
:10041000010B0A607047754600F02CF8AE460500E7
:100420006946534620F00700854618B020B5FFF70F
:10043000DFFEBDE820404FF000064FF000074FF010
:1004400000084FF0000B21F00701AC46ACE8C009F2
:10045000ACE8C009ACE8C009ACE8C0098D467047FB
:1004600010B50446AFF300802046BDE81040FFF70A
:10047000ABBE0000004870477803002000BFFEE7D5
:100480002DE9F04F91B004468B46154600201090A0
:1004900080460F90814682460E900D900C9025B9B3
:1004A00008200E9004200C900DE0012D04D10820AE
:1004B0000E9003200C9006E0022D02D103200E9036
:1004C00001E004200E90002623E0771C1BF80600B4
:1004D00001281DD106E01BF80700012801D17F1C6F
:1004E00000E002E00E988742F5DB00BFB81BC0B207
:1004F0000F900F9840450BDD06F0FF09781E00F0C5
:10050000FF0AB8F1000F01D001200D90DDF83C800A
:100510003E460E988642D8DBC4F800A0C4F804908A
:10052000C4F80880012D18D10AEB090003F0F0F996
:10053000059003F043F90022AB07CDE9060102F074
:100540003BFD00225E4BCDE9080103F04DF8CDE9FB
:100550000A0102F04BFCE06048E0022D18D10AEBE2
:10056000090003F0D5F9059003F028F900226B0784
:10057000CDE9060102F020FD0022524BCDE9080131
:1005800003F032F8CDE90A0102F030FCE0602DE022
:100590000E9803F0D5F9019003F010F900224FF006
:1005A0008043CDE9020102F007FD0022464BCDE970
:1005B000040103F019F8CDE908010AEB090003F082
:1005C000A7F9039003F0FAF800224FF08043CDE939
:1005D000040102F0F1FCCDE90601DDE9082303F096
:1005E00003F8CDE90A0102F001FCE060002020746C
:1005F0000DB1012D56D1012D03D14FF07E500B903E
:1006000001E032480B90A1680C98814205DC607CC7
:10061000002844D0A068032841DB01202074E06852
:1006200003F0CCF80022284BCDE9080102F09AFF34
:1006300015D8606803F06CF904900B9903F0EAF8A0
:10064000059003F0BBF800221D4BCDE9060102F036
:10065000CBFFCDE9080102F0C9FBE06021E0E068D2
:1006600003F0ACF800221A4BCDE9080102F040FE7D
:1006700017D8206803F04CF904900B9903F04AFA5C
:10068000059003F09BF800220D4BCDE9060102F026
:10069000ABFFCDE9080102F0A9FBE06001E000201A
:1006A000207400BFB8F1000F02D00D98012802D1CC
:1006B0000120A07401E00020A07411B0BDE8F08F0B
:1006C00000000C400000F83F0000E03F9A99193FFD
:1006D0000000E0BF10B50021014801F0E6F810BDB0
:1006E0000008004070B505460C46284602F066F842
:1006F000B4F57A7F05DD4FF47A7001F0E1FCA4F5E2
:100700007A74A0B201F0DCFC002070BD10B5962018
:1007100000F004FB1F48006818B902201D4908605A
:1007200012E01C480068012803D103201949086021
:100730000AE018480068022803D100201549086023
:1007400002E0012013490860C82001F0B9FCFFF75E
:10075000C1FF01F0F5FF6FF0950000F0DFFA0D48E2
:10076000006818B902200B49086012E009480068C7
:10077000012803D10320074908600AE00548006802
:10078000022803D100200349086002E0012001494A
:10079000086010BD700000202DE9F04F89B082463E
:1007A0008946002400200590069007900890049048
:1007B000B9F1000F02D0B9F1020F71D1BAF1000FF7
:1007C0006FD101208DF8100004A800F06BFDB9F185
:1007D000000F4CD1FE48807CA8B3FE480068401C46
:1007E000FC4908600846006803280CDCFA480169E7
:1007F00001F03AFF0646F94903F0B6F8054603F062
:100800006BF804467DE0F3480068032811DDF448E6
:10081000006800280DDDF0484168F24803F0A4F8B4
:100820000646EE4903F0A0F8054603F055F80446E5
:1008300067E0E9484168EC4803F096F8054603F0A4
:100840004BF804465DE0FFE7E148C168E24801F08B
:100850000BFF0646E14903F087F8054603F03CF834
:1008600004460020DB490860DD48046049E0D848C0
:10087000807C98B3D7480068401CD6490860084679
:10088000006803280EDCD948016901F0EDFE064638
:10089000D24903F069F8054603F01EF8044630E03B
:1008A0005EE13EE0CB48006803280DDDCC480068DF
:1008B000002809DDCD484168CD4803F055F80546CC
:1008C00003F00AF804461CE0C8484168C64803F033
:1008D0004BF8054603F000F8044612E0FFE7BC4879
:1008E000C168C24801F0C0FE0646BC4903F03CF8AE
:1008F000054602F0F1FF04460020B6490860B848FA
:10090000046060420590069405A9484601F0C0FFC6
:10091000AF48007C18B1012009B0BDE8F08F00207D
:10092000FAE7BAF1020F7CD101208DF812008DF8A0
:1009300013008DF8100004A800F0B4FCB9F1000F0A
:1009400070D14FF0000BBBF1000F7BD1A948807C28
:1009500028B3A948807C10B39E480068401C9D497C
:1009600008600846006803280CDC9B48016901F018
:100970007BFE0646A14902F0F7FF054602F0ACFFF8
:1009800004465FE093480068032805DD944800684A
:10099000002801DDED2455E06FF0EC0452E09548AD
:1009A000807C90B19448C1688B4801F05DFE06469A
:1009B000924902F0D9FF054602F08EFF04468848AE
:1009C00004600020834908603CE08B48807C90B143
:1009D0008848C168804801F047FE0646874902F012
:1009E000C3FF054602F078FF04467D4804600020FE
:1009F0007849086026E0804AD1687E4AD06802F0D3
:100A000009FF009002F0DAFE074600224FF0804313
:100A100002F0D2FA054602F0E9F9014601906E486B
:100A200001E010E10FE001F01FFE7449029002F0B6
:100A30009BFF039002F050FF0446694804600020C9
:100A4000644908607EE04FF0000BBBF1000F78D1E5
:100A50006848807C28B36848807C10B35D48006893
:100A6000401C5C4908600846006803280CDC5F48AD
:100A7000016901F0F9FD0646604902F075FF05467F
:100A800002F02AFF04465CE052480068032805DDB6
:100A900053480068002801DDED2452E06FF0EC04BB
:100AA0004FE05448807C90B15348C1684F4801F0F2
:100AB000DBFD0646514902F057FF054602F00CFFE8
:100AC00004464748046000204249086039E04A482B
:100AD000807C90B14748C168444801F0C5FD064696
:100AE000464902F041FF054602F0F6FE04463C4846
:100AF000046000203749086023E03F4AD1683D4A3E
:100B0000D06802F087FE009002F058FE07460022EF
:100B10004FF0804302F050FA054602F067F90146B3
:100B20000190324801F0A0FD3449029002F01CFF10
:100B3000039002F0D1FE04462948046000202549B4
:100B4000086000BF60420590069405A9484601F080
:100B50009FFE1F48007C08B10120DDE60020DBE697
:100B6000BAF1010F6FD101208DF8110004A800F037
:100B700099FBB9F1010F68D12148807C30B3154849
:100B80000068401C134908600846006803280CDC14
:100B90001C48016901F068FD0646104902F0E4FEB8
:100BA000054602F099FE044697E00A4800680328CB
:100BB0002CDD0B480068002828DD124841680C48ED
:100BC00002F0D2FE054602F087FE1DE028E000009C
:100BD000EC000020600000203C0100200000B44236
:100BE0005C00002000004040000087C35801002046
:100BF0000000874314010020280100200000BE42AD
:100C00000001002074010020044666E03B48416872
:100C10003B4802F0A9FE054602F05EFE04465CE099
:100C20003848C168354801F01FFD0646364902F0D4
:100C30009BFE054602F050FE044600203349086042
:100C40003348046049E056E0FFE72E48807C88B3D3
:100C50002E480068401C2D4908600846006803289B
:100C60000CDC2C48016901F0FFFC0646264902F025
:100C70007BFE054602F030FE04462EE02348006865
:100C800003280DDD22480068002809DD214841685D
:100C9000214802F069FE054602F01EFE04461CE0F3
:100CA0001C484168164802F05FFE054602F014FE3B
:100CB000044612E0FFE71348C168164801F0D4FC6F
:100CC0000646114902F050FE054602F005FE0446B4
:100CD00000200E4908600E480460089460420790A6
:100CE00005A9484601F0D4FD0648007C08B1012062
:100CF00012E6002010E600200EE60000740100203D
:100D0000000087C3000100200000B4426000002002
:100D10005C000020900100200000874370B504466D
:100D200004F548731A461146084600F025FA70BDCE
:100D300010B500F09FF910BD10B51C4801F02EFD54
:100D40001B4801F02BFD1B4801F028FD1A4801F05B
:100D500025FD0021154801F02AFD0021144801F06D
:100D600026FD4FF07C51144801F021FD4FF07C51DD
:100D7000104801F01CFD114B002299070B4801F0AF
:100D800018FD0E4B00229907094801F012FD4FF0A3
:100D90007C5300220A49084801F00BFD4FF07C53B8
:100DA00000220749034801F004FD10BD3C0100206A
:100DB000580100207401002090010020CDCC4C3E51
:100DC000CDCC2C4010B500214FF47A7000F00CFC13
:100DD000FFF79CFC4FF448731A461946184600F07A
:100DE000C1F94FF42F731A461946184600F0B0F9AE
:100DF00010BD704710B5102000F050F8002837D013
:100E00001C480068F0B91C48007870B31B4800F01B
:100E100058FD044600201849087019480078C0F1B0
:100E2000050040F27121484304EB40101549096860
:100E3000401A154908600020114908700120134923
:100E4000087012E00D482430048805200C49087011
:100E500000200A492431088001200749087007480A
:100E600000F02FFD0749086000BF102000F010F8C7
:100E700010BD000010012142A4000020000C004021
:100E8000A6000020A00000209C000020B000002050
:100E90000149086070470000140401400146002029
:100EA0000022074B1B6803EA0102054B14331B6841
:100EB0000B4013B10AB1012000E000207047000090
:100EC000000401402DE9F0410246002500260020E3
:100ED00000230024002791F803C00CF00F0591F8BF
:100EE00003C00CF0100CBCF1000F03D091F802C04D
:100EF0004CEA050591F800C0BCF1000F31D0146830
:100F000000202BE04FF0010C0CFA00F3B1F800C008
:100F10000CEA03069E4220D183004FF00F0C0CFA1E
:100F200003F7BC4305FA03FC4CEA040491F803C040
:100F3000BCF1280F06D14FF0010C0CFA00FCC2F8EE
:100F400014C00AE091F803C0BCF1480F05D14FF07E
:100F5000010C0CFA00FCC2F810C0401C0828D1D3C8
:100F60001460B1F800C0BCF1FF0F34DD54680020FC
:100F70002EE000F1080C4FF0010808FA0CF3B1F86C
:100F800000C00CEA03069E4221D183004FF00F0CF3
:100F90000CFA03F7BC4305FA03FC4CEA040491F88D
:100FA00003C0BCF1280F05D100F1080C08FA0CF8B9
:100FB000C2F8148091F803C0BCF1480F07D100F1CA
:100FC000080C4FF0010808FA0CF8C2F81080401C19
:100FD0000828CED35460BDE8F0810000F0B50A4681
:100FE000002300240021002500F00046B6F1004F48
:100FF00002D11D4EF16901E01B4E7168C0F303453B
:1010000083B200F44016B6F5401F08D121F070619C
:10101000154E766826F07066134F7E6012E000F47D
:101020008016B6F5801F06D1032606FA05F4A14303
:1010300041F0706106E0460D360103FA06F6B14351
:1010400041F0706122B1460D360103FA06F63143D4
:1010500000F00046B6F1004F02D1034EF16101E00D
:10106000014E7160F0BD0000000001404161704719
:101070000161704708B50121602000F099F847F63A
:101080008170ADF8000004208DF8030003208DF876
:10109000020069460848FFF715FF4FF6FF70ADF8EC
:1010A000000004208DF8030003208DF8020069463B
:1010B0000248FFF707FF08BD001801400014014077
:1010C00000BFFEE700BFFEE77047000070B50021DB
:1010D00000230F22C47804B3154C246804F4E064A0
:1010E000C4F5E064210AC1F10403CA40447804FA5B
:1010F00003F184781440214309010E4C0678A15570
:10110000047804F01F050124AC4005786D11AD0092
:1011100005F1E025C5F8004109E0047804F01F0559
:101120000124AC40044D0678761145F8264070BD88
:101130000CED00E000E400E080E100E00249014342
:10114000024A1160704700000000FA050CED00E053
:1011500010B5034C20606160A260E36010BD000028
:101160007800002010B5034C20606160A260E3604D
:1011700010BD00008800002010B5034C20606160A5
:10118000A260E36010BD00008800002070470000EE
:1011900029B1064AD2690243044BDA6104E0034AEA
:1011A000D2698243014BDA617047000000100240AF
:1011B00029B1064A92690243044B9A6104E0034A4A
:1011C00092698243014B9A6170470000001002400F
:1011D00030B500210022002400232D4D6D6805F05C
:1011E0000C0121B1042905D0082923D105E0294D9E
:1011F000056022E0274D05601FE0254D6D6805F470
:101200007012234D6D6805F48034022505EB92427F
:101210001CB9214D554305600BE01D4D6D6805F46B
:1012200000351DB11C4D5543056002E0194D554375
:10123000056002E0174D056000BF00BF144D6D68EA
:1012400005F0F0010909154D6B5C0568DD4045604E
:101250000F4D6D6805F4E061090A104D6B5C45683F
:10126000DD4085600A4D6D6805F46051C90A0B4D7B
:101270006B5C4568DD40C560054D6D6805F4404117
:10128000890B074D6B5CC568B5FBF3F5056130BD97
:101290000010024000127A0000093D00D800002032
:1012A000E800002010B586B00446002004900590A8
:1012B0000290039001900090207838B104A800F0CB
:1012C0002DF8002204A91148FFF7DAF8607838B148
:1012D00002A800F03DF8012202A90D48FFF7D0F85E
:1012E000A07838B101A800F04DF8022201A9094800
:1012F000FFF7C6F8E07838B1684600F055F80322E9
:1013000069460548FFF7BCF806B010BDEC000020A8
:1013100000010020140100202801002010B5002148
:1013200009E0C1F10E03094C04EB8303D3F800314B
:1013300043544B1CD9B20829F3DB0279437903717A
:1013400042718279C3798371C27110BD000023425A
:10135000002109E0C1F10702084B03EB8202D2F839
:10136000002142544A1CD1B20829F3DB044A126816
:101370004270034A2C321268C270704700802242C9
:10138000000123420146002009E000F10802054B5C
:1013900003EB8202D2F800210A54421CD0B2032887
:1013A000F3DB7047008022420146002009E000F193
:1013B0000C02054B03EB8202D2F800210A54421CB6
:1013C000D0B20428F3DB704700802242704710B58A
:1013D00000F002F810BD00000CB500200190009054
:1013E0003348006840F480303149086000BF30481D
:1013F000006800F4003000900198401C01900098B3
:1014000018B90198B0F5A06FF1D12948006800F42F
:10141000003010B10120009001E000200090009801
:10142000012843D12348006840F01000214908609A
:101430000846006820F0030008600846006840F095
:10144000020008601A484068194948600846406828
:1014500048600846406840F480604860084640683C
:1014600020F47C1048600846406840F4E81048606A
:101470000846006840F08070086000BF0C480068B3
:1014800000F000700028F9D00948406820F00300FF
:10149000074948600846406840F00200486000BFC5
:1014A0000348406800F00C000828F9D10CBD00008A
:1014B0000010024000200240042808D14FF0E02133
:1014C000096941F004014FF0E022116107E04FF09B
:1014D000E021096921F004014FF0E0221161704719
:1014E0007047000010B51348006840F00100114932
:1014F000086008464068104908400E4948600846A0
:1015000000680E4908400B4908600846006820F44E
:10151000802008600846406820F4FE0048604FF4D0
:101520001F008860FFF753FF4FF000600449086018
:1015300010BD0000001002400000FFF8FFFFF6FEA3
:1015400008ED00E010B50121880700F0BDF918B1E1
:101550000121880700F0A6F910BD7FB505460C46AD
:1015600001210846FFF714FEADF80850ADF804401D
:101570000020ADF80A00ADF8060001A94FF0804048
:1015800000F020FB01221146900700F0AEF91C206C
:101590008DF8000003208DF8010000208DF8020076
:1015A00001208DF803006846FFF790FD01218807B0
:1015B00000F07BF97FBD000010B50121084800F064
:1015C00083F958B10121064800F06CF9054800681C
:1015D00008B9012000E000200249086010BD0000A9
:1015E000000400409401234230B589B005460C4602
:1015F00001210220FFF7CCFD012140F21510FFF779
:10160000D7FD01213348FFF7E9FC4FF47070ADF8C6
:10161000200018208DF8230003208DF8220008A94F
:101620002D48FFF74FFC4FF4E070ADF8200010207C
:101630008DF8230003208DF8220008A92748FFF722
:1016400041FC08A92548FFF73DFC08A92448FFF7FD
:1016500039FC08A92148FFF735FCADF81850ADF862
:1016600014400020ADF81A00ADF8160005A91D4879
:1016700000F0A8FA7020ADF804000120ADF80600D3
:101680000020ADF80C0001A9164800F037F901A9B7
:10169000144800F089F901A9124800F0E5F901A900
:1016A000104800F03BFA08210E4800F073F90821B9
:1016B0000C4800F0CBF908210A4800F025FA08216F
:1016C000084800F069FA0121064800F0EEF809B078
:1016D00030BD0000000C1A00001001400020014045
:1016E000000801400004004010B501210C4800F042
:1016F000EBF8A0B101210A4800F0D4F809480078BD
:10170000012804D108480068401C074908600748C0
:10171000016807480078FFF73FF80649087010BDD8
:1017200000080040640000206800002070000020D5
:101730006C000020740000207FB505460C46012196
:101740000420FFF725FDADF80850ADF80440002057
:10175000ADF80A00ADF8060001A90D4800F032FA14
:10176000012211460A4800F0C0F81E208DF8000042
:1017700001208DF801008DF802008DF80300684605
:10178000FFF7A4FC0021024800F08FF87FBD0000A5
:10179000000800403EB504460D4601210820FFF731
:1017A000F7FCADF80050ADF804400020ADF806009D
:1017B000ADF802000121064800F068F869460448C7
:1017C00000F000FA00200249243108803EBD0000EC
:1017D000000C004010B501211C4800F075F818B14C
:1017E00001211A4800F05EF81948007878B9012004
:1017F0001749087020211748FFF738FC472144F6A5
:101800001F60FFF7C7FF0520134908701CE0104850
:101810000078012818D11048007880B900200C49C0
:1018200008700E49087005200B49087047213C20BC
:10183000FFF7B0FF20210748FFF71AFC04E0064835
:101840000078401E0449087010BD0000000C0040E4
:10185000A500002000080140A6000020A4000020F0
:1018600008B501211020FFF7A3FC4FF48060ADF80C
:10187000000010208DF8030003208DF80200694657
:101880000148FFF71FFB08BD0010014021B102888D
:1018900042F08002028004E002884FF67F731A4013
:1018A00002807047CA430282704721B1028842F029
:1018B0000102028004E002884FF6FE731A400280A3
:1018C00070470146888C704730B5024600200023DF
:1018D0000024158A05EA0103958905EA010413B17C
:1018E0000CB1012000E0002030BD1AB183890B4308
:1018F000838102E083898B438381704770B5002424
:1019000000220023058C4FF6FE7635400584028CBC
:101910008388048B4FF68F752C40B51E2C400D88A4
:101920002C43751E2A400D892A434D882A43144DA5
:10193000A8420BD0134DA84208D0134DA84205D0A1
:10194000124DA84202D0124DA84213D14FF6F7759E
:101950002A404D892A434FF6FB752A408D882A4339
:101960004FF6FF652B404FF6FF552B408D892B43DB
:10197000CD892B4383800483CD888586028470BD06
:10198000002C01400034014000400140004401406F
:10199000004801400A460021018B4FF6F7731940B9
:1019A000114301837047000070B50024002200231A
:1019B000058C4FF6EF7635400584028C8388048BC6
:1019C00048F6FF752C404FF6FF452C400D884FF62A
:1019D000FF7606EA05252C434FF6DF752A400D8970
:1019E00006EA05152A434D8806EA05152A43154DD2
:1019F000A84202D0144DA8421DD14FF67F752A404F
:101A00004D894FF6FF7606EA05152A434FF6BF7556
:101A10002A408D8806EA05152A434FF6FF352B40EC
:101A20004FF2FF752B408D8906EA85052B43CD8942
:101A300006EA85052B4383800483CD8805870284CD
:101A400070BD0000002C0140003401400A46002116
:101A5000018B4FF2FF7319404FF6FF7303EA022325
:101A6000194301837047000070B500240022002351
:101A7000058C4FF6FF6635400584028C8388848B85
:101A80004FF68F752C404FF6FC752C400D882C437B
:101A90004FF6FF552A400D894FF6FF7606EA0525D9
:101AA0002A434D8806EA05252A43154DA84202D04F
:101AB000144DA8421DD14FF2FF752A404D894FF6B3
:101AC000FF7606EA05252A434FF6FF352A408D8822
:101AD00006EA05252A434EF6FF752B404DF6FF75A5
:101AE0002B408D8906EA05152B43CD8906EA05159D
:101AF0002B4383808483CD888587028470BD00005A
:101B0000002C0140003401400A460021818B4FF631
:101B1000F7731940114381837047000070B50022AC
:101B200000230024058C4EF6FF7635400584038C97
:101B30008488828B48F6FF752A404FF6FF452A407D
:101B40000D884FF6FF7606EA05252A434DF6FF7508
:101B50002B400D8906EA05352B434D8806EA0535ED
:101B60002B430B4DA84202D00A4DA84208D14BF698
:101B7000FF752C408D894FF6FF7606EA85152C43BC
:101B800084808283CD88A0F84050038470BD00001B
:101B9000002C0140003401400A460021818B4FF2A5
:101BA000FF7319404FF6FF7303EA02231943818341
:101BB0007047818670470187704781877047A0F81A
:101BC00040107047002202881D4B98420ED01D4BDA
:101BD00098420BD0B0F1804F08D01B4B984205D0F3
:101BE0001A4B984202D01A4B984204D14FF68F7389
:101BF0001A404B881A43174B984207D0164B98420D
:101C000004D04FF6FF431A40CB881A4302808B88DA
:101C100083850B8803850A4B98420BD0094B984269
:101C200008D00E4B984205D00D4B984202D00D4B78
:101C3000984201D10B7A038601238382704700000A
:101C4000002C014000340140000400400008004026
:101C5000000C004000100040001400400040014013
:101C6000004401400048014010B540F22551214890
:101C700000F0A9F810B31F4800F060F9C4B21E4884
:101C8000008800F40040C8B91B48008800F4804078
:101C900060B10A2C03D000201749088020E01648C4
:101CA000008840F400401449088019E00D2C06D14A
:101CB0001148008840F480400F49088010E00E4829
:101CC0000088C0F30D000D490C540B480088401CDF
:101CD0000949088008460088C72801DD00200880DF
:101CE0000548008800F40040B0F5004F01D100F035
:101CF0000DFA10BD00380140D4000020E70100209B
:101D000010B540F22551204800F05DF810B31E4890
:101D100000F014F9C4B21D48008800F40040C8B9AE
:101D20001A48008800F4804060B10A2C03D00020DB
:101D30001649088020E01548008840F40040134907
:101D4000088019E00D2C06D11048008840F480402E
:101D50000E49088010E00D480088C0F30D000C49C2
:101D60000C540A480088401C08490880084600882E
:101D7000C72801DD002008800448008800F40040E6
:101D800008B100F039F910BD00440040D600002031
:101D9000AF02002021B1828942F40052828104E026
:101DA00082894DF6FF731A408281704702460020F7
:101DB000B1F5007F00D100BF13880B400BB10120AB
:101DC00000E00020704770B5024600240023002583
:101DD000002040F66A16B14200D100BFC1F342159F
:101DE00001F01F03012606FA03F3012D02D19689A3
:101DF000334006E0022D02D1168A334001E0968A74
:101E000033400C12012606FA04F41688344013B14C
:101E10000CB1012000E0002070BDF0B503460024A5
:101E200000260025002040F66A17B94200D100BF05
:101E30001846C1F3421401F01F06012707FA06F500
:101E4000012C01D10C3004E0022C01D1103000E053
:101E500014301AB107682F43076002E00768AF43E8
:101E60000760F0BD2DE9F04786B005460E46002418
:101E7000A24600BFA1460027B08900B100BF2F468F
:101E80002C8A4CF6FF700440F08804432C82AC8905
:101E90004EF6F3100440B088318908437189084335
:101EA0000443AC81AC8A4FF6FF400440B089044340
:101EB000AC8201A8FFF78CF91F48874202D1DDF8F8
:101EC00010A001E0DDF80CA0A88900F4004040B1AA
:101ED0000AEBCA0000EB0A1031684900B0FBF1F8C8
:101EE00007E00AEBCA0000EB0A1031688900B0FB7A
:101EF000F1F86420B8FBF0F004012009642101FB33
:101F00001089A88900F4004040B1322000EBC900DC
:101F1000B0FBF1F000F00700044308E0322000EBD2
:101F200009106421B0FBF1F000F00F0004432C8194
:101F300006B0BDE8F08700000038014001468888FF
:101F4000C0F308007047C1F308028280704700BFE9
:101F5000FEE770B505460C4612E000BF802128461A
:101F6000FFF724FF0028F9D021782846FFF7EBFF80
:101F700000BF40212846FFF719FF0028F9D1641C53
:101F800020780028E9D170BD014600BF70470000ED
:101F9000014600202BE051F82020002A03DA51F8F6
:101FA000202041F8202051F82020124B53F82030F7
:101FB0001A4440F2B6339A4208DD0E4A52F8202005
:101FC000C2F57A72323A41F820200FE051F8202011
:101FD000084B53F820301A44B2F5FA7F06DA054A66
:101FE00052F82020C2F5FA7241F82020401C042843
:101FF000D1DB70478800002010B51B4B1B8803F411
:10200000004363B3184B1B88C3F30D02092A27D181
:10201000164B1B7A392B23D16423154C23700021D6
:1020200005E0124B5B5C134C63544B1CD9B29142DC
:10203000F7DB002011E0104B53F820305B1C53B14C
:102040000D4B53F820309B1C2BB10A4B1B5C303BD3
:10205000094C44F82030431CD8B20928EBDB02E0DD
:102060000023014C238010BDD6000020AF020020C9
:1020700098000020AC0100200800002010B56FF08F
:102080000400FFF719FA0A4800680A49B0FBF1F0AA
:10209000094908700846007800EB4001C1EBC01008
:1020A0004FF6FF7101EAC0000449088010BD00002E
:1020B0004800002000127A00B2000020B400002086
:1020C0000146114A12884A434FF0E0235A61002228
:1020D0009A611A46126942F001021A6100BF4FF07C
:1020E000E022106900F001021AB100F48032002AE7
:1020F000F5D04FF0E022126922F001024FF0E02308
:102100001A6100229A617047B400002010B5FC48A3
:102110000088C0F30D00FB490880FB480078522876
:1021200074D00CDC47286ED004DC42286CD04628E2
:102130006BD15FE14C280BD05028F9D1C5E0612864
:102140007ED063287DD065287CD07328F0D1FFE154
:10215000ED484078642840D10120EC4908702EE019
:102160004C21EB48FFF7EFFE00BF4021E848FFF7A6
:102170001DFE0128F9D16421E548FFF7E4FE00BF08
:102180004021E348FFF712FE0128F9D10D21E04874
:10219000FFF7D9FE00BF4021DD48FFF707FE012809
:1021A000F9D10A21DA48FFF7CEFE00BF4021D84816
:1021B000FFF7FCFD0128F9D10020D1490880D04863
:1021C000008800F4004090B1CF4800784C280ED130
:1021D000CD4840786428C3D009E0CB4840787228C5
:1021E00005D10120CB4908700020C5490880C648A8
:1021F0004078632805D10120C74908700020C049F4
:10220000088015E202E044E16CE110E2BE4840784B
:10221000642844D10120C149087032E05221BC48F1
:10222000FFF791FE00BF4021B948FFF7BFFD01282D
:10223000F9D16421B648FFF786FE00BF402102E0D5
:102240003AE1ADE190E0B248FFF7B0FD0128F5D1E9
:102250000D21AF48FFF777FE00BF4021AC48FFF7E4
:10226000A5FD0128F9D10A21A948FFF76CFE00BF9E
:102270004021A748FFF79AFD0128F9D10020A04985
:1022800008809F48008800F40040E8B19E4800782C
:10229000522819D19C4840786428BFD014E09A484D
:1022A0004078722806D101209D4908700020944989
:1022B000088009E094484078632805D101209949B5
:1022C000087000208E490880B2E18F484078642869
:1022D0003FD10120944908702EE050218C48FFF72F
:1022E00032FE00BF40218A48FFF760FD0128F9D186
:1022F00064218748FFF727FE00BF40218448FFF78D
:1023000055FD0128F9D10D218148FFF71CFE00BFC2
:1023100040217F48FFF74AFD0128F9D10A217C4876
:10232000FFF711FE00BF40217948FFF73FFD01286C
:10233000F9D10020724908807148008800F40040FB
:1023400038B171480078502803D16F48407864282C
:10235000C3D06D484078722805D1012073490870B8
:1023600000206749088063E1674840786E2840D1C3
:102370006548807864283CD101206D49087065214A
:102380006348FFF7E0FD00BF40216148FFF70EFD05
:102390000128F9D16E215E48FFF7D5FD00BF40212D
:1023A0005B48FFF703FD0128F9D164215848FFF786
:1023B000CAFD00BF40215648FFF7F8FC0128F9D1BB
:1023C0000D215348FFF7BFFD00BF40215048FFF7E4
:1023D000EDFC0128F9D10A214D48FFF7B4FD00BFFB
:1023E00040214B48FFF7E2FC0128F9D10020444985
:1023F00008801DE14448407864283FD101204D49C0
:1024000008702EE046214248FFF79DFD00BF4021A5
:102410003F48FFF7CBFC0128F9D164213C48FFF786
:1024200092FD00BF40213A48FFF7C0FC0128F9D1D6
:102430000D213748FFF787FD00BF40213448FFF7E3
:10244000B5FC0128F9D10A213148FFF77CFD00BF16
:1024500040212F48FFF7AAFC0128F9D10020284984
:1024600008802748008800F4004038B126480078EA
:10247000462803D1244840786428C3D022484078B5
:10248000722805D101202C49087000201C490880C1
:10249000CEE01D48407820B91B4840782749087095
:1024A00009E019484078722805D1012024490870B4
:1024B000002013490880BBE0012222A12248FDF739
:1024C000ABFE21491248FFF744FD40F60A5110487F
:1024D000FFF739FD00BF40210D48FFF767FC0128D9
:1024E000F9D1A5E008484078722808D1174800784B
:1024F00010B901201549087000200149088097E0B3
:10250000D4000020CC000020E7010020C200002001
:1025100000380140BC000020C7000020C30000209C
:10252000BD000020C8000020C4000020BE00002024
:10253000C6000020C5000020BF000020BB00002016
:10254000C000002025640000B5010020C10000206B
:1025500001203A49087019E073213948FFF7F3FC6C
:1025600000BF40213648FFF721FC0128F9D140F691
:102570000A513348FFF7E7FC00BF40213048FFF71E
:1025800015FC0128F9D100202E4908802D4800882B
:1025900000F4004018B12C4800787328DCD047E0E4
:1025A000294840786C2841D12748807863283DD15C
:1025B00000202649087026490870264908702649D7
:1025C00008702649087026490870264908701B497A
:1025D000087063211A48FFF7B6FC00BF4021184875
:1025E000FFF7E4FB0128F9D16C211548FFF7ABFC9C
:1025F00000BF40211248FFF7D9FB0128F9D1632120
:102600000F48FFF7A0FC00BF40210D48FFF7CEFBAD
:102610000128F9D140F60A510948FFF794FC00BFA0
:1026200040210748FFF7C2FB0128F9D100E000BFB5
:1026300000BF00200349088010BD0000CA00002030
:1026400000380140D4000020E7010020BF00002036
:10265000BC000020BD000020C1000020C9000020F7
:10266000BE000020C00000202DE9F84F04460D46B2
:102670002846216801F04EFA05464FF08040216956
:1026800001F072F92946009001F03AFA8346616937
:1026900001F0C0F88246E16801F066F980462169E0
:1026A000A06801F061F900902846216901F032FA32
:1026B0008346616801F058F98246009901F0AAF852
:1026C0008146414601F0A6F807463946A06901F067
:1026D000A1F80646206960612561A6613046BDE823
:1026E000F88F0000FFF7CAFCFEF722FBFEF724FB81
:1026F000FEF768FBC820FFF7E3FC4FF4A060FEF78D
:102700001DFD4FF4165000F0CFFA4FF4165000F0B4
:102710001BFBFFF7A5F847216320FFF70DF840F2F8
:10272000CF2142F20F70FEF718FFFDF7EFFF0349CC
:102730000020FDF7D7FF00BFFEE70000809698005D
:1027400010B580211248FEF791FC4FF480711048BB
:10275000FEF78CFC4FF480710E48FEF787FC402199
:102760000B48FEF783FC40F2E9310B48FFF721FAF2
:1027700040F2E9310848FFF71EFA40F2E931064815
:10278000FFF71BFA40F2E9310348FFF718FA10BDD2
:102790000020014000080140000400400021416089
:1027A0008160C160016001614161816170470160C8
:1027B000704741608260C3607047000010B50446F6
:1027C000002C2EDD80212E48FEF750FC4FF4807146
:1027D0002B48FEF74DFC4FF480712A48FEF748FC69
:1027E00040212748FEF742FC27480068C0F57A7070
:1027F00081B22648FFF7DDF92348808881B223485B
:10280000FFF7D9F92048008981B22048FFF7D5F9B0
:102810001D48C068C0F57A7081B21C48FFF7CFF937
:102820002DE080211648FEF723FC4FF480711448F8
:10283000FEF71CFC4FF480711248FEF717FC402194
:102840000F48FEF715FC1048008881B20F48FFF7CB
:10285000B0F90D484068C0F57A7081B20B48FFF7B7
:10286000AAF909488068C0F57A7081B20748FFF775
:10287000A4F90548808981B20448FFF7A0F910BD8A
:1028800000200140000801407800002000040040C2
:102890002DE9F84F81460C462046FFF779FB484664
:1028A00009EBD0714910A9EB4101002975D1B9F1AB
:1028B000010F74DA8021F048FEF7DAFB4FF48071E3
:1028C000ED48FEF7D5FBED4800882288104481B220
:1028D000EB48FFF76EF9E9488088A288104481B27E
:1028E000E748FFF768F940F2E931E548FFF765F995
:1028F0004021E448FEF7BAFB60680F281ADD40214A
:10290000DD48FEF7B3FB606800F0DBFC8246002286
:10291000DD4B00F029FD07460022DC4B00F058FE9D
:10292000054600F0A1FC80B201460090D448FFF7B4
:1029300046F99EE1606810F10F0F1ADA4021CE4887
:10294000FEF796FB606800F0BCFC82460022CE4B8E
:1029500000F00AFD07460022CD4B00F039FE054687
:1029600000F082FC80B201460090C548FFF727F9CD
:102970007FE14FF48071C348FEF778FB40F2E93104
:10298000BF48FFF71AF94021BB48FEF76FFB40F242
:10299000E931BB48FFF713F96BE179E0FFE78021EC
:1029A000B548FEF763FB4FF48071B348FEF75EFB5A
:1029B000B2480068C0F57A702288801A81B2B048A7
:1029C000FFF7F7F8AD484068C0F57A70A288801A22
:1029D00081B2AB48FFF7EFF840F2E931A848FFF7C2
:1029E000EEF84021A448FEF741FB606814281BDD87
:1029F0004FF48071A348FEF739FB606800F061FC7A
:102A00000546A44AA44B00F0AFFC074600229F4BAA
:102A100000F0DEFD824600F027FC80B20146009007
:102A20009748FFF7CAF824E1606810F1140F1BDA29
:102A30004FF480719348FEF71BFB606800F041FC87
:102A40000546944A944B00F08FFC07460022904BB9
:102A500000F0BEFD824600F007FC80B20146009007
:102A60008748FFF7AAF804E14FF480718548FEF724
:102A7000FDFA40F2E9318248FFF79FF840217E4895
:102A8000FEF7F4FA40F2E9317D48FFF798F8F0E0FC
:102A9000B9F1020F78DA4FF480717A48FEF7E6FA5E
:102AA00040217548FEF7E2FA74488068C0F57A70F4
:102AB0002289801A81B27248FFF77FF86F48C06898
:102AC000C0F57A70A289801A81B26D48FFF777F855
:102AD00040F2E9316A48FFF76EF84FF480716648BA
:102AE000FEF7C4FAE06814281ADD80216248FEF778
:102AF000BDFAE06800F0E5FB07460022624B00F0FB
:102B000033FC05460022654B00F062FD824600F072
:102B1000ABFB80B2014600905948FFF74AF8A8E0A5
:102B2000E06810F1140F1ADA80215348FEF7A0FA7A
:102B3000E06800F0C6FB82460022534B00F014FC14
:102B400007460022564B00F043FD054600F08CFB83
:102B500080B2014600904A48FFF72BF889E040F226
:102B6000E9314748FFF725F880214348FEF77EFA10
:102B700040F2E9314248FFF71EF84FF480713E48B9
:102B8000FEF774FA75E0FFE74FF480713D48FEF7F9
:102B90006FFA40213848FEF76BFA384800892289DD
:102BA000104481B23648FFF708F834488089A2897A
:102BB000104481B23248FFF702F880212E48FEF718
:102BC00055FA40F2E9312E48FEF7F3FFE0680F288E
:102BD0001CDD4FF480712848FEF748FAE06800F0E9
:102BE00070FB07464FF033322E4B00F0BDFB05461D
:102BF0000022264B00F0ECFC824600F035FB80B250
:102C0000014600901E48FEF7D6FF32E0E0680F282C
:102C10001CDA4FF480711848FEF72AFAE06800F0D9
:102C200050FB05464FF033321E4B00F09DFB07462C
:102C30000022174B00F0CCFC824600F015FB80B25E
:102C4000014600900E48FEF7B6FF12E040F2E9316F
:102C50000B48FEF7AEFF80210748FEF707FA40F267
:102C6000E9310748FEF7A7FF4FF480710248FEF7ED
:102C7000FDF9BDE8F88F0000002001408800002029
:102C800000040040000801400000E03F0050844084
:102C900000E075409A9999999999D93F0000794037
:102CA00000C082403333E33F10B586B004460121B3
:102CB00044F20400FEF77CFA4FF40070ADF8140003
:102CC00003208DF8160018208DF8170005A91C4860
:102CD000FEF7F8F84FF48060ADF8140004208DF88A
:102CE000170005A91648FEF7EDF825208DF800001D
:102CF00003208DF801008DF8020001208DF80300FB
:102D00006846FEF7E3F901940020ADF80800ADF83D
:102D10000A00ADF80C00ADF810000C20ADF80E0064
:102D200001A90848FFF79EF8012240F22551054805
:102D3000FFF773F801210348FFF72CF806B010BD28
:102D4000000801400038014010B586B0044601215A
:102D50000420FEF72DFA01214804FEF719FA042099
:102D6000ADF8140003208DF8160018208DF8170018
:102D700005A91C48FEF7A6F80820ADF814000420A9
:102D80008DF8170005A91748FEF79CF826208DF846
:102D9000000003208DF8010002208DF802000120C0
:102DA0008DF803006846FEF791F901940020ADF814
:102DB0000800ADF80A00ADF80C00ADF810000C20CA
:102DC000ADF80E0001A90848FFF74CF8012240F2C7
:102DD00025510548FFF721F801210348FEF7DAFFE6
:102DE00006B010BD000801400044004021F0004240
:102DF000A2F16052B2F5801F01F0004328BFD2F16A
:102E00007F6C0BD95FEA001C43EAC20242EB5070B0
:102E100018BF704728BF20F001007047B2F5801F2F
:102E2000BCBF184670474FEA410C1CF5001F02D288
:102E3000084600F060BE70B500F040FB000000895D
:102E4000FFF7F6BF4FF00040A0F58000704700008C
:102E500010B591EA030F48BF83F0004300F1CC8323
:102E6000841A71EB030C05D2121943EB0C03001BFF
:102E700061EB0C01DFF824E14FEA1154A4EB135C81
:102E80001EEA430F18BF9EEA445F73D023EA0E0385
:102E9000DCF1200E21EA045143F4801332D322FAEC
:102EA0000CFE10EB0E0023FA0CFE41EB0E01CCF1F0
:102EB000200E03FA0EFE10EB0E0051F10001B1F5E9
:102EC000801FCCF1200E32D201EB045112FA0EF227
:102ED000BDE8104058BF7047401C38BF5FEA42024F
:102EE00018BF7047002814BF20F0010041F1000115
:102EF0004FEA410313F5001F38BF7047A1F1C041ED
:102F000000F02ABB012A43EB0302ACF1200CDCF1F8
:102F10001F0E32BF4FF0000E23FA0CF310EB03002C
:102F200041EB0451B4EB115FD0D0A1EB045101F59A
:102F3000801149085FEA300001EB04510ED350F1D3
:102F4000000038BF12FA0EFE08D1BDE81040C9E7F4
:102F5000401C38BF5FEA4202CAD1C3E7BDE8104057
:102F60004FEA410313F5001F38BF7047A1F1C0417C
:102F700000F0F2BA9EEA445F08D011EA5E0FBDE8A5
:102F8000104004BF01F0004100207047BDE8104030
:102F900070B500F093FA00BF64FBBE3E0000E0FF96
:102FA000491058BFC1F140415B1058BFC3F14043C5
:102FB0008B42EFF3008070472DE9C04130B4DFF859
:102FC000A0C23CEA111418BF3CEA131400F0EC80D4
:102FD00081EA03051CEA111444EAD57418BF1CEAFF
:102FE000131500F0C780A4EB05044FF0004545EA37
:102FF000C12145EAC32341EA505143EA525304F147
:103000007F74994204F500344FEAC0204FEAC2228F
:1030100008BF904200F09C804FEA13650FF2401603
:10302000765D4FEA134506FB05F7C7F1807706FB8F
:1030300007F74FEAD737A7FB03687642C8F5803811
:10304000A7FB06CE38BFA8F1010807FB08E64FF042
:10305000000EA6FB028CE6FB03CEDCF1000CCEF1E9
:10306000004E38BFAEF1010EA6FB0C584FF0000722
:103070004FF00005E6FB0E87A1FB08C6A0FB07CEBC
:1030800016EB0E0645F10005E1FB076515F1E04E74
:103090007EBFA4F580345FEA46066D4116F18007D5
:1030A00045F100054FEA17274FEA066647EA05672C
:1030B000A6F1DE46B6F1805F4FEA15251FD93846E6
:1030C00024F0010C05EBC471BCF1FE6F01EB0C1197
:1030D00002D8F0BCBDE8008124425CBF01F5801E2F
:1030E0009EEAC47F02D4F0BCBDE80081244238D4FB
:1030F000F0BCA1F1C041BDE8004100F02DBA4FEA9B
:10310000D22242EA43524FEAD323A7FB02864FEA78
:10311000D02040EA415007FB03661EEA0E0F4FEA3B
:10312000D12105FB026658BFA6EB0056B6EB005650
:103130004FEA520E4EEAC37E18EB0E0E56EB530EBC
:10314000BDD518EB02085E417F1C55F10005B6E7BE
:103150004FF480154FF000074FF000064FF00008C5
:10316000ADE7F0BC4FF0000001F1C04101F00041BB
:10317000BDE8008111EA0C1F0CEA131500D00CE029
:1031800013EA0C1F00F025804FF00000F0BC81EA2C
:10319000030101F00041BDE80081F0BCBDE8004141
:1031A00081EA030100F0D8B9F0BCBDE8004170B578
:1031B00000F084F9097EFC3E00F007B881EA0301C3
:1031C0004FF0000001F00041704781EA030100F078
:1031D000C3B9F0BCBDE800414FF000002149704781
:1031E000FFFDFBF9F7F5F4F2F0EEEDEBE9E8E6E4CC
:1031F000E3E1E0DEDDDBDAD8D7D5D4D3D1D0CFCD53
:10320000CCCBCAC8C7C6C5C4C2C1C0BFBEBDBCBB8B
:10321000BAB9B8B7B6B5B4B3B2B1B0AFAEADACAB86
:10322000AAA9A8A8A7A6A5A4A3A3A2A1A09F9F9E60
:103230009D9C9C9B9A999998979796959594939312
:10324000929191908F8F8E8E8D8C8C8B8B8A8989A9
:10325000888887878685858484838382828181802C
:103260000000FF070000F87F4FEA1153A3F58063C9
:10327000D3F11E03A8BFD3F1200C08DB4FF00042AE
:1032800042EAC12252EA505232FA03F07047094230
:103290000BD4102BC4BF0020704703F5787CBCF121
:1032A000FF3F05D04FF0FF3070474FF000007047F0
:1032B00070B500F003F900BF4992248000207047E8
:1032C000F0E710F0004248BF4042B0FA80F310FA35
:1032D00003F10AD0C3F11D0303F580634FEA4150A7
:1032E00002EB035202EBD12170474FF00000704710
:1032F00051EA030C17D41CF5801F58BFBCF5801F82
:1033000000F10680994218BF704708BF904270478D
:1033100007D711F5801F58BF13F5801F19D49942A4
:103320007047894270471CF5801F08D5BCF5801F87
:10333000F7D58B4218BF704708BF824270474FF4E1
:10334000001C1CEB410F38BF1CEB430F01D28B421A
:10335000704770B500F0B2F8922449004FF0005168
:103360004FF08053FFF71CBEDFF848C170B51CEA70
:10337000111E1EBF1CEA13159EEA0C0F95EA0C0FD6
:1033800000F06F8081EA030423EA4C134EEAD47EF6
:1033900021EA4C1141F4801143F48013AE44A1FBA7
:1033A000024CA0FB0365AEF17F7E361955EB0C0590
:1033B000A1FB034C4CF10003A0FB021C16EB0C0616
:1033C000654153F10003094218BF46F0010613F4AA
:1033D000007F0BD14FEA03314FEA0530340341EA55
:1033E000155140EA16506FF003020AE04FEAC3217C
:1033F0004FEAC520F40241EA555140EA56506FF0B9
:10340000020202EB2E4201EB025585EACE710AD090
:103410005FEA440C18BF24F0004450F1000041F171
:10342000000120EAD47040F2FE7C624500D270BDFB
:10343000A84214BF4FF080444FF04044002E08BF14
:103440000024BEF1806FA8BFA1F1C041BDE870406B
:1034500080F282804FF0000001F1C04101F0004194
:1034600070479EEA0C0F0CEA131518BF95EA0C0F73
:1034700006D04FF0000081EA030E0EF0004170BD4F
:1034800000F01CF88900013E00F007B800F009B810
:103490004FEA430C5FEA5C5C08D081EA030100F06C
:1034A0005BB84FEA410C5FEA5C5CF6D14FF000007C
:1034B000014970470000FF070000F87F0EF1020E7F
:1034C0002EF0030E5EF8046B364205D4012A43EB5E
:1034D000030515F5001F12D8012841EB010C1CF55E
:1034E000001F0CD80ED14FEAD17C15F5001F0CEB54
:1034F0004C0C0CF1020C08BF4CEBD37C04E04FF0F9
:10350000080C01E04FEAD37C0CEB4C0526FA05F6DB
:1035100006F00706B6F1040C06D20EEB860CBDE8E9
:1035200070404CF0010C6047DFE80CF0090B020220
:103530004FF000414FF00000A1F5002170BD194689
:103540001046012851EB010418BFD4F5001484BFC4
:10355000002001F0004170BD0808A0F500114FEAFD
:103560003101704753EA010C17D41CF5801F58BF76
:10357000BCF5801F00F106808B4218BF704708BF62
:103580008242704707D713F5801F58BF11F5801F7F
:1035900019D48B4270479B4270471CF5801F08D599
:1035A000BCF5801FF7D5994218BF704708BF9042FD
:1035B00070474FF4001C1CEB430F38BF1CEB410F4E
:1035C00001D2994270470FB40CBC03BCFFF7C1BED7
:1035D00091EA030F10B581F000413FF541AC83F053
:1035E000004300F009B8000010B591EA030F48BF8E
:1035F00083F000433FF534AC841A71EB030C07D21F
:1036000012198CF0004C43EB0C03001B61EB0C0116
:10361000DFF8A4E14FEA1154A4EB135C1EEA430F58
:1036200018BF9EEA445F00F0B08023EA6E03524266
:1036300021EA0451C3EB6E0338BF5B1EDCF1200EA0
:1036400025D322FA0CFE10EB0E0043FA0CFE41EBE0
:103650000E01CCF1200E03FA0EFE10EB0E0051F11C
:103660000001CCF1200E29D412FA0EF201EB045124
:10367000BDE8104058BF7047401C1CBFB2F1004F5E
:10368000704700280CBF491C20F00100704712EB66
:10369000020E43EB030218BF4FF0010E4EEA420246
:1036A000ACF1200CDCF11E0E54D943FA0CFE10EBE9
:1036B0000E0051F1FF31CCF11E0ED5D50EF1010EE9
:1036C00012FA0EFE404141EB010101EB445C5FEA5E
:1036D0005C5C10D910EBDE7001EB045138BFBEF119
:1036E000004FBDE8104018BF704700280CBF491CB0
:1036F00020F00100704730D24FEAD42C11F50011B0
:1037000024F400641BD0B1FA81F20B3AA41AA41E6F
:10371000D2F12003914030FA03F31943904001EBBA
:10372000CC71002C01EB0451BDE81040A8BF7047DC
:1037300001F1C0414FF0000001F000417047B0FAC4
:1037400080F310FA03F100D110BDE41A173C4805CC
:10375000C90AE4E701EB045110BD491001EB045123
:10376000BDE810404FEA300002E04FF00001704722
:103770004A0008BF0042F8D0B2F5001F28BF7047CA
:1037800001F000414FF0000070479EEA445F07D00F
:1037900011EA5E0FBDE8104004BF00210020704711
:1037A000BDE8104070B5FFF789FE00BF40DFF63E70
:1037B00083F00041104670470000E0FF43004FEAED
:1037C000D30C4FEA3C0C43401FBF40070CF1605143
:1037D00013F0FE4F70471CF0006F03D100200CF077
:1037E000004170470CF0004343EA507010B540EAC6
:1037F000CC0000F03AF900BF000000924FEA00014F
:10380000FFF7AABE4FF000414FF00000A1F50021E4
:103810007047000090EA010F48BF81F0004100F1BD
:103820008081421A3CBF801A89184FEAD0524FF06B
:103830007F4C1CEA410FA2EBD15318BF9CEA026FE8
:1038400000F03B804FF0004C4CEA00204CEA012194
:1038500021FA03FC10EB0C0C1ED202F1FF325FEADE
:103860001C2040EBC25038BF70471CF07F0F4FEA5E
:10387000400C18BFBCF17F4F38BF7047C3F1200325
:10388000994008BF20F00100BCF17F4F38BF70475E
:10389000A0F1C04000F02FB94FEA3C00000A40EB15
:1038A000C25028BF1CF0FF0F4FEA400CE6D018BFF3
:1038B000BCF17F4F38BF7047EAE79CEA026F05D042
:1038C00010EA5C0F08BF00F00040704710B500F030
:1038D000CCF800BF64FBBE3E41000B0ED3F19E024C
:1038E00008D950F400034FEA032323FA02F048BF3B
:1038F0004042704710B500F0B8F800BF49922480EC
:10390000002070476FF0004282EA200070470000FC
:1039100010F0004148BF4042B0FA80F310FA03F2C1
:10392000C3F19D030BD051EAC35101EB12205306A2
:1039300038BF704700F1010008BF20F00100704758
:10394000B0FA80F310FA03F2C3F19D030AD0D9054F
:1039500001EB1220530638BF704700F1010008BF89
:1039600020F00100704700004FF47F0C1CEAD012D9
:103970001EBF1CEAD11392EA0C0F93EA0C0F00F061
:10398000478090EA010F48BF42F480724FF0004C2C
:103990004CEA00204CEA012102EB0302A0FB0113D8
:1039A000A2F50002002918BF43F001035B0028BF05
:1039B0004FEA330342EB22425FEA132C4CEBC25036
:1039C0002EBFBCEB436FB2F57C0F70474FEA036C20
:1039D000BCF1004F08BF20F00100B2F57C0F38BFEA
:1039E00070470BD582F0FF0212F5803FC8BF7047C9
:1039F00000F1C040D8BF00F00040704700F5000C57
:103A00005FEA4C0C48BF7047B0F1C04000F073B89B
:103A100090EA010F0CEAD11348BF42F4807262456C
:103A200038BF634504D280EA010000F000407047CF
:103A300010B500F01AF800BF8900013E00F007B889
:103A400000F009B85FEA410C5FEA1C6C08D080EA1C
:103A5000010000F050B85FEA400C5FEA1C6CF6D140
:103A60004FF00040A0F5800070470EF1020E2EF0DE
:103A7000030E5EF8044B244204D44FEA4102B2F133
:103A80007F4F11D84FEA4003B3F17F4F0CD80ED1CE
:103A90004FEAD07CB2F17F4F0CEB4C0C0CF1020CD6
:103AA00008BF4CEBD17C04E04FF0080C01E04FEA7A
:103AB000D17C0CEB4C0324FA03F404F00704B4F1BA
:103AC000040C06D20EEB840CBDE810404CF0010C47
:103AD0006047DFE80CF0070802024FF00040A0F555
:103AE000800010BD0846420018BFD2F1807288BF26
:103AF00000F0004010BDFF2141EAD050C0057047E2
:103B000080F0004090EA010F7FF58BAE81F000411C
:103B100000F007B890EA010F48BF81F000413FF57F
:103B200080AE421A04D882F00042A0EB0200114499
:103B30004FEAD0524FF07F4C1CEA410FA2EBD15319
:103B400018BF9CEA026F4AD04FF0004C4CEA0020AC
:103B50004CEA012121FA03FCB0EB0C0C0FD412F05B
:103B6000FE0F36D05FEA4C001DD5001240EBC2506C
:103B700038BF70471CF03F0F18BF70470BE0A2F131
:103B800001025FEA1C2040EBC25038BF70471CF0B6
:103B90007F0F18BF7047C3F12003994014BF401E28
:103BA00020F00100704780084FEA122308BF7047D9
:103BB000B0FA80FCA2EB0C02CCF1280C60FA0CF0FD
:103BC00093EA122F04BF00EBC25070474FEAC37054
:103BD0007047130A5FEADC1008BF7047F6E79CEAFB
:103BE000026F04D010EA5C0F08BF0020704710B5C8
:103BF000FFF73BFF40DFF63E81F0004070470000DA
:103C0000203C000800000020EC0000006C010008CF
:103C10000C3D0008EC000020EC08000088010008C2
:103C20000200000000000000070000000800000083
:103C30000500000006000000010000000200000076
:103C40000300000004000000010000007F000000ED
:103C50000000000000000000000000000000000064
:103C6000000000000000000000A24A040000000064
:103C7000000000000102030406070809000000001C
:103C80000000000000000000000000000000000034
:103C90000000000000000000900100009001000002
:103CA00090010000900100002003000020030000AC
:103CB00020030000200300000000000000000000BE
:103CC00000000000000000000100000000000000F3
:103CD00000000000000000000000000000000000E4
:103CE00000000000000000000000000000000000D4
:103CF00000000000000000000000000001020304BA
:0C3D00000102030406070809020406087B
:04000005080001D519
:00000001FF
