:020000040800F2
:1000000098090020D5010008190F0008110F0008F9
:10001000150F00087D040008831C00080000000084
:10002000000000000000000000000000E9110008CE
:10003000830B000800000000C90F0008FD12000833
:10004000EF010008EF010008EF010008EF010008D0
:10005000EF010008EF010008EF010008EF010008C0
:10006000EF010008EF010008850B0008EF01000810
:10007000EF010008EF010008EF010008EF010008A0
:10008000EF010008EF010008EF010008EF01000890
:10009000EF010008EF010008EF010008EF01000880
:1000A000EF010008EF010008EF010008EF01000870
:1000B000EF0100086113000891140008EF01000827
:1000C000EF010008EF010008EF010008EF01000850
:1000D000EF0100089D190008351A0008EF0100081B
:1000E000EF010008EF010008EF010008EF01000830
:1000F000EF010008EF010008EF010008EF01000820
:10010000EF010008EF01000819150008EF010008D1
:10011000EF010008EF010008EF010008EF010008FF
:10012000EF010008EF010008EF010008EF010008EF
:1001300000F002F800F03FF80AA090E8000C8244BA
:100140008344AAF10107DA4501D100F034F8AFF297
:10015000090EBAE80F0013F0010F18BFFB1A43F0A5
:100160000103184780390000A0390000103A24BF6D
:1001700078C878C1FAD8520724BF30C830C144BF0C
:1001800004680C607047000000230024002500264E
:10019000103A28BF78C1FBD8520728BF30C148BFEA
:1001A0000B607047642900F07F80002070471FB506
:1001B0001FBD10B510BD00F02EF91146FFF7F7FF77
:1001C00002F038FA00F04CF903B4FFF7F2FF03BC79
:1001D00001F074FD0948804709480047FEE7FEE743
:1001E000FEE7FEE7FEE7FEE7FEE7FEE7FEE7FEE7E7
:1001F00004480549054A064B7047000001130008F2
:10020000310100089803002098090020980500207B
:1002100098050020704700000FB41CB5074B06AAD4
:100220007B4469460090059800F0DDF8002069469F
:1002300000F0ECF81CBC5DF814FB0000E9010000C4
:100240002DE9F0410E460446002020622046E16878
:10025000884730B3252805D0D4E901219047206A8A
:10026000401CF2E7E168204600278847050018D0C7
:10027000A5F14100192802D820354FF40067324615
:10028000294620462760FFF78DFF40B1012804D0A2
:10029000F61D26F007060836D8E7361DD6E72846AD
:1002A000DAE7206ABDE8F0812DE9F0410646002436
:1002B00010687529314616A510D0AFF300800028CC
:1002C00002DA404213A507E031688A0701D512A57A
:1002D00002E0490704D511A5012401E0AFF3008035
:1002E00000210A2206F1240709E0B0FBF2FCB0FB72
:1002F000F2F302FB1C00303078541846491C0028E9
:10030000F3D123462A463046BDE8F04100F00CB850
:10031000000000002D0000002B0000002000000065
:1003200070477047704770472DE9F0470D46994672
:100330009246044600F124080168880604D5E06965
:1003400021F01001216000E00120A84201DD471BDF
:1003500000E00027A1697A1902EB0900081AA061E0
:100360002078C00602D42046AFF30080002608E0C3
:10037000D4E901211AF806009047206A401C761C37
:1003800020624E45F4DB2078C0060AD52046AFF344
:10039000008006E0D4E9012130209047206A401C0B
:1003A0002062381EA7F10107F4DC07E0D4E901213F
:1003B00018F805009047206A401C2062281EA5F10D
:1003C0000105F3DC2046AFF300802078000602D55B
:1003D0000220BDE8F0870120FBE7000001694A1C0C
:1003E00002610878704700B58FB0CDE90131002176
:1003F000059105497944CDE9031011466846FFF798
:100400001FFF0FB000BD0000E5FFFFFF0A6802F804
:10041000010B0A607047754600F02CF8AE460500E7
:100420006946534620F00700854618B020B5FFF70F
:10043000DFFEBDE820404FF000064FF000074FF010
:1004400000084FF0000B21F00701AC46ACE8C009F2
:10045000ACE8C009ACE8C009ACE8C0098D467047FB
:1004600010B50446AFF300802046BDE81040FFF70A
:10047000ABBE0000004870473403002000BFFEE719
:100480002DE9F04F91B004468A46174600200F90A0
:10049000804683460E900D9081460C90012F00D02F
:1004A00047B94FF0080917B104200C9004E005206B
:1004B0000C9001E04FF00409002522E06E1C1AF8B0
:1004C000050001281CD106E01AF80600012801D118
:1004D000761C00E001E04E45F6DB00BF701B00F02B
:1004E000FF0BC34508DDE8B20E90701EC0B20D9040
:1004F000D84600200F9003E0C34501D101200F90A2
:1005000035464D45DADB0F9860740D9820600E98E3
:100510006060C4F80880484603F084F9019003F055
:10052000BFF800224FF08043CDE9020102F098FDB0
:1005300000223B4BCDE9040102F0C8FFCDE90801E0
:10054000DDE90D12881803F055F9039003F0A8F8BF
:1005500000224FF08043CDE9040102F081FDCDE996
:100560000601DDE9082302F0B1FFCDE90A0102F03E
:1005700091FCE06000202074B9F1080F41D1A1681E
:100580000C98814204DC607CC0B3A068032836DB91
:1005900001202074E06803F083F80022204BCDE9AD
:1005A0000A0102F05DFF0FD8606802F0B1FE4FF063
:1005B00033321C4BCDE9080102F09EFCCDE90A0163
:1005C00002F068FCE0601CE0E06803F069F80022DB
:1005D000154BCDE90A0102F0B3FE12D8206802F0F3
:1005E00097FE4FF033320F4BCDE9080102F06EFF5A
:1005F000CDE90A0102F04EFCE06002E0FFE70020D6
:100600002074B8F1000F02D00F98012802D1012008
:10061000A07401E00020A07411B0BDE8F08F0000CC
:100620000000E03F3333E33F0000E0BF70B5054614
:100630000C46284602F028FAA0B201F027FE00205E
:1006400070BD00002DE9F04F89B082468946002434
:10065000002005900690079008900490B9F1000FD3
:1006600002D0B9F1020F7DD1BAF1000F7BD1012088
:100670008DF8100004A800F033FDB9F1000F34D15B
:10068000FE48807CF0B1FE480068401CFC490860D0
:1006900008460068032808DCFA48016901F092FF67
:1006A000054603F08BF8044653E0F548006803283C
:1006B00006DDF5480068002802DD4FF4F07448E0DC
:1006C000F24C46E0ED48C168EE4801F07BFF06467B
:1006D000EF4903F0BBF8054603F070F8044600202C
:1006E000E7490860E848046033E0E448807CF0B102
:1006F000E3480068401CE249086008460068032897
:1007000008DCE448016901F05DFF054603F056F896
:1007100004461EE0DA480068032806DDDA4800686F
:10072000002802DD4FF4F07413E0D84C11E0D348F8
:10073000C168D44801F046FF0646D54903F086F863
:10074000054603F03BF804460020CD490860CE483A
:10075000046060420590069405A9484602F0FEF93F
:10076000C64801E018E107E0007C18B1012009B09B
:10077000BDE8F08F0020FAE7BAF1020F7ED1012028
:100780008DF812008DF813008DF8100004A800F009
:10079000A7FCB9F1000F7AD1BF488068012803DCBB
:1007A000BE488068012816DDBB48807C08B3BB4882
:1007B000807CF0B1B2480068401CB149086008462E
:1007C0000068032808DCAF48016901F0FBFE05461C
:1007D00002F0F4FF0446D1E0A9480068032805DDD3
:1007E000A9480068002801DD1E24C7E06FF01D0441
:1007F000C4E0A948807C80B1A848C168A14801F044
:10080000E1FE0646A64903F021F8054602F0D6FFB0
:10081000044600209A490860B0E0A048807C80B17E
:100820009D48C168974801F0CDFE06469C4903F0FB
:100830000DF8054602F0C2FF04460020904908600A
:100840009CE0964AD168944AD06802F055FF019026
:1008500002F026FF074600224FF0804302F000FC22
:10086000054602F017FB01460290864801F0AAFEF9
:100870008B49039002F0EAFF834601E0FCE006E0CA
:1008800002F09CFF044600207D49086076E0824823
:100890008068012803DC8148806801286EDD7E487D
:1008A000807C08B37D48807CF0B175480068401CAE
:1008B0007349086008460068032808DC7548016928
:1008C00001F080FE054602F079FF044656E06C48D0
:1008D0000068032805DD6C480068002801DD1E243F
:1008E0004CE06FF01D0449E06B48807C80B16B48A0
:1008F000C168684801F066FE0646694902F0A6FF35
:10090000054602F05BFF044600205D49086035E0C3
:100910006248807C80B16048C1685E4801F052FE48
:1009200006465F4902F092FF054602F047FF044683
:1009300000205349086021E0584AD168564AD068DF
:1009400002F0DAFE019002F0ABFE074600224FF003
:10095000804302F085FB054602F09CFA01460290B6
:100960004C4801F02FFE83464D4902F06FFF039083
:1009700002F024FF044600204149086060420590CF
:10098000069405A9484602F0E9F83C48007C08B105
:100990000120ECE60020EAE6BAF1010F6CD101205B
:1009A0008DF8110004A800F09BFBB9F1010F2FD1C5
:1009B0003C48407CC8B132480068401C304908605F
:1009C00008460068032802DC2F4804684FE02C48E2
:1009D0000068032806DD2C480068002802DD4FF47B
:1009E000F07444E06FF03B0441E02E48C1682E48AB
:1009F00001F0E8FD0646264902F028FF054602F010
:100A0000DDFE044600201E4908601F4804602EE0F9
:100A10002448407CC8B11A480068401C1849086046
:100A200008460068032802DC174804681FE01448E1
:100A30000068032806DD14480068002802DD4FF432
:100A4000F07414E06FF03B0411E01648C1681748D9
:100A500001F0B8FD06460E4902F0F8FE054602F028
:100A6000ADFE04460020064908600748046008946B
:100A70006042079005A91BE024E00000B0000020C0
:100A800040000020000100203C00002020FEFFFF6D
:100A9000000020431C010020D8000020EC000020B2
:100AA0000000A041C40000203801002054010020B3
:100AB000484602F053F80448007C08B1012056E68D
:100AC000002054E6002052E6C400002010B500F0DB
:100AD000F9F910BD10B51C4801F0C4FE1B4801F027
:100AE000C1FE1B4801F0BEFE1A4801F0BBFE00210A
:100AF000154801F0C0FE0021144801F0BCFE0021A1
:100B0000144801F0B8FE0021114801F0B4FE0023A2
:100B10001A464FF07E510C4801F0AFFE00231A46F2
:100B20004FF07E51094801F0A8FE00231A464FF00D
:100B30007E51084801F0A1FE00231A464FF07E5175
:100B4000034801F09AFE10BD000100201C010020A6
:100B5000380100205401002010B500214FF47A70B4
:100B600000F016FC4FF42F731A461946184600F091
:100B700021FA4FF4C8731A461946184600F010FAC5
:100B800010BD704710B5102000F046F888B3194822
:100B90000068C0B91848007840B3184800F033FD29
:100BA000044600201449087015480078C0F105007B
:100BB00040F27121484304EB401012490968401A81
:100BC0001149086012E00D482430048805200C49C2
:100BD0000870002009492431088001200649087066
:100BE000064800F010FD0749086000BF102000F023
:100BF0000DF810BD1001214278000020000C0040CB
:100C00007A00002074000020700000200149086074
:100C10007047000014040140014600200022074BE9
:100C20001B6803EA0102054B14331B680B4013B128
:100C30000AB1012000E000207047000000040140DC
:100C4000002123498279002A3AD00A4612680368B3
:100C50009A430B461A600A1D126803689A430B1DDB
:100C60001A60027911440A6803681A430A60184A34
:100C70000832126803689A43154B08331A601A1D2C
:100C8000126803689A43124B0C331A604279102A97
:100C90000ED11A1F126803681A430D4B08331A60ED
:100CA0001A1D126803681A43094B0C331A600DE0D1
:100CB0000749427911440A6803681A430A6005E04B
:100CC000027911440A6803689A430A607047000079
:100CD0000004014030B500228B071C0F0F2303FADC
:100CE00004F20B4B8C1053F824309343084C8D10B6
:100CF00044F8253023468C1053F824308C07240FF9
:100D000000FA04F42343024C8D1044F8253030BD22
:100D1000080001402DE9F041024600250026002090
:100D200000230024002791F803C00CF00F0591F870
:100D300003C00CF0100CBCF1000F03D091F802C0FE
:100D40004CEA050591F800C0BCF1000F31D01468E1
:100D500000202BE04FF0010C0CFA00F3B1F800C0BA
:100D60000CEA03069E4220D183004FF00F0C0CFAD0
:100D700003F7BC4305FA03FC4CEA040491F803C0F2
:100D8000BCF1280F06D14FF0010C0CFA00FCC2F8A0
:100D900014C00AE091F803C0BCF1480F05D14FF030
:100DA000010C0CFA00FCC2F810C0401C0828D1D37A
:100DB0001460B1F800C0BCF1FF0F34DD54680020AE
:100DC0002EE000F1080C4FF0010808FA0CF3B1F81E
:100DD00000C00CEA03069E4221D183004FF00F0CA5
:100DE0000CFA03F7BC4305FA03FC4CEA040491F83F
:100DF00003C0BCF1280F05D100F1080C08FA0CF86B
:100E0000C2F8148091F803C0BCF1480F07D100F17B
:100E1000080C4FF0010808FA0CF8C2F81080401CCA
:100E20000828CED35460BDE8F0810000F0B50A4632
:100E3000002300240021002500F00046B6F1004FF9
:100E400002D11D4EF16901E01B4E7168C0F30345EC
:100E500083B200F44016B6F5401F08D121F070614E
:100E6000154E766826F07066134F7E6012E000F42F
:100E70008016B6F5801F06D1032606FA05F4A143B5
:100E800041F0706106E0460D360103FA06F6B14303
:100E900041F0706122B1460D360103FA06F6314386
:100EA00000F00046B6F1004F02D1034EF16101E0BF
:100EB000014E7160F0BD00000000014041617047CB
:100EC0000161704708B50121602000F08FF84FF4F0
:100ED000FF40ADF8000004208DF8030003208DF8DA
:100EE000020069460848FFF715FF4FF6FF70ADF89E
:100EF000000004208DF8030003208DF802006946ED
:100F00000248FFF707FF08BD001801400014014028
:100F100000BFFEE700BFFEE77047000070B500218C
:100F200000230F22C47804B3154C246804F4E06451
:100F3000C4F5E064210AC1F10403CA40447804FA0C
:100F400003F184781440214309010E4C0678A15521
:100F5000047804F01F050124AC4005786D11AD0044
:100F600005F1E025C5F8004109E0047804F01F050B
:100F70000124AC40044D0678761145F8264070BD3A
:100F80000CED00E000E400E080E100E002490143F4
:100F9000024A1160704700000000FA050CED00E005
:100FA00010B5034C20606160A260E36010BD0000DA
:100FB0004400002010B5034C20606160A260E36033
:100FC00010BD0000540000207047000029B1064AFF
:100FD000D2690243044BDA6104E0034AD2698243D6
:100FE000014BDA61704700000010024029B1064A47
:100FF00092690243044B9A6104E0034A9269824376
:10100000014B9A61704700000010024030B500218A
:101010000022002400232D4D6D6805F00C0121B144
:10102000042905D0082923D105E0294D056022E0D7
:10103000274D05601FE0254D6D6805F47012234DA6
:101040006D6805F48034022505EB92421CB9214DF0
:10105000554305600BE01D4D6D6805F400351DB16D
:101060001C4D5543056002E0194D5543056002E0F3
:10107000174D056000BF00BF144D6D6805F0F0010D
:101080000909154D6B5C0568DD4045600F4D6D68C5
:1010900005F4E061090A104D6B5C4568DD40856030
:1010A0000A4D6D6805F46051C90A0B4D6B5C4568CB
:1010B000DD40C560054D6D6805F44041890B074D65
:1010C0006B5CC568B5FBF3F5056130BD00100240EF
:1010D00000127A0000093D009C000020AC000020B6
:1010E00010B586B00446002004900590029003904D
:1010F00001900090207838B104A800F02DF800226B
:1011000004A91148FFF7BCF9607838B102A800F0D3
:1011100035F8012202A90D48FFF7B2F9A07838B1DD
:1011200001A800F03DF8022201A90948FFF7A8F93B
:10113000E07838B1684600F045F803226946054872
:10114000FFF79EF906B010BDB0000020C4000020DB
:10115000D8000020EC0000200146002009E0C0F18A
:101160000E02054B03EB8202D2F800210A54421C06
:10117000D0B20828F3DB704700002342014600206C
:1011800009E0C0F10702054B03EB8202D2F800210F
:101190000A54421CD0B20828F3DB70470080224278
:1011A0000146002009E000F10802054B03EB820232
:1011B000D2F800210A54421CD0B20428F3DB704755
:1011C000008022420146002009E000F10C02054B9C
:1011D00003EB8202D2F800210A54421CD0B2042848
:1011E000F3DB704700802242704710B500F002F830
:1011F00010BD00000CB5002001900090334800683D
:1012000040F480303149086000BF3048006800F485
:10121000003000900198401C0190009818B9019886
:10122000B0F5A06FF1D12948006800F4003010B18A
:101230000120009001E0002000900098012843D197
:101240002348006840F01000214908600846006803
:1012500020F0030008600846006840F002000860C3
:101260001A4840681949486008464068486008467E
:10127000406840F4806048600846406820F47C1074
:1012800048600846406840F4E81048600846006836
:1012900040F08070086000BF0C48006800F00070EB
:1012A0000028F9D00948406820F003000749486049
:1012B0000846406840F00200486000BF03484068AC
:1012C00000F00C000828F9D10CBD0000001002400D
:1012D00000200240042808D14FF0E021096941F0C4
:1012E00004014FF0E022116107E04FF0E0210969AD
:1012F00021F004014FF0E0221161704770470000B7
:1013000010B51348006840F0010011490860084614
:101310004068104908400E494860084600680E4978
:1013200008400B4908600846006820F480200860E7
:101330000846406820F4FE0048604FF41F008860B3
:10134000FFF753FF4FF000600449086010BD000034
:10135000001002400000FFF8FFFFF6FE08ED00E07D
:1013600010B50121084800F051F958B10121064893
:1013700000F03AF90548006808B9012000E00020B3
:101380000249086010BD000000040040940123429F
:1013900030B589B005460C4601210220FFF716FE44
:1013A000012140F21510FFF721FE01213348FFF71C
:1013B0003DFD4FF47070ADF8200018208DF823002B
:1013C00003208DF8220008A92D48FFF7A3FC4FF455
:1013D000E070ADF8200010208DF8230003208DF878
:1013E000220008A92748FFF795FC08A92548FFF720
:1013F00091FC08A92448FFF78DFC08A92148FFF7B4
:1014000089FCADF81850ADF814400020ADF81A0072
:10141000ADF8160005A91D4800F06EFA7020ADF871
:1014200004000120ADF806000020ADF80C0001A971
:10143000164800F0FDF801A9144800F04FF901A981
:10144000124800F0ABF901A9104800F001FA082198
:101450000E4800F039F908210C4800F091F90821F4
:101460000A4800F0EBF90821084800F02FFA0121A2
:10147000064800F0BCF809B030BD0000000C1A00AE
:10148000001001400020014000080140000400401D
:1014900010B501210C4800F0B9F858B101210A48F3
:1014A00000F0A2F80948006808B9012000E0002017
:1014B0000649086006480078012804D105480078EC
:1014C000401C0449087010BD0008004094012342EC
:1014D00064000020650000203EB504460D46012151
:1014E0000820FFF773FDADF80050ADF80440002070
:1014F000ADF80600ADF802000121064800F068F8DA
:101500006946044800F0F8F90020024924310880B7
:101510003EBD0000000C004010B501211C4800F049
:1015200075F818B101211A4800F05EF819480078E2
:1015300078B901201749087020211748FFF7BEFC31
:10154000472144F61F60FFF7C7FF052013490870C5
:101550001CE010480078012818D11048007880B9A4
:1015600000200C4908700E49087005200B490870CE
:1015700047213C20FFF7B0FF20210748FFF7A0FCE0
:1015800004E006480078401E0449087010BD0000C1
:10159000000C004079000020000801407A00002083
:1015A0007800002008B501211020FFF71FFD4FF43F
:1015B0008060ADF8000010208DF8030003208DF846
:1015C000020069460148FFF7A5FB08BD0010014075
:1015D00021B1028842F08002028004E002884FF6C6
:1015E0007F731A4002807047CA430282704721B15C
:1015F000028842F00102028004E002884FF6FE7386
:101600001A40028070470146888C704730B5024608
:10161000002000230024158A05EA0103958905EAC4
:10162000010413B10CB1012000E0002030BD000026
:1016300070B5002400220023058C4FF6FE7635405D
:101640000584028C8388048B4FF68F752C40B51E61
:101650002C400D882C43751E2A400D892A434D8845
:101660002A43144DA8420BD0134DA84208D0134D65
:10167000A84205D0124DA84202D0124DA84213D163
:101680004FF6F7752A404D892A434FF6FB752A40DD
:101690008D882A434FF6FF652B404FF6FF552B40B0
:1016A0008D892B43CD892B4383800483CD88858608
:1016B000028470BD002C0140003401400040014014
:1016C00000440140004801400A460021018B4FF6CA
:1016D000F7731940114301837047000070B500246F
:1016E00000220023058C4FF6EF7635400584028CEE
:1016F0008388048B48F6FF752C404FF6FF452C403D
:101700000D884FF6FF7606EA05252C434FF6DF7568
:101710002A400D8906EA05152A434D8806EA051573
:101720002A43154DA84202D0144DA8421DD14FF6B0
:101730007F752A404D894FF6FF7606EA05152A4344
:101740004FF6BF752A408D8806EA05152A434FF6E5
:10175000FF352B404FF2FF752B408D8906EA85053A
:101760002B43CD8906EA85052B4383800483CD88EE
:101770000587028470BD0000002C01400034014048
:101780000A460021018B4FF2FF7319404FF6FF7399
:1017900003EA0223194301837047000070B5002457
:1017A00000220023058C4FF6FF6635400584028C2D
:1017B0008388848B4FF68F752C404FF6FC752C4038
:1017C0000D882C434FF6FF552A400D894FF6FF76C2
:1017D00006EA05252A434D8806EA05252A43154DC4
:1017E000A84202D0144DA8421DD14FF2FF752A40E5
:1017F0004D894FF6FF7606EA05252A434FF6FF3559
:101800002A408D8806EA05252A434EF6FF752B40AF
:101810004DF6FF752B408D8906EA05152B43CD89C2
:1018200006EA05152B4383808483CD88858702844F
:1018300070BD0000002C0140003401400A46002128
:10184000818B4FF6F7731940114381837047000075
:1018500070B5002200230024058C4EF6FF7635403B
:101860000584038C8488828B48F6FF752A404FF6E6
:10187000FF452A400D884FF6FF7606EA05252A43E4
:101880004DF6FF752B400D8906EA05352B434D8833
:1018900006EA05352B430B4DA84202D00A4DA8425B
:1018A00008D14BF6FF752C408D894FF6FF7606EA7E
:1018B00085152C4384808283CD88A0F84050038412
:1018C00070BD0000002C0140003401400A46002198
:1018D000818B4FF2FF7319404FF6FF7303EA022327
:1018E00019438183704781867047018770478187DC
:1018F0007047A0F840107047002202881D4B9842A4
:101900000ED01D4B98420BD0B0F1804F08D01B4B2E
:10191000984205D01A4B984202D01A4B984204D1F3
:101920004FF68F731A404B881A43174B984207D0D3
:10193000164B984204D04FF6FF431A40CB881A4307
:1019400002808B8883850B8803850A4B98420BD0D5
:10195000094B984208D00E4B984205D00D4B984247
:1019600002D00D4B984201D10B7A0386012383826A
:1019700070470000002C014000340140000400408A
:1019800000080040000C004000100040001400401F
:1019900000400140004401400048014010B540F2C1
:1019A0002551214800F0A9F810B31F4800F060F954
:1019B000C4B21E48008800F40040C8B91B48008823
:1019C00000F4804060B10A2C03D000201749088041
:1019D00020E01648008840F400401449088019E0CF
:1019E0000D2C06D11148008840F480400F49088032
:1019F00010E00E480088C0F30D000D490C540B4850
:101A00000088401C0949088008460088C72801DD75
:101A1000002008800548008800F40040B0F5004F21
:101A200001D100F059FC10BD0038014098000020A1
:101A3000A201002010B540F22551204800F05DF8C9
:101A400010B31E4800F014F9C4B21D48008800F419
:101A50000040C8B91A48008800F4804060B10A2CE0
:101A600003D000201649088020E01548008840F483
:101A700000401349088019E00D2C06D11048008859
:101A800040F480400E49088010E00D480088C0F303
:101A90000D000C490C540A480088401C0849088075
:101AA00008460088C72801DD002008800448008817
:101AB00000F4004008B100F085FB10BD0044004078
:101AC0009A0000206A02002021B1828942F400526B
:101AD000828104E082894DF6FF731A40828170474B
:101AE00002460020B1F5007F00D100BF13880B40F3
:101AF0000BB1012000E00020704770B502460024C1
:101B000000230025002040F66A16B14200D100BF34
:101B1000C1F3421501F01F03012606FA03F3012D5C
:101B200002D19689334006E0022D02D1168A334055
:101B300001E0968A33400C12012606FA04F4168856
:101B4000344013B10CB1012000E0002070BDF0B5AD
:101B50000346002400260025002040F66A17B942FB
:101B600000D100BF1846C1F3421401F01F0601273F
:101B700007FA06F5012C01D10C3004E0022C01D14A
:101B8000103000E014301AB107682F43076002E0FC
:101B90000768AF430760F0BD2DE9F04786B0054602
:101BA0000E460024A24600BFA1460027B08900B11E
:101BB00000BF2F462C8A4CF6FF700440F088044387
:101BC0002C82AC894EF6F3100440B088318908436A
:101BD000718908430443AC81AC8A4FF6FF4004404E
:101BE000B0890443AC8201A8FFF710FA1F4887426E
:101BF00002D1DDF810A001E0DDF80CA0A88900F406
:101C0000004040B10AEBCA0000EB0A1031684900FD
:101C1000B0FBF1F807E00AEBCA0000EB0A103168EC
:101C20008900B0FBF1F86420B8FBF0F00401200952
:101C3000642101FB1089A88900F4004040B13220E2
:101C400000EBC900B0FBF1F000F00700044308E02E
:101C5000322000EB09106421B0FBF1F000F00F001E
:101C600004432C8106B0BDE8F08700000038014035
:101C700001468888C0F308007047C1F308028280DB
:101C8000704700BFFEE770B505460C4612E000BF86
:101C900080212846FFF724FF0028F9D02178284624
:101CA000FFF7EBFF00BF40212846FFF719FF002890
:101CB000F9D1641C20780028E9D170BD014600BF2D
:101CC000704700000146002022E051F82020124B0E
:101CD00053F820301A4440F2B6339A4208DD0E4AD7
:101CE00052F82020C2F57A72323A41F820200EE0F4
:101CF00051F82020084B53F820301A44322A06DAD3
:101D0000054A52F82020C2F1320241F82020401C3E
:101D10000428DADB704700005400002010B50020D2
:101D200012490870124908601CE0114801680F4808
:101D30000078FEF787FC0F4908700846007870B1FC
:101D40000D480068401C0C490860084600680328DC
:101D500008DD0020094908700749086003E00020F9
:101D600005490860E1E700BF10BD00000000002049
:101D7000040000201C00002018000020100000209B
:101D8000074808490978405C012805D004480549FE
:101D90000978405C022801D100F01AFD00F0E0FC57
:101DA000080000201000002000F024FD10B5364887
:101DB000007800F059FE34480078032190FBF1F2DE
:101DC00001FB12003149085C01280AD02E48007836
:101DD000032190FBF1F201FB12002C49085C022860
:101DE00027D100202A4908702A4908601FE02948A5
:101DF000016827480078FEF725FC27490870084647
:101E0000007888B925480068401C244908600846C5
:101E1000006803280BDD1C480078401C1A49087034
:101E200000201E49086003E000201C490860DEE72E
:101E300028E00120164908700320164908601FE0B9
:101E40001448016812480078FEF7FCFB124908703C
:101E50000846007888B911480068401C0F4908609E
:101E60000846006803280BDD07480078801C0649F7
:101E7000087000200949086003E000200749086055
:101E8000DEE700BF10BD00001000002008000020A9
:101E900000000020040000201C0000202000002082
:101EA00010B54648007800F0DFFD44480078032173
:101EB00090FBF1F201FB12004149085C03280AD0B3
:101EC0003E480078032190FBF1F201FB12003C49EF
:101ED000085C042825D100203A4908703A49086076
:101EE0000846016837480078FEF7ACFB37490870B0
:101EF0000846007888B936480068401C34490860B4
:101F000008460068032858DD2C480078401C2B49FF
:101F1000087000202E4908604FE000202C4908601E
:101F20004BE02C480078022825DA0120254908706A
:101F3000254908600846016822480078FEF782FBC0
:101F4000224908700846007888B921480068401C7A
:101F50001F4908600846006803282EDD17480078EE
:101F6000401E1649087000201949086025E000202D
:101F70001749086021E00120124908700320124926
:101F80000860084601680F480078FEF75BFB0F49C0
:101F900008700846007880B90D480068401C0C495C
:101FA000086008460068032807DD04480078801CA4
:101FB0000249087000200649086010BD100000208A
:101FC0000800002000000020040000201C00002069
:101FD000200000202400002010B5012012490870C4
:101FE000032012490860084601680F480078FEF790
:101FF00029FB0F4908700846007888B10D48006831
:10200000401C0C4908600846006803280BDD0A489C
:102010000078401C0849087000200649086002E06A
:1020200000200449086010BD0000002004000020CA
:102030001C000020180000201000002010B52848C7
:102040000078022825DA0120264908702649086010
:102050000846016823480078FEF7F4FA234908701F
:102060000846007888B122480068401C2049086072
:1020700008460068032832DD1E480078801E1D498E
:10208000087000201A49086029E0002018490860FB
:1020900025E0012013490870032013490860084611
:1020A000016810480078FEF7CDFA1049087008461C
:1020B000007888B10E480068401C0D490860084649
:1020C000006803280BDD0B480078401C09490870A4
:1020D00000200749086002E000200549086010BDA3
:1020E0002400002000000020040000201C0000202C
:1020F000180000201000002010B52B482B4909784B
:10210000405C012805D0284828490978405C02280D
:1021100002D12748006878B1234824490978405CF7
:10212000032805D0204821490978405C042814D1AF
:102130001F480068012810D100201E4908701E4960
:102140000860084601681B480078FEF77BFA00200B
:102150001549164A1278885425E000201549087060
:102160000220154908600846016812480078FEF709
:1021700069FA124908700846007888B1104800686A
:10218000401C0F4908600846006803280BDD07481B
:102190000078401E0549087000200949086002E0E7
:1021A00000200749086010BD080000201000002032
:1021B0001400002000000020040000201C0000206B
:1021C000180000201B4A128802F40042002A2FD077
:1021D000184A1288C2F30D01174A1278432A02D016
:1021E000532A21D10FE008290CD16422124B1A7016
:1021F000002005E0114A125C114B1A54421CD0B267
:102200008842F7DB10E001290DD174220A4B1A70C5
:10221000002005E0094A125C0A4B1A70421CD0B239
:102220008842F7DB00E000BF00BF0022014B1A80AC
:10223000704700009A000020660000206A0200201B
:10224000670000206F00002010B56FF00400FFF75A
:1022500041F80A4800680A49B0FBF1F009490870E2
:102260000846007800EB4001C1EBC0104FF6FF714B
:1022700001EAC0000449088010BD000028000020C9
:1022800000127A007E000020800000200146114AE2
:1022900012884A434FF0E0235A6100229A611A469D
:1022A000126942F001021A6100BF4FF0E02210698A
:1022B00000F001021AB100F48032002AF5D04FF08C
:1022C000E022126922F001024FF0E0231A6100229D
:1022D0009A6170478000002010B5AB480088C0F3B9
:1022E0000D00AA490880AA480078502878D008DC58
:1022F000422876D0462875D0472874D04C2873D110
:1023000008E0522874D0612870D063286FD07328F9
:10231000F5D1C3E09E484078722837D19D480078B7
:1023200010B901209B49087020219B48FEF7C6FD8B
:102330004FF4FA70FFF7AAFF20219748FEF7C0FD7F
:102340004F219648FFF799FC00BF40219348FFF7C3
:10235000C7FB0128F9D14B219048FFF78EFC00BF45
:1023600040218E48FFF7BCFB0128F9D140F60A5105
:102370008A48FFF782FC00BF40218848FFF7B0FB86
:102380000128F9D100208049088028E08048407861
:10239000712824D14C218148FFF76FFC00BF4021F8
:1023A0007E48FFF79DFB0128F9D172217B48FFF79A
:1023B00064FC00BF40217948FFF792FB0128F9D166
:1023C00040F60A517548FFF758FC00BF402173489A
:1023D000FFF786FB0128F9D100206B490880CDE08A
:1023E00014E04DE020E02AE0C7E001E032E07DE0CB
:1023F00067484078722808D16948007810B90120F0
:1024000067490870002060490880B7E0604840785C
:10241000722808D16348007810B90120614908701A
:10242000002059490880A9E059484078722805D110
:1024300001205D4908700020534908809EE05448FF
:102440004078722805D101205849087000204E4973
:10245000088093E0012256A15648FDF7DDFE55495C
:102460004E48FFF710FC40F60A514C48FFF705FCB8
:1024700000BF40214948FFF733FB0128F9D17DE037
:1024800043484078722808D14B48007810B90120A1
:102490004949087000203C4908806FE00120474905
:1024A000087019E073213D48FFF7E7FB00BF4021AA
:1024B0003A48FFF715FB0128F9D140F60A51374891
:1024C000FFF7DBFB00BF40213448FFF709FB012881
:1024D000F9D100202C4908802B48008800F40040E6
:1024E00018B12B4800787328DCD047E028484078A2
:1024F0006C2841D12648807863283DD100202A49A4
:10250000087024490870264908702B4908702C4926
:10251000087024490870254908702849087063210B
:102520001E48FFF7AAFB00BF40211C48FFF7D8FA5E
:102530000128F9D16C211948FFF79FFB00BF40210A
:102540001648FFF7CDFA0128F9D163211348FFF7A8
:1025500094FB00BF40211148FFF7C2FA0128F9D1CE
:1025600040F60A510D48FFF788FB00BF40210B4899
:10257000FFF7B6FA0128F9D100E000BF00BF002044
:102580000149088010BD0000980000209000002044
:10259000A2010020870000200018014000380140FF
:1025A00088000020890000208A0000208B00002085
:1025B00025640000700100208C0000208E000020A7
:1025C0008D0000202DE9F84F04460D464FF0804065
:1025D000216901F03BF92946009001F003FA834696
:1025E000616901F089F88246E16801F02FF98046BF
:1025F0002169A06801F02AF900902846216901F0BC
:10260000FBF98346616801F021F98246009901F0E7
:1026100073F88146414601F06FF807463946A069D4
:1026200001F06AF80646206960612561A6613046BE
:10263000BDE8F88FFFF708FEFEF748FAFEF74AFA02
:10264000FEF78AFAC820FFF721FE4FF4A060FEF7DC
:102650009DFC4FF4165000F031FB4FF4165000F083
:102660007DFB00F001FC00F0CBFBFEF79BFF472158
:1026700044F61F60FEF730FF0020354908703549E9
:10268000086063E034480078FF2805D133480068CB
:1026900010B9FFF743FB59E02F480078152804D103
:1026A0002E48006808B9FFF76BFB2B480078152807
:1026B00005D12A480068012801D1FFF775FB26489B
:1026C0000078032190FBF1F201FB120028B92348A6
:1026D000006810B9FFF76AFB38E01F480078032153
:1026E00090FBF1F201FB120030B91C480068012890
:1026F00002D1FFF7D5FB29E017480078032190FBB2
:10270000F1F201FB1200022805D11448006810B94B
:10271000FFF762FC1AE010480078032190FBF1F209
:1027200001FB1200022806D10C480068012802D1E2
:10273000FFF784FC0AE008480078032190FBF1F2DF
:1027400001FB1200012801D1FFF7D6FC9AE7000037
:1027500000000020040000201000002014000020D1
:102760004FF47A710020FDF761FF012014490870D1
:102770001449086019E01348016811480078FDF712
:1027800061FF114908700846007858B90F48006881
:10279000401C0E49086008460068052805DD002039
:1027A000086003E0002009490860E4E700BF05E095
:1027B0000448016802480078FDF744FFF8E700008C
:1027C00000000020040000201C0000202000002049
:1027D0000020064908700649086005E004480168C1
:1027E00002480078FDF72EFFF8E700000000002007
:1027F000040000204FF47A710020FDF717FF01203C
:102800001449087003201449086019E0124801684F
:1028100010480078FDF716FF104908700846007848
:1028200058B10F480068401C0D4908600846006810
:10283000052805DD0020086003E000200849086045
:10284000E4E700BF05E00448016802480078FDF7AE
:10285000F9FEF8E700000020040000201C00002022
:1028600018000020002141608160C16001600161A9
:102870004161816170470160704741608260C3605F
:102880007047000070B50546002436E043217448C7
:10289000FFF7F3F900BF40217148FFF721F9012844
:1028A000F9D171216E48FFF7E8F900BF40216C486B
:1028B000FFF716F90128F9D129466948FFF7DDF934
:1028C00000BF40216648FFF70BF90128F9D10D211F
:1028D0006348FFF7D2F900BF40216148FFF700F9D4
:1028E0000128F9D10A215E48FFF7C7F900BF40214E
:1028F0005B48FFF7F5F80128F9D15A4800784328DA
:1029000001D1052CC2DB002436E053215448FFF7E7
:10291000B4F900BF40215248FFF7E2F80128F9D18D
:1029200071214F48FFF7A9F900BF40214C48FFF73C
:10293000D7F80128F9D129464948FFF79EF900BF89
:1029400040214748FFF7CCF80128F9D10D21444830
:10295000FFF793F900BF40214148FFF7C1F8012874
:10296000F9D10A213E48FFF788F900BF40213C48D1
:10297000FFF7B6F80128F9D13A480078532801D179
:10298000052CC2DB00242DE043213548FFF775F903
:1029900000BF40213248FFF7A3F80128F9D1722186
:1029A0002F48FFF76AF900BF40212D48FFF798F83C
:1029B0000128F9D10D212A48FFF75FF900BF402116
:1029C0002748FFF78DF80128F9D10A212448FFF79D
:1029D00054F900BF40212248FFF782F80128F9D1BD
:1029E000601CC4B21F480078642801D1052CCBDBE1
:1029F00000242DE053211A48FFF73FF900BF402182
:102A00001748FFF76DF80128F9D172211448FFF734
:102A100034F900BF40211248FFF762F80128F9D1CC
:102A20000D210F48FFF729F900BF40210C48FFF79F
:102A300057F80128F9D10A210948FFF71EF900BF0C
:102A400040210748FFF74CF80128F9D1601CC4B2B7
:102A500004480078742801D1052CCBDB70BD000040
:102A6000004400406600002010B50446432005499C
:102A700008702046FFF706FF00BF02480078432891
:102A8000FBD010BD6600002010B50446002C2EDDE2
:102A900080212E48FEF712FA4FF480712B48FEF782
:102AA0000FFA4FF480712A48FEF70AFA40212748AE
:102AB000FEF704FA27480068C0F57A7081B226480C
:102AC000FEF711FF2348808881B22348FEF70DFFEF
:102AD0002048008981B22048FEF709FF1D48C068E0
:102AE000C0F57A7081B21C48FEF703FF2DE080210B
:102AF0001648FEF7E5F94FF480711448FEF7DEF949
:102B00004FF480711248FEF7D9F940210F48FEF7C3
:102B1000D7F91048008881B20F48FEF7E4FE0D484F
:102B20004068C0F57A7081B20B48FEF7DEFE0948B6
:102B30008068C0F57A7081B20748FEF7D8FE054874
:102B4000808981B20448FEF7D4FE10BD0020014008
:102B500000080140440000200004004070B5054614
:102B60000C462046FFF7AEF8284605EBD071491019
:102B7000A5EB410100294CD1012D19DA80214B48E8
:102B8000FEF79EF94FF480714848FEF799F94848DE
:102B900000882288104481B24648FEF7A4FE4448CB
:102BA0008088A288104481B24248FEF79EFE1CE055
:102BB00080213E48FEF782F94FF480713B48FEF7D2
:102BC0007DF93B480068C0F57A702288801A81B28E
:102BD0003848FEF788FE36484068C0F57A70A2880B
:102BE000801A81B23348FEF780FE4FF4807132487C
:102BF000FEF764F940F2E9312E48FEF778FE4021F5
:102C00002A48FEF75BF940F2E9312A48FEF771FEE7
:102C10004BE0022D1DDA4FF480712748FEF74EF984
:102C200040212248FEF74AF921488068C0F57A70B1
:102C30002289801A81B21F48FEF759FE1C48C068DD
:102C4000C0F57A70A289801A81B21A48FEF751FE47
:102C500018E04FF480711848FEF732F9402113480C
:102C6000FEF72EF9124800892289104481B21148DA
:102C7000FEF73DFE0E488089A289104481B20D48BE
:102C8000FEF737FE40F2E9310A48FEF72CFE8021BC
:102C90000648FEF713F940F2E9310648FEF725FE33
:102CA0004FF480710148FEF709F970BD0020014022
:102CB00054000020000400400008014010B586B018
:102CC0000446012144F20400FEF790F94FF400702D
:102CD000ADF8140003208DF8160018208DF81700A9
:102CE00005A91C48FEF716F84FF48060ADF81400F3
:102CF00004208DF8170005A91648FEF70BF82520CB
:102D00008DF8000003208DF801008DF802000120ED
:102D10008DF803006846FEF701F901940020ADF834
:102D20000800ADF80A00ADF80C00ADF810000C205A
:102D3000ADF80E0001A90848FEF72EFF012240F26F
:102D400025510548FEF703FF01210348FEF7BCFEAD
:102D500006B010BD000801400038014010B586B033
:102D6000044601210420FEF741F901214804FEF741
:102D70002DF90420ADF8140003208DF8160018205A
:102D80008DF8170005A91C48FDF7C4FF0820ADF811
:102D9000140004208DF8170005A91748FDF7BAFFA5
:102DA00026208DF8000003208DF8010002208DF808
:102DB000020001208DF803006846FEF7AFF8019489
:102DC0000020ADF80800ADF80A00ADF80C00ADF831
:102DD00010000C20ADF80E0001A90848FEF7DCFE3B
:102DE000012240F225510548FEF7B1FE01210348BA
:102DF000FEF76AFE06B010BD000801400044004026
:102E00000EB501210420FEF7F1F81020ADF80800FE
:102E100028208DF80B0003208DF80A0002A9114824
:102E2000FDF778FF04210020FDF754FF10200090EB
:102E300000208DF8040010208DF8050001208DF889
:102E400006006846FDF7FCFE2020ADF808001020C3
:102E50008DF80B0003208DF80A0002A90148FDF748
:102E600059FF0EBD0008014008B54FF4A060FEF701
:102E70008DF80A208DF8000001208DF80100002057
:102E80008DF8020001208DF803006846FEF746F831
:102E900008BD000021F00042A2F16052B2F5801F8F
:102EA00001F0004328BFD2F17F6C0BD95FEA001C10
:102EB00043EAC20242EB507018BF704728BF20F0AF
:102EC00001007047B2F5801FBCBF184670474FEA3B
:102ED000410C1CF5001F02D2084600F07EBD70B503
:102EE00000F06AFA00000089FFF7F6BF4FF00040DB
:102EF000A0F580007047000010B591EA030F48BFAD
:102F000083F0004300F1EA82841A71EB030C05D2CE
:102F1000121943EB0C03001B61EB0C01DFF824E1F9
:102F20004FEA1154A4EB135C1EEA430F18BF9EEA4C
:102F3000445F73D023EA0E03DCF1200E21EA045132
:102F400043F4801332D322FA0CFE10EB0E0023FA66
:102F50000CFE41EB0E01CCF1200E03FA0EFE10EB3D
:102F60000E0051F10001B1F5801FCCF1200E32D2DC
:102F700001EB045112FA0EF2BDE8104058BF704741
:102F8000401C38BF5FEA420218BF7047002814BFD8
:102F900020F0010041F100014FEA410313F5001F49
:102FA00038BF7047A1F1C04100F054BA012A43EB89
:102FB0000302ACF1200CDCF11F0E32BF4FF0000E0B
:102FC00023FA0CF310EB030041EB0451B4EB115F57
:102FD000D0D0A1EB045101F5801149085FEA30001F
:102FE00001EB04510ED350F1000038BF12FA0EFE6F
:102FF00008D1BDE81040C9E7401C38BF5FEA420273
:10300000CAD1C3E7BDE810404FEA410313F5001FE2
:1030100038BF7047A1F1C04100F01CBA9EEA445F7E
:1030200008D011EA5E0FBDE8104004BF01F0004176
:1030300000207047BDE8104070B500F0BDF900BF3A
:1030400064FBBE3E0000E0FF491058BFC1F14041A3
:103050005B1058BFC3F140438B42EFF300807047D1
:103060002DE9C04130B4DFF8A0C23CEA111418BF0A
:103070003CEA131400F0EC8081EA03051CEA111409
:1030800044EAD57418BF1CEA131500F0C780A4EBFE
:1030900005044FF0004545EAC12145EAC32341EA52
:1030A000505143EA525304F17F74994204F50034BD
:1030B0004FEAC0204FEAC22208BF904200F09C8035
:1030C0004FEA13650FF24016765D4FEA134506FB93
:1030D00005F7C7F1807706FB07F74FEAD737A7FB5D
:1030E00003687642C8F58038A7FB06CE38BFA8F142
:1030F000010807FB08E64FF0000EA6FB028CE6FB7A
:1031000003CEDCF1000CCEF1004E38BFAEF1010E63
:10311000A6FB0C584FF000074FF00005E6FB0E87AA
:10312000A1FB08C6A0FB07CE16EB0E0645F1000575
:10313000E1FB076515F1E04E7EBFA4F580345FEA40
:1031400046066D4116F1800745F100054FEA172745
:103150004FEA066647EA0567A6F1DE46B6F1805FEC
:103160004FEA15251FD9384624F0010C05EBC47130
:10317000BCF1FE6F01EB0C1102D8F0BCBDE8008180
:1031800024425CBF01F5801E9EEAC47F02D4F0BCDD
:10319000BDE80081244238D4F0BCA1F1C041BDE8B3
:1031A000004100F057B94FEAD22242EA43524FEAB7
:1031B000D323A7FB02864FEAD02040EA415007FB09
:1031C00003661EEA0E0F4FEAD12105FB026658BFC7
:1031D000A6EB0056B6EB00564FEA520E4EEAC37EFF
:1031E00018EB0E0E56EB530EBDD518EB02085E41E0
:1031F0007F1C55F10005B6E74FF480154FF000072E
:103200004FF000064FF00008ADE7F0BC4FF00000B3
:1032100001F1C04101F00041BDE8008111EA0C1F3D
:103220000CEA131500D00CE013EA0C1F00F0258007
:103230004FF00000F0BC81EA030101F00041BDE85D
:103240000081F0BCBDE8004181EA030100F002B951
:10325000F0BCBDE8004170B500F0AEF8097EFC3E60
:1032600000F007B881EA03014FF0000001F00041CF
:10327000704781EA030100F0EDB8F0BCBDE8004101
:103280004FF0000021497047FFFDFBF9F7F5F4F21C
:10329000F0EEEDEBE9E8E6E4E3E1E0DEDDDBDAD8F1
:1032A000D7D5D4D3D1D0CFCDCCCBCAC8C7C6C5C44F
:1032B000C2C1C0BFBEBDBCBBBAB9B8B7B6B5B4B366
:1032C000B2B1B0AFAEADACABAAA9A8A8A7A6A5A451
:1032D000A3A3A2A1A09F9F9E9D9C9C9B9A99999815
:1032E0009797969595949393929191908F8F8E8EB8
:1032F0008D8C8C8B8B8A8989888887878685858445
:1033000084838382828181800000FF070000F87F30
:1033100010F0004248BF4042B0FA80F310FA03F1C7
:103320000AD0C3F11D0303F580634FEA415002EB5D
:10333000035202EBD12170474FF0000070470000AC
:1033400051EA030C17D41CF5801F58BFBCF5801F31
:1033500000F10680994218BF704708BF904270473D
:1033600007D711F5801F58BF13F5801F19D4994254
:103370007047894270471CF5801F08D5BCF5801F37
:10338000F7D58B4218BF704708BF824270474FF491
:10339000001C1CEB410F38BF1CEB430F01D28B42CA
:1033A000704770B500F008F8922449004FF00051C2
:1033B0004FF08053FFF748BE0EF1020E2EF0030EC1
:1033C0005EF8046B364205D4012A43EB030515F57C
:1033D000001F12D8012841EB010C1CF5001F0CD86E
:1033E0000ED14FEAD17C15F5001F0CEB4C0C0CF103
:1033F000020C08BF4CEBD37C04E04FF0080C01E05A
:103400004FEAD37C0CEB4C0526FA05F606F00706CE
:10341000B6F1040C06D20EEB860CBDE870404CF001
:10342000010C6047DFE80CF0090B02024FF000418D
:103430004FF00000A1F5002170BD1946104601288B
:1034400051EB010418BFD4F5001484BF002001F033
:10345000004170BD0808A0F500114FEA3101704726
:1034600053EA010C17D41CF5801F58BFBCF5801F10
:1034700000F106808B4218BF704708BF8242704738
:1034800007D713F5801F58BF11F5801F19D48B4241
:1034900070479B4270471CF5801F08D5BCF5801F04
:1034A000F7D5994218BF704708BF904270474FF454
:1034B000001C1CEB430F38BF1CEB410F01D299429B
:1034C00070470FB40CBC03BCFFF76BBF10B591EA9B
:1034D000030F48BF83F000433FF516AD841A71EB2C
:1034E000030C07D212198CF0004C43EB0C03001BA9
:1034F00061EB0C01DFF8A4E14FEA1154A4EB135C7B
:103500001EEA430F18BF9EEA445F00F0B08023EA32
:103510006E03524221EA0451C3EB6E0338BF5B1EB7
:10352000DCF1200E25D322FA0CFE10EB0E0043FA3C
:103530000CFE41EB0E01CCF1200E03FA0EFE10EB57
:103540000E0051F10001CCF1200E29D412FA0EF236
:1035500001EB0451BDE8104058BF7047401C1CBF30
:10356000B2F1004F704700280CBF491C20F0010049
:10357000704712EB020E43EB030218BF4FF0010E2F
:103580004EEA4202ACF1200CDCF11E0E54D943FA93
:103590000CFE10EB0E0051F1FF31CCF11E0ED5D513
:1035A0000EF1010E12FA0EFE404141EB010101EB5A
:1035B000445C5FEA5C5C10D910EBDE7001EB0451F7
:1035C00038BFBEF1004FBDE8104018BF704700285B
:1035D0000CBF491C20F00100704730D24FEAD42CB8
:1035E00011F5001124F400641BD0B1FA81F20B3AFA
:1035F000A41AA41ED2F12003914030FA03F3194318
:10360000904001EBCC71002C01EB0451BDE810405F
:10361000A8BF704701F1C0414FF0000001F0004128
:103620007047B0FA80F310FA03F100D110BDE41A2C
:10363000173C4805C90AE4E701EB045110BD4910E5
:1036400001EB0451BDE810404FEA300002E04FF0BA
:10365000000170474A0008BF0042F8D0B2F5001FD1
:1036600028BF704701F000414FF0000070479EEA0C
:10367000445F07D011EA5E0FBDE8104004BF00218F
:1036800000207047BDE8104070B5FFF795FE00BF01
:1036900040DFF63E83F00041104670470000E0FF37
:1036A00043004FEAD30C4FEA3C0C43401FBF400796
:1036B0000CF1605113F0FE4F70471CF0006F03D106
:1036C00000200CF0004170470CF0004343EA5070BA
:1036D00010B540EACC0000F03AF900BF00000092BB
:1036E0004FEA0001FFF7B6BE4FF000414FF0000077
:1036F000A1F500217047000090EA010F48BF81F05A
:10370000004100F18081421A3CBF801A89184FEABB
:10371000D0524FF07F4C1CEA410FA2EBD15318BF9F
:103720009CEA026F00F03B804FF0004C4CEA002016
:103730004CEA012121FA03FC10EB0C0C1ED202F121
:10374000FF325FEA1C2040EBC25038BF70471CF0CC
:103750007F0F4FEA400C18BFBCF17F4F38BF704756
:10376000C3F12003994008BF20F00100BCF17F4F56
:1037700038BF7047A0F1C04000F02FB94FEA3C00BD
:10378000000A40EBC25028BF1CF0FF0F4FEA400C6C
:10379000E6D018BFBCF17F4F38BF7047EAE79CEA1C
:1037A000026F05D010EA5C0F08BF00F000407047C0
:1037B00010B500F0CCF800BF64FBBE3E41000B0E1C
:1037C000D3F19E0208D950F400034FEA032323FAF1
:1037D00002F048BF4042704710B500F0B8F800BF93
:1037E00049922480002070476FF0004282EA200056
:1037F0007047000010F0004148BF4042B0FA80F32B
:1038000010FA03F2C3F19D030BD051EAC35101EB4F
:103810001220530638BF704700F1010008BF20F0A6
:1038200001007047B0FA80F310FA03F2C3F19D0370
:103830000AD0D90501EB1220530638BF704700F1BA
:10384000010008BF20F00100704700004FF47F0C1A
:103850001CEAD0121EBF1CEAD11392EA0C0F93EAA5
:103860000C0F00F0478090EA010F48BF42F48072CD
:103870004FF0004C4CEA00204CEA012102EB03021D
:10388000A0FB0113A2F50002002918BF43F00103B9
:103890005B0028BF4FEA330342EB22425FEA132C5E
:1038A0004CEBC2502EBFBCEB436FB2F57C0F7047A0
:1038B0004FEA036CBCF1004F08BF20F00100B2F5E5
:1038C0007C0F38BF70470BD582F0FF0212F5803FA6
:1038D000C8BF704700F1C040D8BF00F0004070473B
:1038E00000F5000C5FEA4C0C48BF7047B0F1C040D7
:1038F00000F073B890EA010F0CEAD11348BF42F40C
:103900008072624538BF634504D280EA010000F04E
:103910000040704710B500F01AF800BF8900013E62
:1039200000F007B800F009B85FEA410C5FEA1C6CD0
:1039300008D080EA010000F050B85FEA400C5FEA6E
:103940001C6CF6D14FF00040A0F5800070470EF1DE
:10395000020E2EF0030E5EF8044B244204D44FEA0C
:103960004102B2F17F4F11D84FEA4003B3F17F4FCC
:103970000CD80ED14FEAD07CB2F17F4F0CEB4C0C3F
:103980000CF1020C08BF4CEBD17C04E04FF0080CAA
:1039900001E04FEAD17C0CEB4C0324FA03F404F071
:1039A0000704B4F1040C06D20EEB840CBDE8104001
:1039B0004CF0010C6047DFE80CF0070802024FF002
:1039C0000040A0F5800010BD0846420018BFD2F1AB
:1039D000807288BF00F0004010BDFF2141EAD05046
:1039E000C005704780F0004090EA010F7FF58BAE74
:1039F00081F0004100F007B890EA010F48BF81F064
:103A000000413FF580AE421A04D882F00042A0EB9C
:103A1000020011444FEAD0524FF07F4C1CEA410F94
:103A2000A2EBD15318BF9CEA026F4AD04FF0004C72
:103A30004CEA00204CEA012121FA03FCB0EB0C0C0B
:103A40000FD412F0FE0F36D05FEA4C001DD50012E5
:103A500040EBC25038BF70471CF03F0F18BF704793
:103A60000BE0A2F101025FEA1C2040EBC25038BF1C
:103A700070471CF07F0F18BF7047C3F120039940B7
:103A800014BF401E20F00100704780084FEA122347
:103A900008BF7047B0FA80FCA2EB0C02CCF1280CF6
:103AA00060FA0CF093EA122F04BF00EBC25070478B
:103AB0004FEAC3707047130A5FEADC1008BF704713
:103AC000F6E79CEA026F04D010EA5C0F08BF002002
:103AD000704710B5FFF73BFF40DFF63E81F0004036
:103AE00070470000043B000800000020B000000008
:103AF0006C010008B43B0008B0000020E80800009A
:103B00008801000800000000000000000000010221
:103B100003000400FF00000000000000000000009F
:103B200000000000000000000000000000A24A04A5
:103B3000000000000000000001020304060708095D
:103B40000000000000000000900100009001000053
:103B500090010000900100002003000020030000FD
:103B6000200300002003000000000000000000000F
:103B70000000000000000000000000000000000045
:103B80000100000000000000000000000000000034
:103B90000000000000000000000000000000000025
:103BA00000000000010203040102030406070809E3
:043BB00002040608FD
:04000005080001D519
:00000001FF
