:020000040800F2
:10000000D8090020D5010008ED130008F1120008FE
:10001000E91300087D0400080B240008000000001C
:100020000000000000000000000000004918000867
:100030001D0F0008000000009D1400085D19000855
:10004000EF010008EF010008EF010008EF010008D0
:10005000EF010008EF010008EF010008EF010008C0
:10006000EF010008EF010008210F0008EF01000870
:10007000EF010008EF010008EF010008EF010008A0
:10008000EF010008EF010008EF010008EF01000890
:10009000EF010008EF010008EF010008EF01000880
:1000A000EF010008EF010008EF010008EF01000870
:1000B000C1190008351A0008A51B0008EF01000847
:1000C000EF010008EF010008EF010008EF01000850
:1000D000EF01000825210008BD210008EF010008FC
:1000E000EF010008EF010008EF010008EF01000830
:1000F000EF010008EF010008EF010008EF01000820
:10010000EF010008EF010008911C0008EF01000852
:10011000EF010008EF010008EF010008EF010008FF
:10012000EF010008EF010008EF010008EF010008EF
:1001300000F002F800F03FF80AA090E8000C8244BA
:100140008344AAF10107DA4501D100F034F8AFF297
:10015000090EBAE80F0013F0010F18BFFB1A43F0A5
:10016000010318470857000028570000103A24BF21
:1001700078C878C1FAD8520724BF30C830C144BF0C
:1001800004680C607047000000230024002500264E
:10019000103A28BF78C1FBD8520728BF30C148BFEA
:1001A0000B607047642900F07F80002070471FB506
:1001B0001FBD10B510BD00F02EF91146FFF7F7FF77
:1001C00003F068FC00F04CF903B4FFF7F2FF03BC46
:1001D00002F038F90948804709480047FEE7FEE782
:1001E000FEE7FEE7FEE7FEE7FEE7FEE7FEE7FEE7E7
:1001F00004480549054A064B70470000611900088C
:1002000031010008D8030020D8090020D8050020BB
:10021000D8050020704700000FB41CB5074B06AA94
:100220007B4469460090059800F0DDF8002069469F
:1002300000F0ECF81CBC5DF814FB0000E9010000C4
:100240002DE9F0410E460446002020622046E16878
:10025000884730B3252805D0D4E901219047206A8A
:10026000401CF2E7E168204600278847050018D0C7
:10027000A5F14100192802D820354FF40067324615
:10028000294620462760FFF78DFF40B1012804D0A2
:10029000F61D26F007060836D8E7361DD6E72846AD
:1002A000DAE7206ABDE8F0812DE9F0410646002436
:1002B00010687529314616A510D0AFF300800028CC
:1002C00002DA404213A507E031688A0701D512A57A
:1002D00002E0490704D511A5012401E0AFF3008035
:1002E00000210A2206F1240709E0B0FBF2FCB0FB72
:1002F000F2F302FB1C00303078541846491C0028E9
:10030000F3D123462A463046BDE8F04100F00CB850
:10031000000000002D0000002B0000002000000065
:1003200070477047704770472DE9F0470D46994672
:100330009246044600F124080168880604D5E06965
:1003400021F01001216000E00120A84201DD471BDF
:1003500000E00027A1697A1902EB0900081AA061E0
:100360002078C00602D42046AFF30080002608E0C3
:10037000D4E901211AF806009047206A401C761C37
:1003800020624E45F4DB2078C0060AD52046AFF344
:10039000008006E0D4E9012130209047206A401C0B
:1003A0002062381EA7F10107F4DC07E0D4E901213F
:1003B00018F805009047206A401C2062281EA5F10D
:1003C0000105F3DC2046AFF300802078000602D55B
:1003D0000220BDE8F0870120FBE7000001694A1C0C
:1003E00002610878704700B58FB0CDE90131002176
:1003F000059105497944CDE9031011466846FFF798
:100400001FFF0FB000BD0000E5FFFFFF0A6802F804
:10041000010B0A607047754600F02CF8AE460500E7
:100420006946534620F00700854618B020B5FFF70F
:10043000DFFEBDE820404FF000064FF000074FF010
:1004400000084FF0000B21F00701AC46ACE8C009F2
:10045000ACE8C009ACE8C009ACE8C0098D467047FB
:1004600010B50446AFF300802046BDE81040FFF70A
:10047000ABBE0000004870477403002000BFFEE7D9
:100480002DE9F04F91B004468B46154600201090A0
:1004900080460F90814682460E900D900C9025B9B3
:1004A00008200E9004200C900DE0012D04D10820AE
:1004B0000E9003200C9006E0022D02D103200E9036
:1004C00001E004200E90002623E0771C1BF80600B4
:1004D00001281DD106E01BF80700012801D17F1C6F
:1004E00000E002E00E988742F5DB00BFB81BC0B207
:1004F0000F900F9840450BDD06F0FF09781E00F0C5
:10050000FF0AB8F1000F01D001200D90DDF83C800A
:100510003E460E988642D8DBC4F800A0C4F804908A
:10052000C4F80880012D18D10AEB090005F01EF867
:10053000059004F071FF0022AB07CDE9060104F03D
:1005400063FC00225E4BCDE9080104F07BFECDE99F
:100550000A0104F073FBE06048E0022D18D10AEBB9
:10056000090005F003F8059004F056FF00226B0720
:10057000CDE9060104F048FC0022524BCDE9080108
:1005800004F060FECDE90A0104F058FBE0602DE0C4
:100590000E9805F003F8019004F03EFF00224FF0A2
:1005A0008043CDE9020104F02FFC0022464BCDE947
:1005B000040104F047FECDE908010AEB090004F04C
:1005C000D5FF039004F028FF00224FF08043CDE9CF
:1005D000040104F019FCCDE90601DDE9082304F06B
:1005E00031FECDE90A0104F029FBE060002020740F
:1005F0000DB1012D56D1012D03D14FF07E500B903E
:1006000001E032480B90A1680C98814205DC607CC7
:10061000002844D0A068032841DB01202074E06852
:1006200004F0FAFE0022284BCDE9080104F0D4FDC5
:1006300015D8606804F09AFF04900B9904F018FF35
:10064000059004F0E9FE00221D4BCDE9060104F0FF
:10065000F9FDCDE9080104F0F1FAE06021E0E0687D
:1006600004F0DAFE00221A4BCDE9080104F024FD63
:1006700017D8206804F07AFF04900B9905F078F8F9
:10068000059004F0C9FE00220D4BCDE9060104F0EF
:10069000D9FDCDE9080104F0D1FAE06001E00020C5
:1006A000207400BFB8F1000F02D00D98012802D1CC
:1006B0000120A07401E00020A07411B0BDE8F08F0B
:1006C00000000C400000F83F0000E03F9A99193FFD
:1006D0000000E0BF70B504460D462946204604F0F0
:1006E000D9F870BD38B504460D46002000900DB114
:1006F000022D20D164B901208DF80000684600F079
:1007000095FF1548007C08B1012038BD0020FCE7AA
:10071000022C1FD101208DF802008DF803008DF806
:100720000000684600F082FF0B48007C08B1012001
:10073000EBE70020E9E7012C0CD101208DF8010046
:10074000684600F073FF0548007C08B10120DCE733
:100750000020DAE70020D8E7C8000020DC000020F5
:1007600010B500F00FF80121014801F0FCFA10BDAE
:100770000008004010B50021014801F0F4FA10BD56
:100780000008004010B5084803F0FBFC074803F0E0
:10079000F8FC074803F0F5FC064803F0F2FC0020E3
:1007A0000549086010BD0000180100203401002038
:1007B0006C010020500100205C00002070B505464F
:1007C0000C46284603F0E2FCB4F57A7F05DD4FF4D1
:1007D0007A7002F08FFCA4F57A74A0B202F08AFC61
:1007E000002070BD70B504460D4624B929460B485B
:1007F00003F0C1FC11E0012C04D12946084803F0A4
:10080000BAFC0AE0022C04D12946064803F0B3FCE6
:1008100003E02946044803F0AEFC70BD1801002037
:1008200050010020340100206C01002010B5FFF7BA
:10083000A1FF03F0F5F910BD10B5FFF79BFF03F022
:10084000EFF910BD2DE9F04F89B0824689460024AA
:10085000002005900690079008900490B9F1000FD1
:1008600002D0B9F1020F71D1BAF1000F6FD101209E
:100870008DF8100004A800F0D9FEB9F1000F4CD19A
:10088000FE48807CA8B3FE480068401CFC49086014
:100890000846006803280CDCFA48016902F032FFC0
:1008A0000646F94904F08EFE054604F043FE044670
:1008B0007DE0F3480068032811DDF4480068002853
:1008C0000DDDF0484168F24804F07CFE0646EE4932
:1008D00004F078FE054604F02DFE044667E0E94882
:1008E0004168EC4804F06EFE054604F023FE044621
:1008F0005DE0FFE7E148C168E24802F003FF064619
:10090000E14904F05FFE054604F014FE04460020B1
:10091000DB490860DD48046049E0D848807C98B332
:10092000D7480068401CD64908600846006803287C
:100930000EDCD948016902F0E5FE0646D24904F012
:1009400041FE054604F0F6FD044630E05EE13EE07F
:10095000CB48006803280DDDCC480068002809DD7D
:10096000CD484168CD4804F02DFE054604F0E2FD77
:1009700004461CE0C8484168C64804F023FE05460A
:1009800004F0D8FD044612E0FFE7BC48C168C24845
:1009900002F0B8FE0646BC4904F014FE054604F019
:1009A000C9FD04460020B6490860B84804606042AA
:1009B0000590069405A9484603F0B4FDAF48007CB5
:1009C00018B1012009B0BDE8F08F0020FAE7BAF1B4
:1009D000020F7CD101208DF812008DF813008DF8E4
:1009E000100004A800F022FEB9F1000F70D14FF002
:1009F000000BBBF1000F7BD1A948807C28B3A9482C
:100A0000807C10B39E480068401C9D4908600846E1
:100A1000006803280CDC9B48016902F073FE06465F
:100A2000A14904F0CFFD054604F084FD04465FE0D3
:100A300093480068032805DD94480068002801DD1C
:100A4000ED2455E06FF0EC0452E09548807C90B1C5
:100A50009448C1688B4802F055FE0646924904F05E
:100A6000B1FD054604F066FD044688480460002098
:100A7000834908603CE08B48807C90B18848C1681D
:100A8000804802F03FFE0646874904F09BFD05467C
:100A900004F050FD04467D48046000207849086059
:100AA00026E0804AD1687E4AD06804F0E1FC0090DC
:100AB00004F0B2FC074600224FF0804304F0A4F992
:100AC000054604F0BBF8014601906E4801E010E1D4
:100AD0000FE002F017FE7449029004F073FD0390DA
:100AE00004F028FD04466948046000206449086059
:100AF0007EE04FF0000BBBF1000F78D16848807C9E
:100B000028B36848807C10B35D480068401C5C498D
:100B100008600846006803280CDC5F48016902F0A1
:100B2000F1FD0646604904F04DFD054604F002FD66
:100B300004465CE052480068032805DD534800681D
:100B4000002801DDED2452E06FF0EC044FE0544842
:100B5000807C90B15348C1684F4802F0D3FD0646EF
:100B6000514904F02FFD054604F0E4FC04464748D3
:100B7000046000204249086039E04A48807C90B116
:100B80004748C168444802F0BDFD0646464904F0A6
:100B900019FD054604F0CEFC04463C4804600020E4
:100BA0003749086023E03F4AD1683D4AD06804F0E5
:100BB0005FFC009004F030FC074600224FF08043B9
:100BC00004F022F9054604F039F801460190324854
:100BD00002F098FD3449029004F0F4FC039004F014
:100BE000A9FC04462948046000202549086000BF8C
:100BF00060420590069405A9484603F093FC1F48FF
:100C0000007C08B10120DDE60020DBE6BAF1010F2F
:100C10006FD101208DF8110004A800F007FDB9F193
:100C2000010F68D12148807C30B315480068401C12
:100C3000134908600846006803280CDC1C48016959
:100C400002F060FD0646104904F0BCFC054604F0C5
:100C500071FC044697E00A48006803282CDD0B4825
:100C60000068002828DD124841680C4804F0AAFCFE
:100C7000054604F05FFC1DE028E00000C8000020ED
:100C800060000020180100200000B4425C00002039
:100C90000000A0400000E1C3340100200000E14357
:100CA000F0000020040100200000BE42DC00002013
:100CB00050010020044666E03B4841683B4804F090
:100CC00081FC054604F036FC04465CE03848C16807
:100CD000354802F017FD0646364904F073FC054618
:100CE00004F028FC044600203349086033480460BF
:100CF00049E056E0FFE72E48807C88B32E48006824
:100D0000401C2D4908600846006803280CDC2C486C
:100D1000016902F0F7FC0646264904F053FC05463B
:100D200004F008FC04462EE02348006803280DDD8B
:100D300022480068002809DD21484168214804F064
:100D400041FC054604F0F6FB04461CE01C484168E3
:100D5000164804F037FC054604F0ECFB044612E0AC
:100D6000FFE71348C168164802F0CCFC064611495B
:100D700004F028FC054604F0DDFB044600200E4983
:100D800008600E48046008946042079005A9484630
:100D900003F0C8FB0648007C08B1012012E60020E1
:100DA00010E600200EE60000500100200000E1C324
:100DB000DC0000200000B442600000205C00002045
:100DC0006C0100200000E1431FB5044600200090A4
:100DD0000190029003906946204603F05BFD1FBD21
:100DE00010B500F05FFA10BD10B51C4803F0BAF959
:100DF0001B4803F0B7F91B4803F0B4F91A4803F095
:100E0000B1F90021154803F0B6F90021144803F0A8
:100E1000B2F94FF07C51144803F0ADF94FF07C511A
:100E2000104803F0A8F9114B002211490B4803F0B8
:100E3000A4F90E4B00220F49094803F09EF90E4B0E
:100E400000224FF07C51084803F097F90A4B00222A
:100E50004FF07C51034803F090F910BD18010020B9
:100E600034010020500100206C010020CDCCCC3D8D
:100E70006666263F9A99193FCDCC4C3F10B5232189
:100E80004FF47A7000F0EEFDFA231A461946184620
:100E900000F0FAFAFA231A461946184600F0EAFA60
:100EA0000120064908600649C1F898010349083144
:100EB00008600349C1F8900110BD000094812142EF
:100EC0000080214270B505460C46012D0FD1284601
:100ED00003F0F4F9B4F57A7F05DB4FF47A7002F091
:100EE00009F9A4F57A74A0B202F004F912E0002620
:100EF0000FE0284603F0E2F900210846FFF7F2FB75
:100F000005488068022803DB761C022E01DD70BDD7
:100F10000026EEE700BFFAE7C80000207047000097
:100F200010B5102000F050F8002837D01C48006899
:100F3000F0B91C48007870B31B4800F020FF04464D
:100F400000201849087019480078C0F1050040F2E7
:100F50007121484304EB401015490968401A1549AE
:100F6000086000201149087001201349087012E040
:100F70000D482430048805200C49087000200A49D7
:100F800024310880012007490870074800F0F7FE67
:100F90000749086000BF102000F010F810BD0000E5
:100FA0001001214280000020000C0040820000203F
:100FB0007C000020780000208C000020014908609F
:100FC0007047000014040140014600200022074B36
:100FD0001B6803EA0102054B14331B680B4013B175
:100FE0000AB1012000E00020704700000004014029
:100FF00010B500201F49087036E065211E4801F039
:1010000000FA00BF40211C4801F02EF90128F9D157
:101010006E21194801F0F5F900BF4021164801F092
:1010200023F90128F9D16421134801F0EAF900BF3E
:101030004021114801F018F90128F9D10D210E487D
:1010400001F0DFF900BF40210B4801F00DF9012844
:10105000F9D10A21084801F0D4F900BF402106481F
:1010600001F002F90128F9D1024800780028C4D023
:1010700010BD0000A20000200038014010B5002083
:101080001A4908702BE04621194801F0BAF900BF4F
:101090004021174801F0E8F80128F9D171211448DE
:1010A00001F0AFF900BF4021114801F0DDF801283F
:1010B000F9D10D210E4801F0A4F900BF40210C48E0
:1010C00001F0D2F80128F9D10A21094801F099F973
:1010D00000BF4021064801F0C7F80128F9D10348B4
:1010E00000780028CFD003F079FD10BD9B000020D0
:1010F000003801402DE9F04102460025002600207D
:1011000000230024002791F803C00CF00F0591F88C
:1011100003C00CF0100CBCF1000F03D091F802C01A
:101120004CEA050591F800C0BCF1000F31D01468FD
:1011300000202BE04FF0010C0CFA00F3B1F800C0D6
:101140000CEA03069E4220D183004FF00F0C0CFAEC
:1011500003F7BC4305FA03FC4CEA040491F803C00E
:10116000BCF1280F06D14FF0010C0CFA00FCC2F8BC
:1011700014C00AE091F803C0BCF1480F05D14FF04C
:10118000010C0CFA00FCC2F810C0401C0828D1D396
:101190001460B1F800C0BCF1FF0F34DD54680020CA
:1011A0002EE000F1080C4FF0010808FA0CF3B1F83A
:1011B00000C00CEA03069E4221D183004FF00F0CC1
:1011C0000CFA03F7BC4305FA03FC4CEA040491F85B
:1011D00003C0BCF1280F05D100F1080C08FA0CF887
:1011E000C2F8148091F803C0BCF1480F07D100F198
:1011F000080C4FF0010808FA0CF8C2F81080401CE7
:101200000828CED35460BDE8F0810000F0B50A464E
:10121000002300240021002500F00046B6F1004F15
:1012200002D11D4EF16901E01B4E7168C0F3034508
:1012300083B200F44016B6F5401F08D121F070616A
:10124000154E766826F07066134F7E6012E000F44B
:101250008016B6F5801F06D1032606FA05F4A143D1
:1012600041F0706106E0460D360103FA06F6B1431F
:1012700041F0706122B1460D360103FA06F63143A2
:1012800000F00046B6F1004F02D1034EF16101E0DB
:10129000014E7160F0BD00000000014041617047E7
:1012A0000161704708B50121602000F045F947F65B
:1012B0008170ADF8000004208DF8030003208DF844
:1012C000020069460848FFF715FF4FF6FF70ADF8BA
:1012D000000004208DF8030003208DF80200694609
:1012E0000248FFF707FF08BD001801400014014045
:1012F00000BFFEE710B500201C4908702BE04C2110
:101300001B4801F07EF800BF4021194800F0ACFFF7
:101310000128F9D16321164801F073F800BF40217C
:10132000134800F0A1FF0128F9D10D21104801F068
:1013300068F800BF40210E4800F096FF0128F9D15F
:101340000A210B4801F05DF800BF4021084800F079
:101350008BFF0128F9D1054800780028CFD04FF441
:101360007A7001F0C7FE03F045FC10BDA300002019
:101370000038014010B50020194908702BE04C21BD
:10138000184801F03EF800BF4021164800F06CFFFD
:101390000128F9D17121134801F033F800BF402131
:1013A000104800F061FF0128F9D10D210D4801F02E
:1013B00028F800BF40210B4800F056FF0128F9D162
:1013C0000A21084801F01DF800BF4021054800F03F
:1013D0004BFF0128F9D1024800780028CFD010BD7A
:1013E000980000200038014000BFFEE77047000071
:1013F00070B5002100230F22C47804B3154C246873
:1014000004F4E064C4F5E064210AC1F10403CA40B5
:10141000447804FA03F184781440214309010E4C06
:101420000678A155047804F01F050124AC40057826
:101430006D11AD0005F1E025C5F8004109E0047823
:1014400004F01F050124AC40044D0678761145F8E0
:10145000264070BD0CED00E000E400E080E100E01B
:1014600002490143024A1160704700000000FA057A
:101470000CED00E010B5034C20606160A260E360F9
:1014800010BD00008801002010B5034C2060616091
:10149000A260E36010BD00009801002070470000CA
:1014A00010B500201A4908702BE05021194800F0AF
:1014B000A8FF00BF4021174800F0D6FE0128F9D14F
:1014C0007121144800F09DFF00BF4021114800F039
:1014D000CBFE0128F9D10D210E4800F092FF00BF8C
:1014E00040210C4800F0C0FE0128F9D10A2109482A
:1014F00000F087FF00BF4021064800F0B5FE01283C
:10150000F9D1034800780028CFD003F07FFB10BD4D
:101510009A0000200038014029B1064AD2690243EE
:10152000044BDA6104E0034AD2698243014BDA6179
:10153000704700000010024029B1064A9269024338
:10154000044B9A6104E0034A92698243014B9A6119
:10155000704700000010024030B500210022002436
:1015600000232D4D6D6805F00C0121B1042905D033
:10157000082923D105E0294D056022E0274D0560AB
:101580001FE0254D6D6805F47012234D6D6805F45C
:101590008034022505EB92421CB9214D554305606C
:1015A0000BE01D4D6D6805F400351DB11C4D554314
:1015B000056002E0194D5543056002E0174D0560D6
:1015C00000BF00BF144D6D6805F0F0010909154D0D
:1015D0006B5C0568DD4045600F4D6D6805F4E061AA
:1015E000090A104D6B5C4568DD4085600A4D6D68E9
:1015F00005F46051C90A0B4D6B5C4568DD40C56060
:10160000054D6D6805F44041890B074D6B5CC5685D
:10161000B5FBF3F5056130BD0010024000127A0001
:1016200000093D00B4000020C400002010B586B0C1
:1016300004460020049005900290039001900090D1
:10164000207838B104A800F02DF8002204A9114830
:10165000FEF716FF607838B102A800F03DF80122CD
:1016600002A90D48FEF70CFFA07838B101A800F0E0
:101670004DF8022201A90948FEF702FFE07838B1CF
:10168000684600F055F8032269460548FEF7F8FE63
:1016900006B010BDC8000020DC000020F0000020D3
:1016A0000401002010B5002109E0C1F10E03094C2E
:1016B00004EB8303D3F8003143544B1CD9B20829FF
:1016C000F3DB02794379037142718279C3798371C3
:1016D000C27110BD00002342002109E0C1F10702E0
:1016E000084B03EB8202D2F8002142544A1CD1B2CB
:1016F0000829F3DB044A12684270034A2C3212684C
:10170000C27070470080224200012342014600203F
:1017100009E000F10802054B03EB8202D2F8002138
:101720000A54421CD0B20328F3DB704700802242E7
:101730000146002009E000F10C02054B03EB820298
:10174000D2F800210A54421CD0B20428F3DB7047BF
:101750000080224210B500201C4908702BE0522165
:101760001B4800F04EFE00BF4021194800F07CFDF0
:101770000128F9D16321164800F043FE00BF402143
:10178000134800F071FD0128F9D10D21104800F037
:1017900038FE00BF40210E4800F066FD0128F9D157
:1017A0000A210B4800F02DFE00BF4021084800F040
:1017B0005BFD0128F9D1054800780028CFD04FF40F
:1017C0007A7001F097FC03F02DFA10BDA400002000
:1017D0000038014010B50020194908702BE0522153
:1017E000184800F00EFE00BF4021164800F03CFDF6
:1017F0000128F9D17121134800F003FE00BF4021F8
:10180000104800F031FD0128F9D10D210D4800F0FC
:10181000F8FD00BF40210B4800F026FD0128F9D15A
:101820000A21084800F0EDFD00BF4021054800F006
:101830001BFD0128F9D1024800780028CFD010BD47
:101840009900002000380140704710B500F002F800
:1018500010BD00000CB500200190009033480068D6
:1018600040F480303149086000BF3048006800F41F
:10187000003000900198401C0190009818B9019820
:10188000B0F5A06FF1D12948006800F4003010B124
:101890000120009001E0002000900098012843D131
:1018A0002348006840F0100021490860084600689D
:1018B00020F0030008600846006840F0020008605D
:1018C0001A48406819494860084640684860084618
:1018D000406840F4806048600846406820F47C100E
:1018E00048600846406840F4E810486008460068D0
:1018F00040F08070086000BF0C48006800F0007085
:101900000028F9D00948406820F0030007494860E2
:101910000846406840F00200486000BF0348406845
:1019200000F00C000828F9D10CBD000000100240A6
:1019300000200240042808D14FF0E021096941F05D
:1019400004014FF0E022116107E04FF0E021096946
:1019500021F004014FF0E022116170477047000050
:1019600010B51348006840F00100114908600846AE
:101970004068104908400E494860084600680E4912
:1019800008400B4908600846006820F48020086081
:101990000846406820F4FE0048604FF41F0088604D
:1019A000FFF753FF4FF000600449086010BD0000CE
:1019B000001002400000FFF8FFFFF6FE08ED00E017
:1019C00010B50121880700F0DDF918B10121880761
:1019D00000F0C6F910BD7FB505460C46012108464A
:1019E000FFF79AFDADF80850ADF804400020ADF8BF
:1019F0000A00ADF8060001A94FF0804000F040FB5E
:101A000001221146900700F0CEF91C208DF800004D
:101A100003208DF8010000208DF8020001208DF8D0
:101A200003006846FFF7E4FC0121880700F09BF9FA
:101A30007FBD000010B50121084800F0A3F958B19E
:101A40000121064800F08CF90548006808B901201A
:101A500000E000200249086010BD000000040040C2
:101A60009401234230B589B005460C46012102207D
:101A7000FFF752FD012140F23D10FFF75DFD01210E
:101A80004148FFF7C3FB4FF47070ADF820001820F9
:101A90008DF8230003208DF8220008A93B48FFF7AA
:101AA00029FB4FF4F870ADF8200010208DF82300CA
:101AB00003208DF8220008A93548FFF71BFB4FF4DF
:101AC0001060ADF8200010208DF8230003208DF861
:101AD000220008A92F48FFF70DFB4FF48040ADF816
:101AE000200010208DF8230003208DF8220008A983
:101AF0002948FFF7FFFAF020ADF8200010208DF8FC
:101B0000230003208DF8220008A92448FFF7F2FAE9
:101B1000ADF81850ADF814400020ADF81A00ADF83B
:101B2000160005A91E4800F0ABFA7020ADF80400BD
:101B30000120ADF806000020ADF80C0001A91848FE
:101B400000F03AF901A9164800F08CF901A91448EF
:101B500000F0E8F901A9124800F03EFA0821104807
:101B600000F076F908210E4800F0CEF908210C4863
:101B700000F028FA08210A4800F06CFA0121084810
:101B800000F0F1F809B030BD000C1A00001001405F
:101B9000002001400008014000140140000C0140F9
:101BA0000004004010B501210C4800F0EBF8A0B192
:101BB00001210A4800F0D4F809480078012804D12E
:101BC00008480068401C0749086007480168074842
:101BD0000078FEF737FE0649087010BD0008004087
:101BE0006400002068000020700000206C000020CD
:101BF000740000207FB505460C4601210420FFF744
:101C00008BFCADF80850ADF804400020ADF80A0098
:101C1000ADF8060001A90D4800F032FA0122114684
:101C20000A4800F0C0F81E208DF8000001208DF851
:101C300001008DF802008DF803006846FFF7D8FB1D
:101C40000021024800F08FF87FBD0000000800402E
:101C50003EB504460D4601210820FFF75DFCADF8B6
:101C60000050ADF804400020ADF80600ADF80200C9
:101C70000121064800F068F86946044800F000FABF
:101C800000200249243108803EBD0000000C0040C5
:101C900010B501211C4800F075F818B101211A484F
:101CA00000F05EF81948007878B9012017490870EB
:101CB00020211748FFF7F2FA472144F61F60FFF78B
:101CC000C7FF0520134908701CE010480078012860
:101CD00018D11048007880B900200C4908700E49CE
:101CE000087005200B49087047213C20FFF7B0FF22
:101CF00020210748FFF7D4FA04E006480078401E88
:101D00000449087010BD0000000C00408100002054
:101D100000080140820000208000002008B5012159
:101D20001020FFF709FC4FF48060ADF80000102090
:101D30008DF8030003208DF8020069460148FFF783
:101D4000D9F908BD0010014021B1028842F080029B
:101D5000028004E002884FF67F731A4002807047C9
:101D6000CA430282704721B1028842F00102028018
:101D700004E002884FF6FE731A4002807047014665
:101D8000888C704730B50246002000230024158A55
:101D900005EA0103958905EA010413B10CB101209C
:101DA00000E0002030BD1AB183890B43838102E03B
:101DB00083898B438381704770B500240022002300
:101DC000058C4FF6FE7635400584028C8388048BA3
:101DD0004FF68F752C40B51E2C400D882C43751E78
:101DE0002A400D892A434D882A43144DA8420BD01E
:101DF000134DA84208D0134DA84205D0124DA84259
:101E000002D0124DA84213D14FF6F7752A404D89E2
:101E10002A434FF6FB752A408D882A434FF6FF650B
:101E20002B404FF6FF552B408D892B43CD892B43FB
:101E300083800483CD888586028470BD002C014098
:101E4000003401400040014000440140004801408E
:101E50000A460021018B4FF6F773194011430183A5
:101E60007047000070B5002400220023058C4FF657
:101E7000EF7635400584028C8388048B48F6FF7525
:101E80002C404FF6FF452C400D884FF6FF7606EAB2
:101E900005252C434FF6DF752A400D8906EA051506
:101EA0002A434D8806EA05152A43154DA84202D05B
:101EB000144DA8421DD14FF67F752A404D894FF62B
:101EC000FF7606EA05152A434FF6BF752A408D882E
:101ED00006EA05152A434FF6FF352B404FF2FF75F2
:101EE0002B408D8906EA85052B43CD8906EA8505B9
:101EF0002B4383800483CD880587028470BD000056
:101F0000002C0140003401400A460021018B4FF2B1
:101F1000FF7319404FF6FF7303EA0223194301834D
:101F20007047000070B5002400220023058C4FF696
:101F3000FF6635400584028C8388848B4FF68F754D
:101F40002C404FF6FC752C400D882C434FF6FF5566
:101F50002A400D894FF6FF7606EA05252A434D886B
:101F600006EA05252A43154DA84202D0144DA84281
:101F70001DD14FF2FF752A404D894FF6FF7606EAD4
:101F800005252A434FF6FF352A408D8806EA0525A8
:101F90002A434EF6FF752B404DF6FF752B408D8979
:101FA00006EA05152B43CD8906EA05152B438380E8
:101FB0008483CD888587028470BD0000002C014099
:101FC000003401400A460021818B4FF6F773194017
:101FD000114381837047000070B500220023002464
:101FE000058C4EF6FF7635400584038C8488828B01
:101FF00048F6FF752A404FF6FF452A400D884FF6F8
:10200000FF7606EA05252A434DF6FF752B400D891C
:1020100006EA05352B434D8806EA05352B430B4D63
:10202000A84202D00A4DA84208D14BF6FF752C40B9
:102030008D894FF6FF7606EA85152C4384808283CE
:10204000CD88A0F84050038470BD0000002C0140F2
:10205000003401400A460021818B4FF2FF73194082
:102060004FF6FF7303EA0223194381837047818689
:1020700070470187704781877047A0F8401070470C
:10208000002202881D4B98420ED01D4B98420BD067
:10209000B0F1804F08D01B4B984205D01A4B9842A4
:1020A00002D01A4B984204D14FF68F731A404B88D6
:1020B0001A43174B984207D0164B984204D04FF65C
:1020C000FF431A40CB881A4302808B8883850B8894
:1020D00003850A4B98420BD0094B984208D00E4B0F
:1020E000984205D00D4B984202D00D4B984201D139
:1020F0000B7A03860123838270470000002C014085
:10210000003401400004004000080040000C004082
:102110000010004000140040004001400044014015
:102120000048014010B540F22551214800F0A9F8BF
:1021300010B31F4800F060F9C4B21E48008800F4D4
:102140000040C8B91B48008800F4804060B10A2CE8
:1021500003D000201749088020E01648008840F48A
:1021600000401449088019E00D2C06D11148008860
:1021700040F480400F49088010E00E480088C0F30A
:102180000D000D490C540B480088401C094908807B
:1021900008460088C72801DD00200880054800881F
:1021A00000F40040B0F5004F01D100F0FDFF10BD7C
:1021B00000380140B0000020E301002010B540F2DB
:1021C0002551204800F05DF810B31E4800F014F9C6
:1021D000C4B21D48008800F40040C8B91A480088FD
:1021E00000F4804060B10A2C03D00020164908801A
:1021F00020E01548008840F400401349088019E0A9
:102200000D2C06D11048008840F480400E4908800B
:1022100010E00D480088C0F30D000C490C540A482A
:102220000088401C0849088008460088C72801DD4E
:10223000002008800448008800F4004008B100F045
:10224000F5FE10BD00440040B2000020AB020020AB
:1022500021B1828942F40052828104E082894DF6E4
:10226000FF731A408281704702460020B1F5007F5B
:1022700000D100BF13880B400BB1012000E000200B
:10228000704770B50246002400230025002040F668
:102290006A16B14200D100BFC1F3421501F01F031D
:1022A000012606FA03F3012D02D19689334006E098
:1022B000022D02D1168A334001E0968A33400C1277
:1022C000012606FA04F41688344013B10CB101203B
:1022D00000E0002070BDF0B5034600240026002574
:1022E000002040F66A17B94200D100BF1846C1F37A
:1022F000421401F01F06012707FA06F5012C01D14F
:102300000C3004E0022C01D1103000E014301AB17E
:1023100007682F43076002E00768AF430760F0BD1E
:102320002DE9F04786B005460E460024A24600BFC0
:10233000A1460027B08900B100BF2F462C8A4CF679
:10234000FF700440F08804432C82AC894EF6F310F1
:102350000440B08831890843718908430443AC8143
:10236000AC8A4FF6FF400440B0890443AC8201A818
:10237000FFF7F2F81F48874202D1DDF810A001E014
:10238000DDF80CA0A88900F4004040B10AEBCA00B7
:1023900000EB0A1031684900B0FBF1F807E00AEBE6
:1023A000CA0000EB0A1031688900B0FBF1F8642024
:1023B000B8FBF0F004012009642101FB1089A88911
:1023C00000F4004040B1322000EBC900B0FBF1F056
:1023D00000F00700044308E0322000EB09106421FC
:1023E000B0FBF1F000F00F0004432C8106B0BDE813
:1023F000F08700000038014001468888C0F30800DB
:102400007047C1F308028280704700BFFEE770B5D5
:1024100005460C4612E000BF80212846FFF724FF46
:102420000028F9D021782846FFF7EBFF00BF4021B4
:102430002846FFF719FF0028F9D1641C20780028EE
:10244000E9D170BD014600BF7047000010B50246DB
:1024500009B1022925D1002020E052F82030244C77
:1024600054F820402344B3F5167F07DD204B53F882
:102470002030C3F5167342F820300EE052F82030B9
:102480001B4C54F820402344962B06DA184B53F883
:102490002030C3F1960342F82030401C0428DCDBD6
:1024A00024E0002020E052F82030114C54F8204065
:1024B0002344B3F5167F07DD0D4B53F82030C3F5E9
:1024C000167342F820300EE052F82030084C54F8D1
:1024D00020402344962B06DA054B53F82030C3F1F5
:1024E000960342F82030401C0428DCDB10BD0000BD
:1024F0009801002010B500202F4908702F4908606E
:1025000019E02E4801682C480078FEF7EBF82C49BA
:1025100008700846007858B12A480068401C2949CC
:10252000086008460068032805DD0020086003E015
:10253000002024490860E4E700BF19E01F48016853
:102540001D480078FEF7CEF81D490870084600784F
:1025500058B91D480068401C1B49086008460068BF
:102560000A2805DD0020086003E000201649086005
:10257000E4E700BF1CE0114801680F480078FEF74F
:10258000B1F80F4908700846007870B10D4800682E
:10259000401C0C49086008460068032808DD00203C
:1025A0000A4908700749086003E0002005490860EF
:1025B000E1E700BF10BD00006C00002070000020AB
:1025C00038000020340000203C0000202C000020B7
:1025D00010B549480078032190FBF1F0474951F8C4
:1025E00020004749097801EB4101C1F10701884208
:1025F0000FD041480078032190FBF1F03F4951F89A
:1026000020003F49097801EB4101C1F108018842EE
:1026100006D1FEF70BF901F057FB00F0F7FB01E0E4
:1026200001F036FD01F0ACF801203649086001F0F8
:10263000C3FE0020344908702F480078032190FB26
:10264000F1F02E4951F820002D490978C1F105011A
:1026500088420DD028480078032190FBF1F02749EB
:1026600051F8200026490978C1F10601884204D1B9
:1026700001F0E4F800F054FC01E001F0A7F90120BA
:10268000224908701E480078401C214908604FF01C
:102690007C510120FEF7A6F84FF07C510320FEF795
:1026A000A1F8FEF75DF84FF4967000F023FD20E0EE
:1026B0001848016818480078FEF714F817490870A0
:1026C0000846007890B916480068401C1449086014
:1026D0000846006803280CDD142007490870012013
:1026E0000849086000200E49086003E000200C49FA
:1026F0000860DDE700BF10BD2C00002008000020AE
:102700000000002030000020400000206C0000206D
:10271000700000200400002001000020380000208C
:102720003C000020FEF782F801F08AFB10B5464815
:102730000078032190FBF1F0444951F8200044490E
:10274000097801EB4101C1F1070188420FD03E48F1
:102750000078032190FBF1F03C4951F820003C49FE
:10276000097801EB4101C1F1080188423BD13648AB
:10277000007830B93448007828B936480068012814
:1027800001D1FEF753F8002033490870334908603F
:10279000FEF71AFB4FF4967000F0ACFCFDF7E0FF7B
:1027A0001FE02E4801682C480078FDF79BFF2C495C
:1027B00008700846007888B92A480068401C2949F2
:1027C00008600846006803280BDD1F480078401C9D
:1027D0001D49087000202349086003E000202149BA
:1027E0000860DEE72FE001201B49087018480078D8
:1027F000C0F10300194908604FF4FA7000F07AFC48
:102800001FE01648016814480078FDF76BFF144973
:1028100008700846007888B912480068401C1149C1
:102820000860084600680A280BDD07480078801C0D
:102830000549087000200B49086003E000200949A1
:102840000860DEE700BF10BD2C000020080000205B
:1028500000000020300000206C00002070000020EC
:10286000380000203C00002010B5574800780321B4
:1028700090FBF1F0554951F8200055490978C1F114
:10288000050188420DD050480078032190FBF1F0FB
:102890004E4951F820004E490978C1F1060188429D
:1028A00031D1FDF7C3FF00204A4908704A4908604A
:1028B000FEF78AFA4FF4C87000F01CFCFDF750FFD9
:1028C0001FE04548016843480078FDF70BFF434986
:1028D00008700846007888B941480068401C4049A3
:1028E00008600846006803280BDD37480078401C64
:1028F0003549087000203A49086003E00020384953
:102900000860DEE75FE03748007802282EDA012011
:10291000304908702E480078401C2F4908604FF459
:10292000C87000F0E7FB1FE02B48016829480078D9
:10293000FDF7D8FE294908700846007888B928486C
:102940000068401C264908600846006803280BDD23
:102950001D480078401E1C4908700020204908606E
:1029600003E000201E490860DEE72CE00120194941
:10297000087017480078C0F10300174908604FF449
:10298000C87000F0B7FB1CE01348016811480078DC
:10299000FDF7A8FE114908700846007888B910486C
:1029A0000068401C0E49086008460068032808DDDE
:1029B00005480078801C0449087000200849086018
:1029C00000E0E1E700BF10BD2C000020080000205F
:1029D000000000206C000020700000203800002063
:1029E0003C0000204000002010B501201449087070
:1029F00014480078C0F103001349086008460168D4
:102A00000F480078FDF76EFE104908700846007800
:102A100088B10F480068401C0D49086008460068EE
:102A200003280BDD0B480078401C0A490870002081
:102A30000749086002E000200549086010BD000059
:102A40006C000020000000207000002038000020F2
:102A5000340000202C00002010B52B4800780228FC
:102A600028DA01202949087029480078401C2949A2
:102A700008600846016825480078FDF733FE2649BE
:102A800008700846007888B124480068401C234933
:102A9000086008460068032835DD21480078801E5C
:102AA0001F49087000201D4908602CE000201B49C8
:102AB000086028E001201549087015480078C0F129
:102AC0000300144908600846016810480078FDF7C3
:102AD00009FE114908700846007888B10F4800685F
:102AE000401C0E4908600846006803280BDD0C48AE
:102AF0000078401C0A49087000200849086002E07C
:102B000000200649086010BD400000206C00002035
:102B10000000002070000020380000203400002059
:102B20002C00002010B5B0480078401E032190FB17
:102B3000F1F0AE4951F82000AD49097801EB4101AF
:102B4000C1F10701884210D0A7480078401E032138
:102B500090FBF1F0A54951F82000A549097801EB57
:102B60004101C1F10801884202D1A248006808B3BE
:102B70009D480078401E032190FBF1F09B4951F8DD
:102B800020009B490978C1F1050188420ED0964882
:102B90000078401E032190FBF1F0944951F8200089
:102BA00093490978C1F10601884270D191480068C3
:102BB0000128FAD1002090490870904908608A489D
:102BC0000078401E032190FBF1F0884951F8200065
:102BD000062820D084480078401E032190FBF1F0A5
:102BE000824951F82000042815D07F480078401E03
:102BF000032190FBF1F07D4951F8200002280AD012
:102C000079480078401E032190FBF1F0774951F894
:102C10002000082806D1FDF7B5FD00210846FDF784
:102C2000E1FD05E0FDF7AEFD00210846FDF7DAFD08
:102C3000FDF796FD00F0AAFAFDF7F8FD6A48007866
:102C4000401E032190FBF1F0684951F820106848BC
:102C500000780522A2EB400081420FD06248007844
:102C6000401E032190FBF1F0604951F820106048AC
:102C700000780722A2EB4000814209D1022001F036
:102C800029FC5F480078401C5D49087008E04BE073
:102C9000042001F01FFC5A480078401C5849087075
:102CA00051480078401E032190FBF1F04F4951F844
:102CB0002000062820D04C480078401E032190FBBD
:102CC000F1F04A4951F82000022815D04648007812
:102CD000401E032190FBF1F0444951F820000428E4
:102CE0000AD041480078401E032190FBF1F03F4993
:102CF00051F8200008280BD13B480078401E0321E2
:102D000090FBF1F039494FF0FF3241F8202069E0A3
:102D100035480078401E032190FBF1F033496FF0F5
:102D2000010241F820205DE000210846FDF75AFD30
:102D30002D480078401E032190FBF1F02B4951F8FB
:102D40002000801C20B900210220FDF74BFD03E08C
:102D500000210220FDF746FD0020274908700220CF
:102D600026490860FDF7FCFC3AE024480168224847
:102D70000078FDF7B7FC234908700846007860B377
:102D800021480068401C2049086008460068032864
:102D900026DD15480078401E1349087000201A49A6
:102DA000086000210220FDF71DFDFDF73FFD1448DE
:102DB0000078022810DA0C480078032190FBF1F02B
:102DC0000A4951F82000801C18B9032001F082FB49
:102DD00002E0012001F07EFB03E000200A490860C8
:102DE000C3E700BF10BD00002C0000200800002039
:102DF00000000020300000206C0000207000002047
:102E000040000020380000203400002010B50020D1
:102E10003C49087002203C4908603C48007828B9C9
:102E20004FF07E510220FDF7DDFC03E0384902201F
:102E3000FDF7D8FCFDF794FC19E0334801683148F0
:102E40000078FDF74FFC3349087033480068401C98
:102E5000314908602F48007830B1084600680328DF
:102E600005DD0020086003E000202B490860E4E74E
:102E700000BF26480078022839D119E022480168AD
:102E800020480078FDF72EFC22490870234800688E
:102E9000401C224908601F48007830B90846006885
:102EA000052805DD0020086003E000201B490860BC
:102EB000E4E700BF19E01448016812480078FDF704
:102EC00011FC1449087014480068401C124908603D
:102ED0001048007830B108460068032805DD00205E
:102EE000086003E000200C490860E4E708E0FDF713
:102EF0009DFC4FF4AF610120FDF760FCFDF79CFCE9
:102F000010BD00006C0000207000002000000020B8
:102F1000000080BF38000020340000203C0000206A
:102F200010B502203A49086000203A490870FDF7C0
:102F300017FC19E03648016836480078FDF7D2FBE7
:102F4000354908700846007858B134480068401C7C
:102F50003249086008460068032805DD0020086043
:102F600003E000202D490860E4E700BF19E028488D
:102F7000016828480078FDF7B5FB27490870084626
:102F8000007858B926480068401C25490860084662
:102F90000068052805DD0020086003E000202049C6
:102FA0000860E4E700BF2FE019480168194800787D
:102FB000FDF798FB184908700846007808B31748D1
:102FC0000068401C154908600846006803281BDD9E
:102FD00000200860152013490870FDF727FC1148F0
:102FE0000078032190FBF1F00F4951F82000801C7C
:102FF00018B9032001F06EFA02E0012001F06AFA2C
:1030000003E0002005490860CEE700BF10BD0000C6
:10301000700000206C0000203800002034000020E8
:103020003C0000202C0000200800002010B51B4BA5
:103030001B8803F4004363B3184B1B88C3F30D02D2
:10304000092A27D1164B1B7A392B23D16423154C1F
:103050002370002105E0124B5B5C134C63544B1C46
:10306000D9B29142F7DB002011E0104B53F8203029
:103070005B1C53B10D4B53F820309B1C2BB10A4BFA
:103080001B5C303B094C44F82030431CD8B2092863
:10309000EBDB02E00023014C238010BDB2000020D6
:1030A000AB02002075000020A801002008000020CD
:1030B00010B56FF00400FEF73DFC0A4800680A49AD
:1030C000B0FBF1F0094908700846007800EB4001B8
:1030D000C1EBC0104FF6FF7101EAC000044908803F
:1030E00010BD00004800002000127A008E00002071
:1030F000900000200146114A12884A434FF0E02315
:103100005A6100229A611A46126942F001021A615C
:1031100000BF4FF0E022106900F001021AB100F484
:103120008032002AF5D04FF0E022126922F001022D
:103130004FF0E0231A6100229A617047900000204E
:103140000146114A12784A434FF0E0235A610022A7
:103150009A611A46126942F001021A6100BF4FF0EB
:10316000E022106900F001021AB100F48032002A56
:10317000F5D04FF0E022126922F001024FF0E02377
:103180001A6100229A6170478E000020002008E03A
:103190000449096821B9401C642802DB00207047FB
:1031A0000020F5E70C01224210B5FC480088C0F36E
:1031B0000D00FB490880FB480078522874D00CDCD5
:1031C00047286ED004DC42286CD046286BD15FE1E2
:1031D0004C280BD05028F9D1C5E061287ED0632857
:1031E0007DD065287CD07328F0D1FFE1ED48407890
:1031F000642840D10120EC4908702EE04C21EB48B6
:10320000FFF7FFF800BF4021E848FFF72DF801283D
:10321000F9D16421E548FFF7F4F800BF4021E34805
:10322000FFF722F80128F9D10D21E048FFF7E9F86E
:1032300000BF4021DD48FFF717F80128F9D10A2126
:10324000DA48FFF7DEF800BF4021D848FFF70CF856
:103250000128F9D10020D1490880D048008800F425
:10326000004090B1CF4800784C280ED1CD4840782E
:103270006428C3D009E0CB484078722805D10120EA
:10328000CB4908700020C5490880C64840786328AB
:1032900005D10120C74908700020C049088015E207
:1032A00002E044E16CE110E2BE484078642844D179
:1032B0000120C149087032E05221BC48FFF7A1F853
:1032C00000BF4021B948FEF7CFFF0128F9D16421A2
:1032D000B648FFF796F800BF402102E03AE1ADE1C1
:1032E00090E0B248FEF7C0FF0128F5D10D21AF48AC
:1032F000FFF787F800BF4021AC48FEF7B5FF012873
:10330000F9D10A21A948FFF77CF800BF4021A7485E
:10331000FEF7AAFF0128F9D10020A04908809F48A4
:10332000008800F40040E8B19E480078522819D186
:103330009C4840786428BFD014E09A4840787228AE
:1033400006D101209D49087000209449088009E0B9
:1033500094484078632805D10120994908700020DD
:103360008E490880B2E18F48407864283FD101201F
:10337000944908702EE050218C48FFF742F800BFB6
:1033800040218A48FEF770FF0128F9D1642187485F
:10339000FFF737F800BF40218448FEF765FF01289A
:1033A000F9D10D218148FFF72CF800BF40217F485B
:1033B000FEF75AFF0128F9D10A217C48FFF721F8CE
:1033C00000BF40217948FEF74FFF0128F9D10020C6
:1033D000724908807148008800F4004038B1714893
:1033E0000078502803D16F4840786428C3D06D48D6
:1033F0004078722805D10120734908700020674980
:10340000088063E1674840786E2840D1654880783D
:1034100064283CD101206D49087065216348FEF79E
:10342000F0FF00BF40216148FEF71EFF0128F9D1DF
:103430006E215E48FEF7E5FF00BF40215B48FEF7C6
:1034400013FF0128F9D164215848FEF7DAFF00BFC5
:1034500040215648FEF708FF0128F9D10D215348B5
:10346000FEF7CFFF00BF40215048FEF7FDFE0128C8
:10347000F9D10A214D48FEF7C4FF00BF40214B4857
:10348000FEF7F2FE0128F9D10020444908801DE131
:103490004448407864283FD101204D4908702EE00F
:1034A00046214248FEF7ADFF00BF40213F48FEF7EE
:1034B000DBFE0128F9D164213C48FEF7A2FF00BFE2
:1034C00040213A48FEF7D0FE0128F9D10D213748B6
:1034D000FEF797FF00BF40213448FEF7C5FE0128E4
:1034E000F9D10A213148FEF78CFF00BF40212F4857
:1034F000FEF7BAFE0128F9D10020284908802748A4
:10350000008800F4004038B126480078462803D1EE
:10351000244840786428C3D022484078722805D1D6
:1035200001202C49087000201C490880CEE01D486D
:10353000407820B91B4840782749087009E01948AD
:103540004078722805D101202449087000201349D1
:103550000880BBE0012222A12248FCF75DFE214940
:103560001248FEF754FF40F60A511048FEF749FF93
:1035700000BF40210D48FEF777FE0128F9D1A5E0F4
:1035800008484078722808D11748007810B90120FF
:103590001549087000200149088097E0B00000201C
:1035A000A8000020E30100209E0000200038014018
:1035B00098000020A30000209F0000209900002018
:1035C000A4000020A00000209A000020A2000020FB
:1035D000A10000209B000020970000209C000020FC
:1035E00025640000B10100209D00002001203A491F
:1035F000087019E073213948FEF703FF00BF40212E
:103600003648FEF731FE0128F9D140F60A51334819
:10361000FEF7F7FE00BF40213048FEF725FE0128E7
:10362000F9D100202E4908802D48008800F4004080
:1036300018B12C4800787328DCD047E0294840783E
:103640006C2841D12748807863283DD10020264945
:1036500008702649087026490870264908702649CE
:10366000087026490870264908701B4908706321B4
:103670001A48FEF7C6FE00BF40211848FEF7F4FDC9
:103680000128F9D16C211548FEF7BBFE00BF40218F
:103690001248FEF7E9FD0128F9D163210F48FEF732
:1036A000B0FE00BF40210D48FEF7DEFD0128F9D134
:1036B00040F60A510948FEF7A4FE00BF4021074822
:1036C000FEF7D2FD0128F9D100E000BF00BF0020C5
:1036D0000349088010BD0000A6000020003801400A
:1036E000B0000020E30100209B0000209800002093
:1036F000990000209D000020A50000209A000020D5
:103700009C0000202DE9F84F04460D46284621680C
:1037100002F02EF805464FF08040216901F052FF7B
:103720002946009002F01AF88346616901F0A0FE74
:103730008246E16801F046FF80462169A06801F0F9
:1037400041FF00902846216902F012F88346616823
:1037500001F038FF8246009901F08AFE8146414619
:1037600001F086FE07463946A06901F081FE064653
:10377000206960612561A6613046BDE8F88F0000D0
:1037800010B501202849087028490860FCF7E8FFB7
:10379000FCF7F8FF4FF03F410120FDF723F840F21E
:1037A000E240FFF7A7FCFDF747F842F21071012055
:1037B000FDF788FBFDF740F84FF07C510120FDF745
:1037C00011F8052000F086FE0020194908704FF41A
:1037D000FA61FDF777FBFDF72FF801201249087019
:1037E000032012490860FCF7BBFF19E00F4801688D
:1037F0000D480078FCF776FF0E49087008460078FF
:1038000058B10D480068401C0B4908600846006824
:10381000052805DD0020086003E000200649086057
:10382000E4E700BF10BD00006C0000207000002025
:1038300040000020380000203400002010B55D4812
:10384000007830B9FCF7F2FF4FF4AF610020FCF7CD
:10385000B5FFFCF7F1FF0020574908605749087091
:1038600057480078032190FBF1F0564951F82000A9
:1038700006281DD052480078032190FBF1F05149F1
:1038800051F82000042813D04D480078032190FB04
:10389000F1F04C4951F82000022809D0484800783E
:1038A000032190FBF1F0474951F82000082804D18A
:1038B00000210846FCF796FF03E000210846FCF7CC
:1038C00091FFFCF74DFFFFF761FCFCF7AFFF3C48B1
:1038D0000078032190FBF1F03A4951F82010354867
:1038E00000780522A2EB400081420ED034480078D7
:1038F000032190FBF1F0334951F820102D48007856
:103900000722A2EB4000814208D1022000F0E2FD34
:103910002D480078401C2C49087007E0042000F076
:10392000D9FD29480078401C2749087024480078B0
:10393000032190FBF1F0234951F8200006281DD007
:103940001F480078032190FBF1F01E4951F8200038
:10395000022813D01A480078032190FBF1F019498E
:1039600051F82000042809D015480078032190FB65
:10397000F1F0144951F8200008280AD110480078C5
:10398000032190FBF1F00F494FF0FF3241F8202066
:1039900009E00B480078032190FBF1F009496FF032
:1039A000010241F8202000210846FCF71BFFFCF72C
:1039B000E9FE10BD00000020700000206C00002017
:1039C0002C000020080000204000002010B52B48EB
:1039D0000078002850D1FCF729FF4FF4AF61012097
:1039E000FCF7ECFEFCF728FF0220254908600020C8
:1039F00024490870FCF7B4FE4FF44870FFF77AFBD7
:103A000019E01F4801681F480078FCF76BFE1E494B
:103A100008701E480068401C1C4908601A4800785D
:103A200030B9084600680A2805DD0020086003E078
:103A3000002016490860E4E700BF1BE01048016859
:103A400010480078FCF74EFE0F49087008460078D1
:103A500068B10F480068401C0D49086008460068BE
:103A6000052807DD00200860FCF7E0FE03E00020E9
:103A700007490860E2E700BF10BD00000000002019
:103A8000700000206C000020380000203C00002066
:103A9000340000200A24FFF70BFBFDF7A1F9FDF726
:103AA000A3F9FDF7EBF9C820FFF724FBE001FDF7D0
:103AB000D7FC4FF4165000F0EFFF4FF4165001F012
:103AC0003BF8FEF72BF9472140F2CF70FEF792F852
:103AD00040F2CF2142F20F70FDF77DFF052428E070
:103AE00031214B48FEF78DFC00BF40214848FEF7CE
:103AF000BBFB0128F9D10D214548FEF782FC00BF30
:103B000040214348FEF7B0FB0128F9D10A21404883
:103B1000FEF777FC00BF40213D48FEF7A5FB0128DA
:103B2000F9D13C48006A092800D104E03220FFF7AF
:103B300007FB002CD4D100BF002000F03DFC66E064
:103B4000FCF70EFE344800787F2805D13348006822
:103B500010B9FEF7CFFC5AE02F480078152805D1A0
:103B60002E48006810B9FEF733FD50E02A4800786F
:103B7000152805D129480068012801D1FEF7D2FD9A
:103B800025480078032190FBF1F201FB120028B9CF
:103B90002248006810B9FEF7C9FD38E01E480078D9
:103BA000032190FBF1F201FB120030B91B480068C1
:103BB000012802D1FEF758FE29E0174800780321BA
:103BC00090FBF1F201FB1200022805D113480068B6
:103BD00010B9FEF709FF1AE00F480078032190FBA7
:103BE000F1F201FB1200022806D10C4800680128FE
:103BF00002D1FEF731FF0AE007480078032190FB6D
:103C0000F1F201FB1200012801D1FEF78BFF97E7CB
:103C100000440040080000202C000020300000205C
:103C200010B520212548FDF739FB80212348FDF7F9
:103C300035FB10212148FDF731FB4FF480711F48FF
:103C4000FDF72CFB4FF400611D48FDF727FB4FF4F7
:103C500080711B48FDF722FB4FF480411948FDF7A6
:103C60001DFB40211548FDF719FB6420FFF742FAC0
:103C700020211248FDF714FB80211048FDF710FBAE
:103C800010210E48FDF70CFB4FF480710B48FDF737
:103C900007FB4FF400610A48FDF702FB4FF4807107
:103CA0000748FDF7FDFA4FF480410648FDF7F8FAA2
:103CB00040210248FDF7F4FA10BD00000020014049
:103CC000000801400014014010B50020564908705A
:103CD00056490860FCF756FD55480078032190FBD3
:103CE000F1F0544951F8200006281DD050480078C2
:103CF000032190FBF1F04F4951F82000042813D024
:103D00004B480078032190FBF1F04A4951F820001C
:103D1000022809D046480078032190FBF1F045497C
:103D200051F82000082804D100210846FCF75AFD6C
:103D300003E000210846FCF755FDFCF711FDFFF7F5
:103D400025FAFCF773FD3A480078032190FBF1F067
:103D5000384951F82010384800780522A2EB40007D
:103D600081420ED032480078032190FBF1F03149B6
:103D700051F82010304800780722A2EB4000814221
:103D800008D1022000F0A6FB2C480078401C2B49EB
:103D9000087007E0042000F09DFB28480078401CD4
:103DA0002649087022480078032190FBF1F0214950
:103DB00051F8200006281DD01D480078032190FBF3
:103DC000F1F01C4951F82000022813D0184800785F
:103DD000032190FBF1F0174951F82000042809D085
:103DE00013480078032190FBF1F0124951F82000AC
:103DF00008280AD10E480078032190FBF1F00D4904
:103E00004FF0FF3241F8202009E0094800780321F3
:103E100090FBF1F007496FF0010241F820200021EA
:103E20000846FCF7DFFC10BD6C000020700000208D
:103E30002C0000200800002000000020400000208E
:103E40001FB58B4B0FCB8DE80F008A4800780228F6
:103E50007ED1894908600020884908704FF03F41B1
:103E60000220FCF7BFFCFCF78DFCFCF779FC4FF45B
:103E70002F70FFF73FF919E07F4801687F4800780D
:103E8000FCF730FC7E4908700846007858B97D4838
:103E90000068401C7B49086008460068032805DD6F
:103EA0000020086003E0002076490860E4E700BFD6
:103EB00019E07148016871480078FCF713FC7049FB
:103EC00008700846007858B16F480068401C6E4979
:103ED000086008460068032805DD0020086003E04C
:103EE000002069490860E4E700BF4FF4C870FFF79D
:103EF00001F919E06048016860480078FCF7F2FBBE
:103F00005F4908700846007858B95E480068401C50
:103F10005C49086008460068032805DD0020086049
:103F200003E0002057490860E4E700BF1DE0524865
:103F3000016852480078FCF7D5FB514908700846E3
:103F4000007878B150480068401C4F49086000E094
:103F50000DE008460068032807DD00200860FCF734
:103F600065FC03E0002048490860E0E74FE0FCF70B
:103F70005DFC4FF4AF610020FCF720FCFCF75CFC1B
:103F800000203D4908603D490870FCF7E9FB4FF40B
:103F90001670FFF7AFF819E0374801683748007826
:103FA000FCF7A0FB364908700846007858B9354838
:103FB0000068401C33490860084600680A2805DD8F
:103FC0000020086003E000202E490860E4E700BFFD
:103FD0001BE02948016829480078FCF783FB284941
:103FE00008700846007868B127480068401C2649D8
:103FF000086008460068032807DD00200860FCF719
:1040000015FC03E0002020490860E2E700BF012022
:1040100019490860194908701C49FCF7E3FBFCF7D3
:104020009FFB4FF47A70FFF765F84FF47A70FFF753
:1040300061F8FCF7FBFB42F210710120FCF742FF34
:10404000FCF7FAFB062000F045FA69460320FCF76E
:1040500041FB4FF47A70FFF74DF84FF47A70FFF799
:1040600049F8FCF7E3FB072000F034FA00BFFEE755
:104070005C58000800000020700000206C00002048
:10408000380000203C000020340000200000C0BFA9
:1040900010B52E480078002857D1FCF7C7FB002048
:1040A0002B4908602B4908704FF07E51FCF79AFBB2
:1040B000FCF756FB4FF4C870FFF71CF819E02448D2
:1040C000016824480078FCF70DFB23490870234859
:1040D0000068401C214908601F48007830B9084634
:1040E00000680A2805DD0020086003E000201B4965
:1040F0000860E4E700BF19E015480168154800783A
:10410000FCF7F0FA144908700846007858B11448D2
:104110000068401C1249086008460068052805DD53
:104120000020086003E000200D490860E4E700BFBC
:10413000FCF77CFB00210846FCF754FB4FF4AF6111
:104140000020FCF73BFBFCF777FB10BD00000020D4
:10415000700000206C000020380000203C0000208F
:1041600034000020002141608160C1600160016174
:104170004161816170470160704741608260C36046
:1041800070470021016141618161704710B50446AB
:10419000002C44DD20214448FDF780F8802142486E
:1041A000FDF77EF810214048FDF77AF84FF4807152
:1041B0003D48FDF773F84FF400613C48FDF770F897
:1041C0004FF480713948FDF769F84FF48041384861
:1041D000FDF764F840213448FDF762F8354800687F
:1041E000C0F57A7081B23448FDF741FF314840682C
:1041F000C0F57A7081B23048FDF73BFF2D488068EA
:10420000C0F57A7081B22C48FDF735FF2948C068A7
:10421000C0F57A7081B22848FDF72FFF43E0802176
:104220002148FDF73BF820211F48FDF739F84FF4EE
:1042300080711D48FDF734F810211B48FDF72EF85A
:104240004FF480711948FDF72BF84FF400611748BF
:10425000FDF724F840211448FDF720F84FF4804181
:104260001348FDF71DF813480068C0F57A7081B255
:104270001148FDF7FCFE0F484068C0F57A7081B226
:104280000D48FDF7F6FE0B488068C0F57A7081B2E4
:104290000948FDF7F0FE0748C068C0F57A7081B2A2
:1042A0000548FDF7EAFE10BD00200140000801406E
:1042B00000140140880100200004004010B50446AD
:1042C000002C38DD80213848FCF7E8FF20213648F3
:1042D000FCF7E6FF10213448FCF7E2FF4FF4807151
:1042E0003148FCF7DBFF4FF480713048FCF7D8FF12
:1042F0004FF400612D48FCF7D1FF4FF480412C486A
:10430000FCF7CCFF40212848FCF7CAFF40F2EE2121
:104310002848FDF7ACFE40F2EE212648FDF7A9FE45
:1043200040F252312348FDF7A6FE40F2EE2121482B
:10433000FDF7A3FE37E020211B48FCF7AFFF8021EB
:104340001948FCF7ADFF4FF480711748FCF7A8FF40
:1043500010211548FCF7A2FF4FF480711348FCF7B9
:104360009FFF4FF400611148FCF798FF40210E4871
:10437000FCF794FF4FF480410D48FCF791FF40F2A9
:1043800052310C48FDF773FE40F2EE210948FDF76B
:1043900070FE40F2EE210748FDF76DFE40F2EE217F
:1043A0000448FDF76AFE10BD0020014000080140EE
:1043B00000140140000400402DE9F0410546434847
:1043C0000078E0B9DDB900240EE0414850F824003F
:1043D000072801D1264605E03D4850F8240008286A
:1043E00000D12746601CC4B2082CEEDBBE4203DAC3
:1043F000012000F06FF802E0032000F06BF8334872
:104400000078E8B9012D1BD100240EE0304850F8A7
:104410002400052801D1264605E02D4850F8240047
:10442000062800D12746601CC4B2082CEEDBBE4231
:1044300003DD012000F04EF802E0032000F04AF80E
:104440002248007802281CD1DDB900240EE0204863
:1044500050F82400012801D1264605E01C4850F8F8
:104460002400022800D12746601CC4B2082CEEDBD1
:10447000BE4203DA012000F02DF802E0032000F034
:1044800029F81248007802281DD1012D1BD10024E3
:104490000EE00F4850F82400032801D1264605E01D
:1044A0000B4850F82400042800D12746601CC4B2F1
:1044B000082CEEDBBE4203DD012000F00BF802E029
:1044C000032000F007F8BDE8F081000000000020A4
:1044D0000800002010B504460B2C1FD2DFE804F0C2
:1044E0001E06090C0F1215181B1C1D00FCF742FFBD
:1044F00015E0FCF7FFFE12E0FDF76CF90FE0FDF7A9
:1045000029F90CE0FCF7CCFF09E0FCF7B7FD06E069
:10451000FCF76EFD03E002E001E000E000BF00BF39
:1045200010BD000070B505460C46284605EBD0715D
:104530004910A5EB410100297DD1012D66DA20212A
:10454000CF48FCF7ADFE8021CD48FCF7A7FE102137
:10455000CB48FCF7A5FE4FF48071C948FCF79EFEDE
:104560004FF40061C748FCF79BFE4FF48071C548CB
:10457000FCF796FE606857280EDB4FF48041C24876
:10458000FCF78CFE4021BE48FCF78AFE4FF45C71BC
:10459000BE48FDF772FD20E0606810F1570F0EDC99
:1045A0004FF48041B848FCF77BFE4021B448FCF74B
:1045B00075FE4FF45C71B548FDF75FFD0DE040F20C
:1045C0004C41B248FDF759FD4FF48041AE48FCF72D
:1045D00067FE4021AA48FCF763FE29462046FDF706
:1045E00035FFAB48006822681044C0F57A7081B28C
:1045F000A648FDF73CFDA648406862681044C0F537
:104600007A7081B2A148FDF734FD37E120219C4842
:10461000FCF744FE80219A48FCF742FE102198489E
:10462000FCF73CFE4FF480719548FCF739FE4FF4DF
:104630008041954800E054E0FCF732FE402190486C
:10464000FCF72EFE606857280FDD4FF400618D489F
:10465000FCF724FE4FF480718A48FCF721FE4FF4EA
:104660005C718A48FDF707FD22E0606810F1570F82
:104670000FDA4FF400618348FCF712FE4FF48071AB
:104680008048FCF70BFE4FF45C718048FDF7F3FCAB
:104690000EE040F25B417D48FDF7EDFC4FF4006118
:1046A0007848FCF7FDFD4FF480717648FCF7F8FD83
:1046B00029462046FDF7CAFE754800682268104466
:1046C000C0F57A7081B27148FDF7D1FC704840683E
:1046D00062681044C0F57A7081B26C48FDF7C9FC7D
:1046E000CCE0022D64DA4FF400616648FCF7D6FD99
:1046F0004FF480716348FCF7D3FD4FF4804162486A
:10470000FCF7CCFD40215E48FCF7CAFD10215C4857
:10471000FCF7C6FD4FF480715948FCF7C1FDE06815
:104720003C280DDD20215648FCF7B8FD8021544877
:10473000FCF7B6FD40F275315448FDF798FC1EE0D9
:10474000E06810F13C0F0DDA20214D48FCF7A8FD80
:1047500080214B48FCF7A2FD40F275314B48FDF734
:1047600086FC0CE040F25B414848FDF780FC2021CC
:104770004348FCF795FD80214148FCF791FD29460F
:104780002046FDF763FE42488068A2681044C0F5E9
:104790007A7081B23D48FDF76EFC3D48C068E26822
:1047A0001044C0F57A7081B23848FDF766FC65E0C8
:1047B0004FF400613348FCF773FD4FF480713148CA
:1047C000FCF76CFD4FF480412F48FCF769FD402158
:1047D0002B48FCF763FD20212948FCF761FD80216F
:1047E0002748FCF75DFDE0683C280EDD10212448D9
:1047F000FCF754FD4FF480712148FCF751FD40F265
:1048000075312248FDF735FC20E0E06810F13C0FDF
:104810000EDA4FF480711A48FCF740FD1021184859
:10482000FCF73EFD40F275311848FDF722FC0DE023
:1048300040F25B411548FDF71CFC10211048FCF7C5
:104840002DFD4FF480710E48FCF728FD29462046C7
:10485000FDF7FCFD0E488068A2681044C0F57A7030
:1048600081B20A48FDF707FC0948C068E2681044B5
:10487000C0F57A7081B20548FDF7FFFB70BD0000FE
:1048800000200140000801400014014000040040E5
:104890009801002070B505460C4629462046FDF7D4
:1048A000D5FD284605EBD0714910A5EB4101002943
:1048B00074D1012D38DA20217248FCF7F1FC8021F7
:1048C0007048FCF7EBFC10216E48FCF7E9FC4FF454
:1048D00080716C48FCF7E2FC6B4800682268104469
:1048E000C0F57A7081B26948FDF7C1FB664840683F
:1048F00062681044C0F57A7081B26448FDF7B9FB74
:104900004FF400616248FCF7CBFC4FF480716048C3
:10491000FCF7C6FC4FF480415E48FCF7C1FC402127
:104920005848FCF7BDFCACE020215648FCF7B6FC2B
:1049300080215448FCF7B4FC10215248FCF7AEFC2F
:104940004FF480714F48FCF7ABFC4F480068226879
:104950001044C0F57A7081B24C48FDF788FB4A4894
:10496000406862681044C0F57A7081B24748FDF72C
:1049700080FB4FF400614648FCF792FC4FF48071D5
:104980004348FCF78DFC4FF480414248FCF788FC1B
:1049900040213C48FCF784FC73E0FFE7022D38DA45
:1049A0004FF400613A48FCF779FC4FF480713848C5
:1049B000FCF776FC4FF480413648FCF76FFC402151
:1049C0003048FCF76DFC30488068A2681044C0F5A0
:1049D0007A7081B22D48FDF74EFB2B48C068E26823
:1049E0001044C0F57A7081B22848FDF746FB1021CB
:1049F0002448FCF755FC4FF480712248FCF750FC2A
:104A000020212048FCF74CFC80211E48FCF748FC84
:104A100037E04FF400611E48FCF742FC4FF4807110
:104A20001B48FCF73BFC4FF480411A48FCF738FC6C
:104A300040211448FCF732FC13488068A2681044F7
:104A4000C0F57A7081B21148FDF715FB0E48C068B9
:104A5000E2681044C0F57A7081B20C48FDF70DFB96
:104A600020210848FCF71CFC80210648FCF718FCB4
:104A700010210448FCF714FC4FF480710148FCF746
:104A80000FFC70BD00200140980100200004004090
:104A9000000801400014014010B586B00446012111
:104AA00044F20400FCF748FD4FF40070ADF8140028
:104AB00003208DF8160018208DF8170005A91C4852
:104AC000FCF718FB4FF48060ADF8140004208DF85B
:104AD000170005A91648FCF70DFB25208DF80000EE
:104AE00003208DF801008DF8020001208DF80300ED
:104AF0006846FCF77DFC01940020ADF80800ADF895
:104B00000A00ADF80C00ADF810000C20ADF80E0056
:104B100001A90848FDF704FC012240F2255105488F
:104B2000FDF7D9FB01210348FDF792FB06B010BD4C
:104B3000000801400038014010B586B0044601214C
:104B40000420FCF7F9FC01214804FCF7E5FC0420F3
:104B5000ADF8140003208DF8160018208DF817000A
:104B600005A91C48FCF7C6FA0820ADF8140004207B
:104B70008DF8170005A91748FCF7BCFA26208DF818
:104B8000000003208DF8010002208DF802000120B2
:104B90008DF803006846FCF72BFC01940020ADF86B
:104BA0000800ADF80A00ADF80C00ADF810000C20BC
:104BB000ADF80E0001A90848FDF7B2FB012240F252
:104BC00025510548FDF787FB01210348FDF740FB10
:104BD00006B010BD00080140004400400020044918
:104BE000087000BF024800780028FBD07047000022
:104BF000A100002000200449087000BF024800788E
:104C00000028FBD0704700009E00002000200449CF
:104C1000087000BF024800780028FBD070470000F1
:104C2000A000002000200449087000BF024800785E
:104C30000028FBD0704700009F00002021F00042B8
:104C4000A2F16052B2F5801F01F0004328BFD2F1FB
:104C50007F6C0BD95FEA001C43EAC20242EB507042
:104C600018BF704728BF20F001007047B2F5801FC1
:104C7000BCBF184670474FEA410C1CF5001F02D21A
:104C8000084600F066BD70B500F052FA00000089D9
:104C9000FFF7F6BF4FF00040A0F58000704700001E
:104CA00010B591EA030F48BF83F0004300F1D282B0
:104CB000841A71EB030C05D2121943EB0C03001B91
:104CC00061EB0C01DFF824E14FEA1154A4EB135C13
:104CD0001EEA430F18BF9EEA445F73D023EA0E0317
:104CE000DCF1200E21EA045143F4801332D322FA7E
:104CF0000CFE10EB0E0023FA0CFE41EB0E01CCF182
:104D0000200E03FA0EFE10EB0E0051F10001B1F57A
:104D1000801FCCF1200E32D201EB045112FA0EF2B8
:104D2000BDE8104058BF7047401C38BF5FEA4202E0
:104D300018BF7047002814BF20F0010041F10001A6
:104D40004FEA410313F5001F38BF7047A1F1C0417E
:104D500000F03CBA012A43EB0302ACF1200CDCF179
:104D60001F0E32BF4FF0000E23FA0CF310EB0300BE
:104D700041EB0451B4EB115FD0D0A1EB045101F52C
:104D8000801149085FEA300001EB04510ED350F165
:104D9000000038BF12FA0EFE08D1BDE81040C9E786
:104DA000401C38BF5FEA4202CAD1C3E7BDE81040E9
:104DB0004FEA410313F5001F38BF7047A1F1C0410E
:104DC00000F004BA9EEA445F08D011EA5E0FBDE825
:104DD000104004BF01F0004100207047BDE81040C2
:104DE00070B500F0A5F900BF64FBBE3E0000E0FF17
:104DF000491058BFC1F140415B1058BFC3F1404357
:104E00008B42EFF3008070472DE9C04130B4DFF8EA
:104E1000A0C23CEA111418BF3CEA131400F0EC8065
:104E200081EA03051CEA111444EAD57418BF1CEA90
:104E3000131500F0C780A4EB05044FF0004545EAC8
:104E4000C12145EAC32341EA505143EA525304F1D8
:104E50007F74994204F500344FEAC0204FEAC22221
:104E600008BF904200F09C804FEA13650FF2401695
:104E7000765D4FEA134506FB05F7C7F1807706FB21
:104E800007F74FEAD737A7FB03687642C8F58038A3
:104E9000A7FB06CE38BFA8F1010807FB08E64FF0D4
:104EA000000EA6FB028CE6FB03CEDCF1000CCEF17B
:104EB000004E38BFAEF1010EA6FB0C584FF00007B4
:104EC0004FF00005E6FB0E87A1FB08C6A0FB07CE4E
:104ED00016EB0E0645F10005E1FB076515F1E04E06
:104EE0007EBFA4F580345FEA46066D4116F1800767
:104EF00045F100054FEA17274FEA066647EA0567BE
:104F0000A6F1DE46B6F1805F4FEA15251FD9384677
:104F100024F0010C05EBC471BCF1FE6F01EB0C1128
:104F200002D8F0BCBDE8008124425CBF01F5801EC0
:104F30009EEAC47F02D4F0BCBDE80081244238D48C
:104F4000F0BCA1F1C041BDE8004100F03FB94FEA1B
:104F5000D22242EA43524FEAD323A7FB02864FEA0A
:104F6000D02040EA415007FB03661EEA0E0F4FEACD
:104F7000D12105FB026658BFA6EB0056B6EB0056E2
:104F80004FEA520E4EEAC37E18EB0E0E56EB530E4E
:104F9000BDD518EB02085E417F1C55F10005B6E750
:104FA0004FF480154FF000074FF000064FF0000857
:104FB000ADE7F0BC4FF0000001F1C04101F000414D
:104FC000BDE8008111EA0C1F0CEA131500D00CE0BB
:104FD00013EA0C1F00F025804FF00000F0BC81EABE
:104FE000030101F00041BDE80081F0BCBDE80041D3
:104FF00081EA030100F0EAB8F0BCBDE8004170B5F9
:1050000000F096F8097EFC3E00F007B881EA030143
:105010004FF0000001F00041704781EA030100F009
:10502000D5B8F0BCBDE800414FF000002149704701
:10503000FFFDFBF9F7F5F4F2F0EEEDEBE9E8E6E45D
:10504000E3E1E0DEDDDBDAD8D7D5D4D3D1D0CFCDE4
:10505000CCCBCAC8C7C6C5C4C2C1C0BFBEBDBCBB1D
:10506000BAB9B8B7B6B5B4B3B2B1B0AFAEADACAB18
:10507000AAA9A8A8A7A6A5A4A3A3A2A1A09F9F9EF2
:105080009D9C9C9B9A9999989797969595949393A4
:10509000929191908F8F8E8E8D8C8C8B8B8A89893B
:1050A00088888787868585848483838282818180BE
:1050B0000000FF070000F87F51EA030C17D41CF52D
:1050C000801F58BFBCF5801F00F10680994218BFB1
:1050D000704708BF9042704707D711F5801F58BF2F
:1050E00013F5801F19D499427047894270471CF507
:1050F000801F08D5BCF5801FF7D58B4218BF7047BD
:1051000008BF824270474FF4001C1CEB410F38BFB0
:105110001CEB430F01D28B42704770B500F008F8CA
:10512000922449004FF000514FF08053FFF760BECA
:105130000EF1020E2EF0030E5EF8046B364205D41B
:10514000012A43EB030515F5001F12D8012841EB96
:10515000010C1CF5001F0CD80ED14FEAD17C15F5BF
:10516000001F0CEB4C0C0CF1020C08BF4CEBD37C79
:1051700004E04FF0080C01E04FEAD37C0CEB4C0547
:1051800026FA05F606F00706B6F1040C06D20EEB79
:10519000860CBDE870404CF0010C6047DFE80CF075
:1051A000090B02024FF000414FF00000A1F5002171
:1051B00070BD19461046012851EB010418BFD4F503
:1051C000001484BF002001F0004170BD0808A0F564
:1051D00000114FEA3101704753EA010C17D41CF556
:1051E000801F58BFBCF5801F00F106808B4218BF9E
:1051F000704708BF8242704707D713F5801F58BF1A
:1052000011F5801F19D48B4270479B4270471CF5E3
:10521000801F08D5BCF5801FF7D5994218BF70478D
:1052200008BF904270474FF4001C1CEB430F38BF7F
:105230001CEB410F01D2994270470FB40CBC03BC68
:10524000FFF76BBF10B591EA030F48BF83F000432F
:105250003FF52EAD841A71EB030C07D212198CF0B6
:10526000004C43EB0C03001B61EB0C01DFF8A4E1E5
:105270004FEA1154A4EB135C1EEA430F18BF9EEAD9
:10528000445F00F0B08023EA6E03524221EA0451E9
:10529000C3EB6E0338BF5B1EDCF1200E25D322FA70
:1052A0000CFE10EB0E0043FA0CFE41EB0E01CCF1AC
:1052B000200E03FA0EFE10EB0E0051F10001CCF1AE
:1052C000200E29D412FA0EF201EB0451BDE8104071
:1052D00058BF7047401C1CBFB2F1004F70470028F8
:1052E0000CBF491C20F00100704712EB020E43EB8B
:1052F000030218BF4FF0010E4EEA4202ACF1200C3F
:10530000DCF11E0E54D943FA0CFE10EB0E0051F1E5
:10531000FF31CCF11E0ED5D50EF1010E12FA0EFEA4
:10532000404141EB010101EB445C5FEA5C5C10D958
:1053300010EBDE7001EB045138BFBEF1004FBDE849
:10534000104018BF704700280CBF491C20F0010016
:10535000704730D24FEAD42C11F5001124F40064C8
:105360001BD0B1FA81F20B3AA41AA41ED2F1200389
:10537000914030FA03F31943904001EBCC71002CBB
:1053800001EB0451BDE81040A8BF704701F1C041D6
:105390004FF0000001F000417047B0FA80F310FABE
:1053A00003F100D110BDE41A173C4805C90AE4E72F
:1053B00001EB045110BD491001EB0451BDE8104050
:1053C0004FEA300002E04FF0000170474A0008BF8A
:1053D0000042F8D0B2F5001F28BF704701F000412D
:1053E0004FF0000070479EEA445F07D011EA5E0F5D
:1053F000BDE8104004BF002100207047BDE8104008
:1054000070B5FFF795FE00BF40DFF63E83F0004128
:10541000104670470000E0FF43004FEAD30C4FEA0C
:105420003C0C43401FBF40070CF1605113F0FE4F8E
:1054300070471CF0006F03D100200CF00041704752
:105440000CF0004343EA507010B540EACC0000F085
:105450003AF900BF000000924FEA0001FFF7B6BE24
:105460004FF000414FF00000A1F50021704700000F
:1054700090EA010F48BF81F0004100F18081421A9B
:105480003CBF801A89184FEAD0524FF07F4C1CEA7B
:10549000410FA2EBD15318BF9CEA026F00F03B8092
:1054A0004FF0004C4CEA00204CEA012121FA03FCA9
:1054B00010EB0C0C1ED202F1FF325FEA1C2040EB15
:1054C000C25038BF70471CF07F0F4FEA400C18BF26
:1054D000BCF17F4F38BF7047C3F12003994008BF2C
:1054E00020F00100BCF17F4F38BF7047A0F1C040F1
:1054F00000F02FB94FEA3C00000A40EBC25028BF31
:105500001CF0FF0F4FEA400CE6D018BFBCF17F4FF4
:1055100038BF7047EAE79CEA026F05D010EA5C0FDB
:1055200008BF00F00040704710B500F0CCF800BF95
:1055300064FBBE3E41000B0ED3F19E0208D950F42D
:1055400000034FEA032323FA02F048BF40427047AA
:1055500010B500F0B8F800BF4992248000207047D1
:105560006FF0004282EA20007047000010F0004116
:1055700048BF4042B0FA80F310FA03F2C3F19D0332
:105580000BD051EAC35101EB1220530638BF7047CC
:1055900000F1010008BF20F001007047B0FA80F36D
:1055A00010FA03F2C3F19D030AD0D90501EB1220D2
:1055B000530638BF704700F1010008BF20F001001A
:1055C000704700004FF47F0C1CEAD0121EBF1CEA8B
:1055D000D11392EA0C0F93EA0C0F00F0478090EA87
:1055E000010F48BF42F480724FF0004C4CEA00209B
:1055F0004CEA012102EB0302A0FB0113A2F5000219
:10560000002918BF43F001035B0028BF4FEA3303B2
:1056100042EB22425FEA132C4CEBC2502EBFBCEB94
:10562000436FB2F57C0F70474FEA036CBCF1004F3B
:1056300008BF20F00100B2F57C0F38BF70470BD5D2
:1056400082F0FF0212F5803FC8BF704700F1C040F2
:10565000D8BF00F00040704700F5000C5FEA4C0C2A
:1056600048BF7047B0F1C04000F073B890EA010F36
:105670000CEAD11348BF42F48072624538BF6345DB
:1056800004D280EA010000F00040704710B500F03D
:105690001AF800BF8900013E00F007B800F009B811
:1056A0005FEA410C5FEA1C6C08D080EA010000F060
:1056B00050B85FEA400C5FEA1C6CF6D14FF0004036
:1056C000A0F5800070470EF1020E2EF0030E5EF87A
:1056D000044B244204D44FEA4102B2F17F4F11D867
:1056E0004FEA4003B3F17F4F0CD80ED14FEAD07C84
:1056F000B2F17F4F0CEB4C0C0CF1020C08BF4CEBE1
:10570000D17C04E04FF0080C01E04FEAD17C0CEBB7
:105710004C0324FA03F404F00704B4F1040C06D299
:105720000EEB840CBDE810404CF0010C6047DFE844
:105730000CF0070802024FF00040A0F5800010BDF9
:105740000846420018BFD2F1807288BF00F00040C6
:1057500010BDFF2141EAD050C005704780F00040E5
:1057600090EA010F7FF58BAE81F0004100F007B8A1
:1057700090EA010F48BF81F000413FF580AE421A28
:1057800004D882F00042A0EB020011444FEAD0524C
:105790004FF07F4C1CEA410FA2EBD15318BF9CEA9B
:1057A000026F4AD04FF0004C4CEA00204CEA012135
:1057B00021FA03FCB0EB0C0C0FD412F0FE0F36D024
:1057C0005FEA4C001DD5001240EBC25038BF704755
:1057D0001CF03F0F18BF70470BE0A2F101025FEA17
:1057E0001C2040EBC25038BF70471CF07F0F18BF21
:1057F0007047C3F12003994014BF401E20F0010000
:10580000704780084FEA122308BF7047B0FA80FC47
:10581000A2EB0C02CCF1280C60FA0CF093EA122FE8
:1058200004BF00EBC25070474FEAC3707047130AC1
:105830005FEADC1008BF7047F6E79CEA026F04D00D
:1058400010EA5C0F08BF0020704710B5FFF73BFF60
:1058500040DFF63E81F0004070470000320000005B
:105860003200000032000000320000008C580008B6
:1058700000000020C80000006C0100085459000816
:10588000C800002010090000880100080200000084
:1058900000000000070000000800000005000000F4
:1058A00006000000010000000200000003000000EC
:1058B00004000000090000007F000000000000005C
:1058C00000000000000000000000000000000000D8
:1058D0000000000000A24A040000000000000000D8
:1058E0000102030406070809000000000000000090
:1058F00000000000000000000000000000000000A8
:105900000000000000000000000000000000000097
:105910000100000000000000000000000000000086
:105920000000000000000000000000000000000077
:105930000000000000000000000000000000000067
:105940000000000001020304010203040607080925
:04595000020406083F
:04000005080001D519
:00000001FF
