:020000040800F2
:1000000038090020D5010008B9080008B108000827
:10001000B50800087D040008031500080000000072
:10002000000000000000000000000000810A00083D
:10003000370500080000000069090008950B00085A
:10004000EF010008EF010008EF010008EF010008D0
:10005000EF010008EF010008EF010008EF010008C0
:10006000EF010008EF01000839050008EF01000862
:10007000EF010008EF010008EF010008EF010008A0
:10008000EF010008EF010008EF010008EF01000890
:10009000EF010008EF010008EF010008EF01000880
:1000A000EF010008EF010008EF010008EF01000870
:1000B000EF010008F90B0008290D0008EF01000806
:1000C000EF010008EF010008EF010008EF01000850
:1000D000EF0100081D120008B5120008EF0100082A
:1000E000EF010008EF010008EF010008EF01000830
:1000F000EF010008EF010008EF010008EF01000820
:10010000EF010008EF010008B10D0008EF01000841
:10011000EF010008EF010008EF010008EF010008FF
:10012000EF010008EF010008EF010008EF010008EF
:1001300000F002F800F03FF80AA090E8000C8244BA
:100140008344AAF10107DA4501D100F034F8AFF297
:10015000090EBAE80F0013F0010F18BFFB1A43F0A5
:10016000010318478C1A0000AC1A0000103A24BF93
:1001700078C878C1FAD8520724BF30C830C144BF0C
:1001800004680C607047000000230024002500264E
:10019000103A28BF78C1FBD8520728BF30C148BFEA
:1001A0000B607047642900F07F80002070471FB506
:1001B0001FBD10B510BD00F02EF91146FFF7F7FF77
:1001C00001F0C0FB00F04CF903B4FFF7F2FF03BCF1
:1001D00001F0B4F90948804709480047FEE7FEE707
:1001E000FEE7FEE7FEE7FEE7FEE7FEE7FEE7FEE7E7
:1001F00004480549054A064B70470000990B000862
:10020000310100083803002038090020380500209B
:1002100038050020704700000FB41CB5074B06AA34
:100220007B4469460090059800F0DDF8002069469F
:1002300000F0ECF81CBC5DF814FB0000E9010000C4
:100240002DE9F0410E460446002020622046E16878
:10025000884730B3252805D0D4E901219047206A8A
:10026000401CF2E7E168204600278847050018D0C7
:10027000A5F14100192802D820354FF40067324615
:10028000294620462760FFF78DFF40B1012804D0A2
:10029000F61D26F007060836D8E7361DD6E72846AD
:1002A000DAE7206ABDE8F0812DE9F0410646002436
:1002B00010687529314616A510D0AFF300800028CC
:1002C00002DA404213A507E031688A0701D512A57A
:1002D00002E0490704D511A5012401E0AFF3008035
:1002E00000210A2206F1240709E0B0FBF2FCB0FB72
:1002F000F2F302FB1C00303078541846491C0028E9
:10030000F3D123462A463046BDE8F04100F00CB850
:10031000000000002D0000002B0000002000000065
:1003200070477047704770472DE9F0470D46994672
:100330009246044600F124080168880604D5E06965
:1003400021F01001216000E00120A84201DD471BDF
:1003500000E00027A1697A1902EB0900081AA061E0
:100360002078C00602D42046AFF30080002608E0C3
:10037000D4E901211AF806009047206A401C761C37
:1003800020624E45F4DB2078C0060AD52046AFF344
:10039000008006E0D4E9012130209047206A401C0B
:1003A0002062381EA7F10107F4DC07E0D4E901213F
:1003B00018F805009047206A401C2062281EA5F10D
:1003C0000105F3DC2046AFF300802078000602D55B
:1003D0000220BDE8F0870120FBE7000001694A1C0C
:1003E00002610878704700B58FB0CDE90131002176
:1003F000059105497944CDE9031011466846FFF798
:100400001FFF0FB000BD0000E5FFFFFF0A6802F804
:10041000010B0A607047754600F02CF8AE460500E7
:100420006946534620F00700854618B020B5FFF70F
:10043000DFFEBDE820404FF000064FF000074FF010
:1004400000084FF0000B21F00701AC46ACE8C009F2
:10045000ACE8C009ACE8C009ACE8C0098D467047FB
:1004600010B50446AFF300802046BDE81040FFF70A
:10047000ABBE000000487047D402002000BFFEE77A
:1004800010B500F0EFF910BD10B51C4801F090FA5E
:100490001B4801F08DFA1B4801F08AFA1A4801F056
:1004A00087FA0021154801F08CFA0021144801F068
:1004B00088FA0021144801F084FA0021114801F063
:1004C00080FA00231A464FF07E510C4801F07BFA67
:1004D00000231A464FF07E51094801F074FA0023B8
:1004E0001A464FF07E51084801F06DFA00231A4673
:1004F0004FF07E51034801F066FA10BDA0000020C5
:10050000BC000020D8000020F400002010B500211D
:100510004FF47A7000F088FB4FF42F731A46194697
:10052000184600F017FA4FF4C8731A4619461846D1
:1005300000F006FA10BD704710B5102000F03CF82E
:1005400008B3102000F032F814480068E0B91448ED
:100550000078C8B1134800F095FC0446002010490B
:10056000087011480088A04208DD44F6206020444D
:100570000D490988401A0C49088004E00A4800889F
:10058000201A0949088007E001200549087005483C
:1005900000F078FC0449088010BD000010012142E1
:1005A0006A000020000C004068000020014908603B
:1005B0007047000014040140014600200022074B50
:1005C0001B6803EA0102054B14331B680B4013B18F
:1005D0000AB1012000E00020704700000004014043
:1005E000002123498279002A3AD00A46126803681A
:1005F0009A430B461A600A1D126803689A430B1D42
:100600001A60027911440A6803681A430A60184A9A
:100610000832126803689A43154B08331A601A1D92
:10062000126803689A43124B0C331A604279102AFD
:100630000ED11A1F126803681A430D4B08331A6053
:100640001A1D126803681A43094B0C331A600DE037
:100650000749427911440A6803681A430A6005E0B1
:10066000027911440A6803689A430A6070470000DF
:100670000004014030B500228B071C0F0F2303FA42
:1006800004F20B4B8C1053F824309343084C8D101C
:1006900044F8253023468C1053F824308C07240F5F
:1006A00000FA04F42343024C8D1044F8253030BD89
:1006B000080001402DE9F0410246002500260020F7
:1006C00000230024002791F803C00CF00F0591F8D7
:1006D00003C00CF0100CBCF1000F03D091F802C065
:1006E0004CEA050591F800C0BCF1000F31D0146848
:1006F00000202BE04FF0010C0CFA00F3B1F800C021
:100700000CEA03069E4220D183004FF00F0C0CFA36
:1007100003F7BC4305FA03FC4CEA040491F803C058
:10072000BCF1280F06D14FF0010C0CFA00FCC2F806
:1007300014C00AE091F803C0BCF1480F05D14FF096
:10074000010C0CFA00FCC2F810C0401C0828D1D3E0
:100750001460B1F800C0BCF1FF0F34DD5468002014
:100760002EE000F1080C4FF0010808FA0CF3B1F884
:1007700000C00CEA03069E4221D183004FF00F0C0B
:100780000CFA03F7BC4305FA03FC4CEA040491F8A5
:1007900003C0BCF1280F05D100F1080C08FA0CF8D1
:1007A000C2F8148091F803C0BCF1480F07D100F1E2
:1007B000080C4FF0010808FA0CF8C2F81080401C31
:1007C0000828CED35460BDE8F0810000F0B50A4699
:1007D000002300240021002500F00046B6F1004F60
:1007E00002D11D4EF16901E01B4E7168C0F3034553
:1007F00083B200F44016B6F5401F08D121F07061B5
:10080000154E766826F07066134F7E6012E000F495
:100810008016B6F5801F06D1032606FA05F4A1431B
:1008200041F0706106E0460D360103FA06F6B14369
:1008300041F0706122B1460D360103FA06F63143EC
:1008400000F00046B6F1004F02D1034EF16101E025
:10085000014E7160F0BD0000000001404161704731
:100860000161704708B50121602000F08FF84FF456
:10087000FF40ADF8000004208DF8030003208DF840
:10088000020069460848FFF715FF4FF6FF70ADF804
:10089000000004208DF8030003208DF80200694653
:1008A0000248FFF707FF08BD00180140001401408F
:1008B00000BFFEE700BFFEE77047000070B50021F3
:1008C00000230F22C47804B3154C246804F4E064B8
:1008D000C4F5E064210AC1F10403CA40447804FA73
:1008E00003F184781440214309010E4C0678A15588
:1008F000047804F01F050124AC4005786D11AD00AB
:1009000005F1E025C5F8004109E0047804F01F0571
:100910000124AC40044D0678761145F8264070BDA0
:100920000CED00E000E400E080E100E0024901435A
:10093000024A1160704700000000FA050CED00E06B
:1009400010B5034C20606160A260E36010BD000040
:100950003C00002010B5034C20606160A260E360A1
:1009600010BD00004C0000207047000029B1064A6D
:10097000D2690243044BDA6104E0034AD26982433C
:10098000014BDA61704700000010024029B1064AAD
:1009900092690243044B9A6104E0034A92698243DC
:1009A000014B9A61704700000010024030B50021F1
:1009B0000022002400232D4D6D6805F00C0121B1AB
:1009C000042905D0082923D105E0294D056022E03E
:1009D000274D05601FE0254D6D6805F47012234D0D
:1009E0006D6805F48034022505EB92421CB9214D57
:1009F000554305600BE01D4D6D6805F400351DB1D4
:100A00001C4D5543056002E0194D5543056002E059
:100A1000174D056000BF00BF144D6D6805F0F00173
:100A20000909154D6B5C0568DD4045600F4D6D682B
:100A300005F4E061090A104D6B5C4568DD40856096
:100A40000A4D6D6805F46051C90A0B4D6B5C456831
:100A5000DD40C560054D6D6805F44041890B074DCB
:100A60006B5CC568B5FBF3F5056130BD0010024055
:100A700000127A0000093D008C0000209C0000203C
:100A8000704710B500F002F810BD00000CB5002052
:100A9000019000903348006840F48030314908608C
:100AA00000BF3048006800F4003000900198401CFE
:100AB0000190009818B90198B0F5A06FF1D12948BC
:100AC000006800F4003010B10120009001E0002027
:100AD00000900098012843D12348006840F010009E
:100AE000214908600846006820F0030008600846B5
:100AF000006840F0020008601A48406819494860E0
:100B00000846406848600846406840F48060486095
:100B10000846406820F47C1048600846406840F46D
:100B2000E81048600846006840F08070086000BF28
:100B30000C48006800F000700028F9D009484068AF
:100B400020F00300074948600846406840F0020072
:100B5000486000BF0348406800F00C000828F9D145
:100B60000CBD00000010024000200240042808D103
:100B70004FF0E021096941F004014FF0E0221161DA
:100B800007E04FF0E021096921F004014FF0E02275
:100B9000116170477047000010B51348006840F0BD
:100BA00001001149086008464068104908400E4994
:100BB0004860084600680E4908400B49086008462E
:100BC000006820F4802008600846406820F4FE0099
:100BD00048604FF41F008860FFF753FF4FF000603C
:100BE0000449086010BD0000001002400000FFF83A
:100BF000FFFFF6FE08ED00E010B50121084800F007
:100C000044F958B10121064800F02DF90548006863
:100C100008B9012000E000200249086010BD000072
:100C2000000400409401234230B589B005460C46CB
:100C300001210220FFF79AFE012140F21510FFF773
:100C4000A5FE01213348FFF7C1FD4FF47070ADF8E8
:100C5000200018208DF8230003208DF8220008A919
:100C60002D48FFF727FD4FF4E070ADF8200010206D
:100C70008DF8230003208DF8220008A92748FFF7EC
:100C800019FD08A92548FFF715FD08A92448FFF715
:100C900011FD08A92148FFF70DFDADF81850ADF87A
:100CA00014400020ADF81A00ADF8160005A91D4843
:100CB00000F062FA7020ADF804000120ADF80600E3
:100CC0000020ADF80C0001A9164800F0F9F801A9C0
:100CD000144800F04BF901A9124800F0A7F901A946
:100CE000104800F0FDF908210E4800F035F9082100
:100CF0000C4800F08DF908210A4800F0E7F90821B6
:100D0000084800F02BFA0121064800F0AFF809B0BE
:100D100030BD0000000C1A0000100140002001400E
:100D2000000801400004004010B501210C4800F00B
:100D3000ACF858B101210A4800F095F8094800685C
:100D400008B9012000E00020064908600648007844
:100D5000012804D105480078401C0449087010BDE2
:100D600000080040940123425C0000205D00002048
:100D70003EB504460D4601210820FFF7F7FDADF80A
:100D80000050ADF804400020ADF80600ADF80200B8
:100D90000121064800F05BF86946044800F0ECF9D0
:100DA00000200249243108803EBD0000000C0040B4
:100DB00010B50121194800F068F818B10121174851
:100DC00000F051F81648007860B901201449087005
:100DD00020211448FFF742FD472144F61F60FFF72A
:100DE000C7FF1AE00E480078012816D10E48007897
:100DF00070B900200A49087028200B490870472163
:100E00003C20FFF7B5FF20210648FFF729FD04E04D
:100E100005480078401E0449087010BD000C0040D1
:100E20006B000020000801406C00002008B5322053
:100E30008DF8000000208DF8010002208DF80200DE
:100E400001208DF803006846FFF738FD08BD21B189
:100E5000028842F08002028004E002884FF67F732D
:100E60001A4002807047CA430282704721B102884B
:100E700042F00102028004E002884FF6FE731A403D
:100E8000028070470146888C704730B502460020CA
:100E900000230024158A05EA0103958905EA010467
:100EA00013B10CB1012000E0002030BD1AB18389DC
:100EB0000B43838102E083898B4383817047000069
:100EC00070B5002400220023058C4FF6FE763540D5
:100ED0000584028C8388048B4FF68F752C40B51ED9
:100EE0002C400D882C43751E2A400D892A434D88BD
:100EF0002A43144DA8420BD0134DA84208D0134DDD
:100F0000A84205D0124DA84202D0124DA84213D1DA
:100F10004FF6F7752A404D892A434FF6FB752A4054
:100F20008D882A434FF6FF652B404FF6FF552B4027
:100F30008D892B43CD892B4383800483CD8885867F
:100F4000028470BD002C014000340140004001408B
:100F500000440140004801400A460021018B4FF641
:100F6000F7731940114301837047000070B50024E6
:100F700000220023058C4FF6EF7635400584028C65
:100F80008388048B48F6FF752C404FF6FF452C40B4
:100F90000D884FF6FF7606EA05252C434FF6DF75E0
:100FA0002A400D8906EA05152A434D8806EA0515EB
:100FB0002A43154DA84202D0144DA8421DD14FF628
:100FC0007F752A404D894FF6FF7606EA05152A43BC
:100FD0004FF6BF752A408D8806EA05152A434FF65D
:100FE000FF352B404FF2FF752B408D8906EA8505B2
:100FF0002B43CD8906EA85052B4383800483CD8866
:101000000587028470BD0000002C014000340140BF
:101010000A460021018B4FF2FF7319404FF6FF7310
:1010200003EA0223194301837047000070B50024CE
:1010300000220023058C4FF6FF6635400584028CA4
:101040008388848B4FF68F752C404FF6FC752C40AF
:101050000D882C434FF6FF552A400D894FF6FF7639
:1010600006EA05252A434D8806EA05252A43154D3B
:10107000A84202D0144DA8421DD14FF2FF752A405C
:101080004D894FF6FF7606EA05252A434FF6FF35D0
:101090002A408D8806EA05252A434EF6FF752B4027
:1010A0004DF6FF752B408D8906EA05152B43CD893A
:1010B00006EA05152B4383808483CD8885870284C7
:1010C00070BD0000002C0140003401400A460021A0
:1010D000818B4FF6F77319401143818370470000ED
:1010E00070B5002200230024058C4EF6FF763540B3
:1010F0000584038C8488828B48F6FF752A404FF65E
:10110000FF452A400D884FF6FF7606EA05252A435B
:101110004DF6FF752B400D8906EA05352B434D88AA
:1011200006EA05352B430B4DA84202D00A4DA842D2
:1011300008D14BF6FF752C408D894FF6FF7606EAF5
:1011400085152C4384808283CD88A0F84050038489
:1011500070BD0000002C0140003401400A4600210F
:10116000818B4FF2FF7319404FF6FF7303EA02239E
:101170001943818370470000002202881D4B98426A
:101180000ED01D4B98420BD0B0F1804F08D01B4BB6
:10119000984205D01A4B984202D01A4B984204D17B
:1011A0004FF68F731A404B881A43174B984207D05B
:1011B000164B984204D04FF6FF431A40CB881A438F
:1011C00002808B8883850B8803850A4B98420BD05D
:1011D000094B984208D00E4B984205D00D4B9842CF
:1011E00002D00D4B984201D10B7A038601238382F2
:1011F00070470000002C0140003401400004004012
:1012000000080040000C00400010004000140040A6
:1012100000400140004401400048014010B540F248
:101220002551214800F0A9F810B31F4800F060F9DB
:10123000C4B21E48008800F40040C8B91B480088AA
:1012400000F4804060B10A2C03D0002017490880C8
:1012500020E01648008840F400401449088019E056
:101260000D2C06D11148008840F480400F490880B9
:1012700010E00E480088C0F30D000D490C540B48D7
:101280000088401C0949088008460088C72801DDFD
:10129000002008800548008800F40040B0F5004FA9
:1012A00001D100F0D9F910BD0038014088000020BC
:1012B0004201002010B540F22551204800F05DF8B1
:1012C00010B31E4800F014F9C4B21D48008800F4A1
:1012D0000040C8B91A48008800F4804060B10A2C68
:1012E00003D000201649088020E01548008840F40B
:1012F00000401349088019E00D2C06D110480088E1
:1013000040F480400E49088010E00D480088C0F38A
:101310000D000C490C540A480088401C08490880FC
:1013200008460088C72801DD00200880044800889E
:1013300000F4004008B100F005F910BD0044004081
:101340008A0000200A02002021B1828942F4005262
:10135000828104E082894DF6FF731A4082817047D2
:1013600002460020B1F5007F00D100BF13880B407A
:101370000BB1012000E00020704770B50246002448
:1013800000230025002040F66A16B14200D100BFBC
:10139000C1F3421501F01F03012606FA03F3012DE4
:1013A00002D19689334006E0022D02D1168A3340DD
:1013B00001E0968A33400C12012606FA04F41688DE
:1013C000344013B10CB1012000E0002070BDF0B535
:1013D0000346002400260025002040F66A17B94283
:1013E00000D100BF1846C1F3421401F01F060127C7
:1013F00007FA06F5012C01D10C3004E0022C01D1D2
:10140000103000E014301AB107682F43076002E083
:101410000768AF430760F0BD2DE9F04786B0054689
:101420000E460024A24600BFA1460027B08900B1A5
:1014300000BF2F462C8A4CF6FF700440F08804430E
:101440002C82AC894EF6F3100440B08831890843F1
:10145000718908430443AC81AC8A4FF6FF400440D5
:10146000B0890443AC8201A8FFF7A0FA1F48874265
:1014700002D1DDF810A001E0DDF80CA0A88900F48D
:10148000004040B10AEBCA0000EB0A103168490085
:10149000B0FBF1F807E00AEBCA0000EB0A10316874
:1014A0008900B0FBF1F86420B8FBF0F004012009DA
:1014B000642101FB1089A88900F4004040B132206A
:1014C00000EBC900B0FBF1F000F00700044308E0B6
:1014D000322000EB09106421B0FBF1F000F00F00A6
:1014E00004432C8106B0BDE8F087000000380140BD
:1014F00001468888C0F308007047C1F30802828063
:10150000704700BFFEE770B505460C4612E000BF0D
:1015100080212846FFF724FF0028F9D021782846AB
:10152000FFF7EBFF00BF40212846FFF719FF002817
:10153000F9D1641C20780028E9D170BD014600BFB4
:10154000704700001B4A128802F40042002A2FD084
:10155000184A1288C2F30D01174A1278432A02D0A2
:10156000532A21D10FE008290CD16422124B1A70A2
:10157000002005E0114A125C114B1A54421CD0B2F3
:101580008842F7DB10E001290DD174220A4B1A7052
:10159000002005E0094A125C0A4B1A70421CD0B2C6
:1015A0008842F7DB00E000BF00BF0022014B1A8039
:1015B000704700008A0000205E0000200A02002020
:1015C0005F0000206700002010B56FF00400FFF7F7
:1015D000CDFA0A4800680A49B0FBF1F009490870E1
:1015E0000846007800EB4001C1EBC0104FF6FF71D8
:1015F00001EAC0000449088010BD00002800002056
:1016000000127A006E000020700000200146114A8E
:1016100012884A434FF0E0235A6100229A611A4629
:10162000126942F001021A6100BF4FF0E022106916
:1016300000F001021AB100F48032002AF5D04FF018
:10164000E022126922F001024FF0E0231A61002229
:101650009A6170477000002010B5AB480088C0F355
:101660000D00AA490880AA480078502878D008DCE4
:10167000422876D0462875D0472874D04C2873D19C
:1016800008E0522874D0612870D063286FD0732886
:10169000F5D1C3E09E484078722837D19D48007844
:1016A00010B901209B49087020219B48FFF7D6F80C
:1016B0004FF4FA70FFF7AAFF20219748FFF7D0F800
:1016C0004F219648FFF719FF00BF40219348FFF7CD
:1016D00047FE0128F9D14B219048FFF70EFF00BFCC
:1016E00040218E48FFF73CFE0128F9D140F60A510F
:1016F0008A48FFF702FF00BF40218848FFF730FE0D
:101700000128F9D100208049088028E080484078ED
:10171000712824D14C218148FFF7EFFE00BF402102
:101720007E48FFF71DFE0128F9D172217B48FFF7A3
:10173000E4FE00BF40217948FFF712FE0128F9D1ED
:1017400040F60A517548FFF7D8FE00BF40217348A4
:10175000FFF706FE0128F9D100206B490880CDE093
:1017600014E04DE020E02AE0C7E001E032E07DE057
:1017700067484078722808D16948007810B901207C
:1017800067490870002060490880B7E060484078E9
:10179000722808D16348007810B9012061490870A7
:1017A000002059490880A9E059484078722805D19D
:1017B00001205D4908700020534908809EE054488C
:1017C0004078722805D101205849087000204E4900
:1017D000088093E0012256A15648FEF71DFD5549A9
:1017E0004E48FFF790FE40F60A514C48FFF785FE41
:1017F00000BF40214948FFF7B3FD0128F9D17DE042
:1018000043484078722808D14B48007810B901202D
:101810004949087000203C4908806FE00120474991
:10182000087019E073213D48FFF767FE00BF4021B3
:101830003A48FFF795FD0128F9D140F60A5137489B
:10184000FFF75BFE00BF40213448FFF789FD012808
:10185000F9D100202C4908802B48008800F4004072
:1018600018B12B4800787328DCD047E0284840782E
:101870006C2841D12648807863283DD100202A4930
:10188000087024490870264908702B4908702C49B3
:101890000870244908702549087028490870632198
:1018A0001E48FFF72AFE00BF40211C48FFF758FDE5
:1018B0000128F9D16C211948FFF71FFE00BF402114
:1018C0001648FFF74DFD0128F9D163211348FFF7B2
:1018D00014FE00BF40211148FFF742FD0128F9D155
:1018E00040F60A510D48FFF708FE00BF40210B48A3
:1018F000FFF736FD0128F9D100E000BF00BF00204E
:101900000149088010BD00008800002080000020F0
:1019100042010020770000200018014000380140FB
:1019200078000020790000207A0000207B00002051
:1019300025640000100100207C0000207E000020B3
:101940007D000020FFF740FEFEF79AFDFEF79CFDAC
:10195000FEF7DCFDC820FFF759FE4FF4A060FEF74C
:10196000E5FF4FF4165000F057F84FF4165000F012
:10197000A3F800F027F900F0F1F8472144F61F60C2
:10198000FFF7F6F90020064908700649086000F0E4
:101990001FF804E00448FFF775FA04490880F9E7E6
:1019A0000000002004000020000C00402600002061
:1019B000002141608160C16001600161416181611C
:1019C00070470160704741608260C36070470000EB
:1019D00010B500200C49087028200C4908704721D8
:1019E0003C20FFF7C5F9FFF721FA20210848FEF750
:1019F00037FF012211460748FFF758FA0121054831
:101A0000FFF734FA10BD00006B0000206C000020CE
:101A100000080140000C004010B586B004460121CA
:101A200044F20400FEF7B2FF4FF40070ADF814006A
:101A300003208DF8160018208DF8170005A91C4802
:101A4000FEF738FE4FF48060ADF8140004208DF8E6
:101A5000170005A91648FEF72DFE25208DF8000079
:101A600003208DF801008DF8020001208DF803009D
:101A70006846FEF723FF01940020ADF80800ADF89A
:101A80000A00ADF80C00ADF810000C20ADF80E0007
:101A900001A90848FFF7C0FC012240F22551054882
:101AA000FFF795FC01210348FFF74EFC06B010BD7F
:101AB000000801400038014010B586B004460121FD
:101AC0000420FEF763FF01214804FEF74FFF0420C6
:101AD000ADF8140003208DF8160018208DF81700BB
:101AE00005A91C48FEF7E6FD0820ADF81400042007
:101AF0008DF8170005A91748FEF7DCFD26208DF8A4
:101B0000000003208DF8010002208DF80200012062
:101B10008DF803006846FEF7D1FE01940020ADF871
:101B20000800ADF80A00ADF80C00ADF810000C206C
:101B3000ADF80E0001A90848FFF76EFC012240F243
:101B400025510548FFF743FC01210348FFF7FCFB43
:101B500006B010BD00080140004400400EB5012150
:101B60000420FEF713FF1020ADF8080028208DF8A0
:101B70000B0003208DF80A0002A91148FEF79AFD18
:101B800004210020FEF776FD1020009000208DF843
:101B900004000C208DF8050001208DF80600684631
:101BA000FEF71EFD2020ADF8080010208DF80B0078
:101BB00003208DF80A0002A90148FEF77BFD0EBD47
:101BC0000008014008B54FF4A060FEF7AFFE0A2000
:101BD0008DF8000001208DF8010000208DF8020032
:101BE00001208DF803006846FEF768FE08BD00007E
:101BF000101C000800000020A00000006C0100087C
:101C0000B01C0008A000002098080000880100080F
:101C100000000000000000000000010203000400BA
:101C2000FF000000000000000000000000000000B5
:101C3000000000000000000000A24A0400000000B4
:101C400000000000010203040607080990010000DB
:101C500090010000900100009001000020030000AE
:101C6000200300002003000020030000000000000B
:101C70000000000000000000000000000000000064
:101C80000000000000000000000000000000000054
:101C90000000000000000000000000000000000044
:101CA00001020304010203040607080902040608EE
:04000005080001D519
:00000001FF
