:020000040800F2
:10000000D8090020D5010008E5130008F112000806
:10001000E11300087D040008FB2300080000000035
:100020000000000000000000000000003918000877
:100030001D0F000800000000951400084D1900086D
:10004000EF010008EF010008EF010008EF010008D0
:10005000EF010008EF010008EF010008EF010008C0
:10006000EF010008EF010008210F0008EF01000870
:10007000EF010008EF010008EF010008EF010008A0
:10008000EF010008EF010008EF010008EF01000890
:10009000EF010008EF010008EF010008EF01000880
:1000A000EF010008EF010008EF010008EF01000870
:1000B000B1190008251A0008951B0008EF01000877
:1000C000EF010008EF010008EF010008EF01000850
:1000D000EF01000815210008AD210008EF0100081C
:1000E000EF010008EF010008EF010008EF01000830
:1000F000EF010008EF010008EF010008EF01000820
:10010000EF010008EF010008811C0008EF01000862
:10011000EF010008EF010008EF010008EF010008FF
:10012000EF010008EF010008EF010008EF010008EF
:1001300000F002F800F03FF80AA090E8000C8244BA
:100140008344AAF10107DA4501D100F034F8AFF297
:10015000090EBAE80F0013F0010F18BFFB1A43F0A5
:10016000010318476456000084560000103A24BF6B
:1001700078C878C1FAD8520724BF30C830C144BF0C
:1001800004680C607047000000230024002500264E
:10019000103A28BF78C1FBD8520728BF30C148BFEA
:1001A0000B607047642900F07F80002070471FB506
:1001B0001FBD10B510BD00F02EF91146FFF7F7FF77
:1001C00003F02AFC00F04CF903B4FFF7F2FF03BC84
:1001D00002F030F90948804709480047FEE7FEE78A
:1001E000FEE7FEE7FEE7FEE7FEE7FEE7FEE7FEE7E7
:1001F00004480549054A064B70470000511900089C
:1002000031010008D8030020D8090020D8050020BB
:10021000D8050020704700000FB41CB5074B06AA94
:100220007B4469460090059800F0DDF8002069469F
:1002300000F0ECF81CBC5DF814FB0000E9010000C4
:100240002DE9F0410E460446002020622046E16878
:10025000884730B3252805D0D4E901219047206A8A
:10026000401CF2E7E168204600278847050018D0C7
:10027000A5F14100192802D820354FF40067324615
:10028000294620462760FFF78DFF40B1012804D0A2
:10029000F61D26F007060836D8E7361DD6E72846AD
:1002A000DAE7206ABDE8F0812DE9F0410646002436
:1002B00010687529314616A510D0AFF300800028CC
:1002C00002DA404213A507E031688A0701D512A57A
:1002D00002E0490704D511A5012401E0AFF3008035
:1002E00000210A2206F1240709E0B0FBF2FCB0FB72
:1002F000F2F302FB1C00303078541846491C0028E9
:10030000F3D123462A463046BDE8F04100F00CB850
:10031000000000002D0000002B0000002000000065
:1003200070477047704770472DE9F0470D46994672
:100330009246044600F124080168880604D5E06965
:1003400021F01001216000E00120A84201DD471BDF
:1003500000E00027A1697A1902EB0900081AA061E0
:100360002078C00602D42046AFF30080002608E0C3
:10037000D4E901211AF806009047206A401C761C37
:1003800020624E45F4DB2078C0060AD52046AFF344
:10039000008006E0D4E9012130209047206A401C0B
:1003A0002062381EA7F10107F4DC07E0D4E901213F
:1003B00018F805009047206A401C2062281EA5F10D
:1003C0000105F3DC2046AFF300802078000602D55B
:1003D0000220BDE8F0870120FBE7000001694A1C0C
:1003E00002610878704700B58FB0CDE90131002176
:1003F000059105497944CDE9031011466846FFF798
:100400001FFF0FB000BD0000E5FFFFFF0A6802F804
:10041000010B0A607047754600F02CF8AE460500E7
:100420006946534620F00700854618B020B5FFF70F
:10043000DFFEBDE820404FF000064FF000074FF010
:1004400000084FF0000B21F00701AC46ACE8C009F2
:10045000ACE8C009ACE8C009ACE8C0098D467047FB
:1004600010B50446AFF300802046BDE81040FFF70A
:10047000ABBE0000004870477403002000BFFEE7D9
:100480002DE9F04F91B004468B46154600201090A0
:1004900080460F90814682460E900D900C9025B9B3
:1004A00008200E9004200C900DE0012D04D10820AE
:1004B0000E9003200C9006E0022D02D103200E9036
:1004C00001E004200E90002623E0771C1BF80600B4
:1004D00001281DD106E01BF80700012801D17F1C6F
:1004E00000E002E00E988742F5DB00BFB81BC0B207
:1004F0000F900F9840450BDD06F0FF09781E00F0C5
:10050000FF0AB8F1000F01D001200D90DDF83C800A
:100510003E460E988642D8DBC4F800A0C4F804908A
:10052000C4F80880012D18D10AEB090004F0D4FFAB
:10053000059004F027FF0022AB07CDE9060104F087
:1005400019FC00225E4BCDE9080104F031FECDE933
:100550000A0104F029FBE06048E0022D18D10AEB03
:10056000090004F0B9FF059004F00CFF00226B07AE
:10057000CDE9060104F0FEFB0022524BCDE9080153
:1005800004F016FECDE90A0104F00EFBE0602DE058
:100590000E9804F0B9FF019004F0F4FE00224FF031
:1005A0008043CDE9020104F0E5FB0022464BCDE992
:1005B000040104F0FDFDCDE908010AEB090004F097
:1005C0008BFF039004F0DEFE00224FF08043CDE964
:1005D000040104F0CFFBCDE90601DDE9082304F0B6
:1005E000E7FDCDE90A0104F0DFFAE06000202074A5
:1005F0000DB1012D56D1012D03D14FF07E500B903E
:1006000001E032480B90A1680C98814205DC607CC7
:10061000002844D0A068032841DB01202074E06852
:1006200004F0B0FE0022284BCDE9080104F08AFD59
:1006300015D8606804F050FF04900B9904F0CEFECA
:10064000059004F09FFE00221D4BCDE9060104F049
:10065000AFFDCDE9080104F0A7FAE06021E0E06811
:1006600004F090FE00221A4BCDE9080104F0DAFCF8
:1006700017D8206804F030FF04900B9905F02EF88D
:10068000059004F07FFE00220D4BCDE9060104F039
:100690008FFDCDE9080104F087FAE06001E0002059
:1006A000207400BFB8F1000F02D00D98012802D1CC
:1006B0000120A07401E00020A07411B0BDE8F08F0B
:1006C00000000C400000F83F0000E03F9A99193FFD
:1006D0000000E0BF70B504460D462946204604F0F0
:1006E0008FF870BD38B504460D46002000900DB15E
:1006F000022D20D164B901208DF80000684600F079
:1007000091FF1548007C08B1012038BD0020FCE7AE
:10071000022C1FD101208DF802008DF803008DF806
:100720000000684600F07EFF0B48007C08B1012005
:10073000EBE70020E9E7012C0CD101208DF8010046
:10074000684600F06FFF0548007C08B10120DCE737
:100750000020DAE70020D8E7C8000020DC000020F5
:1007600010B500F00FF80121014801F0F4FA10BDB6
:100770000008004010B50021014801F0ECFA10BD5E
:100780000008004010B5084803F03FFD074803F09B
:100790003CFD074803F039FD064803F036FD002014
:1007A0000549086010BD0000180100203401002038
:1007B0006C010020500100205C00002070B505464F
:1007C0000C46284603F026FDB4F57A7F05DD4FF48C
:1007D0007A7002F0A1FCA4F57A74A0B202F09CFC3D
:1007E000002070BD70B504460D4624B929460B485B
:1007F00003F005FD11E0012C04D12946084803F05F
:10080000FEFC0AE0022C04D12946064803F0F7FC5E
:1008100003E02946044803F0F2FC70BD18010020F3
:1008200050010020340100206C01002010B5FFF7BA
:10083000A1FF03F055FA10BD10B5FFF79BFF03F0C1
:100840004FFA10BD2DE9F04F89B082468946002449
:10085000002005900690079008900490B9F1000FD1
:1008600002D0B9F1020F71D1BAF1000F6FD101209E
:100870008DF8100004A800F0D5FEB9F1000F4CD19E
:10088000FE48807CA8B3FE480068401CFC49086014
:100890000846006803280CDCFA48016902F01EFFD4
:1008A0000646F94904F044FE054604F0F9FD044605
:1008B0007DE0F3480068032811DDF4480068002853
:1008C0000DDDF0484168F24804F032FE0646EE497C
:1008D00004F02EFE054604F0E3FD044667E0E94817
:1008E0004168EC4804F024FE054604F0D9FD0446B6
:1008F0005DE0FFE7E148C168E24802F0EFFE06462E
:10090000E14904F015FE054604F0CAFD0446002046
:10091000DB490860DD48046049E0D848807C98B332
:10092000D7480068401CD64908600846006803287C
:100930000EDCD948016902F0D1FE0646D24904F026
:10094000F7FD054604F0ACFD044630E05EE13EE014
:10095000CB48006803280DDDCC480068002809DD7D
:10096000CD484168CD4804F0E3FD054604F098FD0C
:1009700004461CE0C8484168C64804F0D9FD054655
:1009800004F08EFD044612E0FFE7BC48C168C2488F
:1009900002F0A4FE0646BC4904F0CAFD054604F078
:1009A0007FFD04460020B6490860B84804606042F4
:1009B0000590069405A9484603F06AFDAF48007CFF
:1009C00018B1012009B0BDE8F08F0020FAE7BAF1B4
:1009D000020F7CD101208DF812008DF813008DF8E4
:1009E000100004A800F01EFEB9F1000F70D14FF006
:1009F000000BBBF1000F7BD1A948807C28B3A9482C
:100A0000807C10B39E480068401C9D4908600846E1
:100A1000006803280CDC9B48016902F05FFE064673
:100A2000A14904F085FD054604F03AFD04465FE067
:100A300093480068032805DD94480068002801DD1C
:100A4000ED2455E06FF0EC0452E09548807C90B1C5
:100A50009448C1688B4802F041FE0646924904F072
:100A600067FD054604F01CFD04468848046000202C
:100A7000834908603CE08B48807C90B18848C1681D
:100A8000804802F02BFE0646874904F051FD0546DA
:100A900004F006FD04467D480460002078490860A3
:100AA00026E0804AD1687E4AD06804F097FC009026
:100AB00004F068FC074600224FF0804304F05AF926
:100AC000054604F071F8014601906E4801E010E11E
:100AD0000FE002F003FE7449029004F029FD039038
:100AE00004F0DEFC044669480460002064490860A4
:100AF0007EE04FF0000BBBF1000F78D16848807C9E
:100B000028B36848807C10B35D480068401C5C498D
:100B100008600846006803280CDC5F48016902F0A1
:100B2000DDFD0646604904F003FD054604F0B8FC0F
:100B300004465CE052480068032805DD534800681D
:100B4000002801DDED2452E06FF0EC044FE0544842
:100B5000807C90B15348C1684F4802F0BFFD064603
:100B6000514904F0E5FC054604F09AFC0446474868
:100B7000046000204249086039E04A48807C90B116
:100B80004748C168444802F0A9FD0646464904F0BA
:100B9000CFFC054604F084FC04463C480460002079
:100BA0003749086023E03F4AD1683D4AD06804F0E5
:100BB00015FC009004F0E6FB074600224FF080434E
:100BC00004F0D8F8054603F0EFFF014601903248E3
:100BD00002F084FD3449029004F0AAFC039004F072
:100BE0005FFC04462948046000202549086000BFD6
:100BF00060420590069405A9484603F049FC1F4849
:100C0000007C08B10120DDE60020DBE6BAF1010F2F
:100C10006FD101208DF8110004A800F003FDB9F197
:100C2000010F68D12148807C30B315480068401C12
:100C3000134908600846006803280CDC1C48016959
:100C400002F04CFD0646104904F072FC054604F023
:100C500027FC044697E00A48006803282CDD0B486F
:100C60000068002828DD124841680C4804F060FC48
:100C7000054604F015FC1DE028E00000C800002037
:100C800060000020180100200000B4425C00002039
:100C90000000A0400000E1C3340100200000E14357
:100CA000F0000020040100200000BE42DC00002013
:100CB00050010020044666E03B4841683B4804F090
:100CC00037FC054604F0ECFB04465CE03848C1689C
:100CD000354802F003FD0646364904F029FC054676
:100CE00004F0DEFB0446002033490860334804600A
:100CF00049E056E0FFE72E48807C88B32E48006824
:100D0000401C2D4908600846006803280CDC2C486C
:100D1000016902F0E3FC0646264904F009FC054699
:100D200004F0BEFB04462EE02348006803280DDDD6
:100D300022480068002809DD21484168214804F064
:100D4000F7FB054604F0ACFB04461CE01C48416878
:100D5000164804F0EDFB054604F0A2FB044612E041
:100D6000FFE71348C168164802F0B8FC064611496F
:100D700004F0DEFB054604F093FB044600200E4918
:100D800008600E48046008946042079005A9484630
:100D900003F07EFB0648007C08B1012012E600202B
:100DA00010E600200EE60000500100200000E1C324
:100DB000DC0000200000B442600000205C00002045
:100DC0006C0100200000E1431FB5044600200090A4
:100DD0000190029003906946204603F011FD1FBD6B
:100DE00010B500F05FFA10BD10B51C4803F0FEF915
:100DF0001B4803F0FBF91B4803F0F8F91A4803F00D
:100E0000F5F90021154803F0FAF90021144803F020
:100E1000F6F94FF07C51144803F0F1F94FF07C5192
:100E2000104803F0ECF9114B002211490B4803F074
:100E3000E8F90E4B00220F49094803F0E2F90E4B86
:100E400000224FF07C51084803F0DBF90A4B0022E6
:100E50004FF07C51034803F0D4F910BD1801002075
:100E600034010020500100206C010020CDCCCC3D8D
:100E70006666263F9A99193FCDCC4C3F10B5232189
:100E80004FF47A7000F0E6FDFA231A461946184628
:100E900000F0F6FAFA231A461946184600F0E6FA68
:100EA0000120064908600649C1F898010349083144
:100EB00008600349C1F8900110BD000094812142EF
:100EC0000080214270B505460C46012D0FD1284601
:100ED00003F038FAB4F57A7F05DB4FF47A7002F04C
:100EE0001BF9A4F57A74A0B202F016F912E00026FC
:100EF0000FE0284603F026FA00210846FFF7F2FB30
:100F000005488068022803DB761C022E01DD70BDD7
:100F10000026EEE700BFFAE7C80000207047000097
:100F200010B5102000F050F8002837D01C48006899
:100F3000F0B91C48007870B31B4800F018FF044655
:100F400000201849087019480078C0F1050040F2E7
:100F50007121484304EB401015490968401A1549AE
:100F6000086000201149087001201349087012E040
:100F70000D482430048805200C49087000200A49D7
:100F800024310880012007490870074800F0EFFE6F
:100F90000749086000BF102000F010F810BD0000E5
:100FA0001001214280000020000C0040820000203F
:100FB0007C000020780000208C000020014908609F
:100FC0007047000014040140014600200022074B36
:100FD0001B6803EA0102054B14331B680B4013B175
:100FE0000AB1012000E00020704700000004014029
:100FF00010B500201F49087036E065211E4801F039
:10100000F8F900BF40211C4801F026F90128F9D168
:101010006E21194801F0EDF900BF4021164801F09A
:101020001BF90128F9D16421134801F0E2F900BF4E
:101030004021114801F010F90128F9D10D210E4885
:1010400001F0D7F900BF40210B4801F005F9012854
:10105000F9D10A21084801F0CCF900BF4021064827
:1010600001F0FAF80128F9D1024800780028C4D02C
:1010700010BD0000A20000200038014010B5002083
:101080001A4908702BE04621194801F0B2F900BF57
:101090004021174801F0E0F80128F9D171211448E6
:1010A00001F0A7F900BF4021114801F0D5F801284F
:1010B000F9D10D210E4801F09CF900BF40210C48E8
:1010C00001F0CAF80128F9D10A21094801F091F983
:1010D00000BF4021064801F0BFF80128F9D10348BC
:1010E00000780028CFD003F02FFD10BD9B0000201A
:1010F000003801402DE9F04102460025002600207D
:1011000000230024002791F803C00CF00F0591F88C
:1011100003C00CF0100CBCF1000F03D091F802C01A
:101120004CEA050591F800C0BCF1000F31D01468FD
:1011300000202BE04FF0010C0CFA00F3B1F800C0D6
:101140000CEA03069E4220D183004FF00F0C0CFAEC
:1011500003F7BC4305FA03FC4CEA040491F803C00E
:10116000BCF1280F06D14FF0010C0CFA00FCC2F8BC
:1011700014C00AE091F803C0BCF1480F05D14FF04C
:10118000010C0CFA00FCC2F810C0401C0828D1D396
:101190001460B1F800C0BCF1FF0F34DD54680020CA
:1011A0002EE000F1080C4FF0010808FA0CF3B1F83A
:1011B00000C00CEA03069E4221D183004FF00F0CC1
:1011C0000CFA03F7BC4305FA03FC4CEA040491F85B
:1011D00003C0BCF1280F05D100F1080C08FA0CF887
:1011E000C2F8148091F803C0BCF1480F07D100F198
:1011F000080C4FF0010808FA0CF8C2F81080401CE7
:101200000828CED35460BDE8F0810000F0B50A464E
:10121000002300240021002500F00046B6F1004F15
:1012200002D11D4EF16901E01B4E7168C0F3034508
:1012300083B200F44016B6F5401F08D121F070616A
:10124000154E766826F07066134F7E6012E000F44B
:101250008016B6F5801F06D1032606FA05F4A143D1
:1012600041F0706106E0460D360103FA06F6B1431F
:1012700041F0706122B1460D360103FA06F63143A2
:1012800000F00046B6F1004F02D1034EF16101E0DB
:10129000014E7160F0BD00000000014041617047E7
:1012A0000161704708B50121602000F041F947F65F
:1012B0008170ADF8000004208DF8030003208DF844
:1012C000020069460848FFF715FF4FF6FF70ADF8BA
:1012D000000004208DF8030003208DF80200694609
:1012E0000248FFF707FF08BD001801400014014045
:1012F00000BFFEE710B500201A4908702BE04C2112
:10130000194801F076F800BF4021174800F0A4FF0B
:101310000128F9D16321144801F06BF800BF402186
:10132000114800F099FF0128F9D10D210E4801F074
:1013300060F800BF40210C4800F08EFF0128F9D171
:101340000A21094801F055F800BF4021064800F085
:1013500083FF0128F9D1034800780028CFD003F09B
:10136000FFFB10BDA30000200038014010B5002095
:10137000194908702BE04C21184801F03AF800BFD9
:101380004021164800F068FF0128F9D17121134867
:1013900001F02FF800BF4021104800F05DFF012848
:1013A000F9D10D210D4801F024F800BF40210B4870
:1013B00000F052FF0128F9D10A21084801F019F87C
:1013C00000BF4021054800F047FF0128F9D102483D
:1013D00000780028CFD010BD9800002000380140D0
:1013E00000BFFEE77047000070B5002100230F2208
:1013F000C47804B3154C246804F4E064C4F5E064D4
:10140000210AC1F10403CA40447804FA03F1847844
:101410001440214309010E4C0678A155047804F0CC
:101420001F050124AC4005786D11AD0005F1E025E4
:10143000C5F8004109E0047804F01F050124AC4020
:10144000044D0678761145F8264070BD0CED00E09D
:1014500000E400E080E100E002490143024A11603B
:10146000704700000000FA050CED00E010B5034CD9
:1014700020606160A260E36010BD00008801002070
:1014800010B5034C20606160A260E36010BD0000F5
:10149000980100207047000010B500201A4908701C
:1014A0002BE05021194800F0A4FF00BF402117484D
:1014B00000F0D2FE0128F9D17121144800F099FF03
:1014C00000BF4021114800F0C7FE0128F9D10D21CD
:1014D0000E4800F08EFF00BF40210C4800F0BCFE1B
:1014E0000128F9D10A21094800F083FF00BF4021FB
:1014F000064800F0B1FE0128F9D103480078002821
:10150000CFD003F039FB10BD9A0000200038014015
:1015100029B1064AD2690243044BDA6104E0034A66
:10152000D2698243014BDA6170470000001002402B
:1015300029B1064A92690243044B9A6104E0034AC6
:1015400092698243014B9A6170470000001002408B
:1015500030B500210022002400232D4D6D6805F0D8
:101560000C0121B1042905D0082923D105E0294D1A
:10157000056022E0274D05601FE0254D6D6805F4EC
:101580007012234D6D6805F48034022505EB9242FC
:101590001CB9214D554305600BE01D4D6D6805F4E8
:1015A00000351DB11C4D5543056002E0194D5543F2
:1015B000056002E0174D056000BF00BF144D6D6867
:1015C00005F0F0010909154D6B5C0568DD404560CB
:1015D0000F4D6D6805F4E061090A104D6B5C4568BC
:1015E000DD4085600A4D6D6805F46051C90A0B4DF8
:1015F0006B5C4568DD40C560054D6D6805F4404194
:10160000890B074D6B5CC568B5FBF3F5056130BD13
:101610000010024000127A0000093D00B4000020D2
:10162000C400002010B586B0044600200490059048
:101630000290039001900090207838B104A800F047
:101640002DF8002204A91148FEF71AFF607838B17E
:1016500002A800F03DF8012202A90D48FEF710FF94
:10166000A07838B101A800F04DF8022201A909487C
:10167000FEF706FFE07838B1684600F055F803221F
:1016800069460548FEF7FCFE06B010BDC800002004
:10169000DC000020F00000200401002010B5002133
:1016A00009E0C1F10E03094C04EB8303D3F80031C8
:1016B00043544B1CD9B20829F3DB027943790371F7
:1016C00042718279C3798371C27110BD00002342D7
:1016D000002109E0C1F10702084B03EB8202D2F8B6
:1016E000002142544A1CD1B20829F3DB044A126893
:1016F0004270034A2C321268C27070470080224246
:10170000000123420146002009E000F10802054BD8
:1017100003EB8202D2F800210A54421CD0B2032803
:10172000F3DB7047008022420146002009E000F10F
:101730000C02054B03EB8202D2F800210A54421C32
:10174000D0B20428F3DB70470080224210B500209D
:101750001A4908702BE05221194800F04AFE00BFD8
:101760004021174800F078FD0128F9D16321144881
:1017700000F03FFE00BF4021114800F06DFD012840
:10178000F9D10D210E4800F034FE00BF40210C4875
:1017900000F062FD0128F9D10A21094800F029FE74
:1017A00000BF4021064800F057FD0128F9D1034849
:1017B00000780028CFD003F0EBF910BDA400002082
:1017C0000038014010B50020194908702BE0522163
:1017D000184800F00EFE00BF4021164800F03CFD06
:1017E0000128F9D17121134800F003FE00BF402108
:1017F000104800F031FD0128F9D10D210D4800F00D
:10180000F8FD00BF40210B4800F026FD0128F9D16A
:101810000A21084800F0EDFD00BF4021054800F016
:101820001BFD0128F9D1024800780028CFD010BD57
:101830009900002000380140704710B500F002F810
:1018400010BD00000CB500200190009033480068E6
:1018500040F480303149086000BF3048006800F42F
:10186000003000900198401C0190009818B9019830
:10187000B0F5A06FF1D12948006800F4003010B134
:101880000120009001E0002000900098012843D141
:101890002348006840F010002149086008460068AD
:1018A00020F0030008600846006840F0020008606D
:1018B0001A48406819494860084640684860084628
:1018C000406840F4806048600846406820F47C101E
:1018D00048600846406840F4E810486008460068E0
:1018E00040F08070086000BF0C48006800F0007095
:1018F0000028F9D00948406820F0030007494860F3
:101900000846406840F00200486000BF0348406855
:1019100000F00C000828F9D10CBD000000100240B6
:1019200000200240042808D14FF0E021096941F06D
:1019300004014FF0E022116107E04FF0E021096956
:1019400021F004014FF0E022116170477047000060
:1019500010B51348006840F00100114908600846BE
:101960004068104908400E494860084600680E4922
:1019700008400B4908600846006820F48020086091
:101980000846406820F4FE0048604FF41F0088605D
:10199000FFF753FF4FF000600449086010BD0000DE
:1019A000001002400000FFF8FFFFF6FE08ED00E027
:1019B00010B50121880700F0DDF918B10121880771
:1019C00000F0C6F910BD7FB505460C46012108465A
:1019D000FFF79EFDADF80850ADF804400020ADF8CB
:1019E0000A00ADF8060001A94FF0804000F040FB6E
:1019F00001221146900700F0CEF91C208DF800005E
:101A000003208DF8010000208DF8020001208DF8E0
:101A100003006846FFF7E8FC0121880700F09BF906
:101A20007FBD000010B50121084800F0A3F958B1AE
:101A30000121064800F08CF90548006808B901202A
:101A400000E000200249086010BD000000040040D2
:101A50009401234230B589B005460C46012102208D
:101A6000FFF756FD012140F23D10FFF761FD012116
:101A70004148FFF7CBFB4FF47070ADF82000182001
:101A80008DF8230003208DF8220008A93B48FFF7BA
:101A900031FB4FF4F870ADF8200010208DF82300D2
:101AA00003208DF8220008A93548FFF723FB4FF4E7
:101AB0001060ADF8200010208DF8230003208DF871
:101AC000220008A92F48FFF715FB4FF48040ADF81E
:101AD000200010208DF8230003208DF8220008A993
:101AE0002948FFF707FBF020ADF8200010208DF803
:101AF000230003208DF8220008A92448FFF7FAFAF2
:101B0000ADF81850ADF814400020ADF81A00ADF84B
:101B1000160005A91E4800F0ABFA7020ADF80400CD
:101B20000120ADF806000020ADF80C0001A918480E
:101B300000F03AF901A9164800F08CF901A91448FF
:101B400000F0E8F901A9124800F03EFA0821104817
:101B500000F076F908210E4800F0CEF908210C4873
:101B600000F028FA08210A4800F06CFA0121084820
:101B700000F0F1F809B030BD000C1A00001001406F
:101B8000002001400008014000140140000C014009
:101B90000004004010B501210C4800F0EBF8A0B1A2
:101BA00001210A4800F0D4F809480078012804D13E
:101BB00008480068401C0749086007480168074852
:101BC0000078FEF73FFE0649087010BD000800408F
:101BD0006400002068000020700000206C000020DD
:101BE000740000207FB505460C4601210420FFF754
:101BF0008FFCADF80850ADF804400020ADF80A00A5
:101C0000ADF8060001A90D4800F032FA0122114694
:101C10000A4800F0C0F81E208DF8000001208DF861
:101C200001008DF802008DF803006846FFF7DCFB29
:101C30000021024800F08FF87FBD0000000800403E
:101C40003EB504460D4601210820FFF761FCADF8C2
:101C50000050ADF804400020ADF80600ADF80200D9
:101C60000121064800F068F86946044800F000FACF
:101C700000200249243108803EBD0000000C0040D5
:101C800010B501211C4800F075F818B101211A485F
:101C900000F05EF81948007878B9012017490870FB
:101CA00020211748FFF7FAFA472144F61F60FFF793
:101CB000C7FF0520134908701CE010480078012870
:101CC00018D11048007880B900200C4908700E49DE
:101CD000087005200B49087047213C20FFF7B0FF32
:101CE00020210748FFF7DCFA04E006480078401E90
:101CF0000449087010BD0000000C00408100002065
:101D000000080140820000208000002008B5012169
:101D10001020FFF70DFC4FF48060ADF8000010209C
:101D20008DF8030003208DF8020069460148FFF793
:101D3000E1F908BD0010014021B1028842F08002A3
:101D4000028004E002884FF67F731A4002807047D9
:101D5000CA430282704721B1028842F00102028028
:101D600004E002884FF6FE731A4002807047014675
:101D7000888C704730B50246002000230024158A65
:101D800005EA0103958905EA010413B10CB10120AC
:101D900000E0002030BD1AB183890B43838102E04B
:101DA00083898B438381704770B500240022002310
:101DB000058C4FF6FE7635400584028C8388048BB3
:101DC0004FF68F752C40B51E2C400D882C43751E88
:101DD0002A400D892A434D882A43144DA8420BD02E
:101DE000134DA84208D0134DA84205D0124DA84269
:101DF00002D0124DA84213D14FF6F7752A404D89F3
:101E00002A434FF6FB752A408D882A434FF6FF651B
:101E10002B404FF6FF552B408D892B43CD892B430B
:101E200083800483CD888586028470BD002C0140A8
:101E3000003401400040014000440140004801409E
:101E40000A460021018B4FF6F773194011430183B5
:101E50007047000070B5002400220023058C4FF667
:101E6000EF7635400584028C8388048B48F6FF7535
:101E70002C404FF6FF452C400D884FF6FF7606EAC2
:101E800005252C434FF6DF752A400D8906EA051516
:101E90002A434D8806EA05152A43154DA84202D06B
:101EA000144DA8421DD14FF67F752A404D894FF63B
:101EB000FF7606EA05152A434FF6BF752A408D883E
:101EC00006EA05152A434FF6FF352B404FF2FF7502
:101ED0002B408D8906EA85052B43CD8906EA8505C9
:101EE0002B4383800483CD880587028470BD000066
:101EF000002C0140003401400A460021018B4FF2C2
:101F0000FF7319404FF6FF7303EA0223194301835D
:101F10007047000070B5002400220023058C4FF6A6
:101F2000FF6635400584028C8388848B4FF68F755D
:101F30002C404FF6FC752C400D882C434FF6FF5576
:101F40002A400D894FF6FF7606EA05252A434D887B
:101F500006EA05252A43154DA84202D0144DA84291
:101F60001DD14FF2FF752A404D894FF6FF7606EAE4
:101F700005252A434FF6FF352A408D8806EA0525B8
:101F80002A434EF6FF752B404DF6FF752B408D8989
:101F900006EA05152B43CD8906EA05152B438380F8
:101FA0008483CD888587028470BD0000002C0140A9
:101FB000003401400A460021818B4FF6F773194027
:101FC000114381837047000070B500220023002474
:101FD000058C4EF6FF7635400584038C8488828B11
:101FE00048F6FF752A404FF6FF452A400D884FF608
:101FF000FF7606EA05252A434DF6FF752B400D892D
:1020000006EA05352B434D8806EA05352B430B4D73
:10201000A84202D00A4DA84208D14BF6FF752C40C9
:102020008D894FF6FF7606EA85152C4384808283DE
:10203000CD88A0F84050038470BD0000002C014002
:10204000003401400A460021818B4FF2FF73194092
:102050004FF6FF7303EA0223194381837047818699
:1020600070470187704781877047A0F8401070471C
:10207000002202881D4B98420ED01D4B98420BD077
:10208000B0F1804F08D01B4B984205D01A4B9842B4
:1020900002D01A4B984204D14FF68F731A404B88E6
:1020A0001A43174B984207D0164B984204D04FF66C
:1020B000FF431A40CB881A4302808B8883850B88A4
:1020C00003850A4B98420BD0094B984208D00E4B1F
:1020D000984205D00D4B984202D00D4B984201D149
:1020E0000B7A03860123838270470000002C014095
:1020F000003401400004004000080040000C004093
:102100000010004000140040004001400044014025
:102110000048014010B540F22551214800F0A9F8CF
:1021200010B31F4800F060F9C4B21E48008800F4E4
:102130000040C8B91B48008800F4804060B10A2CF8
:1021400003D000201749088020E01648008840F49A
:1021500000401449088019E00D2C06D11148008870
:1021600040F480400F49088010E00E480088C0F31A
:102170000D000D490C540B480088401C094908808B
:1021800008460088C72801DD00200880054800882F
:1021900000F40040B0F5004F01D100F0F1FF10BD98
:1021A00000380140B0000020E301002010B540F2EB
:1021B0002551204800F05DF810B31E4800F014F9D6
:1021C000C4B21D48008800F40040C8B91A4800880D
:1021D00000F4804060B10A2C03D00020164908802A
:1021E00020E01548008840F400401349088019E0B9
:1021F0000D2C06D11048008840F480400E4908801C
:1022000010E00D480088C0F30D000C490C540A483A
:102210000088401C0849088008460088C72801DD5E
:10222000002008800448008800F4004008B100F055
:102230000FFF10BD00440040B2000020AB020020A0
:1022400021B1828942F40052828104E082894DF6F4
:10225000FF731A408281704702460020B1F5007F6B
:1022600000D100BF13880B400BB1012000E000201B
:10227000704770B50246002400230025002040F678
:102280006A16B14200D100BFC1F3421501F01F032D
:10229000012606FA03F3012D02D19689334006E0A8
:1022A000022D02D1168A334001E0968A33400C1287
:1022B000012606FA04F41688344013B10CB101204B
:1022C00000E0002070BDF0B5034600240026002584
:1022D000002040F66A17B94200D100BF1846C1F38A
:1022E000421401F01F06012707FA06F5012C01D15F
:1022F0000C3004E0022C01D1103000E014301AB18F
:1023000007682F43076002E00768AF430760F0BD2E
:102310002DE9F04786B005460E460024A24600BFD0
:10232000A1460027B08900B100BF2F462C8A4CF689
:10233000FF700440F08804432C82AC894EF6F31001
:102340000440B08831890843718908430443AC8153
:10235000AC8A4FF6FF400440B0890443AC8201A828
:10236000FFF7F6F81F48874202D1DDF810A001E020
:10237000DDF80CA0A88900F4004040B10AEBCA00C7
:1023800000EB0A1031684900B0FBF1F807E00AEBF6
:10239000CA0000EB0A1031688900B0FBF1F8642034
:1023A000B8FBF0F004012009642101FB1089A88921
:1023B00000F4004040B1322000EBC900B0FBF1F066
:1023C00000F00700044308E0322000EB091064210C
:1023D000B0FBF1F000F00F0004432C8106B0BDE823
:1023E000F08700000038014001468888C0F30800EB
:1023F0007047C1F308028280704700BFFEE770B5E6
:1024000005460C4612E000BF80212846FFF724FF56
:102410000028F9D021782846FFF7EBFF00BF4021C4
:102420002846FFF719FF0028F9D1641C20780028FE
:10243000E9D170BD014600BF7047000010B50246EB
:1024400009B1022925D1002020E052F82030244C87
:1024500054F820402344B3F5167F07DD204B53F892
:102460002030C3F5167342F820300EE052F82030C9
:102470001B4C54F820402344962B06DA184B53F893
:102480002030C3F1960342F82030401C0428DCDBE6
:1024900024E0002020E052F82030114C54F8204075
:1024A0002344B3F5167F07DD0D4B53F82030C3F5F9
:1024B000167342F820300EE052F82030084C54F8E1
:1024C00020402344962B06DA054B53F82030C3F105
:1024D000960342F82030401C0428DCDB10BD0000CD
:1024E0009801002010B500202F4908702F4908607E
:1024F00019E02E4801682C480078FEF7F3F82C49C3
:1025000008700846007858B12A480068401C2949DC
:10251000086008460068032805DD0020086003E025
:10252000002024490860E4E700BF19E01F48016863
:102530001D480078FEF7D6F81D4908700846007857
:1025400058B91D480068401C1B49086008460068CF
:102550000A2805DD0020086003E000201649086015
:10256000E4E700BF1CE0114801680F480078FEF75F
:10257000B9F80F4908700846007870B10D48006836
:10258000401C0C49086008460068032808DD00204C
:102590000A4908700749086003E0002005490860FF
:1025A000E1E700BF10BD00006C00002070000020BB
:1025B00038000020340000203C0000202C000020C7
:1025C00010B547480078032190FBF1F0454951F8D8
:1025D00020004549097801EB4101C1F1070188421A
:1025E0000FD03F480078032190FBF1F03D4951F8AE
:1025F00020003D49097801EB4101C1F10801884201
:1026000004D101F0C1FB00F0B5FB01E001F084FD55
:1026100001F0A2F801203549086000203449087013
:102620002F480078032190FBF1F02E4951F820004B
:102630002D490978C1F1050188420DD0284800785C
:10264000032190FBF1F0274951F820002649097831
:10265000C1F10601884204D101F0D4F800F01AFC5F
:1026600001E001F075F90120224908701E48007848
:10267000401C214908604FF07C510120FEF7B2F860
:102680004FF07C510320FEF7ADF8FEF769F84FF4E8
:10269000967000F041FD20E0184801681848007865
:1026A000FEF720F8174908700846007890B91648D8
:1026B0000068401C144908600846006803280CDDC7
:1026C00014200749087001200849086000200E49BD
:1026D000086003E000200C490860DDE700BF10BD82
:1026E0002C00002008000020000000203000002006
:1026F000400000206C00002070000020040000203A
:1027000001000020380000203C00002001F0C6FB42
:1027100010B546480078032190FBF1F0444951F888
:1027200020004449097801EB4101C1F107018842C9
:102730000FD03E480078032190FBF1F03C4951F85E
:1027400020003C49097801EB4101C1F108018842B0
:102750003BD13648007830B93448007828B936483B
:102760000068012801D1FEF761F8002033490870A4
:1027700033490860FEF728FB4FF4967000F0CCFC5C
:10278000FDF7EEFF1FE02E4801682C480078FDF7AA
:10279000A9FF2C4908700846007888B92A480068C3
:1027A000401C294908600846006803280BDD1F48C3
:1027B0000078401C1D49087000202349086003E090
:1027C000002021490860DEE72FE001201B49087046
:1027D00018480078C0F10300194908604FF4FA70F6
:1027E00000F09AFC1FE01648016814480078FDF7D5
:1027F00079FF144908700846007888B912480068C3
:10280000401C11490860084600680A280BDD07488B
:102810000078801C0549087000200B49086003E01F
:10282000002009490860DEE700BF10BD2C00002031
:102830000800002000000020300000206C00002074
:1028400070000020380000203C00002010B55648E1
:102850000078032190FBF1F0544951F820005449CD
:102860000978C1F1050188420DD04F480078032155
:1028700090FBF1F04D4951F820004D490978C1F124
:102880000601884231D1FDF7D1FF00204949087087
:1028900049490860FEF798FA4FF4C87000F03CFC14
:1028A000FDF75EFF1FE04448016842480078FDF7ED
:1028B00019FF424908700846007888B94048006806
:1028C000401C3F4908600846006803280BDD364875
:1028D0000078401C3449087000203949086003E042
:1028E000002037490860DEE75DE0364800780228BE
:1028F0002DDA01202F4908702D480078401C2E4900
:102900000860C82000F008FC1FE02B480168294837
:102910000078FDF7E7FE294908700846007888B975
:1029200027480068401C26490860084600680328BC
:102930000BDD1D480078401E1B490870002020490F
:10294000086003E000201E490860DEE72BE001205C
:102950001849087016480078C0F10300164908604D
:10296000C82000F0D9FB1CE013480168114800782A
:10297000FDF7B8FE114908700846007888B910487C
:102980000068401C0E49086008460068032808DDFE
:1029900005480078801C0449087000200849086038
:1029A00000E0E1E700BF10BD2C000020080000207F
:1029B000000000206C000020700000203800002083
:1029C0003C0000204000002010B501201449087090
:1029D00014480078C0F103001349086008460168F4
:1029E0000F480078FDF77EFE104908700846007811
:1029F00088B10F480068401C0D490860084600680F
:102A000003280BDD0B480078401C0A4908700020A1
:102A10000749086002E000200549086010BD000079
:102A20006C00002000000020700000203800002012
:102A3000340000202C00002010B52B48007802281C
:102A400028DA01202949087029480078401C2949C2
:102A500008600846016825480078FDF743FE2649CE
:102A600008700846007888B124480068401C234953
:102A7000086008460068032835DD21480078801E7C
:102A80001F49087000201D4908602CE000201B49E8
:102A9000086028E001201549087015480078C0F149
:102AA0000300144908600846016810480078FDF7E3
:102AB00019FE114908700846007888B10F4800686F
:102AC000401C0E4908600846006803280BDD0C48CE
:102AD0000078401C0A49087000200849086002E09C
:102AE00000200649086010BD400000206C00002056
:102AF000000000207000002038000020340000207A
:102B00002C00002010B592480078401E032190FB55
:102B1000F1F0904951F820008F49097801EB41010B
:102B2000C1F10701884210D089480078401E032176
:102B300090FBF1F0874951F820008749097801EBB3
:102B40004101C1F10801884202D18448006808B3FC
:102B50007F480078401E032190FBF1F07D4951F839
:102B600020007D490978C1F1050188420ED07848DE
:102B70000078401E032190FBF1F0764951F82000C7
:102B800075490978C1F1060188427DD17348006812
:102B90000128FAD1002072490870724908606C4817
:102BA0000078401E032190FBF1F06A4951F82000A3
:102BB000062820D066480078401E032190FBF1F0E3
:102BC000644951F82000042815D061480078401E5F
:102BD000032190FBF1F05F4951F8200002280AD050
:102BE0005B480078401E032190FBF1F0594951F8F1
:102BF0002000082806D1FDF7C5FD00210846FDF795
:102C0000F1FD05E0FDF7BEFD00210846FDF7EAFDF8
:102C1000FDF7A6FD4FF4C87000F07EFA4FF4167071
:102C200000F07AFAFDF702FE4F480078401C4E494A
:102C3000087047480078401E032190FBF1F0454999
:102C400051F82000062822D041480078401E032178
:102C500090FBF1F03F4951F82000022817D03C4882
:102C60000078401E032190FBF1F03A4951F8200012
:102C700004280CD036480078401E032190FBF1F068
:102C8000344951F8200000E019E008280BD1304801
:102C90000078401E032190FBF1F02E494FF0FF32E7
:102CA00041F8202052E02A480078401E032190FB82
:102CB000F1F028496FF0010241F8202046E00021A0
:102CC0000846FDF78FFD22480078401E032190FB47
:102CD000F1F0204951F82000801C20B90021022089
:102CE000FDF780FD03E000210220FDF77BFD0020C1
:102CF0001B49087002201B49086025E0194801683B
:102D000017480078FDF7EEFC18490870084600786F
:102D1000B8B117480068401C1549086008460068AB
:102D2000032811DD0A480078401E09490870002078
:102D30000F49086000210220FDF754FDFDF776FDE4
:102D400003E000200A490860D8E700BF10BD00007A
:102D50002C0000200800002000000020300000208F
:102D60006C0000207000002040000020380000208F
:102D70003400002010B500203E49087002203E4972
:102D800008603E48007820B93D490220FDF72AFD41
:102D900003E03C490220FDF725FDFDF7E1FC19E0C9
:102DA0003548016833480078FDF79CFC36490870C7
:102DB00036480068401C354908603348007830B117
:102DC00008460068032805DD0020086003E00020B5
:102DD0002E490860E4E700BF28480078022839D16E
:102DE00019E02548016823480078FDF77BFC264957
:102DF000087027480068401C254908602248007870
:102E000030B908460068052805DD0020086003E0A9
:102E100000201F490860E4E700BF19E01648016878
:102E200014480078FDF75EFC1749087017480068E1
:102E3000401C164908601448007830B10846006804
:102E4000032805DD0020086003E000200F4908602A
:102E5000E4E70DE0FDF7EAFC4FF4AF610120FDF778
:102E6000ADFC4FF4AF610120FDF7A8FCFDF7E4FCD9
:102E700010BD00006C000020700000200000002049
:102E800000002040000080BF3800002034000020F7
:102E90003C00002010B5022033490860002033496F
:102EA0000870FDF75DFC19E02F4801682F48007895
:102EB000FDF718FC2E4908700846007858B12D48D7
:102EC0000068401C2B49086008460068032805DD9F
:102ED0000020086003E0002026490860E4E700BF06
:102EE00019E02148016821480078FDF7FBFB2049E3
:102EF00008700846007858B91F480068401C1E49F1
:102F0000086008460068052805DD0020086003E029
:102F1000002019490860E4E700BF22E01248016878
:102F200012480078FDF7DEFB11490870084600786A
:102F3000A0B110480068401C0E49086008460068AF
:102F400003280EDD0020086015200C490870FDF7ED
:102F50006DFC4FF47A7000F0DFF803E000200549C3
:102F60000860DBE700BF10BD700000206C0000208F
:102F700038000020340000203C0000202C000020FD
:102F800070B5314D2D7875BB00201CE02F4D55F8E4
:102F90002050052D01D1014613E02C4D55F820504D
:102FA000062D01D102460CE0284D55F82050072D82
:102FB00001D1034605E0254D55F82050082D00D1DC
:102FC0000446451CE8B20828E0DB07251F4E46F8FA
:102FD0002150082546F82250052546F8235006259D
:102FE00046F824502EE0FFE700201CE0174D55F86E
:102FF0002050012D01D1014613E0144D55F8205009
:10300000022D01D102460CE0104D55F82050032D41
:1030100001D1034605E00D4D55F82050042D00D197
:103020000446451CE8B20828E0DB0325074E46F8B5
:103030002150042546F82250012546F82350022548
:1030400046F8245070BD0000000000200800002059
:1030500010B51B4B1B8803F4004363B3184B1B884C
:10306000C3F30D02092A27D1164B1B7A392B23D122
:103070006423154C2370002105E0124B5B5C134C5C
:1030800063544B1CD9B29142F7DB002011E0104B86
:1030900053F820305B1C53B10D4B53F820309B1C70
:1030A0002BB10A4B1B5C303B094C44F82030431CCD
:1030B000D8B20928EBDB02E00023014C238010BDCD
:1030C000B2000020AB02002075000020A801002003
:1030D0000800002010B56FF00400FEF723FC0A483A
:1030E00000680A49B0FBF1F0094908700846007809
:1030F00000EB4001C1EBC0104FF6FF7101EAC000C8
:103100000449088010BD00004800002000127A0029
:103110008E000020900000200146114A12884A4388
:103120004FF0E0235A6100229A611A46126942F078
:1031300001021A6100BF4FF0E022106900F00102A5
:103140001AB100F48032002AF5D04FF0E022126963
:1031500022F001024FF0E0231A6100229A617047C9
:1031600090000020002008E00449096821B9401CB3
:10317000642802DB002070470020F5E70C012242A2
:1031800010B5FC480088C0F30D00FB490880FB48DF
:103190000078522874D00CDC47286ED004DC42281A
:1031A0006CD046286BD15FE14C280BD05028F9D168
:1031B000C5E061287ED063287DD065287CD0732847
:1031C000F0D1FFE1ED484078642840D10120EC497E
:1031D00008702EE04C21EB48FFF70BF900BF4021AF
:1031E000E848FFF739F80128F9D16421E548FFF7ED
:1031F00000F900BF4021E348FFF72EF80128F9D17C
:103200000D21E048FFF7F5F800BF4021DD48FFF74A
:1032100023F80128F9D10A21DA48FFF7EAF800BFBC
:103220004021D848FFF718F80128F9D10020D149EA
:103230000880D048008800F4004090B1CF48007862
:103240004C280ED1CD4840786428C3D009E0CB4843
:103250004078722805D10120CB4908700020C5496B
:103260000880C6484078632805D10120C749087006
:103270000020C049088015E202E044E16CE110E260
:10328000BE484078642844D10120C149087032E02A
:103290005221BC48FFF7ADF800BF4021B948FEF706
:1032A000DBFF0128F9D16421B648FFF7A2F800BF7F
:1032B000402102E03AE1ADE190E0B248FEF7CCFFF8
:1032C0000128F5D10D21AF48FFF793F800BF402149
:1032D000AC48FEF7C1FF0128F9D10A21A948FFF740
:1032E00088F800BF4021A748FEF7B6FF0128F9D1B2
:1032F0000020A04908809F48008800F40040E8B101
:103300009E480078522819D19C4840786428BFD044
:1033100014E09A484078722806D101209D4908702F
:1033200000209449088009E094484078632805D13A
:1033300001209949087000208E490880B2E18F4829
:10334000407864283FD10120944908702EE0502134
:103350008C48FFF74EF800BF40218A48FEF77CFFFB
:103360000128F9D164218748FFF743F800BF4021C5
:103370008448FEF771FF0128F9D10D218148FFF73C
:1033800038F800BF40217F48FEF766FF0128F9D1D9
:103390000A217C48FFF72DF800BF40217948FEF74D
:1033A0005BFF0128F9D1002072490880714800882C
:1033B00000F4004038B171480078502803D16F48BC
:1033C00040786428C3D06D484078722805D1012028
:1033D0007349087000206749088063E167484078B6
:1033E0006E2840D16548807864283CD101206D4921
:1033F000087065216348FEF7FCFF00BF402161486B
:10340000FEF72AFF0128F9D16E215E48FEF7F1FF91
:1034100000BF40215B48FEF71FFF0128F9D164215E
:103420005848FEF7E6FF00BF40215648FEF714FF5C
:103430000128F9D10D215348FEF7DBFF00BF4021E1
:103440005048FEF709FF0128F9D10A214D48FEF73F
:10345000D0FF00BF40214B48FEF7FEFE0128F9D106
:103460000020444908801DE14448407864283FD149
:1034700001204D4908702EE046214248FEF7B9FF71
:1034800000BF40213F48FEF7E7FE0128F9D1642143
:103490003C48FEF7AEFF00BF40213A48FEF7DCFE95
:1034A0000128F9D10D213748FEF7A3FF00BF4021C5
:1034B0003448FEF7D1FE0128F9D10A213148FEF740
:1034C00098FF00BF40212F48FEF7C6FE0128F9D122
:1034D0000020284908802748008800F4004038B1BF
:1034E00026480078462803D1244840786428C3D071
:1034F00022484078722805D101202C49087000200C
:103500001C490880CEE01D48407820B91B4840780F
:103510002749087009E019484078722805D1012030
:1035200024490870002013490880BBE0012222A131
:103530002248FCF771FE21491248FEF760FF40F671
:103540000A511048FEF755FF00BF40210D48FEF715
:1035500083FE0128F9D1A5E008484078722808D1F7
:103560001748007810B9012015490870002001495A
:10357000088097E0B0000020A8000020E3010020B0
:103580009E0000200038014098000020A300002089
:103590009F00002099000020A4000020A00000202F
:1035A0009A000020A2000020A10000209B00002023
:1035B000970000209C00002025640000B10100203D
:1035C0009D00002001203A49087019E07321394814
:1035D000FEF70FFF00BF40213648FEF73DFE0128F1
:1035E000F9D140F60A513348FEF703FF00BF4021EE
:1035F0003048FEF731FE0128F9D100202E4908801D
:103600002D48008800F4004018B12C480078732839
:10361000DCD047E0294840786C2841D127488078A1
:1036200063283DD1002026490870264908702649A4
:1036300008702649087026490870264908702649EE
:1036400008701B49087063211A48FEF7D2FE00BFBC
:1036500040211848FEF700FE0128F9D16C211548D9
:10366000FEF7C7FE00BF40211248FEF7F5FD012816
:10367000F9D163210F48FEF7BCFE00BF40210D4881
:10368000FEF7EAFD0128F9D140F60A510948FEF794
:10369000B0FE00BF40210748FEF7DEFD0128F9D14A
:1036A00000E000BF00BF00200349088010BD0000FB
:1036B000A600002000380140B0000020E3010020F7
:1036C0009B00002098000020990000209D00002011
:1036D000A50000209A0000209C0000202DE9F84F52
:1036E00004460D462846216801F0F8FF05464FF0D4
:1036F0008040216901F01CFF2946009001F0E4FFA1
:103700008346616901F06AFE8246E16801F010FFBC
:1037100080462169A06801F00BFF009028462169CE
:1037200001F0DCFF8346616801F002FF82460099E8
:1037300001F054FE8146414601F050FE07463946ED
:10374000A06901F04BFE0646206960612561A66113
:103750003046BDE8F88F000010B5012025490870FB
:1037600025490860FCF7FCFFFDF70CF84FF03F41DE
:103770000120FDF737F84FF4E160FFF7CDFCFDF7CE
:103780005BF842F210710120FDF79CFBFDF754F845
:103790004FF07C510120FDF725F84FF4FA6100202D
:1037A000FDF790FBFDF748F801201249087003204F
:1037B00011490860FCF7D4FF19E00F4801680D4873
:1037C0000078FCF78FFF0D4908700846007858B163
:1037D0000B480068401C0A49086008460068052834
:1037E00005DD0020086003E0002005490860E4E7EB
:1037F00000BF10BD6C0000207000002038000020C9
:103800003400002010B54C48007868B9FDF70EF878
:103810004FF4AF610020FCF7D1FF4FF4AF610020FF
:10382000FCF7CCFFFDF708F8002044490860444944
:103830000870FCF7A7FF43480078032190FBF1F0E4
:10384000414951F8200006281DD03E480078032148
:1038500090FBF1F03C4951F82000042813D039487E
:103860000078032190FBF1F0374951F8200002283D
:1038700009D034480078032190FBF1F0324951F827
:103880002000082804D100210846FCF7ABFF03E024
:1038900000210846FCF7A6FFFCF762FFFFF762FC79
:1038A000FCF7C4FF29480078401C284908702548C7
:1038B0000078032190FBF1F0234951F820000628FD
:1038C0001DD020480078032190FBF1F01E4951F8EB
:1038D0002000022813D01B480078032190FBF1F050
:1038E000194951F82000042809D01648007803210E
:1038F00090FBF1F0144951F8200008280AD1114832
:103900000078032190FBF1F00F494FF0FF3241F8AE
:10391000202009E00B480078032190FBF1F00A49D0
:103920006FF0010241F8202000210846FCF75AFF01
:10393000FCF728FF10BD00000000002070000020F0
:103940006C0000202C000020080000204000002017
:1039500010B52B480078002850D1FCF767FF4FF4D2
:10396000AF610120FCF72AFFFCF766FF0220254922
:103970000860002024490870FCF7F2FE4FF44870FC
:10398000FFF7CAFB19E01F4801681F480078FCF7E1
:10399000A9FE1E4908701E480068401C1C490860AA
:1039A0001A48007830B9084600680A2805DD00206A
:1039B000086003E0002016490860E4E700BF1BE050
:1039C0001048016810480078FCF78CFE0F49087019
:1039D0000846007868B10F480068401C0D4908602F
:1039E00008460068052807DD00200860FCF71EFF78
:1039F00003E0002007490860E2E700BF10BD0000B7
:103A000000000020700000206C0000203800002022
:103A10003C00002034000020FFF75CFBFDF7E0F9DC
:103A2000FDF7E2F9FDF72AFAC820FFF775FB4FF41E
:103A3000A060FDF711FD4FF4165000F0E3FF4FF4C6
:103A4000165001F02FF8FEF761F9472140F2CF70D0
:103A5000FEF7C8F840F2CF2142F20F70FDF7B3FF36
:103A600003E09748006A00B100E0FAE700BF94481D
:103A7000006A012868D166E0FCF772FE9148007880
:103A80007F2805D19048006810B9FEF72BFD5AE059
:103A90008C480078152805D18B48006810B9FEF7CE
:103AA0008FFD50E087480078152805D186480068CA
:103AB000012801D1FEF72AFE82480078032190FBFD
:103AC000F1F201FB120028B97F48006810B9FEF737
:103AD0001FFE38E07B480078032190FBF1F201FBE8
:103AE000120030B978480068012802D1FEF7AEFE16
:103AF00029E074480078032190FBF1F201FB1200E9
:103B0000022805D17048006810B9FEF75DFF1AE081
:103B10006C480078032190FBF1F201FB12000228AF
:103B200006D169480068012802D1FEF785FF0AE046
:103B300064480078032190FBF1F201FB1200012898
:103B400001D1FEF7DFFF97E7FFF71AFAB6E0FCF7BF
:103B500007FE5C4800787F2805D15B48006810B9F3
:103B6000FEF7C0FCAAE057480078152855D1564802
:103B7000006890BB53480078032190FBF1F0504956
:103B800051F820005149097801EB4101C1F10701C9
:103B900088420FD04B480078032190FBF1F0484950
:103BA00051F820004949097801EB4101C1F10801B0
:103BB000884203D100F0E8F8FFF7DCF843480078CA
:103BC00040BB00204249086042490870FCF7C8FD2C
:103BD0004FF49670FFF7A0FA1AE01EE03C48016827
:103BE0003C480078FCF77EFD3B49087008460078A9
:103BF00058B13A480068401C3849086008460068D7
:103C0000052805DD0020086003E000203349086036
:103C1000E4E700BFFEF7D4FC50E02A4800781528FE
:103C200005D129480068012801D1FEF76FFD25481C
:103C30000078032190FBF1F201FB120028B9224821
:103C4000006810B9FEF764FD38E01E4800780321D3
:103C500090FBF1F201FB120030B91B48006801280B
:103C600002D1FEF7F3FD29E016480078032190FB0E
:103C7000F1F201FB1200022805D11348006810B9C7
:103C8000FEF7A2FE1AE00F480078032190FBF1F244
:103C900001FB1200022806D10B480068012802D15E
:103CA000FEF7CAFE0AE007480078032190FBF1F214
:103CB00001FB1200012801D1FEF724FF47E70000B5
:103CC000080000202C000020300000200000002010
:103CD000700000206C00002038000020340000201C
:103CE00010B520212548FDF7D9FA80212348FDF79A
:103CF000D5FA10212148FDF7D1FA4FF480711F4801
:103D0000FDF7CCFA4FF400611D48FDF7C7FA4FF4F8
:103D100080711B48FDF7C2FA4FF480411948FDF746
:103D2000BDFA40211548FDF7B9FA6420FFF7F4F910
:103D300020211248FDF7B4FA80211048FDF7B0FAAF
:103D400010210E48FDF7ACFA4FF480710B48FDF7D7
:103D5000A7FA4FF400610A48FDF7A2FA4FF4807108
:103D60000748FDF79DFA4FF480410648FDF798FAA1
:103D700040210248FDF794FA10BD000000200140E8
:103D8000000801400014014010B500203E490870B1
:103D90003E490860FCF7F6FC3D480078032190FBA3
:103DA000F1F03C4951F8200006281DD03848007831
:103DB000032190FBF1F0374951F82000042813D07B
:103DC00033480078032190FBF1F0324951F820008C
:103DD000022809D02E480078032190FBF1F02D49EC
:103DE00051F82000082804D12B490020FCF7FAFCE8
:103DF00004E04FF07F510020FCF7F4FCFFF7B2F92C
:103E0000FCF714FD22480078032190FBF1F02149D2
:103E100051F8200006281DD01D480078032190FB92
:103E2000F1F01C4951F82000022813D018480078FE
:103E3000032190FBF1F0174951F82000042809D024
:103E400013480078032190FBF1F0124951F820004B
:103E500008280AD10E480078032190FBF1F00D49A3
:103E60004FF0FF3241F8202009E009480078032193
:103E700090FBF1F007496FF0010241F8202000218A
:103E80000846FCF7AFFC10BD6C000020700000205D
:103E90002C00002008000020000040401FB500203A
:103EA00000900190029003909448007802287DD100
:103EB0009349086000209349087093490220FCF759
:103EC00091FCFCF75FFCFCF74BFC4FF42F70FFF705
:103ED00023F919E08A4801688A480078FCF702FC57
:103EE0008A4908700846007858B989480068401C1B
:103EF0008749086008460068032805DD002008603F
:103F000003E0002082490860E4E700BF19E07C4834
:103F100001687C480078FCF7E5FB7C49087008469E
:103F2000007858B17B480068401C7A490860084610
:103F30000068032805DD0020086003E000207549C3
:103F40000860E4E700BF4FF4C870FFF7E5F819E038
:103F50006B4801686B480078FCF7C4FB6B4908703C
:103F60000846007858B96A480068401C68490860EB
:103F700008460068032805DD0020086003E00020F3
:103F800063490860E4E700BF1BE05D4801685D48E5
:103F90000078FCF7A7FB5D4908700846007868B117
:103FA0005C480068401C5B49086000E00BE0084684
:103FB0000068032805DD0020086003E00020554963
:103FC0000860E2E74FE0FCF731FC4FF4AF610020FE
:103FD000FCF7F4FBFCF730FC002049490860494934
:103FE0000870FCF7BDFB4FF41670FFF795F819E069
:103FF0004348016843480078FCF774FB4349087064
:104000000846007858B942480068401C404908609A
:10401000084600680A2805DD0020086003E000204B
:104020003B490860E4E700BF1BE0354801683548BC
:104030000078FCF757FB354908700846007868B1EE
:1040400034480068401C334908600846006803286B
:1040500007DD00200860FCF7E9FB03E000202D49A4
:104060000860E2E700BF0120254908602549087083
:104070004FF03F41FCF7B6FBFCF772FB4FF47A7050
:10408000FFF74AF84FF47A70FFF746F8FCF7CEFBDB
:1040900042F210710120FCF715FFFCF7CDFB6946D9
:1040A0000320FCF717FB4FF47A70FFF735F84FF455
:1040B0007A70FFF731F84FF47A70FFF72DF84FF46C
:1040C0007A70FFF729F84FF47A70FFF725F84FF46C
:1040D0007A70FFF721F84FF47A70FFF71DF84FF46C
:1040E0007A70FFF719F84FF47A70FFF715F8FCF7BC
:1040F0009DFB072000F0A4F900BFFEE700000020B0
:10410000700000206C000020000080BF38000020FC
:104110003C0000203400002010B52E480078002814
:1041200057D1FCF783FB00202B4908602B4908700E
:104130004FF07E51FCF756FBFCF712FB4FF4C870B2
:10414000FEF7EAFF19E02448016824480078FCF7EC
:10415000C9FA2349087023480068401C21490860B7
:104160001F48007830B9084600680A2805DD00209D
:10417000086003E000201B490860E4E700BF19E085
:104180001548016815480078FCF7ACFA1449087026
:104190000846007858B114480068401C124908606D
:1041A00008460068052805DD0020086003E00020BF
:1041B0000D490860E4E700BFFCF738FB0021084622
:1041C000FCF710FB4FF4AF610020FCF7F7FAFCF7A7
:1041D00033FB10BD00000020700000206C000020A8
:1041E000380000203C000020340000200021416005
:1041F0008160C1600160016141618161704701605E
:10420000704741608260C360704700210161416175
:104210008161704710B50446002C44DD20214448DC
:10422000FDF73CF880214248FDF73AF8102140485C
:10423000FDF736F84FF480713D48FDF72FF84FF445
:1042400000613C48FDF72CF84FF480713948FDF7C8
:1042500025F84FF480413848FDF720F840213448D4
:10426000FDF71EF835480068C0F57A7081B2344811
:10427000FDF7F5FE31484068C0F57A7081B23048EC
:10428000FDF7EFFE2D488068C0F57A7081B22C48AA
:10429000FDF7E9FE2948C068C0F57A7081B2284868
:1042A000FDF7E3FE43E080212148FCF7F7FF2021E2
:1042B0001F48FCF7F5FF4FF480711D48FCF7F0FF35
:1042C00010211B48FCF7EAFF4FF480711948FCF7F6
:1042D000E7FF4FF400611748FCF7E0FF4021144866
:1042E000FCF7DCFF4FF480411348FCF7D9FF13487B
:1042F0000068C0F57A7081B21148FDF7B0FE0F4832
:104300004068C0F57A7081B20D48FDF7AAFE0B48EF
:104310008068C0F57A7081B20948FDF7A4FE0748AD
:10432000C068C0F57A7081B20548FDF79EFE10BDE9
:1043300000200140000801400014014088010020D5
:104340000004004010B50446002C38DD80213848B8
:10435000FCF7A4FF20213648FCF7A2FF10213448C7
:10436000FCF79EFF4FF480713148FCF797FF4FF444
:1043700080713048FCF794FF4FF400612D48FCF742
:104380008DFF4FF480412C48FCF788FF40212848DE
:10439000FCF786FF40F2EE212848FDF760FE40F270
:1043A000EE212648FDF75DFE40F252312348FDF72D
:1043B0005AFE40F2EE212148FDF757FE37E020215A
:1043C0001B48FCF76BFF80211948FCF769FF4FF48D
:1043D00080711748FCF764FF10211548FCF75EFF59
:1043E0004FF480711348FCF75BFF4FF400611148F4
:1043F000FCF754FF40210E48FCF750FF4FF480417A
:104400000D48FCF74DFF40F252310C48FDF727FEF6
:1044100040F2EE210948FDF724FE40F2EE21074864
:10442000FDF721FE40F2EE210448FDF71EFE10BD0F
:104430000020014000080140001401400004004039
:1044400010B504460B2C1FD2DFE804F01E06090C41
:104450000F1215181B1C1D00FCF788FF15E0FCF758
:1044600049FF12E0FDF7AEF90FE0FDF76FF90CE040
:10447000FDF712F809E0FCF701FE06E0FCF7B8FDD5
:1044800003E002E001E000E000BF00BF10BD00005B
:1044900070B505460C46284605EBD0714910A5EBD2
:1044A000410100297DD1012D66DA2021CF48FCF79A
:1044B000F7FE8021CD48FCF7F1FE1021CB48FCF738
:1044C000EFFE4FF48071C948FCF7E8FE4FF400613D
:1044D000C748FCF7E5FE4FF48071C548FCF7E0FEE5
:1044E000606857280EDB4FF48041C248FCF7D6FEC7
:1044F0004021BE48FCF7D4FE4FF45C71BE48FDF786
:10450000B4FD20E0606810F1570F0EDC4FF48041DD
:10451000B848FCF7C5FE4021B448FCF7BFFE4FF495
:104520005C71B548FDF7A1FD0DE040F24C41B24889
:10453000FDF79BFD4FF48041AE48FCF7B1FE4021F2
:10454000AA48FCF7ADFE29462046FDF777FFAB48A9
:10455000006822681044C0F57A7081B2A648FDF761
:104560007EFDA648406862681044C0F57A7081B24A
:10457000A148FDF776FD37E120219C48FCF78EFE2F
:1045800080219A48FCF78CFE10219848FCF786FEA3
:104590004FF480719548FCF783FE4FF480419548B5
:1045A00000E054E0FCF77CFE40219048FCF778FEE8
:1045B000606857280FDD4FF400618D48FCF76EFEF0
:1045C0004FF480718A48FCF76BFE4FF45C718A48A7
:1045D000FDF749FD22E0606810F1570F0FDA4FF444
:1045E00000618348FCF75CFE4FF480718048FCF763
:1045F00055FE4FF45C718048FDF735FD0EE040F24A
:104600005B417D48FDF72FFD4FF400617848FCF7D2
:1046100047FE4FF480717648FCF742FE294620465B
:10462000FDF70CFF7548006822681044C0F57A70E9
:1046300081B27148FDF713FD70484068626810440C
:10464000C0F57A7081B26C48FDF70BFDCCE0022D0D
:1046500064DA4FF400616648FCF720FE4FF4807185
:104660006348FCF71DFE4FF480416248FCF716FEDC
:1046700040215E48FCF714FE10215C48FCF710FE58
:104680004FF480715948FCF70BFEE0683C280DDDC3
:1046900020215648FCF702FE80215448FCF700FE1A
:1046A00040F275315448FDF7DAFC1EE0E06810F185
:1046B0003C0F0DDA20214D48FCF7F2FD80214B48DC
:1046C000FCF7ECFD40F275314B48FDF7C8FC0CE0FF
:1046D00040F25B414848FDF7C2FC20214348FCF70B
:1046E000DFFD80214148FCF7DBFD29462046FDF730
:1046F000A5FE42488068A2681044C0F57A7081B275
:104700003D48FDF7B0FC3D48C068E2681044C0F584
:104710007A7081B23848FDF7A8FC65E04FF400617B
:104720003348FCF7BDFD4FF480713148FCF7B6FD0E
:104730004FF480412F48FCF7B3FD40212B48FCF794
:10474000ADFD20212948FCF7ABFD80212748FCF76F
:10475000A7FDE0683C280EDD10212448FCF79EFDF3
:104760004FF480712148FCF79BFD40F275312248DF
:10477000FDF777FC20E0E06810F13C0F0EDA4FF413
:1047800080711A48FCF78AFD10211848FCF788FD53
:1047900040F275311848FDF764FC0DE040F25B41D2
:1047A0001548FDF75EFC10211048FCF777FD4FF42B
:1047B00080710E48FCF772FD29462046FDF73EFE4B
:1047C0000E488068A2681044C0F57A7081B20A4829
:1047D000FDF749FC0948C068E2681044C0F57A70EA
:1047E00081B20548FDF741FC70BD0000002001408A
:1047F000000801400014014000040040980100201E
:1048000070B505460C4629462046FDF717FE28469A
:1048100005EBD0714910A5EB4101002974D1012DA0
:1048200038DA20217248FCF73BFD80217048FCF704
:1048300035FD10216E48FCF733FD4FF480716C4854
:10484000FCF72CFD6B48006822681044C0F57A70B4
:1048500081B26948FDF703FC66484068626810440D
:10486000C0F57A7081B26448FDF7FBFB4FF400613C
:104870006248FCF715FD4FF480716048FCF710FDAD
:104880004FF480415E48FCF70BFD40215848FCF78F
:1048900007FDACE020215648FCF700FD802154487C
:1048A000FCF7FEFC10215248FCF7F8FC4FF4807135
:1048B0004F48FCF7F5FC4F48006822681044C0F5EB
:1048C0007A7081B24C48FDF7CAFB4A48406862687A
:1048D0001044C0F57A7081B24748FDF7C2FB4FF42F
:1048E00000614648FCF7DCFC4FF480714348FCF75C
:1048F000D7FC4FF480414248FCF7D2FC40213C48B1
:10490000FCF7CEFC73E0FFE7022D38DA4FF40061CC
:104910003A48FCF7C3FC4FF480713848FCF7C0FC00
:104920004FF480413648FCF7B9FC40213048FCF791
:10493000B7FC30488068A2681044C0F57A7081B234
:104940002D48FDF790FB2B48C068E2681044C0F585
:104950007A7081B22848FDF788FB10212448FCF7C3
:104960009FFC4FF480712248FCF79AFC20212048DC
:10497000FCF796FC80211E48FCF792FC37E04FF4D0
:1049800000611E48FCF78CFC4FF480711B48FCF75B
:1049900085FC4FF480411A48FCF782FC4021144802
:1049A000FCF77CFC13488068A2681044C0F57A705C
:1049B00081B21148FDF757FB0E48C068E268104409
:1049C000C0F57A7081B20C48FDF74FFB20210848F2
:1049D000FCF766FC80210648FCF762FC10210448C5
:1049E000FCF75EFC4FF480710148FCF759FC70BD88
:1049F0000020014098010020000400400008014010
:104A00000014014010B586B00446012144F20400B0
:104A1000FCF78EFD4FF40070ADF8140003208DF804
:104A2000160018208DF8170005A91C48FCF762FB3A
:104A30004FF48060ADF8140004208DF8170005A92C
:104A40001648FCF757FB25208DF8000003208DF851
:104A500001008DF8020001208DF803006846FCF784
:104A6000C3FC01940020ADF80800ADF80A00ADF8D1
:104A70000C00ADF810000C20ADF80E0001A908489C
:104A8000FDF746FC012240F225510548FDF71BFCCD
:104A900001210348FDF7D4FB06B010BD000801401A
:104AA0000038014010B586B0044601210420FCF70F
:104AB0003FFD01214804FCF72BFD0420ADF8140054
:104AC00003208DF8160018208DF8170005A91C4842
:104AD000FCF710FB0820ADF8140004208DF8170037
:104AE00005A91748FCF706FB26208DF800000320D7
:104AF0008DF8010002208DF8020001208DF80300DE
:104B00006846FCF771FC01940020ADF80800ADF890
:104B10000A00ADF80C00ADF810000C20ADF80E0046
:104B200001A90848FDF7F4FB012240F22551054890
:104B3000FDF7C9FB01210348FDF782FB06B010BD5C
:104B4000000801400044004000200449087000BFF4
:104B5000024800780028FBD070470000A100002028
:104B600000200449087000BF024800780028FBD0EC
:104B7000704700009E00002000200449087000BF1C
:104B8000024800780028FBD070470000A0000020F9
:104B900000200449087000BF024800780028FBD0BC
:104BA000704700009F00002021F00042A2F16052F7
:104BB000B2F5801F01F0004328BFD2F17F6C0BD902
:104BC0005FEA001C43EAC20242EB507018BF704714
:104BD00028BF20F001007047B2F5801FBCBF184607
:104BE00070474FEA410C1CF5001F02D2084600F046
:104BF00066BD70B500F052FA00000089FFF7F6BFFD
:104C00004FF00040A0F580007047000010B591EA19
:104C1000030F48BF83F0004300F1D282841A71EB86
:104C2000030C05D2121943EB0C03001B61EB0C01C2
:104C3000DFF824E14FEA1154A4EB135C1EEA430FA2
:104C400018BF9EEA445F73D023EA0E03DCF1200E06
:104C500021EA045143F4801332D322FA0CFE10EB04
:104C60000E0023FA0CFE41EB0E01CCF1200E03FAEC
:104C70000EFE10EB0E0051F10001B1F5801FCCF1DA
:104C8000200E32D201EB045112FA0EF2BDE81040B0
:104C900058BF7047401C38BF5FEA420218BF7047D8
:104CA000002814BF20F0010041F100014FEA410348
:104CB00013F5001F38BF7047A1F1C04100F03CBAA6
:104CC000012A43EB0302ACF1200CDCF11F0E32BFD2
:104CD0004FF0000E23FA0CF310EB030041EB0451EC
:104CE000B4EB115FD0D0A1EB045101F5801149085C
:104CF0005FEA300001EB04510ED350F1000038BFE1
:104D000012FA0EFE08D1BDE81040C9E7401C38BFBA
:104D10005FEA4202CAD1C3E7BDE810404FEA41034F
:104D200013F5001F38BF7047A1F1C04100F004BA6D
:104D30009EEA445F08D011EA5E0FBDE8104004BF50
:104D400001F0004100207047BDE8104070B500F050
:104D5000A5F900BF64FBBE3E0000E0FF491058BF4C
:104D6000C1F140415B1058BFC3F140438B42EFF3A8
:104D7000008070472DE9C04130B4DFF8A0C23CEAA2
:104D8000111418BF3CEA131400F0EC8081EA03050B
:104D90001CEA111444EAD57418BF1CEA131500F07C
:104DA000C780A4EB05044FF0004545EAC12145EA60
:104DB000C32341EA505143EA525304F17F749942AC
:104DC00004F500344FEAC0204FEAC22208BF9042E7
:104DD00000F09C804FEA13650FF24016765D4FEAB3
:104DE000134506FB05F7C7F1807706FB07F74FEA87
:104DF000D737A7FB03687642C8F58038A7FB06CEF5
:104E000038BFA8F1010807FB08E64FF0000EA6FB2B
:104E1000028CE6FB03CEDCF1000CCEF1004E38BF75
:104E2000AEF1010EA6FB0C584FF000074FF0000545
:104E3000E6FB0E87A1FB08C6A0FB07CE16EB0E060D
:104E400045F10005E1FB076515F1E04E7EBFA4F5D5
:104E500080345FEA46066D4116F1800745F1000592
:104E60004FEA17274FEA066647EA0567A6F1DE46CE
:104E7000B6F1805F4FEA15251FD9384624F0010CA2
:104E800005EBC471BCF1FE6F01EB0C1102D8F0BC54
:104E9000BDE8008124425CBF01F5801E9EEAC47F0C
:104EA00002D4F0BCBDE80081244238D4F0BCA1F1AA
:104EB000C041BDE8004100F03FB94FEAD22242EACA
:104EC00043524FEAD323A7FB02864FEAD02040EAA1
:104ED000415007FB03661EEA0E0F4FEAD12105FB86
:104EE000026658BFA6EB0056B6EB00564FEA520ECC
:104EF0004EEAC37E18EB0E0E56EB530EBDD518EBE3
:104F000002085E417F1C55F10005B6E74FF480159D
:104F10004FF000074FF000064FF00008ADE7F0BC7F
:104F20004FF0000001F1C04101F00041BDE80081F7
:104F300011EA0C1F0CEA131500D00CE013EA0C1F49
:104F400000F025804FF00000F0BC81EA030101F081
:104F50000041BDE80081F0BCBDE8004181EA0301E9
:104F600000F0EAB8F0BCBDE8004170B500F096F87A
:104F7000097EFC3E00F007B881EA03014FF0000013
:104F800001F00041704781EA030100F0D5B8F0BCA0
:104F9000BDE800414FF0000021497047FFFDFBF9DB
:104FA000F7F5F4F2F0EEEDEBE9E8E6E4E3E1E0DE5C
:104FB000DDDBDAD8D7D5D4D3D1D0CFCDCCCBCAC8CE
:104FC000C7C6C5C4C2C1C0BFBEBDBCBBBAB9B8B7F5
:104FD000B6B5B4B3B2B1B0AFAEADACABAAA9A8A8E8
:104FE000A7A6A5A4A3A3A2A1A09F9F9E9D9C9C9BB6
:104FF0009A99999897979695959493939291919061
:105000008F8F8E8E8D8C8C8B8B8A898988888787F1
:105010008685858484838382828181800000FF0766
:105020000000F87F51EA030C17D41CF5801F58BF0D
:10503000BCF5801F00F10680994218BF704708BF79
:105040009042704707D711F5801F58BF13F5801F96
:1050500019D499427047894270471CF5801F08D5C2
:10506000BCF5801FF7D58B4218BF704708BF82423E
:1050700070474FF4001C1CEB410F38BF1CEB430F73
:1050800001D28B42704770B500F008F892244900B5
:105090004FF000514FF08053FFF760BE0EF1020E4B
:1050A0002EF0030E5EF8046B364205D4012A43EB62
:1050B000030515F5001F12D8012841EB010C1CF562
:1050C000001F0CD80ED14FEAD17C15F5001F0CEB58
:1050D0004C0C0CF1020C08BF4CEBD37C04E04FF0FD
:1050E000080C01E04FEAD37C0CEB4C0526FA05F6E0
:1050F00006F00706B6F1040C06D20EEB860CBDE8EE
:1051000070404CF0010C6047DFE80CF0090B020224
:105110004FF000414FF00000A1F5002170BD19468D
:105120001046012851EB010418BFD4F5001484BFC8
:10513000002001F0004170BD0808A0F500114FEA01
:105140003101704753EA010C17D41CF5801F58BF7A
:10515000BCF5801F00F106808B4218BF704708BF66
:105160008242704707D713F5801F58BF11F5801F83
:1051700019D48B4270479B4270471CF5801F08D59D
:10518000BCF5801FF7D5994218BF704708BF904201
:1051900070474FF4001C1CEB430F38BF1CEB410F52
:1051A00001D2994270470FB40CBC03BCFFF76BBF30
:1051B00010B591EA030F48BF83F000433FF52EADD1
:1051C000841A71EB030C07D212198CF0004C43EBDC
:1051D0000C03001B61EB0C01DFF8A4E14FEA115452
:1051E000A4EB135C1EEA430F18BF9EEA445F00F075
:1051F000B08023EA6E03524221EA0451C3EB6E03EE
:1052000038BF5B1EDCF1200E25D322FA0CFE10EB1A
:105210000E0043FA0CFE41EB0E01CCF1200E03FA16
:105220000EFE10EB0E0051F10001CCF1200E29D43E
:1052300012FA0EF201EB0451BDE8104058BF70475E
:10524000401C1CBFB2F1004F704700280CBF491C26
:1052500020F00100704712EB020E43EB030218BF6F
:105260004FF0010E4EEA4202ACF1200CDCF11E0EB2
:1052700054D943FA0CFE10EB0E0051F1FF31CCF182
:105280001E0ED5D50EF1010E12FA0EFE404141EB75
:10529000010101EB445C5FEA5C5C10D910EBDE704D
:1052A00001EB045138BFBEF1004FBDE8104018BFFC
:1052B000704700280CBF491C20F00100704730D215
:1052C0004FEAD42C11F5001124F400641BD0B1FA7C
:1052D00081F20B3AA41AA41ED2F12003914030FAB5
:1052E00003F31943904001EBCC71002C01EB045106
:1052F000BDE81040A8BF704701F1C0414FF0000069
:1053000001F000417047B0FA80F310FA03F100D1C8
:1053100010BDE41A173C4805C90AE4E701EB045143
:1053200010BD491001EB0451BDE810404FEA3000B8
:1053300002E04FF0000170474A0008BF0042F8D079
:10534000B2F5001F28BF704701F000414FF0000088
:1053500070479EEA445F07D011EA5E0FBDE8104037
:1053600004BF002100207047BDE8104070B5FFF772
:1053700095FE00BF40DFF63E83F0004110467047C7
:105380000000E0FF43004FEAD30C4FEA3C0C4340DF
:105390001FBF40070CF1605113F0FE4F70471CF027
:1053A000006F03D100200CF0004170470CF0004367
:1053B00043EA507010B540EACC0000F03AF900BF63
:1053C000000000924FEA0001FFF7B6BE4FF0004127
:1053D0004FF00000A1F500217047000090EA010F96
:1053E00048BF81F0004100F18081421A3CBF801A21
:1053F00089184FEAD0524FF07F4C1CEA410FA2EBC4
:10540000D15318BF9CEA026F00F03B804FF0004C74
:105410004CEA00204CEA012121FA03FC10EB0C0CB1
:105420001ED202F1FF325FEA1C2040EBC25038BFAF
:1054300070471CF07F0F4FEA400C18BFBCF17F4F44
:1054400038BF7047C3F12003994008BF20F0010026
:10545000BCF17F4F38BF7047A0F1C04000F02FB9BA
:105460004FEA3C00000A40EBC25028BF1CF0FF0F7F
:105470004FEA400CE6D018BFBCF17F4F38BF7047F1
:10548000EAE79CEA026F05D010EA5C0F08BF00F063
:105490000040704710B500F0CCF800BF64FBBE3E82
:1054A00041000B0ED3F19E0208D950F400034FEADD
:1054B000032323FA02F048BF4042704710B500F0C2
:1054C000B8F800BF49922480002070476FF0004276
:1054D00082EA20007047000010F0004148BF4042BF
:1054E000B0FA80F310FA03F2C3F19D030BD051EA36
:1054F000C35101EB1220530638BF704700F1010081
:1055000008BF20F001007047B0FA80F310FA03F2F0
:10551000C3F19D030AD0D90501EB1220530638BF11
:10552000704700F1010008BF20F001007047000043
:105530004FF47F0C1CEAD0121EBF1CEAD11392EA72
:105540000C0F93EA0C0F00F0478090EA010F48BF60
:1055500042F480724FF0004C4CEA00204CEA0121EA
:1055600002EB0302A0FB0113A2F50002002918BF01
:1055700043F001035B0028BF4FEA330342EB2242B2
:105580005FEA132C4CEBC2502EBFBCEB436FB2F55D
:105590007C0F70474FEA036CBCF1004F08BF20F04E
:1055A0000100B2F57C0F38BF70470BD582F0FF02C7
:1055B00012F5803FC8BF704700F1C040D8BF00F06F
:1055C0000040704700F5000C5FEA4C0C48BF704784
:1055D000B0F1C04000F073B890EA010F0CEAD113AB
:1055E00048BF42F48072624538BF634504D280EA06
:1055F000010000F00040704710B500F01AF800BF3D
:105600008900013E00F007B800F009B85FEA410CDC
:105610005FEA1C6C08D080EA010000F050B85FEA35
:10562000400C5FEA1C6CF6D14FF00040A0F5800002
:1056300070470EF1020E2EF0030E5EF8044B24426A
:1056400004D44FEA4102B2F17F4F11D84FEA400330
:10565000B3F17F4F0CD80ED14FEAD07CB2F17F4F1F
:105660000CEB4C0C0CF1020C08BF4CEBD17C04E0B1
:105670004FF0080C01E04FEAD17C0CEB4C0324FA0C
:1056800003F404F00704B4F1040C06D20EEB840C0E
:10569000BDE810404CF0010C6047DFE80CF0070853
:1056A00002024FF00040A0F5800010BD0846420005
:1056B00018BFD2F1807288BF00F0004010BDFF21FA
:1056C00041EAD050C005704780F0004090EA010FD9
:1056D0007FF58BAE81F0004100F007B890EA010F32
:1056E00048BF81F000413FF580AE421A04D882F0F5
:1056F0000042A0EB020011444FEAD0524FF07F4C21
:105700001CEA410FA2EBD15318BF9CEA026F4AD0AA
:105710004FF0004C4CEA00204CEA012121FA03FC36
:10572000B0EB0C0C0FD412F0FE0F36D05FEA4C0039
:105730001DD5001240EBC25038BF70471CF03F0F20
:1057400018BF70470BE0A2F101025FEA1C2040EB9A
:10575000C25038BF70471CF07F0F18BF7047C3F1AD
:105760002003994014BF401E20F0010070478008BC
:105770004FEA122308BF7047B0FA80FCA2EB0C027C
:10578000CCF1280C60FA0CF093EA122F04BF00EB66
:10579000C25070474FEAC3707047130A5FEADC10CB
:1057A00008BF7047F6E79CEA026F04D010EA5C0F6E
:1057B00008BF0020704710B5FFF73BFF40DFF63E03
:1057C00081F0004070470000E8570008000000200A
:1057D000C80000006C010008B0580008C800002094
:1057E000100900008801000800000000000000000F
:1057F000070000000800000005000000060000008F
:10580000010000000200000003000000040000008E
:10581000010000007F000000000000000000000008
:105820000000000000000000000000000000000078
:1058300000A24A040000000000000000010203046E
:10584000060708090000000000000000000000003A
:105850000000000000000000000000000000000048
:105860000000000000000000000000000100000037
:105870000000000000000000000000000000000028
:105880000000000000000000000000000000000018
:105890000000000000000000000000000000000008
:1058A00001020304010203040607080902040608B2
:04000005080001D519
:00000001FF
