:020000040800F2
:10000000A8090020D5010008791000087110000827
:100010007510000871040008EB1E000800000000C5
:10002000000000000000000000000000491300086C
:10003000E30C000800000000291100085D1400080E
:10004000EF010008EF010008EF010008EF010008D0
:10005000EF010008EF010008EF010008EF010008C0
:10006000EF010008EF010008E50C0008EF010008AF
:10007000EF010008EF010008EF010008EF010008A0
:10008000EF010008EF010008EF010008EF01000890
:10009000EF010008EF010008EF010008EF01000880
:1000A000EF010008EF010008EF010008EF01000870
:1000B000C11400084515000875160008EF01000876
:1000C000EF010008EF010008EF010008EF01000850
:1000D000EF010008051C00089D1C0008EF01000846
:1000E000EF010008EF010008EF010008EF01000830
:1000F000EF010008EF010008EF010008EF01000820
:10010000EF010008EF0100084D170008EF0100089B
:10011000EF010008EF010008EF010008EF010008FF
:10012000EF010008EF010008EF010008EF010008EF
:1001300000F002F800F03FF80AA090E8000C8244BA
:100140008344AAF10107DA4501D100F034F8AFF297
:10015000090EBAE80F0013F0010F18BFFB1A43F0A5
:100160000103184798400000B8400000103A24BF2F
:1001700078C878C1FAD8520724BF30C830C144BF0C
:1001800004680C607047000000230024002500264E
:10019000103A28BF78C1FBD8520728BF30C148BFEA
:1001A0000B607047642900F07F80002070471FB506
:1001B0001FBD10B510BD00F02CF91146FFF7F7FF79
:1001C00002F0FAFB00F04AF903B4FFF7F2FF03BCB8
:1001D00001F0A8FE0948804709480047FEE7FEE70E
:1001E000FEE7FEE7FEE7FEE7FEE7FEE7FEE7FEE7E7
:1001F00004480549054A064B704700006114000891
:1002000031010008A8030020A8090020A80500204B
:10021000A8050020704700000FB41CB5074B06AAC4
:100220007B4469460090059800F0DBF800206946A1
:1002300000F0EAF81CBC5DF814FB0000E5010000CA
:100240002DE9F0410E460446002020622046E16878
:10025000884730B3252805D0D4E901219047206A8A
:10026000401CF2E7E168204600278847050018D0C7
:10027000A5F14100192802D820354FF40067324615
:10028000294620462760FFF78DFF40B1012804D0A2
:10029000F61D26F007060836D8E7361DD6E72846AD
:1002A000DAE7206ABDE8F0812DE9F0410646002436
:1002B00010687529314615A510D0AFF300800028CD
:1002C00002DA404212A507E031688A0701D511A57C
:1002D00002E0490704D510A5012401E0AFF3008036
:1002E00000210A2306F1240707E0B0FBF3F203FB29
:1002F0001200303078541046491C0028F5D12346AE
:100300002A463046BDE8F04100F00CB8000000007D
:100310002D0000002B0000002000000070477047F7
:10032000704770472DE9F0470D46994692460446BE
:1003300000F124080168880604D5E06921F0100165
:10034000216000E00120A84201DD471B00E00027FA
:10035000A1697A1902EB0900081AA0612078C00689
:1003600002D42046AFF30080002608E0D4E9012142
:100370001AF806009047206A401C761C20624E4501
:10038000F4DB2078C0060AD52046AFF3008006E0F3
:10039000D4E9012130209047206A401C2062381E99
:1003A000A7F10107F4DC07E0D4E9012118F8050002
:1003B0009047206A401C2062281EA5F10105F3DC4D
:1003C0002046AFF300802078000602D50220BDE869
:1003D000F0870120FBE7000001694A1C02610878F0
:1003E000704700B58FB0CDE9013100210591054975
:1003F0007944CDE9031011466846FFF721FF0FB09D
:1004000000BD0000E5FFFFFF0A6802F8010B0A606B
:100410007047754600F028F8AE4605006946534619
:1004200020F00700854618B020B5FFF7E1FEBDE8D3
:1004300020404FF000064FF000074FF000084FF04B
:10044000000B21F00701AC46ACE8C009ACE8C009DC
:10045000ACE8C009ACE8C0098D4670470446AFF36C
:1004600000802046FFF7B0FE00487047440300209C
:1004700000BFFEE72DE9F04F91B004468B461546CC
:1004800000200F9080460E90814682460D900C9081
:1004900025B908200D9005200C900EE0012D04D107
:1004A00007200D9004200C9007E00220050002D0E8
:1004B00003200D9001E004200D90002626E0771C1B
:1004C0001BF80600012820D106E01BF807000128D0
:1004D00001D17F1C00E002E00D988742F5DB00BFF0
:1004E000B81BC0B20E900E98404509DD06F0FF091A
:1004F000781E00F0FF0ADDF8388000200F9004E03D
:100500000E98404501D101200F903E460D9886423D
:10051000D5DB0F986074C4F800A0C4F80490C4F848
:100520000880012D18D10AEB090003F0EFFC0590BB
:1005300003F042FC0022AB07CDE9060103F03AF8D4
:100540000022544BCDE9080103F04CFBCDE90A0130
:1005500002F04AFFE06048E0022D18D10AEB0900E2
:1005600003F0D4FC059003F027FC00226B07CDE9D3
:10057000060103F01FF80022474BCDE9080103F004
:1005800031FBCDE90A0102F02FFFE0602DE00D986C
:1005900003F0D4FC019003F00FFC00224FF08043E5
:1005A000CDE9020103F006F800223C4BCDE904013D
:1005B00003F018FBCDE908010AEB090003F0A6FCE3
:1005C000039003F0F9FB00224FF08043CDE90401D2
:1005D00002F0F0FFCDE90601DDE9082303F002FB9C
:1005E000CDE90A0102F000FFE060002020740DB1A7
:1005F000012D41D1A1680C98814204DC607CC0B31C
:10060000A068032836DB01202074E06803F0D4FBE7
:100610000022224BCDE90A0103F0A2FA0FD860684C
:1006200003F04DF94FF033321D4BCDE9080102F0D4
:100630000DFFCDE90A0102F0D7FEE0601CE0E068A2
:1006400003F0BAFB0022174BCDE90A0103F04EF983
:1006500012D8206803F033F94FF03332104BCDE954
:10066000080103F0BFFACDE90A0102F0BDFEE06027
:1006700002E0FFE700202074B8F1000F02D00F98CD
:10068000012802D10120A07401E00020A07411B063
:10069000BDE8F08F00000C400000F83F0000E03F94
:1006A0003333E33F0000E0BF38B504460D46002079
:1006B00000900DB1022D20D164B901208DF8000009
:1006C000684600F0BDFD1548007C08B1012038BD2A
:1006D0000020FCE7022C1FD101208DF802008DF8CC
:1006E00003008DF80000684600F0AAFD0B48007C6E
:1006F00008B10120EBE70020E9E7012C0CD1012033
:100700008DF80100684600F09BFD0548007C08B1AB
:100710000120DCE70020DAE70020D8E7B80000205D
:10072000CC00002010B5084802F0ACFA074802F0EF
:10073000A9FA074802F0A6FA064802F0A3FA012136
:10074000054801F080F810BD0801002024010020B8
:100750005C010020400100200008004010B500218D
:10076000014801F070F810BD0008004070B5054662
:100770000C46284602F08CFAB4F57A7F05DB4FF47C
:100780007A7001F003FFA4F57A74A0B201F0FEFEC6
:10079000002070BD10B5FFF7E1FF02F0A9F910BD10
:1007A0002DE9F04F89B0824689460024002005904B
:1007B0000690079008900490B9F1000F02D0B9F1AB
:1007C000020F7DD1BAF1000F7BD101208DF810000E
:1007D00004A800F035FDB9F1000F34D1FD48807C4C
:1007E000F0B1FD480068401CFB49086008460068FD
:1007F000032808DCF948016902F0A6F8054603F071
:1008000069FB044653E0F4480068032806DDF44819
:100810000068002802DD4FF4877448E0F14C46E0A0
:10082000EC48C168ED4802F08FF80646EE4903F047
:1008300099FB054603F04EFB04460020E64908609C
:10084000E748046033E0E348807CF0B1E2480068A8
:10085000401CE149086008460068032808DCE348BA
:10086000016902F071F8054603F034FB04461EE00E
:10087000D9480068032806DDD9480068002802DD51
:100880004FF4877413E0D74C11E0D248C168D348C5
:1008900002F05AF80646D44903F064FB054603F01B
:1008A00019FB04460020CC490860CD480460604232
:1008B0000590069405A9484602F054FAC54801E09F
:1008C00018E107E0007C18B1012009B0BDE8F08F05
:1008D0000020FAE7BAF1020F7ED101208DF8120054
:1008E0008DF813008DF8100004A800F0A9FCB9F1F0
:1008F000000F7AD1BE488068012803DCBD488068BB
:10090000012816DDBA48807C08B3BA48807CF0B173
:10091000B1480068401CB0490860084600680328D8
:1009200008DCAE48016902F00FF8054603F0D2FA80
:100930000446D1E0A8480068032805DDA8480068FF
:10094000002801DD1E24C7E06FF01D04C4E0A848A4
:10095000807C80B1A748C168A04801F0F5FF064639
:10096000A54903F0FFFA054603F0B4FA0446002057
:1009700099490860B0E09F48807C80B19C48C1687C
:10098000964801F0E1FF06469B4903F0EBFA054665
:1009900003F0A0FA044600208F4908609CE0954AC5
:1009A000D168934AD06803F033FA019003F004FA57
:1009B000074600224FF0804302F0FCFD054602F09E
:1009C00013FD01460290854801F0BEFF8A4903905D
:1009D00003F0C8FA834601E0FBE006E003F07AFA90
:1009E000044600207C49086076E081488068012840
:1009F00003DC8048806801286EDD7D48807C08B378
:100A00007C48807CF0B174480068401C72490860E2
:100A100008460068032808DC7448016901F094FF67
:100A2000054603F057FA044656E06B480068032871
:100A300005DD6B480068002801DD87244CE06FF07D
:100A40001D0449E06A48807C80B16A48C1686748F3
:100A500001F07AFF0646644903F084FA054603F084
:100A600039FA044600205C49086035E06148807C22
:100A700080B15F48C1685D4801F066FF06465A498B
:100A800003F070FA054603F025FA044600205249A7
:100A9000086021E0574AD168554AD06803F0B8F998
:100AA000019003F089F9074600224FF0804302F0DD
:100AB00081FD054602F098FC014602904B4801F08A
:100AC00043FF8346484903F04DFA039003F002FACE
:100AD000044600204049086060420590069405A93C
:100AE000484602F03FF93B48007C08B10120ECE6A3
:100AF0000020EAE6BAF1010F6BD101208DF8110058
:100B000004A800F09DFBB9F1010F2ED13B48407CB9
:100B1000C0B131480068401C2F4908600846006891
:100B2000032802DC2E4804684DE02B4800680328A7
:100B300006DD2B480068002802DD4FF4877442E090
:100B4000284C40E02D48C1682D4801F0FDFE0646C6
:100B5000254903F007FA054603F0BCF904460020D6
:100B60001D4908601E4804602DE02448407CC0B147
:100B700019480068401C18490860084600680328A6
:100B800002DC174804681EE013480068032806DDED
:100B900013480068002802DD4FF4877413E0114CFD
:100BA00011E01648C168174801F0CEFE06460E490E
:100BB00003F0D8F9054603F08DF9044600200649F4
:100BC00008600748046008946042079005A94846F9
:100BD0001AE022E0B80000204000002008010020B8
:100BE0003C000020F2FEFFFF0000B4422401002080
:100BF000E0000020F40000200000A041CC00002014
:100C0000400100205C01002002F0ACF80448007CA8
:100C100008B1012059E6002057E6002055E6000003
:100C2000CC00002010B500F0FDF910BD10B51C4837
:100C300002F008F81B4802F005F81B4802F002F821
:100C40001A4801F0FFFF0021154802F004F80021C6
:100C5000144802F000F84FF07E51144801F0FBFFF9
:100C60004FF07E51104801F0F6FF00231A464FF076
:100C700081410B4801F0F1FF0D4B00220D4909485D
:100C800001F0EBFF0A4B00220A49084801F0E5FF9A
:100C9000074B00220749044801F0DFFF10BD0000A8
:100CA0000801002024010020400100205C010020F8
:100CB0000000A0400000204010B500214FF47A70E1
:100CC00000F058FC40F2EE231A461946184600F090
:100CD00021FA4FF42F731A461946184600F010FAFD
:100CE00010BD704710B5102000F046F888B31948C1
:100CF0000068C0B91848007840B3184800F0AFFD4C
:100D0000044600201449087015480078C0F1050019
:100D100040F27121484304EB401012490968401A1F
:100D20001149086012E00D482430048805200C4960
:100D30000870002009492431088001200649087004
:100D4000064800F08CFD0749086000BF102000F045
:100D50000DF810BD100121427C000020000C004065
:100D60007E00002078000020740000200149086007
:100D70007047000014040140014600200022074B88
:100D80001B6803EA0102054B14331B680B4013B1C7
:100D90000AB1012000E0002070470000000401407B
:100DA000002123498279002A3AD00A461268036852
:100DB0009A430B461A600A1D126803689A430B1D7A
:100DC0001A60027911440A6803681A430A60184AD3
:100DD0000832126803689A43154B08331A601A1DCB
:100DE000126803689A43124B0C331A604279102A36
:100DF0000ED11A1F126803681A430D4B08331A608C
:100E00001A1D126803681A43094B0C331A600DE06F
:100E10000749427911440A6803681A430A6005E0E9
:100E2000027911440A6803689A430A607047000017
:100E30000004014030B500228B071C0F0F2303FA7A
:100E400004F20B4B8C1053F824309343084C8D1054
:100E500044F8253023468C1053F824308C07240F97
:100E600000FA04F42343024C8D1044F8253030BDC1
:100E7000080001402DE9F04102460025002600202F
:100E800000230024002791F803C00CF00F0591F80F
:100E900003C00CF0100CBCF1000F03D091F802C09D
:100EA0004CEA050591F800C0BCF1000F31D0146880
:100EB00000202BE04FF0010C0CFA00F3B1F800C059
:100EC0000CEA03069E4220D183004FF00F0C0CFA6F
:100ED00003F7BC4305FA03FC4CEA040491F803C091
:100EE000BCF1280F06D14FF0010C0CFA00FCC2F83F
:100EF00014C00AE091F803C0BCF1480F05D14FF0CF
:100F0000010C0CFA00FCC2F810C0401C0828D1D318
:100F10001460B1F800C0BCF1FF0F34DD546800204C
:100F20002EE000F1080C4FF0010808FA0CF3B1F8BC
:100F300000C00CEA03069E4221D183004FF00F0C43
:100F40000CFA03F7BC4305FA03FC4CEA040491F8DD
:100F500003C0BCF1280F05D100F1080C08FA0CF809
:100F6000C2F8148091F803C0BCF1480F07D100F11A
:100F7000080C4FF0010808FA0CF8C2F81080401C69
:100F80000828CED35460BDE8F0810000F0B50A46D1
:100F9000002300240021002500F00046B6F1004F98
:100FA00002D11D4EF16901E01B4E7168C0F303458B
:100FB00083B200F44016B6F5401F08D121F07061ED
:100FC000154E766826F07066134F7E6012E000F4CE
:100FD0008016B6F5801F06D1032606FA05F4A14354
:100FE00041F0706106E0460D360103FA06F6B143A2
:100FF00041F0706122B1460D360103FA06F6314325
:1010000000F00046B6F1004F02D1034EF16101E05D
:10101000014E7160F0BD0000000001404161704769
:101020000161704708B50121602000F08FF84FF48E
:10103000FF40ADF8000004208DF8030003208DF878
:10104000020069460848FFF715FF4FF6FF70ADF83C
:10105000000004208DF8030003208DF8020069468B
:101060000248FFF707FF08BD0018014000140140C7
:1010700000BFFEE700BFFEE77047000070B500212B
:1010800000230F22C47804B3154C246804F4E064F0
:10109000C4F5E064210AC1F10403CA40447804FAAB
:1010A00003F184781440214309010E4C0678A155C0
:1010B000047804F01F050124AC4005786D11AD00E3
:1010C00005F1E025C5F8004109E0047804F01F05AA
:1010D0000124AC40044D0678761145F8264070BDD9
:1010E0000CED00E000E400E080E100E00249014393
:1010F000024A1160704700000000FA050CED00E0A4
:1011000010B5034C20606160A260E36010BD000078
:101110005000002010B5034C20606160A260E360C5
:1011200010BD0000600000207047000029B1064A91
:10113000D2690243044BDA6104E0034AD269824374
:10114000014BDA61704700000010024029B1064AE5
:1011500092690243044B9A6104E0034A9269824314
:10116000014B9A61704700000010024030B5002129
:101170000022002400232D4D6D6805F00C0121B1E3
:10118000042905D0082923D105E0294D056022E076
:10119000274D05601FE0254D6D6805F47012234D45
:1011A0006D6805F48034022505EB92421CB9214D8F
:1011B000554305600BE01D4D6D6805F400351DB10C
:1011C0001C4D5543056002E0194D5543056002E092
:1011D000174D056000BF00BF144D6D6805F0F001AC
:1011E0000909154D6B5C0568DD4045600F4D6D6864
:1011F00005F4E061090A104D6B5C4568DD408560CF
:101200000A4D6D6805F46051C90A0B4D6B5C456869
:10121000DD40C560054D6D6805F44041890B074D03
:101220006B5CC568B5FBF3F5056130BD001002408D
:1012300000127A0000093D00A4000020B400002044
:1012400010B586B0044600200490059002900390EB
:1012500001900090207838B104A800F02DF8002209
:1012600004A91148FFF706F9607838B102A800F028
:1012700035F8012202A90D48FFF7FCF8A07838B133
:1012800001A800F03DF8022201A90948FFF7F2F891
:10129000E07838B1684600F045F803226946054811
:1012A000FFF7E8F806B010BDB8000020CC00002021
:1012B000E0000020F40000200146002009E0C0F119
:1012C0000E02054B03EB8202D2F800210A54421CA5
:1012D000D0B20828F3DB704700002342014600200B
:1012E00009E0C0F10702054B03EB8202D2F80021AE
:1012F0000A54421CD0B20728F3DB70470080224218
:101300000146002009E000F10802054B03EB8202D0
:10131000D2F800210A54421CD0B20328F3DB7047F4
:10132000008022420146002009E000F10C02054B3A
:1013300003EB8202D2F800210A54421CD0B20428E6
:10134000F3DB704700802242704710B500F002F8CE
:1013500010BD00000CB500200190009033480068DB
:1013600040F480303149086000BF3048006800F424
:10137000003000900198401C0190009818B9019825
:10138000B0F5A06FF1D12948006800F4003010B129
:101390000120009001E0002000900098012843D136
:1013A0002348006840F010002149086008460068A2
:1013B00020F0030008600846006840F00200086062
:1013C0001A4840681949486008464068486008461D
:1013D000406840F4806048600846406820F47C1013
:1013E00048600846406840F4E810486008460068D5
:1013F00040F08070086000BF0C48006800F000708A
:101400000028F9D00948406820F0030007494860E7
:101410000846406840F00200486000BF034840684A
:1014200000F00C000828F9D10CBD000000100240AB
:1014300000200240042808D14FF0E021096941F062
:1014400004014FF0E022116107E04FF0E02109694B
:1014500021F004014FF0E022116170477047000055
:1014600010B51348006840F00100114908600846B3
:101470004068104908400E494860084600680E4917
:1014800008400B4908600846006820F48020086086
:101490000846406820F4FE0048604FF41F00886052
:1014A000FFF753FF4FF000600449086010BD0000D3
:1014B000001002400000FFF8FFFFF6FE08ED00E01C
:1014C00010B50121064800F0CDF918B101210448FA
:1014D00000F0B6F90348007801F0C4FB10BD00002D
:1014E00000080040100000207FB505460C46012191
:1014F0000846FFF71BFEADF80850ADF80440002089
:10150000ADF80A00ADF8060001A94FF0804000F0E8
:1015100027FB01221146900700F0B5F91C208DF839
:10152000000000208DF8010001208DF802008DF8E8
:1015300003006846FFF7A2FD0121880700F083F948
:101540007FBD000010B50121084800F08BF958B1AB
:101550000121064800F074F90548006808B9012027
:1015600000E000200249086010BD000000040040B7
:101570009401234230B589B005460C460121022072
:10158000FFF7D4FD012140F21510FFF7DFFD012127
:101590003348FFF7FBFC4FF47070ADF820001820C3
:1015A0008DF8230003208DF8220008A92D48FFF7AD
:1015B00061FC4FF4E070ADF8200010208DF823009E
:1015C00003208DF8220008A92748FFF753FC08A93B
:1015D0002548FFF74FFC08A92448FFF74BFC08A952
:1015E0002148FFF747FCADF81850ADF81440002033
:1015F000ADF81A00ADF8160005A91D4800F0B0FAC4
:101600007020ADF804000120ADF806000020ADF810
:101610000C0001A9164800F03FF901A9144800F098
:1016200091F901A9124800F0EDF901A9104800F064
:1016300043FA08210E4800F07BF908210C4800F01D
:10164000D3F908210A4800F02DFA0821084800F0D3
:1016500071FA0121064800F0F6F809B030BD00002B
:10166000000C1A0000100140002001400008014059
:101670000004004010B50121084800F0F3F818B14B
:101680000121064800F0DCF80548016805480078AB
:10169000FFF786F80449087010BD000000080040FC
:1016A00048000020440000204C0000207FB5054683
:1016B0000C4601210420FFF739FDADF80850ADF8C4
:1016C00004400020ADF80A00ADF8060001A90E485C
:1016D00000F046FA012211460B4800F0D4F81E2013
:1016E0008DF8000000208DF8010003208DF8020025
:1016F00001208DF803006846FFF7C0FC0021024876
:1017000000F0A1F87FBD0000000800403EB504468F
:101710000D4601210820FFF709FDADF80050ADF896
:1017200004400020ADF80600ADF802000121064893
:1017300000F07AF86946044800F012FA00200249E5
:10174000243108803EBD0000000C004010B501218E
:101750001C4800F087F818B101211A4800F070F811
:101760001948007878B901201749087020211748D6
:10177000FFF754FC472144F61F60FFF7C7FF052021
:10178000134908701CE010480078012818D110484F
:10179000007880B900200C4908700E4908700520B7
:1017A0000B49087047213C20FFF7B0FF2021074874
:1017B000FFF736FC04E006480078401E0449087034
:1017C00010BD0000000C00407D000020000801401A
:1017D0007E0000207C00002008B532208DF800003B
:1017E00000208DF8010002208DF8020001208DF804
:1017F00003006846FFF742FC08BD000008B5012160
:101800001020FFF7A3FC4FF48060ADF8000010201B
:101810008DF8030003208DF8020069460148FFF7A8
:1018200029FB08BD0010014021B1028842F080026E
:10183000028004E002884FF67F731A4002807047EE
:10184000CA430282704721B1028842F0010202803D
:1018500004E002884FF6FE731A400280704701468A
:10186000888C704730B50246002000230024158A7A
:1018700005EA0103958905EA010413B10CB10120C1
:1018800000E0002030BD1AB183890B43838102E060
:1018900083898B438381704770B500240022002325
:1018A000058C4FF6FE7635400584028C8388048BC8
:1018B0004FF68F752C40B51E2C400D882C43751E9D
:1018C0002A400D892A434D882A43144DA8420BD043
:1018D000134DA84208D0134DA84205D0124DA8427E
:1018E00002D0124DA84213D14FF6F7752A404D8908
:1018F0002A434FF6FB752A408D882A434FF6FF6531
:101900002B404FF6FF552B408D892B43CD892B4320
:1019100083800483CD888586028470BD002C0140BD
:1019200000340140004001400044014000480140B3
:101930000A460021018B4FF6F773194011430183CA
:101940007047000070B5002400220023058C4FF67C
:10195000EF7635400584028C8388048B48F6FF754A
:101960002C404FF6FF452C400D884FF6FF7606EAD7
:1019700005252C434FF6DF752A400D8906EA05152B
:101980002A434D8806EA05152A43154DA84202D080
:10199000144DA8421DD14FF67F752A404D894FF650
:1019A000FF7606EA05152A434FF6BF752A408D8853
:1019B00006EA05152A434FF6FF352B404FF2FF7517
:1019C0002B408D8906EA85052B43CD8906EA8505DE
:1019D0002B4383800483CD880587028470BD00007B
:1019E000002C0140003401400A460021018B4FF2D7
:1019F000FF7319404FF6FF7303EA02231943018373
:101A00007047000070B5002400220023058C4FF6BB
:101A1000FF6635400584028C8388848B4FF68F7572
:101A20002C404FF6FC752C400D882C434FF6FF558B
:101A30002A400D894FF6FF7606EA05252A434D8890
:101A400006EA05252A43154DA84202D0144DA842A6
:101A50001DD14FF2FF752A404D894FF6FF7606EAF9
:101A600005252A434FF6FF352A408D8806EA0525CD
:101A70002A434EF6FF752B404DF6FF752B408D899E
:101A800006EA05152B43CD8906EA05152B4383800D
:101A90008483CD888587028470BD0000002C0140BE
:101AA000003401400A460021818B4FF6F77319403C
:101AB000114381837047000070B500220023002489
:101AC000058C4EF6FF7635400584038C8488828B26
:101AD00048F6FF752A404FF6FF452A400D884FF61D
:101AE000FF7606EA05252A434DF6FF752B400D8942
:101AF00006EA05352B434D8806EA05352B430B4D89
:101B0000A84202D00A4DA84208D14BF6FF752C40DE
:101B10008D894FF6FF7606EA85152C4384808283F3
:101B2000CD88A0F84050038470BD0000002C014017
:101B3000003401400A460021818B4FF2FF731940A7
:101B40004FF6FF7303EA02231943818370478186AE
:101B500070470187704781877047A0F84010704731
:101B6000002202881D4B98420ED01D4B98420BD08C
:101B7000B0F1804F08D01B4B984205D01A4B9842C9
:101B800002D01A4B984204D14FF68F731A404B88FB
:101B90001A43174B984207D0164B984204D04FF681
:101BA000FF431A40CB881A4302808B8883850B88B9
:101BB00003850A4B98420BD0094B984208D00E4B34
:101BC000984205D00D4B984202D00D4B984201D15E
:101BD0000B7A03860123838270470000002C0140AA
:101BE000003401400004004000080040000C0040A8
:101BF000001000400014004000400140004401403B
:101C00000048014010B540F22551214800F0A9F8E4
:101C100010B31F4800F060F9C4B21E48008800F4F9
:101C20000040C8B91B48008800F4804060B10A2C0D
:101C300003D000201749088020E01648008840F4AF
:101C400000401449088019E00D2C06D11148008885
:101C500040F480400F49088010E00E480088C0F32F
:101C60000D000D490C540B480088401C09490880A0
:101C700008460088C72801DD002008800548008844
:101C800000F40040B0F5004F01D100F0A5FC10BDFC
:101C900000380140A0000020B301002010B540F240
:101CA0002551204800F05DF810B31E4800F014F9EB
:101CB000C4B21D48008800F40040C8B91A48008822
:101CC00000F4804060B10A2C03D00020164908803F
:101CD00020E01548008840F400401349088019E0CE
:101CE0000D2C06D11048008840F480400E49088031
:101CF00010E00D480088C0F30D000C490C540A4850
:101D00000088401C0849088008460088C72801DD73
:101D1000002008800448008800F4004008B100F06A
:101D2000EFFB10BD00440040A20000207B02002019
:101D300021B1828942F40052828104E082894DF609
:101D4000FF731A408281704702460020B1F5007F80
:101D500000D100BF13880B400BB1012000E0002030
:101D6000704770B50246002400230025002040F68D
:101D70006A16B14200D100BFC1F3421501F01F0342
:101D8000012606FA03F3012D02D19689334006E0BD
:101D9000022D02D1168A334001E0968A33400C129C
:101DA000012606FA04F41688344013B10CB1012060
:101DB00000E0002070BDF0B5034600240026002599
:101DC000002040F66A17B94200D100BF1846C1F39F
:101DD000421401F01F06012707FA06F5012C01D174
:101DE0000C3004E0022C01D1103000E014301AB1A4
:101DF00007682F43076002E00768AF430760F0BD44
:101E00002DE9F04786B005460E460024A24600BFE5
:101E1000A1460027B08900B100BF2F462C8A4CF69E
:101E2000FF700440F08804432C82AC894EF6F31016
:101E30000440B08831890843718908430443AC8168
:101E4000AC8A4FF6FF400440B0890443AC8201A83D
:101E5000FFF78CF91F48874202D1DDF810A001E09E
:101E6000DDF80CA0A88900F4004040B10AEBCA00DC
:101E700000EB0A1031684900B0FBF1F807E00AEB0B
:101E8000CA0000EB0A1031688900B0FBF1F8642049
:101E9000B8FBF0F004012009642101FB1089A88936
:101EA00000F4004040B1322000EBC900B0FBF1F07B
:101EB00000F00700044308E0322000EB0910642121
:101EC000B0FBF1F000F00F0004432C8106B0BDE838
:101ED000F08700000038014001468888C0F3080000
:101EE0007047C1F308028280704700BFFEE770B5FB
:101EF00005460C4612E000BF80212846FFF724FF6C
:101F00000028F9D021782846FFF7EBFF00BF4021D9
:101F10002846FFF719FF0028F9D1641C2078002813
:101F2000E9D170BD014600BF7047000001460020A6
:101F30002BE051F82020002A03DA51F8202041F844
:101F4000202051F82020124B53F820301A4440F240
:101F5000B6339A4208DD0E4A52F82020C2F57A7252
:101F6000323A41F820200FE051F82020084B53F876
:101F700020301A44B2F5FA7F06DA054A52F82020DA
:101F8000C2F5FA7241F82020401C0428D1DB7047CA
:101F90006000002010B50020154908701549086040
:101FA00022E01448016812480078FEF77DFB1249D0
:101FB000087008460078A0B110480068401C0F491E
:101FC00008600846006803280EDDFEF7E3FB4FF4C7
:101FD0007A7000F0DBFA00200949087007490860B0
:101FE00003E0002005490860DBE700BF10BD0000EA
:101FF00044000020480000201C00002018000020A1
:1020000010000020074808490978405C012805D0E5
:10201000044805490978405C022801D100F0C2FD5E
:1020200000F094FD080000201000002000F0CCFD1E
:1020300010B5FEF777FB00BF3B480078032190FB0B
:10204000F1F03A49085C0028F6D0374800780321BF
:1020500090FBF1F03549085C012808D0324800783F
:10206000032190FBF1F03149085C02282BD10020BC
:102070002F4908702F4908604FF47A7000F086FAF3
:102080001FE02C4801682A480078FEF70DFB2A491A
:1020900008700846007888B928480068401C27491D
:1020A00008600846006803280BDD1F480078401CC4
:1020B0001D49087000202149086003E000201F49E5
:1020C0000860DEE72EE00120194908701C480078FE
:1020D000C0F10300174908603C2000F057FA1FE0E8
:1020E0001448016812480078FEF7DEFA12490870B9
:1020F0000846007888B911480068401C0F490860FC
:102100000846006802280BDD07480078801C064955
:10211000087000200949086003E0002007490860B2
:10212000DEE700BF10BD0000100000200800002006
:1021300044000020480000201C0000202000002057
:102140000000002010B5FEF7EDFA00BF4B48007804
:10215000032190FBF1F04A49085C0028F6D047487B
:102160000078032190FBF1F201FB12004449085C66
:1021700003280AD041480078032190FBF1F201FBCB
:1021800012003F49085C042825D100203D49087011
:102190003D490860084601683A480078FEF784FA2D
:1021A0003A4908700846007888B939480068401CE8
:1021B000374908600846006803285EDD2F4800782C
:1021C000401C2E49087000203149086055E000206D
:1021D0002F49086051E02F480078022828DA0120B2
:1021E000284908702C480078401C27490860084698
:1021F000016824480078FEF757FA24490870084619
:10220000007888B922480068401C214908600846C7
:102210000068032831DD19480078401E174908700E
:1022200000201B49086028E000201949086024E0CC
:1022300001201449087018480078C0F103001249C1
:102240000860084601680F480078FEF72DFA0F492C
:1022500008700846007880B90D480068401C0C4999
:10226000086008460068032807DD04480078801CE1
:102270000249087000200649086010BD10000020C7
:102280000800002001000020040000201C000020A5
:1022900020000020240000200000002010B50120B4
:1022A0001649087016480078C0F103001549086007
:1022B0000846016811480078FEF7F6F912490870DF
:1022C00008460078B0B111480068401C0F4908600A
:1022D00008460068032810DD0D480078401C0C49B2
:1022E0000870002009490860FEF754FA322000F017
:1022F0004DF902E000200549086010BD44000020AF
:1023000000000020480000201C00002018000020D1
:102310001000002010B52B480078022828DA012090
:102320002949087029480078401C29490860084656
:10233000016825480078FEF7B7F926490870084675
:10234000007888B124480068401C2349086008468A
:102350000068032835DD21480078801E1F49087079
:1023600000201D4908602CE000201B49086028E07F
:1023700001201549087015480078C0F10300144980
:1023800008600846016810480078FEF78DF9114989
:1023900008700846007888B10F480068401C0E4954
:1023A00008600846006803280BDD0C480078401CD4
:1023B0000A49087000200849086002E00020064928
:1023C000086010BD24000020010000200000002053
:1023D000040000201C000020180000201000002035
:1023E00010B5FEF79FF93E480078401E032190FB90
:1023F000F1F03C49085C012809D039480078401EBA
:10240000032190FBF1F03749085C022802D13648DD
:102410000068B8B132480078401E032190FBF1F00B
:102420003049085C032809D02D480078401E03215C
:1024300090FBF1F02B49085C042825D12A4800685C
:10244000012821D10020294908702949086032203B
:1024500000F09CF806E02748006840F2DC51884212
:1024600000D200E0F7E700BFFEF794F94FF4FA70EE
:1024700000F08CF81A480078401E032190FBF1F020
:10248000184900220A542AE0002018490870022046
:102490001749086021E01648016814480078FEF7E3
:1024A00003F9154908700846007898B11348006888
:1024B000401C124908600846006803280DDD0848E2
:1024C0000078401E0649087000200C490860FEF79D
:1024D00061F903E0002009490860DCE700BF10BD96
:1024E00010000020080000201400002044000020FC
:1024F00048000020740000201C000020180000206C
:102500000D4A128802F40042AAB10B4A1288C2F3A3
:102510000D0109290CD16422084B1A70002005E036
:10252000074A125C074B1A54421CD0B28842F7DBB0
:102530000022014B1A807047A2000020700000208A
:102540007B0200207801002010B56FF00400FEF738
:1025500071FF0A4800680A49B0FBF1F009490870A8
:102560000846007800EB4001C1EBC0104FF6FF7148
:1025700001EAC0000449088010BD000028000020C6
:1025800000127A0082000020840000200146114AD7
:1025900012884A434FF0E0235A6100229A611A469A
:1025A000126942F001021A6100BF4FF0E022106987
:1025B00000F001021AB100F48032002AF5D04FF089
:1025C000E022126922F001024FF0E0231A6100229A
:1025D0009A6170478400002010B5CA480088C0F393
:1025E0000D00C9490880C9480078502873D008DC1C
:1025F000422871D0462870D047286FD04C286ED121
:1026000008E052285CD061286AD0632869D073281A
:10261000F5D102E1BD484078642843D1BC48007838
:1026200010B90120BA4908702EE04C21B948FFF7D3
:1026300058FC00BF4021B748FFF786FB0128F9D1BD
:102640006421B448FFF74DFC00BF4021B148FFF7BB
:102650007BFB0128F9D10D21AE48FFF742FC00BFFA
:102660004021AC48FFF770FB0128F9D10A21A948A5
:10267000FFF737FC00BF4021A648FFF765FB0128A4
:10268000F9D100209F4908809E48008800F400404E
:10269000A8B19E4800784C2811D19C484078642805
:1026A000C3D00CE099484078722808D19A48007845
:1026B00010B90120984908700020924908801CE157
:1026C0009248407864284AD19448007810B9012093
:1026D0009249087035E050E091E05CE066E00BE183
:1026E00077E0C2E052218B48FFF7FBFB00BF40219F
:1026F0008848FFF729FB0128F9D164218548FFF7B5
:10270000F0FB00BF40218348FFF71EFB0128F9D1F1
:102710000D218048FFF7E5FB00BF40217D48FFF712
:1027200013FB0128F9D10A217A48FFF7DAFB00BF31
:1027300040217848FFF708FB0128F9D100207149B2
:1027400008807048008800F40040A8B16F48007805
:10275000522811D16D4840786428C3D00CE06B48F2
:102760004078722808D16E48007810B901206C4971
:102770000870002063490880BFE0644840787228F0
:1027800008D16848007810B9012066490870002017
:102790005C490880B1E05D484078722805D101208D
:1027A00061490870002057490880A6E057484078E2
:1027B00020B9564840785D49087009E05348407890
:1027C000722805D101205A49087000204D4908801F
:1027D00093E0012257A15848FDF71EFD56494D4888
:1027E000FFF785FB40F60A514A48FFF77AFB00BF26
:1027F00040214848FFF7A8FA0128F9D17DE0434875
:102800004078722808D14D48007810B901204B4912
:10281000087000203B4908806FE00120484908709B
:1028200019E073213B48FFF75CFB00BF40213948AA
:10283000FFF78AFA0128F9D140F60A513548FFF727
:1028400050FB00BF40213348FFF77EFA0128F9D141
:1028500000202C4908802B48008800F4004018B163
:102860002A4800787328DCD047E0284840786C2854
:1028700041D12648807863283DD100202A4908703C
:1028800025490870264908702C4908702D490870A0
:1028900024490870264908702949087063211D4899
:1028A000FFF71FFB00BF40211A48FFF74DFA012830
:1028B000F9D16C211748FFF714FB00BF40211548E0
:1028C000FFF742FA0128F9D163211248FFF709FB0B
:1028D00000BF40210F48FFF737FA0128F9D140F631
:1028E0000A510C48FFF7FDFA00BF40210948FFF7E5
:1028F0002BFA0128F9D100E000BF00BF00200149F8
:10290000088010BDA000002096000020B301002028
:1029100092000020003801408C000020930000202D
:102920008D0000208E0000208F0000208B000020F2
:10293000900000202564000081010020910000200B
:1029400095000020940000202DE9F84F04460D4624
:102950004FF08040216901F005FB2946009001F00D
:10296000CDFB8346616901F053FA8246E16801F0CC
:10297000F9FA80462169A06801F0F4FA009028462F
:10298000216901F0C5FB8346616801F0EBFA8246DC
:10299000009901F03DFA8146414601F039FA0746B7
:1029A0003946A06901F034FA064620696061256164
:1029B000A6613046BDE8F88FFFF7C6FDFEF732F995
:1029C000FEF734F9FEF778F9C820FFF7DFFD4FF482
:1029D000A060FEF78BFB4FF4165000F019FC4FF48B
:1029E000165000F065FC00F0E9FC00F0B3FCFEF7C7
:1029F00005FF472141F28730FEF758FE472144F694
:102A00001F60FEF783FE00F0DFFB40F2CF2142F2B1
:102A10000F70FEF769FD65E0FDF784FE324800782F
:102A20007F2805D13148006810B9FFF7B3FA59E0A3
:102A30002D480078152804D12C48006808B9FFF704
:102A4000E1FA29480078152805D1284800680128AE
:102A500001D1FFF7EBFA24480078032190FBF1F253
:102A600001FB120028B92148006810B9FFF7E0FA0D
:102A700038E01D480078032190FBF1F201FB1200C1
:102A800030B91A480068012802D1FFF75BFB29E042
:102A900015480078032190FBF1F201FB1200022897
:102AA00005D11248006810B9FFF7F8FB1AE00E488C
:102AB0000078032190FBF1F201FB1200022806D1FD
:102AC0000A480068012802D1FFF724FC0AE0064802
:102AD0000078032190FBF1F201FB1200012801D1E3
:102AE000FFF77EFC98E70000100000201400002093
:102AF00010B580211248FEF791FA4FF4807110480A
:102B0000FEF78CFA4FF480710E48FEF787FA4021E9
:102B10000B48FEF783FA40F2E9310B48FFF717F84C
:102B200040F2E9310848FFF714F840F2E93106486D
:102B3000FFF711F840F2E9310348FFF70EF810BD36
:102B4000002001400008014000040040FDF722FE83
:102B500040F2B6310020FDF709FEFDF71BFE012013
:102B60000D4908700D480078401C0D490860FDF7BC
:102B7000D9FD6420FFF70AFD0DE009480168064809
:102B80000078FDF791FD41F28830FFF7FFFCFDF77B
:102B900001FE00BFFEE7F0E701000020000000207A
:102BA000040000200020064908700649086005E07E
:102BB0000448016802480078FDF776FDF8E7000058
:102BC000010000200400002040F2B6310020FDF793
:102BD000CDFD01201649087016480078C0F10300A9
:102BE0001549086019E01448016811480078FDF79C
:102BF0005BFD124908700846007858B1104800681B
:102C0000401C0F49086008460068052805DD0020C3
:102C1000086003E000200A490860E4E700BF05E01F
:102C20000548016802480078FDF73EFDF8E700001E
:102C30000100002000000020040000201C000020F3
:102C400018000020002141608160C16001600161C5
:102C50004161816170470160704741608260C3607B
:102C60007047000010B5044621460548FFF739F9C2
:102C700000BF40210248FFF767F80128F9D110BDD5
:102C80000044004000210161416181617047000002
:102C900010B50446002C2EDD80212E48FEF7BEF92B
:102CA0004FF480712B48FEF7BBF94FF480712A482E
:102CB000FEF7B6F940212748FEF7B0F9274800682B
:102CC000C0F57A7081B22648FEF741FF234880881C
:102CD00081B22348FEF73DFF2048008981B2204899
:102CE000FEF739FF1D48C068C0F57A7081B21C48F4
:102CF000FEF733FF2DE080211648FEF791F94FF4DF
:102D000080711448FEF78AF94FF480711248FEF77B
:102D100085F940210F48FEF783F91048008881B2F9
:102D20000F48FEF714FF0D484068C0F57A7081B275
:102D30000B48FEF70EFF09488068C0F57A7081B233
:102D40000748FEF708FF0548808981B20448FEF76E
:102D500004FF10BD00200140000801405000002089
:102D6000000400402DE9F84F81460C462046FFF74D
:102D7000DDF8484609EBD0714910A9EB4101002963
:102D80007DD1B9F1010F7BDA8021F948FEF748F9CE
:102D90004FF48071F648FEF743F9F6480088228820
:102DA000104481B2F448FEF7D2FEF2488088A2882F
:102DB000104481B2F048FEF7CCFE6068002835DD93
:102DC0004FF48071ED48FEF729F94021E848FEF7FD
:102DD00025F9606800F073FD82460022E84B00F0A0
:102DE000C1FD07460022E74B00F0F0FE054600F06B
:102DF00039FD80B201460090DF48FEF7ACFE606806
:102E000000F05DFD82460022DD4B00F0ABFD074681
:102E10000022DC4B00F0DAFE054600F023FD80B214
:102E200001460090D448FEF798FEC6E1606800288D
:102E300038DA4FF48071D148FEF7F2F84021CC48DF
:102E4000FEF7EEF8606800F03AFD82460022CC4BB7
:102E500000F088FD07460022CB4B00F0B7FE054688
:102E600000F000FD80B201460090C348FEF773FEFB
:102E7000606800F024FD82460022C14B01E0B1E011
:102E800024E000F06FFD07460022BF4B00F09EFEDD
:102E9000054600F0E7FC80B201460090B648FEF718
:102EA0005CFE8AE14FF48071B448FEF7B7F840F257
:102EB000E931B148FEF74FFE4021AD48FEF7AEF8CC
:102EC00040F2E931AC48FEF748FE76E18021A8489F
:102ED000FEF7A4F84FF48071A548FEF79FF8A548C7
:102EE0000068C0F57A702288801A81B2A248FEF785
:102EF0002EFEA0484068C0F57A70A288801A81B280
:102F00009D48FEF726FE6068002835DD4FF480718D
:102F10009A48FEF783F840219548FEF77FF86068ED
:102F200000F0CDFC05460022954B00F01BFD074646
:102F30000022944B00F04AFE824600F093FC80B2DF
:102F4000014600908C48FEF706FE606800F0B7FC72
:102F5000824600228A4B00F005FD07460022894B7D
:102F600000F034FE054600F07DFC80B20146009082
:102F70008148FEF7F2FD20E14FF480717F48FEF7B3
:102F80004FF840217A48FEF74BF8606800F097FC54
:102F9000054600227A4B00F0E5FC074600227A4BFA
:102FA00000F014FE824600F05DFC80B20146009005
:102FB0007148FEF7D0FD606800F081FC07460022F2
:102FC0006F4B00F0CFFC054600226F4B00F0FEFD7A
:102FD000824600F047FC80B2014600906648FEF74A
:102FE000BCFDEAE0B9F1020F77DA4FF48071634873
:102FF000FEF714F840215E48FEF710F85D4880683F
:10300000C0F57A702289801A81B25B48FEF7A3FD71
:103010005848C068C0F57A70A289801A81B25648B3
:10302000FEF79BFD40F2E9315348FEF792FD4FF465
:1030300080714F48FDF7F2FFE06800281ADD80211B
:103040004B48FDF7EBFFE06800F039FC0746002233
:103050004B4B00F087FC054600224C4B00F0B6FDC0
:10306000824600F0FFFB80B2014600904248FEF726
:103070006EFDA2E0E06800281ADA80213C48FDF7E6
:10308000CFFFE06800F01BFC074600223C4B00F03D
:1030900069FC054600223E4B00F098FD824600F098
:1030A000E1FB80B2014600903348FEF750FD84E01A
:1030B00040F2E9313048FEF74AFD80212C48FDF707
:1030C000ADFF40F2E9312C48FEF743FD4FF480712B
:1030D0002748FDF7A3FF70E0FFE74FF48071274812
:1030E000FDF79EFF40212248FDF79AFF2148008905
:1030F0002289104481B22048FEF72DFD1D488089A9
:10310000A289104481B21C48FEF727FD802118488F
:10311000FDF784FF40F2E9311748FEF718FDE0683B
:10312000002811DD80211248FDF778FF4FF48071EF
:103130000F48FDF773FFA08940F28A22101A81B26E
:103140000D48FEF706FD38E0E068002822DA80210D
:103150000748FDF765FF4FF480710548FDF760FFF4
:10316000E068C0F5AF7081B20348FEF7F2FC24E0DE
:1031700000200140600000200004004000080140E1
:103180000000E03F0050844000E0754000406F4088
:103190000070874040F2E9310948FEF7D8FC8021F1
:1031A0000848FDF73BFF40F2E9310548FEF7D1FC46
:1031B0004FF480710348FDF731FFBDE8F88F000040
:1031C000000400400020014010B500200C490870A8
:1031D00005200C49087047213C20FEF797FAFEF7BE
:1031E000FBFA20210848FDF71BFF01221146074882
:1031F000FEF749FB01210548FEF725FB10BD000045
:103200007D0000207E00002000080140000C0040EE
:1032100010B586B00446012144F20400FDF796FF84
:103220004FF40070ADF8140003208DF8160018203C
:103230008DF8170005A91C48FDF71CFE4FF48060AF
:10324000ADF8140004208DF8170005A91648FDF705
:1032500011FE25208DF8000003208DF801008DF867
:10326000020001208DF803006846FDF707FF019476
:103270000020ADF80800ADF80A00ADF80C00ADF87C
:1032800010000C20ADF80E0001A90848FEF7B8FDAB
:10329000012240F225510548FEF78DFD012103482A
:1032A000FEF746FD06B010BD0008014000380140A1
:1032B00010B586B0044601210420FDF747FF012127
:1032C0004804FDF733FF0420ADF8140003208DF807
:1032D000160018208DF8170005A91C48FDF7CAFD37
:1032E0000820ADF8140004208DF8170005A9174830
:1032F000FDF7C0FD26208DF8000003208DF80100A9
:1033000002208DF8020001208DF803006846FDF7C9
:10331000B5FE01940020ADF80800ADF80A00ADF844
:103320000C00ADF810000C20ADF80E0001A9084803
:10333000FEF766FD012240F225510548FEF73BFDF0
:1033400001210348FEF7F4FC06B010BD000801405F
:10335000004400400EB501210420FDF7F7FE1020C7
:10336000ADF8080028208DF80B0003208DF80A0026
:1033700002A91148FDF77EFD04210020FDF75AFD4A
:103380001020009000208DF8040010208DF805001A
:1033900001208DF806006846FDF702FD2020ADF8FB
:1033A000080010208DF80B0003208DF80A0002A9F8
:1033B0000148FDF75FFD0EBD0008014008B54FF460
:1033C000A060FDF793FE0A208DF8000001208DF823
:1033D000010000208DF8020001208DF803006846EE
:1033E000FDF74CFE08BD000021F00042A2F1605242
:1033F000B2F5801F01F0004328BFD2F17F6C0BD9DA
:103400005FEA001C43EAC20242EB507018BF7047EB
:1034100028BF20F001007047B2F5801FBCBF1846DE
:1034200070474FEA410C1CF5001F02D2084600F01D
:1034300060BE70B500F040FB00000089FFF7F6BFEA
:103440004FF00040A0F580007047000010B591EAF1
:10345000030F48BF83F0004300F1CC83841A71EB63
:10346000030C05D2121943EB0C03001B61EB0C019A
:10347000DFF824E14FEA1154A4EB135C1EEA430F7A
:1034800018BF9EEA445F73D023EA0E03DCF1200EDE
:1034900021EA045143F4801332D322FA0CFE10EBDC
:1034A0000E0023FA0CFE41EB0E01CCF1200E03FAC4
:1034B0000EFE10EB0E0051F10001B1F5801FCCF1B2
:1034C000200E32D201EB045112FA0EF2BDE8104088
:1034D00058BF7047401C38BF5FEA420218BF7047B0
:1034E000002814BF20F0010041F100014FEA410320
:1034F00013F5001F38BF7047A1F1C04100F02ABB8F
:10350000012A43EB0302ACF1200CDCF11F0E32BFA9
:103510004FF0000E23FA0CF310EB030041EB0451C3
:10352000B4EB115FD0D0A1EB045101F58011490833
:103530005FEA300001EB04510ED350F1000038BFB8
:1035400012FA0EFE08D1BDE81040C9E7401C38BF92
:103550005FEA4202CAD1C3E7BDE810404FEA410327
:1035600013F5001F38BF7047A1F1C04100F0F2BA57
:103570009EEA445F08D011EA5E0FBDE8104004BF28
:1035800001F0004100207047BDE8104070B500F028
:1035900093FA00BF64FBBE3E0000E0FF491058BF35
:1035A000C1F140415B1058BFC3F140438B42EFF380
:1035B000008070472DE9C04130B4DFF8A0C23CEA7A
:1035C000111418BF3CEA131400F0EC8081EA0305E3
:1035D0001CEA111444EAD57418BF1CEA131500F054
:1035E000C780A4EB05044FF0004545EAC12145EA38
:1035F000C32341EA505143EA525304F17F74994284
:1036000004F500344FEAC0204FEAC22208BF9042BE
:1036100000F09C804FEA13650FF24016765D4FEA8A
:10362000134506FB05F7C7F1807706FB07F74FEA5E
:10363000D737A7FB03687642C8F58038A7FB06CECC
:1036400038BFA8F1010807FB08E64FF0000EA6FB03
:10365000028CE6FB03CEDCF1000CCEF1004E38BF4D
:10366000AEF1010EA6FB0C584FF000074FF000051D
:10367000E6FB0E87A1FB08C6A0FB07CE16EB0E06E5
:1036800045F10005E1FB076515F1E04E7EBFA4F5AD
:1036900080345FEA46066D4116F1800745F100056A
:1036A0004FEA17274FEA066647EA0567A6F1DE46A6
:1036B000B6F1805F4FEA15251FD9384624F0010C7A
:1036C00005EBC471BCF1FE6F01EB0C1102D8F0BC2C
:1036D000BDE8008124425CBF01F5801E9EEAC47FE4
:1036E00002D4F0BCBDE80081244238D4F0BCA1F182
:1036F000C041BDE8004100F02DBA4FEAD22242EAB3
:1037000043524FEAD323A7FB02864FEAD02040EA78
:10371000415007FB03661EEA0E0F4FEAD12105FB5D
:10372000026658BFA6EB0056B6EB00564FEA520EA3
:103730004EEAC37E18EB0E0E56EB530EBDD518EBBA
:1037400002085E417F1C55F10005B6E74FF4801575
:103750004FF000074FF000064FF00008ADE7F0BC57
:103760004FF0000001F1C04101F00041BDE80081CF
:1037700011EA0C1F0CEA131500D00CE013EA0C1F21
:1037800000F025804FF00000F0BC81EA030101F059
:103790000041BDE80081F0BC81EA0301BDE80041C1
:1037A00000F0D8B9F0BCBDE8004170B500F084F974
:1037B000097EFC3E00F007B881EA03014FF00000EB
:1037C00001F00041704781EA030100F0C3B9F0BC89
:1037D0004FF000002249BDE800417047FFFDFBF9B2
:1037E000F7F5F4F2F0EEEDEBE9E8E6E4E3E1E0DE34
:1037F000DDDBDAD8D7D5D4D3D1D0CFCDCCCBCAC8A6
:10380000C7C6C5C4C2C1C0BFBEBDBCBBBAB9B8B7CC
:10381000B6B5B4B3B2B1B0AFAEADACABAAA9A8A8BF
:10382000A7A6A5A4A3A3A2A1A09F9F9E9D9C9C9B8D
:103830009A99999897979695959493939291919038
:103840008F8F8E8E8D8C8C8B8B8A898988888787C9
:103850008685858484838382828181800000FF073E
:103860000000F87F4FEA1153A3F58063D3F11E03E4
:10387000A8BFD3F1200C08DB4FF0004242EAC1227E
:1038800052EA505232FA03F0704709420BD4102B1F
:10389000C4BF0020704703F5787CBCF1FF3F05D022
:1038A0004FF0FF3070474FF00000704770B500F0E8
:1038B00003F900BF4992248000207047F0E710F020
:1038C000004248BF4042B0FA80F310FA03F10AD038
:1038D000C3F11D0303F580634FEA415002EB03522D
:1038E00002EBD12170474FF00000704751EA030C02
:1038F00017D41CF5801F58BFBCF5801F00F106804F
:10390000994218BF704708BF9042704707D711F51A
:10391000801F58BF13F5801F19D499427047894200
:1039200070471CF5801F08D5BCF5801FF7D58B426A
:1039300018BF704708BF824270474FF4001C1CEB51
:10394000410F38BF1CEB430F01D28B42704770B55B
:1039500000F0B2F8922449004FF000514FF080532C
:10396000FFF71CBEDFF848C170B51CEA111E1EBF70
:103970001CEA13159EEA0C0F95EA0C0F00F06F80FD
:1039800081EA030423EA4C134EEAD47E21EA4C1167
:1039900041F4801143F48013AE44A1FB024CA0FB20
:1039A0000365AEF17F7E361955EB0C05A1FB034C88
:1039B0004CF10003A0FB021C16EB0C06654153F111
:1039C0000003094218BF46F0010613F4007F0BD133
:1039D0004FEA03314FEA0530340341EA155140EA1A
:1039E00016506FF003020AE04FEAC3214FEAC520E8
:1039F000F40241EA555140EA56506FF0020202EBE0
:103A00002E4201EB025585EACE710AD05FEA440CE2
:103A100018BF24F0004450F1000041F1000120EAF9
:103A2000D47040F2FE7C624500D270BDA84214BF43
:103A30004FF080444FF04044002E08BF0024BEF1F8
:103A4000806FA8BFA1F1C041BDE8704080F28280C4
:103A50004FF0000001F1C04101F0004170479EEAC3
:103A60000C0F0CEA131518BF95EA0C0F06D04FF097
:103A7000000081EA030E0EF0004170BD00F01CF85A
:103A80008900013E00F007B800F009B84FEA430C86
:103A90005FEA5C5C08D081EA030100F05BB84FEAA2
:103AA000410C5FEA5C5CF6D14FF0000001497047C1
:103AB0000000FF070000F87F0EF1020E2EF0030E4B
:103AC0005EF8046B364205D4012A43EB030515F575
:103AD000001F12D8012841EB010C1CF5001F0CD867
:103AE0000ED14FEAD17C15F5001F0CEB4C0C0CF1FC
:103AF000020C08BF4CEBD37C04E04FF0080C01E053
:103B00004FEAD37C0CEB4C0526FA05F606F00706C7
:103B1000B6F1040C06D20EEB860CBDE870404CF0FA
:103B2000010C6047DFE80CF0090B02024FF0004186
:103B30004FF00000A1F5002170BD19461046012884
:103B400051EB010418BFD4F5001484BF002001F02C
:103B5000004170BD0808A0F500114FEA310170471F
:103B600053EA010C17D41CF5801F58BFBCF5801F09
:103B700000F106808B4218BF704708BF8242704731
:103B800007D713F5801F58BF11F5801F19D48B423A
:103B900070479B4270471CF5801F08D5BCF5801FFD
:103BA000F7D5994218BF704708BF904270474FF44D
:103BB000001C1CEB430F38BF1CEB410F01D2994294
:103BC00070470FB40CBC03BCFFF7C1BE91EA030FF2
:103BD00010B581F000413FF541AC83F0004300F0A7
:103BE00009B8000010B591EA030F48BF83F0004305
:103BF0003FF534AC841A71EB030C07D212198CF028
:103C0000004C43EB0C03001B61EB0C01DFF8A4E15B
:103C10004FEA1154A4EB135C1EEA430F18BF9EEA4F
:103C2000445F00F0B08023EA6E03524221EA04515F
:103C3000C3EB6E0338BF5B1EDCF1200E25D322FAE6
:103C40000CFE10EB0E0043FA0CFE41EB0E01CCF122
:103C5000200E03FA0EFE10EB0E0051F10001CCF124
:103C6000200E29D412FA0EF201EB0451BDE81040E7
:103C700058BF7047401C1CBFB2F1004F704700286E
:103C80000CBF491C20F00100704712EB020E43EB01
:103C9000030218BF4FF0010E4EEA4202ACF1200CB5
:103CA000DCF11E0E54D943FA0CFE10EB0E0051F15C
:103CB000FF31CCF11E0ED5D50EF1010E12FA0EFE1B
:103CC000404141EB010101EB445C5FEA5C5C10D9CF
:103CD00010EBDE7001EB045138BFBEF1004FBDE8C0
:103CE000104018BF704700280CBF491C20F001008D
:103CF000704730D24FEAD42C11F5001124F400643F
:103D00001BD0B1FA81F20B3AA41AA41ED2F12003FF
:103D1000914030FA03F31943904001EBCC71002C31
:103D200001EB0451BDE81040A8BF704701F1C0414C
:103D30004FF0000001F000417047B0FA80F310FA34
:103D400003F100D110BDE41A173C4805C90AE4E7A5
:103D500001EB045110BD491001EB0451BDE81040C6
:103D60004FEA300002E04FF0000170474A0008BF00
:103D70000042F8D0B2F5001F28BF704701F00041A3
:103D80004FF0000070479EEA445F07D011EA5E0FD3
:103D9000BDE8104004BF002100207047BDE810407E
:103DA00070B5FFF789FE00BF40DFF63E83F00041AB
:103DB000104670470000E0FF43004FEAD30C4FEA83
:103DC0003C0C43401FBF40070CF1605113F0FE4F05
:103DD00070471CF0006F03D100200CF000417047C9
:103DE0000CF0004343EA507010B540EACC0000F0FC
:103DF0003AF900BF000000924FEA0001FFF7AABEA7
:103E00004FF000414FF00000A1F500217047000085
:103E100090EA010F48BF81F0004100F18081421A11
:103E20003CBF801A89184FEAD0524FF07F4C1CEAF1
:103E3000410FA2EBD15318BF9CEA026F00F03B8008
:103E40004FF0004C4CEA00204CEA012121FA03FC1F
:103E500010EB0C0C1ED202F1FF325FEA1C2040EB8B
:103E6000C25038BF70471CF07F0F4FEA400C18BF9C
:103E7000BCF17F4F38BF7047C3F12003994008BFA2
:103E800020F00100BCF17F4F38BF7047A0F1C04067
:103E900000F02FB94FEA3C00000A40EBC25028BFA7
:103EA0001CF0FF0F4FEA400CE6D018BFBCF17F4F6B
:103EB00038BF7047EAE79CEA026F05D010EA5C0F52
:103EC00008BF00F00040704710B500F0CCF800BF0C
:103ED00064FBBE3E41000B0ED3F19E0208D950F4A4
:103EE00000034FEA032323FA02F048BF4042704721
:103EF00010B500F0B8F800BF499224800020704748
:103F00006FF0004282EA20007047000010F000418C
:103F100048BF4042B0FA80F310FA03F2C3F19D03A8
:103F20000BD051EAC35101EB1220530638BF704742
:103F300000F1010008BF20F001007047B0FA80F3E3
:103F400010FA03F2C3F19D030AD0D90501EB122048
:103F5000530638BF704700F1010008BF20F0010090
:103F6000704700004FF47F0C1CEAD0121EBF1CEA01
:103F7000D11392EA0C0F93EA0C0F00F0478090EAFD
:103F8000010F48BF42F480724FF0004C4CEA002011
:103F90004CEA012102EB0302A0FB0113A2F500028F
:103FA000002918BF43F001035B0028BF4FEA330329
:103FB00042EB22425FEA132C4CEBC2502EBFBCEB0B
:103FC000436FB2F57C0F70474FEA036CBCF1004FB2
:103FD00008BF20F00100B2F57C0F38BF70470BD549
:103FE00082F0FF0212F5803FC8BF704700F1C04069
:103FF000D8BF00F00040704700F5000C5FEA4C0CA1
:1040000048BF7047B0F1C04000F073B890EA010FAC
:104010000CEAD11348BF42F48072624538BF634551
:1040200004D280EA010000F00040704710B500F0B3
:104030001AF800BF8900013E00F007B800F009B887
:104040005FEA410C5FEA1C6C08D080EA010000F0D6
:1040500050B85FEA400C5FEA1C6CF6D14FF00040AC
:10406000A0F5800070470EF1020E2EF0030E5EF8F0
:10407000044B244204D44FEA4102B2F17F4F11D8DD
:104080004FEA4003B3F17F4F0CD80ED14FEAD07CFA
:10409000B2F17F4F0CEB4C0C0CF1020C08BF4CEB57
:1040A000D17C04E04FF0080C01E04FEAD17C0CEB2E
:1040B0004C0324FA03F404F00704B4F1040C06D210
:1040C0000EEB840CBDE810404CF0010C6047DFE8BB
:1040D0000CF0070802024FF00040A0F5800010BD70
:1040E0000846420018BFD2F1807288BF00F000403D
:1040F00010BDFF2141EAD050C005704780F000405C
:1041000090EA010F7FF58BAE81F0004100F007B817
:1041100090EA010F48BF81F000413FF580AE421A9E
:1041200004D882F00042A0EB020011444FEAD052C2
:104130004FF07F4C1CEA410FA2EBD15318BF9CEA11
:10414000026F4AD04FF0004C4CEA00204CEA0121AB
:1041500021FA03FCB0EB0C0C0FD412F0FE0F36D09A
:104160005FEA4C001DD5001240EBC25038BF7047CB
:104170001CF03F0F18BF70470BE0A2F101025FEA8D
:104180001C2040EBC25038BF70471CF07F0F18BF97
:104190007047C3F12003994014BF401E20F0010076
:1041A000704780084FEA122308BF7047B0FA80FCBE
:1041B000A2EB0C02CCF1280C60FA0CF093EA122F5F
:1041C00004BF00EBC25070474FEAC3707047130A38
:1041D0005FEADC1008BF7047F6E79CEA026F04D084
:1041E00010EA5C0F08BF0020704710B5FFF73BFFD7
:1041F00040DFF63E81F00040704700001C4200089E
:1042000000000020B80000006C010008D442000843
:10421000B8000020F008000088010008020000003B
:104220000000000000010204030000007F00000005
:10423000000000000000000000000000000000007E
:104240000000000000A24A0400000000000000007E
:104250000102030406070809000000000000000036
:1042600000000000000000000000000090010000BD
:104270009001000090010000900100002003000068
:1042800020030000200300002003000000000000C5
:10429000000000000000000000000000010000001D
:1042A000000000000000000000000000000000000E
:1042B00000000000000000000000000000000000FE
:1042C00000000000010203040102030406070809BC
:0442D00002040608D6
:04000005080001D519
:00000001FF
