:020000040800F2
:1000000098090020D5010008050E0008FD0D000824
:10001000010E00087D0400088B1A00080000000093
:10002000000000000000000000000000D1100008E7
:100030007B0A000800000000B50E0008E51100086A
:10004000EF010008EF010008EF010008EF010008D0
:10005000EF010008EF010008EF010008EF010008C0
:10006000EF010008EF010008EF010008EF010008B0
:10007000EF010008EF010008EF010008EF010008A0
:10008000EF010008EF010008EF010008EF01000890
:10009000EF010008EF010008EF0100087D0A0008E9
:1000A000EF010008EF010008EF010008EF01000870
:1000B000EF0100084912000879130008EF01000859
:1000C000EF010008EF010008EF010008EF01000850
:1000D000EF010008A51700083D180008EF0100080F
:1000E000EF010008EF010008EF010008EF01000830
:1000F000EF010008EF010008EF010008EF01000820
:10010000EF010008EF010008EF010008EF0100080F
:10011000EF010008EF010008EF010008EF010008FF
:10012000EF010008EF010008EF010008EF010008EF
:1001300000F002F800F03FF80AA090E8000C8244BA
:100140008344AAF10107DA4501D100F034F8AFF297
:10015000090EBAE80F0013F0010F18BFFB1A43F0A5
:1001600001031847AC340000CC340000103A24BF1F
:1001700078C878C1FAD8520724BF30C830C144BF0C
:1001800004680C607047000000230024002500264E
:10019000103A28BF78C1FBD8520728BF30C148BFEA
:1001A0000B607047642900F07F80002070471FB506
:1001B0001FBD10B510BD00F02EF91146FFF7F7FF77
:1001C00001F0BEFE00F04CF903B4FFF7F2FF03BCF0
:1001D00001F078FC0948804709480047FEE7FEE740
:1001E000FEE7FEE7FEE7FEE7FEE7FEE7FEE7FEE7E7
:1001F00004480549054A064B70470000E91100080C
:10020000310100089803002098090020980500207B
:1002100098050020704700000FB41CB5074B06AAD4
:100220007B4469460090059800F0DDF8002069469F
:1002300000F0ECF81CBC5DF814FB0000E9010000C4
:100240002DE9F0410E460446002020622046E16878
:10025000884730B3252805D0D4E901219047206A8A
:10026000401CF2E7E168204600278847050018D0C7
:10027000A5F14100192802D820354FF40067324615
:10028000294620462760FFF78DFF40B1012804D0A2
:10029000F61D26F007060836D8E7361DD6E72846AD
:1002A000DAE7206ABDE8F0812DE9F0410646002436
:1002B00010687529314616A510D0AFF300800028CC
:1002C00002DA404213A507E031688A0701D512A57A
:1002D00002E0490704D511A5012401E0AFF3008035
:1002E00000210A2206F1240709E0B0FBF2FCB0FB72
:1002F000F2F302FB1C00303078541846491C0028E9
:10030000F3D123462A463046BDE8F04100F00CB850
:10031000000000002D0000002B0000002000000065
:1003200070477047704770472DE9F0470D46994672
:100330009246044600F124080168880604D5E06965
:1003400021F01001216000E00120A84201DD471BDF
:1003500000E00027A1697A1902EB0900081AA061E0
:100360002078C00602D42046AFF30080002608E0C3
:10037000D4E901211AF806009047206A401C761C37
:1003800020624E45F4DB2078C0060AD52046AFF344
:10039000008006E0D4E9012130209047206A401C0B
:1003A0002062381EA7F10107F4DC07E0D4E901213F
:1003B00018F805009047206A401C2062281EA5F10D
:1003C0000105F3DC2046AFF300802078000602D55B
:1003D0000220BDE8F0870120FBE7000001694A1C0C
:1003E00002610878704700B58FB0CDE90131002176
:1003F000059105497944CDE9031011466846FFF798
:100400001FFF0FB000BD0000E5FFFFFF0A6802F804
:10041000010B0A607047754600F02CF8AE460500E7
:100420006946534620F00700854618B020B5FFF70F
:10043000DFFEBDE820404FF000064FF000074FF010
:1004400000084FF0000B21F00701AC46ACE8C009F2
:10045000ACE8C009ACE8C009ACE8C0098D467047FB
:1004600010B50446AFF300802046BDE81040FFF70A
:10047000ABBE0000004870473403002000BFFEE719
:100480002DE9F04F8FB004468846164600200D90A7
:100490008146824683460C9000271FE07D1C18F899
:1004A0000700012819D106E018F80500012801D13C
:1004B0006D1C00E001E0B542F6DB00BFA5EB070ACA
:1004C000CA4506DDBB46681E0C90D14600200D9043
:1004D00003E0CA4501D101200D902F46B742DDDB74
:1004E0000D9860610C982060C4F804B0C4F80890BE
:1004F000304602F0F9FE019002F028FE00224FF093
:100500008043CDE9020102F019FB0022244BCDE922
:10051000040102F031FDCDE908010C9901EB0B005B
:1005200002F0CAFE039002F011FE00224FF0804359
:10053000CDE9040102F002FBCDE90601DDE9082363
:1005400002F01AFDCDE90A0102F012FAE060002083
:100550002061082E21D1A06805281CDB0120206124
:10056000E06802F0F3FD00220D4BCDE90A0102F034
:10057000CDFC05D86168481C02F09EFEE0600CE0EE
:100580000849E06802F0C4FE07D82168481E02F05E
:1005900093FEE06001E0002020610FB0BDE8F08F25
:1005A0000000E03F000080BF2DE9F04F89B0824697
:1005B000894600240020059006900790089004903A
:1005C000B9F1000F02D0B9F1020F76D1BAF1000FE4
:1005D00077D101208DF8100004A800F0F7FCB9F1E4
:1005E000000F2ED1EC484069C0B1EC480068401CB7
:1005F000EA49086008460068032802DCE848046805
:100600004DE0E6480068032805DDE548006800285D
:1006100001DD3C2443E06FF03B0440E0DE48C1686C
:10062000E04801F053FC0646DF4902F0A5FE05460E
:1006300002F026FE04460020D8490860D84804602D
:100640002DE0D5484069C0B1D4480068401CD3496A
:10065000086008460068032802DCD14804681EE0F0
:10066000CE480068032805DDCD480068002801DD7C
:100670003C2414E06FF03B0411E0C748C168C9484E
:1006800001F024FC0646C84902F076FE054602F059
:10069000F7FD04460020C1490860C148046060427B
:1006A0000790089405A9484601F0C0FFBA480069C0
:1006B00028B1012009B0BDE8F08FF3E001E000208F
:1006C000F8E7BAF1020F75D101208DF812008DF80C
:1006D00013008DF8100004A800F078FCB9F1000FA9
:1006E0006AD1B2488068012803DCB14880680128DB
:1006F00010DDAE484069D8B1AD484069C0B1A748E7
:100700000068401CA549086008460068032802DC10
:10071000A3480468B8E0A1480068032805DDA048A4
:100720000068002801DD3C24AEE06FF03B04ABE044
:100730009E48406968B19E48C1689A4801F0C6FB6E
:100740000646994902F018FE054602F099FD044656
:100750009AE09748406968B19448C168914801F0AF
:10076000B5FB0646904902F007FE054602F088FDFB
:10077000044689E08E4AD1688C4AD06802F012FDA6
:10078000019002F0E3FC074600224FF0804302F0A4
:10079000D5F9054602F0ECF801460290814801F0D7
:1007A00095FB8346804902F0E7FD039002F068FD67
:1007B000044669E0EBE0FFE77C488068012803DC41
:1007C0007B48806801285FDD78484069D8B1784867
:1007D0004069C0B171480068401C70490860084613
:1007E0000068032802DC6E4804684DE06B4800682E
:1007F000032805DD6A480068002801DD3C2443E049
:100800006FF03B0440E06948406968B16848C168DE
:10081000684801F05BFB0646634902F0ADFD054602
:1008200002F02EFD04462FE06148406968B15F4840
:10083000C168604801F04AFB06465B4902F09CFD36
:10084000054602F01DFD04461EE0594AD168574A8C
:10085000D06802F0A7FC019002F078FC0546002267
:100860004FF0804302F06AF9074602F081F8014632
:100870000290504801F02AFB4B49039002F07CFDA6
:10088000834602F0FDFC044660420790089405A9E7
:10089000484601F0CBFE4048006908B1012009E755
:1008A000002007E7BAF1010F74D101208DF8110083
:1008B00004A800F08BFBB9F1010F2ED13E4840692E
:1008C000C0B136480068401C3449086008460068DA
:1008D000032802DC324804684DE0304800680328F1
:1008E00005DD2F480068002801DD3C2443E06FF05F
:1008F0003B0440E03048C168304801F0E7FA064662
:10090000294902F039FD054602F0BAFC04460020F0
:1009100022490860224804602DE027484069C0B1A0
:100920001E480068401C1D490860084600680328EE
:1009300002DC1B4804681EE018480068032805DD37
:1009400017480068002801DD3C2414E06FF03B04E8
:1009500011E01948C1681A4801F0B8FA0646124970
:1009600002F00AFD054602F08BFC044600200B490C
:1009700008600B48046005946042069005A948464B
:1009800001F054FE0C48006910B1012092E601E02C
:1009900000208FE600208DE6A00000203C00002013
:1009A00038000020000100200000A041D0000020FD
:1009B000E80000201C010020B800002038010020C1
:1009C0005401002010B500F0F3F910BD10B51C481B
:1009D00001F01AFD1B4801F017FD1B4801F014FD42
:1009E0001A4801F011FD0021154801F016FD002103
:1009F000144801F012FD0021144801F00EFD002101
:100A0000114801F00AFD00231A464FF07E510C48B0
:100A100001F005FD00231A464FF07E51094801F010
:100A2000FEFC00231A464FF07E51084801F0F7FC07
:100A300000231A464FF07E51034801F0F0FC10BD30
:100A4000000100201C01002038010020540100207A
:100A500010B5002140F2833000F00EFC4FF44873D3
:100A60001A461946184600F01BFA4FF4C8731A4686
:100A70001946184600F00AFA10BD704710B54FF439
:100A8000007000F03FF820B34FF4007000F034F82D
:100A90001548006800F40070E0B914480078C8B147
:100AA000134800F0B4FC04460020104908701148B7
:100AB0000088A04208DD0F480088201A44F6206113
:100AC00008440C49088004E00A480088201A0949B3
:100AD000088007E0012005490870054800F097FCF0
:100AE0000449088010BD0000081801406E00002075
:100AF000000C00406C0000200149086070470000B5
:100B000014040140014600200022074B1B6803EA41
:100B10000102054B14331B680B4013B10AB10120CD
:100B200000E000207047000000040140002123493C
:100B30008279002A3AD00A46126803689A430B4623
:100B40001A600A1D126803689A430B1D1A60027925
:100B500011440A6803681A430A60184A0832126886
:100B600003689A43154B08331A601A1D126803680C
:100B70009A43124B0C331A604279102A0ED11A1F75
:100B8000126803681A430D4B08331A601A1D126865
:100B900003681A43094B0C331A600DE00749427988
:100BA00011440A6803681A430A6005E00279114497
:100BB0000A6803689A430A60704700000004014015
:100BC00030B500228B071C0F0F2303FA04F20B4BE6
:100BD0008C1053F824309343084C8D1044F8253082
:100BE00023468C1053F824308C07240F00FA04F4A9
:100BF0002343024C8D1044F8253030BD08000140DD
:100C00002DE9F041024600250026002000230024A3
:100C1000002791F803C00CF00F0591F803C00CF009
:100C2000100CBCF1000F03D091F802C04CEA05058E
:100C300091F800C0BCF1000F31D0146800202BE007
:100C40004FF0010C0CFA00F3B1F800C00CEA0306F7
:100C50009E4220D183004FF00F0C0CFA03F7BC43E7
:100C600005FA03FC4CEA040491F803C0BCF1280F18
:100C700006D14FF0010C0CFA00FCC2F814C00AE0D7
:100C800091F803C0BCF1480F05D14FF0010C0CFAEC
:100C900000FCC2F810C0401C0828D1D31460B1F881
:100CA00000C0BCF1FF0F34DD546800202EE000F1DD
:100CB000080C4FF0010808FA0CF3B1F800C00CEA78
:100CC00003069E4221D183004FF00F0C0CFA03F76C
:100CD000BC4305FA03FC4CEA040491F803C0BCF1E0
:100CE000280F05D100F1080C08FA0CF8C2F814809E
:100CF00091F803C0BCF1480F07D100F1080C4FF088
:100D0000010808FA0CF8C2F81080401C0828CED35D
:100D10005460BDE8F0810000F0B50A4600230024CD
:100D20000021002500F00046B6F1004F02D11D4E13
:100D3000F16901E01B4E7168C0F3034583B200F412
:100D40004016B6F5401F08D121F07061154E766847
:100D500026F07066134F7E6012E000F48016B6F540
:100D6000801F06D1032606FA05F4A14341F0706105
:100D700006E0460D360103FA06F6B14341F0706114
:100D800022B1460D360103FA06F6314300F0004663
:100D9000B6F1004F02D1034EF16101E0014E7160E6
:100DA000F0BD0000000001404161704701617047E3
:100DB00008B50121602000F08FF84FF4FF40ADF836
:100DC000000004208DF8030003208DF8020069461E
:100DD0000848FFF715FF4FF6FF70ADF8000004203C
:100DE0008DF8030003208DF8020069460248FFF7E2
:100DF00007FF08BD001801400014014000BFFEE7D6
:100E000000BFFEE77047000070B5002100230F22ED
:100E1000C47804B3154C246804F4E064C4F5E064B9
:100E2000210AC1F10403CA40447804FA03F184782A
:100E30001440214309010E4C0678A155047804F0B2
:100E40001F050124AC4005786D11AD0005F1E025CA
:100E5000C5F8004109E0047804F01F050124AC4006
:100E6000044D0678761145F8264070BD0CED00E083
:100E700000E400E080E100E002490143024A116021
:100E8000704700000000FA050CED00E010B5034CBF
:100E900020606160A260E36010BD0000400000209F
:100EA00010B5034C20606160A260E36010BD0000DB
:100EB000500000207047000029B1064AD269024361
:100EC000044BDA6104E0034AD2698243014BDA61E0
:100ED000704700000010024029B1064A926902439F
:100EE000044B9A6104E0034A92698243014B9A6180
:100EF000704700000010024030B50021002200249D
:100F000000232D4D6D6805F00C0121B1042905D099
:100F1000082923D105E0294D056022E0274D056011
:100F20001FE0254D6D6805F47012234D6D6805F4C2
:100F30008034022505EB92421CB9214D55430560D2
:100F40000BE01D4D6D6805F400351DB11C4D55437A
:100F5000056002E0194D5543056002E0174D05603C
:100F600000BF00BF144D6D6805F0F0010909154D73
:100F70006B5C0568DD4045600F4D6D6805F4E06110
:100F8000090A104D6B5C4568DD4085600A4D6D684F
:100F900005F46051C90A0B4D6B5C4568DD40C560C6
:100FA000054D6D6805F44041890B074D6B5CC568C4
:100FB000B5FBF3F5056130BD0010024000127A0068
:100FC00000093D008C0000209C00002010B586B078
:100FD0000446002004900590029003900190009038
:100FE000207838B104A800F02DF8082204A911488F
:100FF000FFF746FA607838B102A800F035F8082209
:1010000002A90D48FFF73CFAA07838B101A800F01A
:101010003BF8042201A90948FFF732FAE07838B119
:10102000684600F043F8042269460548FFF728FAAD
:1010300006B010BDA0000020B8000020D0000020A5
:10104000E80000200146002008E0C21D054B03EB2C
:101050008202D2F800210A54421CD0B20828F4DBE4
:1010600070470000000023420146002007E0054BC6
:1010700003EB8002D2F800210A54421CD0B20828A7
:10108000F5DB7047008022420146002009E000F1B4
:101090000802054B03EB8202D2F800210A54421CDD
:1010A000D0B20428F3DB70470080224201460020C2
:1010B00009E000F10C02054B03EB8202D2F800219B
:1010C0000A54421CD0B20428F3DB7047008022424D
:1010D000704710B500F002F810BD00000CB50020FC
:1010E000019000903348006840F480303149086036
:1010F00000BF3048006800F4003000900198401CA8
:101100000190009818B90198B0F5A06FF1D1294865
:10111000006800F4003010B10120009001E00020D0
:1011200000900098012843D12348006840F0100047
:10113000214908600846006820F00300086008465E
:10114000006840F0020008601A4840681949486089
:101150000846406848600846406840F4806048603F
:101160000846406820F47C1048600846406840F417
:10117000E81048600846006840F08070086000BFD2
:101180000C48006800F000700028F9D00948406859
:1011900020F00300074948600846406840F002001C
:1011A000486000BF0348406800F00C000828F9D1EF
:1011B0000CBD00000010024000200240042808D1AD
:1011C0004FF0E021096941F004014FF0E022116184
:1011D00007E04FF0E021096921F004014FF0E0221F
:1011E000116170477047000010B51348006840F067
:1011F00001001149086008464068104908400E493E
:101200004860084600680E4908400B4908600846D7
:10121000006820F4802008600846406820F4FE0042
:1012200048604FF41F008860FFF753FF4FF00060E5
:101230000449086010BD0000001002400000FFF8E3
:10124000FFFFF6FE08ED00E010B50121084800F0B0
:10125000E1F858B10121064800F0CAF805480068D5
:1012600008B9012000E000200249086010BD00001C
:10127000000400409401234230B589B005460C4675
:1012800001210220FFF718FE012140F21510FFF79F
:1012900023FE01213348FFF73FFD4FF47070ADF896
:1012A000200018208DF8230003208DF8220008A9C3
:1012B0002D48FFF7A5FC4FF4E070ADF8200010209A
:1012C0008DF8230003208DF8220008A92748FFF796
:1012D00097FC08A92548FFF793FC08A92448FFF7C5
:1012E0008FFC08A92148FFF78BFCADF81850ADF82A
:1012F00014400020ADF81A00ADF8160005A91D48ED
:1013000000F0FEF97020ADF804000120ADF80600F1
:101310000020ADF80C0001A9164800F08DF801A9D5
:10132000144800F0DFF801A9124800F03BF901A9C8
:10133000104800F091F908210E4800F0C9F8082182
:101340000C4800F021F908210A4800F07BF9082137
:10135000084800F0BFF90121064800F04CF809B038
:1013600030BD0000000C1A000010014000200140B8
:10137000000801400004004010B501210C4800F0B5
:1013800049F858B101210A4800F032F809480068CC
:1013900008B9012000E000200649086006480078EE
:1013A000012804D105480078401C0449087010BD8C
:1013B00000080040940123426000002061000020EA
:1013C0003EB504460D46ADF80050ADF8044000208F
:1013D000ADF80600ADF802006946044800F090F947
:1013E0000121024800F007F83EBD0000000C00405B
:1013F000CA430282704721B1028842F00102028092
:1014000004E002884FF6FE731A40028070470146DE
:10141000888C704730B50246002000230024158ACE
:1014200005EA0103958905EA010413B10CB1012015
:1014300000E0002030BD000070B500240022002331
:10144000058C4FF6FE7635400584028C8388048B2C
:101450004FF68F752C40B51E2C400D882C43751E01
:101460002A400D892A434D882A43144DA8420BD0A7
:10147000134DA84208D0134DA84205D0124DA842E2
:1014800002D0124DA84213D14FF6F7752A404D896C
:101490002A434FF6FB752A408D882A434FF6FF6595
:1014A0002B404FF6FF552B408D892B43CD892B4385
:1014B00083800483CD888586028470BD002C014022
:1014C0000034014000400140004401400048014018
:1014D0000A460021018B4FF6F7731940114301832F
:1014E0007047000070B5002400220023058C4FF6E1
:1014F000EF7635400584028C8388048B48F6FF75AF
:101500002C404FF6FF452C400D884FF6FF7606EA3B
:1015100005252C434FF6DF752A400D8906EA05158F
:101520002A434D8806EA05152A43154DA84202D0E4
:10153000144DA8421DD14FF67F752A404D894FF6B4
:10154000FF7606EA05152A434FF6BF752A408D88B7
:1015500006EA05152A434FF6FF352B404FF2FF757B
:101560002B408D8906EA85052B43CD8906EA850542
:101570002B4383800483CD880587028470BD0000DF
:10158000002C0140003401400A460021018B4FF23B
:10159000FF7319404FF6FF7303EA022319430183D7
:1015A0007047000070B5002400220023058C4FF620
:1015B000FF6635400584028C8388848B4FF68F75D7
:1015C0002C404FF6FC752C400D882C434FF6FF55F0
:1015D0002A400D894FF6FF7606EA05252A434D88F5
:1015E00006EA05252A43154DA84202D0144DA8420B
:1015F0001DD14FF2FF752A404D894FF6FF7606EA5E
:1016000005252A434FF6FF352A408D8806EA052531
:101610002A434EF6FF752B404DF6FF752B408D8902
:1016200006EA05152B43CD8906EA05152B43838071
:101630008483CD888587028470BD0000002C014022
:10164000003401400A460021818B4FF6F7731940A0
:10165000114381837047000070B5002200230024ED
:10166000058C4EF6FF7635400584038C8488828B8A
:1016700048F6FF752A404FF6FF452A400D884FF681
:10168000FF7606EA05252A434DF6FF752B400D89A6
:1016900006EA05352B434D8806EA05352B430B4DED
:1016A000A84202D00A4DA84208D14BF6FF752C4043
:1016B0008D894FF6FF7606EA85152C438480828358
:1016C000CD88A0F84050038470BD0000002C01407C
:1016D000003401400A460021818B4FF2FF7319400C
:1016E0004FF6FF7303EA0223194381837047818613
:1016F00070470187704781877047A0F84010704796
:10170000002202881D4B98420ED01D4B98420BD0F0
:10171000B0F1804F08D01B4B984205D01A4B98422D
:1017200002D01A4B984204D14FF68F731A404B885F
:101730001A43174B984207D0164B984204D04FF6E5
:10174000FF431A40CB881A4302808B8883850B881D
:1017500003850A4B98420BD0094B984208D00E4B98
:10176000984205D00D4B984202D00D4B984201D1C2
:101770000B7A03860123838270470000002C01400E
:10178000003401400004004000080040000C00400C
:10179000001000400014004000400140004401409F
:1017A0000048014010B540F22551214800F0A9F849
:1017B00010B31F4800F060F9C4B21E48008800F45E
:1017C0000040C8B91B48008800F4804060B10A2C72
:1017D00003D000201749088020E01648008840F414
:1017E00000401449088019E00D2C06D111480088EA
:1017F00040F480400F49088010E00E480088C0F394
:101800000D000D490C540B480088401C0949088004
:1018100008460088C72801DD0020088005480088A8
:1018200000F40040B0F5004F01D100F0D9F910BD2F
:101830000038014088000020A201002010B540F2CD
:101840002551204800F05DF810B31E4800F014F94F
:10185000C4B21D48008800F40040C8B91A48008886
:1018600000F4804060B10A2C03D0002016490880A3
:1018700020E01548008840F400401349088019E032
:101880000D2C06D11048008840F480400E49088095
:1018900010E00D480088C0F30D000C490C540A48B4
:1018A0000088401C0849088008460088C72801DDD8
:1018B000002008800448008800F4004008B100F0CF
:1018C00005F910BD004400408A0000206A02002093
:1018D00021B1828942F40052828104E082894DF66E
:1018E000FF731A408281704702460020B1F5007FE5
:1018F00000D100BF13880B400BB1012000E0002095
:10190000704770B50246002400230025002040F6F1
:101910006A16B14200D100BFC1F3421501F01F03A6
:10192000012606FA03F3012D02D19689334006E021
:10193000022D02D1168A334001E0968A33400C1200
:10194000012606FA04F41688344013B10CB10120C4
:1019500000E0002070BDF0B50346002400260025FD
:10196000002040F66A17B94200D100BF1846C1F303
:10197000421401F01F06012707FA06F5012C01D1D8
:101980000C3004E0022C01D1103000E014301AB108
:1019900007682F43076002E00768AF430760F0BDA8
:1019A0002DE9F04786B005460E460024A24600BF4A
:1019B000A1460027B08900B100BF2F462C8A4CF603
:1019C000FF700440F08804432C82AC894EF6F3107B
:1019D0000440B08831890843718908430443AC81CD
:1019E000AC8A4FF6FF400440B0890443AC8201A8A2
:1019F000FFF782FA1F48874202D1DDF810A001E00C
:101A0000DDF80CA0A88900F4004040B10AEBCA0040
:101A100000EB0A1031684900B0FBF1F807E00AEB6F
:101A2000CA0000EB0A1031688900B0FBF1F86420AD
:101A3000B8FBF0F004012009642101FB1089A8899A
:101A400000F4004040B1322000EBC900B0FBF1F0DF
:101A500000F00700044308E0322000EB0910642185
:101A6000B0FBF1F000F00F0004432C8106B0BDE89C
:101A7000F08700000038014001468888C0F3080064
:101A80007047C1F308028280704700BFFEE770B55F
:101A900005460C4612E000BF80212846FFF724FFD0
:101AA0000028F9D021782846FFF7EBFF00BF40213E
:101AB0002846FFF719FF0028F9D1641C2078002878
:101AC000E9D170BD014600BF704700001B4A128873
:101AD00002F40042002A2FD0184A1288C2F30D01E6
:101AE000174A1278432A02D0532A21D10FE008293D
:101AF0000CD16422124B1A70002005E0114A125CCE
:101B0000114B1A54421CD0B28842F7DB10E0012975
:101B10000DD174220A4B1A70002005E0094A125CAC
:101B20000A4B1A70421CD0B28842F7DB00E000BFBB
:101B300000BF0022014B1A80704700008A0000207D
:101B4000620000206A020020630000206B00002079
:101B500010B56FF00400FFF731FB0A4800680A492E
:101B6000B0FBF1F0094908700846007800EB40012D
:101B7000C1EBC0104FF6FF7101EAC00004490880B4
:101B800010BD00002400002000127A007000002028
:101B9000720000200146114A12884A434FF0E023A8
:101BA0005A6100229A611A46126942F001021A61D2
:101BB00000BF4FF0E022106900F001021AB100F4FA
:101BC0008032002AF5D04FF0E022126922F00102A3
:101BD0004FF0E0231A6100229A61704772000020E2
:101BE00010B5AB480088C0F30D00AA490880AA4888
:101BF0000078502878D008DC422876D0462875D066
:101C0000472874D04C2873D108E0522874D061283A
:101C100070D063286FD07328F5D1C3E09E48407818
:101C2000722837D19D48007810B901209B4908706F
:101C300020219B48FFF7B8F84FF4FA70FFF7AAFF8E
:101C400020219748FFF7B2F84F219648FFF719FF78
:101C500000BF40219348FFF747FE0128F9D14B21EF
:101C60009048FFF70EFF00BF40218E48FFF73CFE73
:101C70000128F9D140F60A518A48FFF702FF00BF58
:101C800040218848FFF730FE0128F9D10020804923
:101C9000088028E080484078712824D14C21814870
:101CA000FFF7EFFE00BF40217E48FFF71DFE012831
:101CB000F9D172217B48FFF7E4FE00BF402179484B
:101CC000FFF712FE0128F9D140F60A517548FFF7D7
:101CD000D8FE00BF40217348FFF706FE0128F9D166
:101CE00000206B490880CDE014E04DE020E02AE0C0
:101CF000C7E001E032E07DE067484078722808D113
:101D00006948007810B901206749087000206049CF
:101D10000880B7E060484078722808D163480078AE
:101D200010B9012061490870002059490880A9E0D4
:101D300059484078722805D101205D49087000207B
:101D4000534908809EE054484078722805D101200C
:101D50005849087000204E49088093E0012256A19E
:101D60005648FEF759FA55494E48FFF790FE40F69F
:101D70000A514C48FFF785FE00BF40214948FFF754
:101D8000B3FD0128F9D17DE043484078722808D19D
:101D90004B48007810B901204949087000203C499F
:101DA00008806FE001204749087019E073213D4821
:101DB000FFF767FE00BF40213A48FFF795FD012875
:101DC000F9D140F60A513748FFF75BFE00BF4021CA
:101DD0003448FFF789FD0128F9D100202C490880FB
:101DE0002B48008800F4004018B12B480078732875
:101DF000DCD047E0284840786C2841D126488078DC
:101E000063283DD100202A490870244908702649DA
:101E100008702B4908702C4908702449087025491E
:101E200008702849087063211E48FFF72AFE00BF8A
:101E300040211C48FFF758FD0128F9D16C211948B1
:101E4000FFF71FFE00BF40211648FFF74DFD012898
:101E5000F9D163211348FFF714FE00BF4021114858
:101E6000FFF742FD0128F9D140F60A510D48FFF76E
:101E700008FE00BF40210B48FFF736FD0128F9D1CD
:101E800000E000BF00BF00200149088010BD000035
:101E90008800002080000020A201002077000020A0
:101EA000001801400038014078000020790000202F
:101EB0007A0000207B0000202564000070010020D3
:101EC0007C0000207E0000207D0000202DE9F84FDE
:101ED00004460D464FF08040216901F04DFA294635
:101EE000009001F015FB8346616901F05BF98246C1
:101EF000E16801F041FA80462169A06801F03CFAEE
:101F000000902846216901F00DFB8346616801F0CD
:101F100033FA8246009901F045F98146414601F0C5
:101F200041F907463946A06901F03CF906462069A7
:101F300060612561A66186F00040BDE8F88F000071
:101F4000FFF706FEFEF73EFDFEF740FDFEF780FDC3
:101F5000C820FFF71FFE4FF4A060FEF78DFF4FF47F
:101F6000165000F011FC4FF4165000F05DFC00F02C
:101F7000E9FC00F0ABFC472144F61F60FFF720FAB4
:101F80000020FE490870FE49086032E2FD480078F2
:101F9000FF2824D1FC48006808BB0020F7490870DE
:101FA000F749086019E0F6480168F4480078FEF740
:101FB000FBFA044674B1F5480068401CF349086018
:101FC00008460068032808DD0020EE490870EF4944
:101FD000086003E00020ED490860E4E709E2E94811
:101FE00000781528D1D1E84800680028CDD1E8480C
:101FF000E4490978405C012805D0E548E1490978C1
:10200000405C02280DD100BF0020DC490870DC498B
:10201000086005E0DA480168D8480078FEF7C4FA9D
:10202000F8E7D8480078032190FBF1F201FB120099
:1020300000285ED1D448006800285AD1D1480078E1
:1020400000F0E4FAD248CF490978405C012805D075
:10205000CF48CC490978405C022824D10020C749E8
:102060000870C74908601CE0C5480168C34800788B
:10207000FEF79AFA04468CB9C6480068401CC54968
:1020800008600846006803280BDDBE480078401C45
:10209000BC4908700020BF49086003E00020BD492A
:1020A0000860E1E7A5E10120B44908700320B449C4
:1020B00008601CE0B2480168B0480078FEF774FA86
:1020C00004468CB9B3480068401CB2490860084611
:1020D000006803280BDDAB480078801CA949087014
:1020E0000020AC49086003E00020AA490860E1E74D
:1020F0007FE1A4480078032190FBF1F201FB12007C
:1021000000287DD1A048006801287CD19D48007836
:1021100000F07CFA9E489B490978405C032805D072
:102120009B4898490978405C042822D100209349B3
:102130000870934908600846016890480078FEF7E7
:1021400033FA04468CB993480068401C91490860F2
:10215000084600680328A5DD8A480078401C8949A4
:10216000087000208B49086043E10020894908601D
:102170003FE189480078022822DA01207F4908706F
:102180007F490860084601687C480078FEF70CFA31
:1021900004468CB97F480068401C7E4908600846A8
:1021A00000680328A4DD77480078401E7549087050
:1021B0000020784908601CE100207649086018E199
:1021C00001206E49087003206D49086008460168C7
:1021D0006A480078FEF7E8F90446002C88D16D487B
:1021E0000068401C6B490860084600680328BBDD96
:1021F00064480078801C634908700020654900E04D
:1022000001E00860F5E05F480078032190FBF1F2FF
:1022100001FB1200022826D15B48006818BB012090
:10222000564908700320564908600846016853481B
:102230000078FEF7B9F904468CB154480068401C98
:10224000524908600846006803288DDD4D48007833
:10225000401C4C49087000204C490860C9E000202F
:102260004A490860C5E047480078032190FBF1F235
:1022700001FB120002284ED14348006801284AD1D0
:1022800045480078022822DA01203C4908703C4980
:1022900008600846016839480078FEF785F9044669
:1022A0008CB13A480068401C38490860084600680C
:1022B000032807DD33480078801E3249087000206B
:1022C0003249086095E000203049086091E0012023
:1022D0002A49087003202A490860084601682748EF
:1022E0000078FEF761F904468CB128480068401C6C
:1022F000264908600846006803287ADD21480078EE
:10230000401C2049087000202049086071E000202E
:102310001E4908606DE01B480078032190FBF1F234
:1023200001FB1200012864D1194816490978405C64
:10233000012805D0164813490978405C022802D1CB
:102340001148006878B112480E490978405C0328AA
:1023500005D00F480B490978405C042826D10A486B
:102360000068012822D1002004490870044908604F
:10237000084601680148007810E0000000000020D5
:10238000040000201000002014000020180000208D
:10239000080000201C00002020000020FEF704F9A7
:1023A00000211448144A1278815422E00020134975
:1023B0000870022012490860084601680F4800783A
:1023C000FEF7F2F804468CB10E480068401C0D4937
:1023D00008600846006803280BDD07480078401EA7
:1023E0000549087000200749086002E000200549FF
:1023F0000860CBE50800002010000020000000204D
:102400000400002018000020002141608160C160AC
:102410000160016141618161704701607047416005
:102420008260C3607047000070B50546002436E046
:1024300043217448FFF725FB00BF40217148FFF797
:1024400053FA0128F9D171216E48FFF71AFB00BF3A
:1024500040216C48FFF748FA0128F9D1294669481C
:10246000FFF70FFB00BF40216648FFF73DFA012848
:10247000F9D10D216348FFF704FB00BF40216148FB
:10248000FFF732FA0128F9D10A215E48FFF7F9FA7D
:1024900000BF40215B48FFF727FA0128F9D15A48CD
:1024A0000078432801D1052CC2DB002436E05321FB
:1024B0005448FFF7E6FA00BF40215248FFF714FAEC
:1024C0000128F9D171214F48FFF7DBFA00BF402105
:1024D0004C48FFF709FA0128F9D129464948FFF786
:1024E000D0FA00BF40214748FFF7FEF90128F9D193
:1024F0000D214448FFF7C5FA00BF40214148FFF7CE
:10250000F3F90128F9D10A213E48FFF7BAFA00BFD2
:1025100040213C48FFF7E8F90128F9D13A48007812
:10252000532801D1052CC2DB00242DE0432135487E
:10253000FFF7A7FA00BF40213248FFF7D5F901287D
:10254000F9D172212F48FFF79CFA00BF40212D4896
:10255000FFF7CAF90128F9D10D212A48FFF791FAAE
:1025600000BF40212748FFF7BFF90128F9D10A2110
:102570002448FFF786FA00BF40212248FFF7B4F94C
:102580000128F9D1601CC4B21F480078642801D129
:10259000052CCBDB00242DE053211A48FFF771FAFC
:1025A00000BF40211748FFF79FF90128F9D1722198
:1025B0001448FFF766FA00BF40211248FFF794F96C
:1025C0000128F9D10D210F48FFF75BFA00BF402128
:1025D0000C48FFF789F90128F9D10A210948FFF7CA
:1025E00050FA00BF40210748FFF77EF90128F9D1D2
:1025F000601CC4B204480078742801D1052CCBDBE0
:1026000070BD0000004400406200002010B5044688
:102610004320054908702046FFF706FF00BF024827
:1026200000784328FBD010BD6200002070B505463D
:102630000C46284605EBD0714910A5EB4101002955
:102640004CD1012D19DD80214B48FEF7AFFB4FF433
:1026500080714948FEF7AAFB484800882288104448
:1026600081B24748FFF743F844488088A288104465
:1026700081B24348FFF73DF81EE080213E48FEF757
:1026800093FB4FF480713C48FEF78EFB3B4800887B
:1026900040F28332101A2288801A81B23848FFF73C
:1026A00026F83648808840F28332101AA288801AB1
:1026B00081B23348FFF71DF84FF480713148FEF7BF
:1026C00075FB00212E48FFF716F840212A48FEF737
:1026D0006DFB00212A48FFF710F84BE0022D1FDDAB
:1026E0004FF480712748FEF75FFB40212248FEF738
:1026F0005BFB2248008940F28332101A2289801A3B
:1027000081B21F48FEF7F7FF1C48808940F28332F0
:10271000101AA289801A81B21948FEF7EEFF18E05C
:102720004FF480711748FEF741FB40211248FEF735
:102730003DFB124800892289104481B21048FEF7FF
:10274000DAFF0E488089A289104481B20C48FEF756
:10275000D4FF00210A48FEF7CAFF80210648FEF791
:1027600025FB00210648FEF7C4FF4FF480710248A4
:10277000FEF71CFB70BD000000200140500000204F
:10278000000400400008014010B586B00446012155
:1027900044F20400FEF7A0FB4FF40070ADF8140003
:1027A00003208DF8160018208DF8170005A91C4885
:1027B000FEF726FA4FF48060ADF8140004208DF87F
:1027C000170005A91648FEF71BFA25208DF8000012
:1027D00003208DF801008DF8020001208DF8030020
:1027E0006846FEF711FB01940020ADF80800ADF833
:1027F0000A00ADF80C00ADF810000C20ADF80E008A
:1028000001A90848FFF7CCF8012240F225510548FC
:10281000FFF7A1F801210348FFF75AF806B010BDF1
:10282000000801400038014010B586B0044601217F
:102830000420FEF751FB01214804FEF73DFB042074
:10284000ADF8140003208DF8160018208DF817003D
:1028500005A91C48FEF7D4F90820ADF8140004209F
:102860008DF8170005A91748FEF7CAF926208DF83C
:10287000000003208DF8010002208DF802000120E5
:102880008DF803006846FEF7BFFA01940020ADF80A
:102890000800ADF80A00ADF80C00ADF810000C20EF
:1028A000ADF80E0001A90848FFF77AF8012240F2BE
:1028B00025510548FFF74FF801210348FFF708F8B5
:1028C00006B010BD00080140004400400EB54FF4B2
:1028D0000070ADF8080028208DF80B0003208DF85B
:1028E0000A0002A91548FEF78BF909210420FEF71A
:1028F00067F94FF40070009000208DF804000C2060
:102900008DF8050001208DF806006846FEF70EF9E7
:1029100001214020FEF7E0FA01210820FEF7DCFA51
:102920002020ADF8080010208DF80B0003208DF852
:102930000A0002A90248FEF763F90EBD0018014023
:10294000000C014008B54FF4A060FEF795FA17207F
:102950008DF8000001208DF8010000208DF80200A4
:1029600001208DF803006846FEF74EFA08BD00000E
:1029700021F00042A2F16052B2F5801F01F0004345
:1029800028BFD2F17F6C0BD95FEA001C43EAC20278
:1029900042EB507018BF704728BF20F0010070470D
:1029A000B2F5801FBCBF184670474FEA410C1CF5BA
:1029B000001F02D2084600F0A6BD70B500F052FA22
:1029C00000000089FFF7F6BF4FF00040A0F580003F
:1029D0007047000010B591EA030F48BF83F0004331
:1029E00000F1D282841A71EB030C05D2121943EB69
:1029F0000C03001B61EB0C01DFF824E14FEA1154DA
:102A0000A4EB135C1EEA430F18BF9EEA445F73D029
:102A100023EA0E03DCF1200E21EA045143F4801373
:102A200032D322FA0CFE10EB0E0023FA0CFE41EB1F
:102A30000E01CCF1200E03FA0EFE10EB0E0051F148
:102A40000001B1F5801FCCF1200E32D201EB045110
:102A500012FA0EF2BDE8104058BF7047401C38BF54
:102A60005FEA420218BF7047002814BF20F001003F
:102A700041F100014FEA410313F5001F38BF7047D1
:102A8000A1F1C04100F03CBA012A43EB0302ACF1D2
:102A9000200CDCF11F0E32BF4FF0000E23FA0CF3B6
:102AA00010EB030041EB0451B4EB115FD0D0A1EB6C
:102AB000045101F5801149085FEA300001EB04512F
:102AC0000ED350F1000038BF12FA0EFE08D1BDE857
:102AD0001040C9E7401C38BF5FEA4202CAD1C3E7D1
:102AE000BDE810404FEA410313F5001F38BF70479F
:102AF000A1F1C04100F004BA9EEA445F08D011EA97
:102B00005E0FBDE8104004BF01F000410020704797
:102B1000BDE8104070B500F0A5F900BF64FBBE3EF3
:102B20000000E0FF491058BFC1F140415B1058BFA1
:102B3000C3F140438B42EFF3008070472DE9C04161
:102B400030B4DFF8A0C23CEA111418BF3CEA1314F9
:102B500000F0EC8081EA03051CEA111444EAD57404
:102B600018BF1CEA131500F0C780A4EB05044FF052
:102B7000004545EAC12145EAC32341EA505143EAF1
:102B8000525304F17F74994204F500344FEAC02097
:102B90004FEAC22208BF904200F09C804FEA1365C2
:102BA0000FF24016765D4FEA134506FB05F7C7F1B5
:102BB000807706FB07F74FEAD737A7FB0368764213
:102BC000C8F58038A7FB06CE38BFA8F1010807FB7F
:102BD00008E64FF0000EA6FB028CE6FB03CEDCF10C
:102BE000000CCEF1004E38BFAEF1010EA6FB0C5822
:102BF0004FF000074FF00005E6FB0E87A1FB08C66B
:102C0000A0FB07CE16EB0E0645F10005E1FB0765BC
:102C100015F1E04E7EBFA4F580345FEA46066D41B3
:102C200016F1800745F100054FEA17274FEA0666BF
:102C300047EA0567A6F1DE46B6F1805F4FEA152543
:102C40001FD9384624F0010C05EBC471BCF1FE6FAE
:102C500001EB0C1102D8F0BCBDE8008124425CBF3E
:102C600001F5801E9EEAC47F02D4F0BCBDE800815D
:102C7000244238D4F0BCA1F1C041BDE8004100F0CD
:102C80003FB94FEAD22242EA43524FEAD323A7FB8D
:102C900002864FEAD02040EA415007FB03661EEA55
:102CA0000E0F4FEAD12105FB026658BFA6EB005676
:102CB000B6EB00564FEA520E4EEAC37E18EB0E0EEC
:102CC00056EB530EBDD518EB02085E417F1C55F143
:102CD0000005B6E74FF480154FF000074FF00006EF
:102CE0004FF00008ADE7F0BC4FF0000001F1C0412B
:102CF00001F00041BDE8008111EA0C1F0CEA131538
:102D000000D00CE013EA0C1F00F025804FF000000B
:102D1000F0BC81EA030101F00041BDE80081F0BC94
:102D2000BDE8004181EA030100F0EAB8F0BCBDE86B
:102D3000004170B500F096F8097EFC3E00F007B83F
:102D400081EA03014FF0000001F00041704781EA81
:102D5000030100F0D5B8F0BCBDE800414FF0000021
:102D600021497047FFFDFBF9F7F5F4F2F0EEEDEBCA
:102D7000E9E8E6E4E3E1E0DEDDDBDAD8D7D5D4D379
:102D8000D1D0CFCDCCCBCAC8C7C6C5C4C2C1C0BFC5
:102D9000BEBDBCBBBAB9B8B7B6B5B4B3B2B1B0AFCB
:102DA000AEADACABAAA9A8A8A7A6A5A4A3A3A2A1AF
:102DB000A09F9F9E9D9C9C9B9A999998979796956A
:102DC00095949393929191908F8F8E8E8D8C8C8B06
:102DD0008B8A89898888878786858584848383828E
:102DE000828181800000FF070000F87F51EA030C18
:102DF00017D41CF5801F58BFBCF5801F00F106805A
:102E0000994218BF704708BF9042704707D711F525
:102E1000801F58BF13F5801F19D49942704789420B
:102E200070471CF5801F08D5BCF5801FF7D58B4275
:102E300018BF704708BF824270474FF4001C1CEB5C
:102E4000410F38BF1CEB430F01D28B42704770B566
:102E500000F008F8922449004FF000514FF08053E1
:102E6000FFF760BE0EF1020E2EF0030E5EF8046B4B
:102E7000364205D4012A43EB030515F5001F12D88D
:102E8000012841EB010C1CF5001F0CD80ED14FEAB4
:102E9000D17C15F5001F0CEB4C0C0CF1020C08BF9B
:102EA0004CEBD37C04E04FF0080C01E04FEAD37CFC
:102EB0000CEB4C0526FA05F606F00706B6F1040CF5
:102EC00006D20EEB860CBDE870404CF0010C60475A
:102ED000DFE80CF0090B02024FF000414FF0000058
:102EE000A1F5002170BD19461046012851EB0104DF
:102EF00018BFD4F5001484BF002001F0004170BD5C
:102F00000808A0F500114FEA3101704753EA010C9F
:102F100017D41CF5801F58BFBCF5801F00F1068038
:102F20008B4218BF704708BF8242704707D713F51E
:102F3000801F58BF11F5801F19D48B4270479B42E8
:102F400070471CF5801F08D5BCF5801FF7D5994246
:102F500018BF704708BF904270474FF4001C1CEB2D
:102F6000430F38BF1CEB410F01D2994270470FB499
:102F70000CBC03BCFFF76BBF10B591EA030F48BF51
:102F800083F000433FF52EAD841A71EB030C07D29A
:102F900012198CF0004C43EB0C03001B61EB0C018D
:102FA000DFF8A4E14FEA1154A4EB135C1EEA430FCF
:102FB00018BF9EEA445F00F0B08023EA6E035242DD
:102FC00021EA0451C3EB6E0338BF5B1EDCF1200E17
:102FD00025D322FA0CFE10EB0E0043FA0CFE41EB57
:102FE0000E01CCF1200E03FA0EFE10EB0E0051F193
:102FF0000001CCF1200E29D412FA0EF201EB04519B
:10300000BDE8104058BF7047401C1CBFB2F1004FD4
:10301000704700280CBF491C20F00100704712EBDC
:10302000020E43EB030218BF4FF0010E4EEA4202BC
:10303000ACF1200CDCF11E0E54D943FA0CFE10EB5F
:103040000E0051F1FF31CCF11E0ED5D50EF1010E5F
:1030500012FA0EFE404141EB010101EB445C5FEAD4
:103060005C5C10D910EBDE7001EB045138BFBEF18F
:10307000004FBDE8104018BF704700280CBF491C26
:1030800020F00100704730D24FEAD42C11F5001126
:1030900024F400641BD0B1FA81F20B3AA41AA41EE6
:1030A000D2F12003914030FA03F31943904001EB31
:1030B000CC71002C01EB0451BDE81040A8BF704753
:1030C00001F1C0414FF0000001F000417047B0FA3B
:1030D00080F310FA03F100D110BDE41A173C480543
:1030E000C90AE4E701EB045110BD491001EB04519A
:1030F000BDE810404FEA300002E04FF00001704799
:103100004A0008BF0042F8D0B2F5001F28BF704740
:1031100001F000414FF0000070479EEA445F07D085
:1031200011EA5E0FBDE8104004BF00210020704787
:10313000BDE8104070B5FFF795FE00BF40DFF63EDA
:1031400083F00041104670470000E0FF43004FEA63
:10315000D30C4FEA3C0C43401FBF40070CF16051B9
:1031600013F0FE4F70471CF0006F03D100200CF0ED
:10317000004170470CF0004343EA507010B540EA3C
:10318000CC0000F07AF900BF000000924FEA000185
:10319000FFF7B6BE4FF000414FF00000A1F500214F
:1031A0007047000090EA010F48BF81F0004100F134
:1031B000C081421A3CBF801A89184FEAD0524FF0A2
:1031C0007F4C1CEA410FA2EBD15318BF9CEA026F5F
:1031D00000F03B804FF0004C4CEA00204CEA01210B
:1031E00021FA03FC10EB0C0C1ED202F1FF325FEA55
:1031F0001C2040EBC25038BF70471CF07F0F4FEAD5
:10320000400C18BFBCF17F4F38BF7047C3F120039B
:10321000994008BF20F00100BCF17F4F38BF7047D4
:10322000A0F1C04000F06FB94FEA3C00000A40EB4B
:10323000C25028BF1CF0FF0F4FEA400CE6D018BF69
:10324000BCF17F4F38BF7047EAE79CEA026F05D0B8
:1032500010EA5C0F08BF00F00040704710B500F0A6
:103260000CF900BF64FBBE3E401058BFC0F14040A7
:10327000491058BFC1F140418142EFF300807047CF
:1032800041000B0ED3F19E0208D950F400034FEA1F
:10329000032323FA02F048BF4042704710B500F004
:1032A000ECF800BF49922480002070476FF0004284
:1032B00082EA20007047000010F0004148BF404201
:1032C000B0FA80F310FA03F2C3F19D030BD051EA78
:1032D000C35101EB1220530638BF704700F10100C3
:1032E00008BF20F001007047B0FA80F310FA03F233
:1032F000C3F19D030AD0D90501EB1220530638BF54
:10330000704700F1010008BF20F001007047000085
:1033100050EA010C00F113801CF5000F58BFBCF5FA
:10332000000F01D48842704707D710F5000F58BF2F
:1033300011F5000F15D488427047894270471CF57B
:10334000000F04D5BCF5000FF7D5814270474FF050
:10335000807C1CEB400F38BF1CEB410F01D2814237
:10336000704710B500F089F8922449004FF00050E2
:103370004FF08051FFF778BF4FF47F0C1CEAD0125A
:103380001EBF1CEAD11392EA0C0F93EA0C0F00F057
:10339000478090EA010F48BF42F480724FF0004C22
:1033A0004CEA00204CEA012102EB0302A0FB0113CE
:1033B000A2F50002002918BF43F001035B0028BFFB
:1033C0004FEA330342EB22425FEA132C4CEBC2502C
:1033D0002EBFBCEB436FB2F57C0F70474FEA036C16
:1033E000BCF1004F08BF20F00100B2F57C0F38BFE0
:1033F00070470BD582F0FF0212F5803FC8BF7047BF
:1034000000F1C040D8BF00F00040704700F5000C4C
:103410005FEA4C0C48BF7047B0F1C04000F073B891
:1034200090EA010F0CEAD11348BF42F48072624562
:1034300038BF634504D280EA010000F000407047C5
:1034400010B500F01AF800BF8900013E00F007B87F
:1034500000F009B85FEA410C5FEA1C6C08D080EA12
:10346000010000F050B85FEA400C5FEA1C6CF6D136
:103470004FF00040A0F5800070470EF1020E2EF0D4
:10348000030E5EF8044B244204D44FEA4102B2F129
:103490007F4F11D84FEA4003B3F17F4F0CD80ED1C4
:1034A0004FEAD07CB2F17F4F0CEB4C0C0CF1020CCC
:1034B00008BF4CEBD17C04E04FF0080C01E04FEA70
:1034C000D17C0CEB4C0324FA03F404F00704B4F1B0
:1034D000040C06D20EEB840CBDE810404CF0010C3D
:1034E0006047DFE80CF0070802024FF00040A0F54B
:1034F000800010BD0846420018BFD2F1807288BF1C
:1035000000F0004010BDFF2141EAD050C0057047D7
:1035100080F0004090EA010F7FF54BAE81F0004152
:1035200000F007B890EA010F48BF81F000413FF575
:1035300040AE421A04D882F00042A0EB02001144CF
:103540004FEAD0524FF07F4C1CEA410FA2EBD1530F
:1035500018BF9CEA026F4AD04FF0004C4CEA0020A2
:103560004CEA012121FA03FCB0EB0C0C0FD412F051
:10357000FE0F36D05FEA4C001DD5001240EBC25062
:1035800038BF70471CF03F0F18BF70470BE0A2F127
:1035900001025FEA1C2040EBC25038BF70471CF0AC
:1035A0007F0F18BF7047C3F12003994014BF401E1E
:1035B00020F00100704780084FEA122308BF7047CF
:1035C000B0FA80FCA2EB0C02CCF1280C60FA0CF0F3
:1035D00093EA122F04BF00EBC25070474FEAC3704A
:1035E0007047130A5FEADC1008BF7047F6E79CEAF1
:1035F000026F04D010EA5C0F08BF0020704710B5BE
:10360000FFF73BFF40DFF63E81F0004070470000CF
:103610003036000800000020A00000006C01000807
:10362000D0360008A0000020F8080000880100083B
:103630000000000000000000000001020300040080
:10364000FF0000000000000000000000000000007B
:103650000000000000A24A0400000000000000007A
:103660000102030406070809000000000000000032
:103670009001000090010000900100009001000006
:1036800020030000200300002003000020030000AE
:10369000000000000000000000000000000000002A
:1036A000000000000000000000000000000000001A
:1036B000000000000000000000000000000000000A
:1036C00001020304010203040607080902040608B4
:04000005080001D519
:00000001FF
