:020000040800F2
:1000000098090020D50100085D0E0008550E000873
:10001000590E00087D040008E71A000800000000DF
:100020000000000000000000000000002D1100088A
:10003000D30A0008000000000D0F0008411200085C
:10004000EF010008EF010008EF010008EF010008D0
:10005000EF010008EF010008EF010008EF010008C0
:10006000EF010008EF010008EF010008EF010008B0
:10007000EF010008EF010008EF010008EF010008A0
:10008000EF010008EF010008EF010008EF01000890
:10009000EF010008EF010008EF010008D50A000891
:1000A000EF010008EF010008EF010008EF01000870
:1000B000EF010008A5120008D5130008EF010008A1
:1000C000EF010008EF010008EF010008EF01000850
:1000D000EF0100080118000899180008EF01000856
:1000E000EF010008EF010008EF010008EF01000830
:1000F000EF010008EF010008EF010008EF01000820
:10010000EF010008EF010008EF010008EF0100080F
:10011000EF010008EF010008EF010008EF010008FF
:10012000EF010008EF010008EF010008EF010008EF
:1001300000F002F800F03FF80AA090E8000C8244BA
:100140008344AAF10107DA4501D100F034F8AFF297
:10015000090EBAE80F0013F0010F18BFFB1A43F0A5
:1001600001031847B82F0000D82F0000103A24BF11
:1001700078C878C1FAD8520724BF30C830C144BF0C
:1001800004680C607047000000230024002500264E
:10019000103A28BF78C1FBD8520728BF30C148BFEA
:1001A0000B607047642900F07F80002070471FB506
:1001B0001FBD10B510BD00F02EF91146FFF7F7FF77
:1001C00001F016FF00F04CF903B4FFF7F2FF03BC97
:1001D00001F0A6FC0948804709480047FEE7FEE712
:1001E000FEE7FEE7FEE7FEE7FEE7FEE7FEE7FEE7E7
:1001F00004480549054A064B7047000045120008AF
:10020000310100089803002098090020980500207B
:1002100098050020704700000FB41CB5074B06AAD4
:100220007B4469460090059800F0DDF8002069469F
:1002300000F0ECF81CBC5DF814FB0000E9010000C4
:100240002DE9F0410E460446002020622046E16878
:10025000884730B3252805D0D4E901219047206A8A
:10026000401CF2E7E168204600278847050018D0C7
:10027000A5F14100192802D820354FF40067324615
:10028000294620462760FFF78DFF40B1012804D0A2
:10029000F61D26F007060836D8E7361DD6E72846AD
:1002A000DAE7206ABDE8F0812DE9F0410646002436
:1002B00010687529314616A510D0AFF300800028CC
:1002C00002DA404213A507E031688A0701D512A57A
:1002D00002E0490704D511A5012401E0AFF3008035
:1002E00000210A2206F1240709E0B0FBF2FCB0FB72
:1002F000F2F302FB1C00303078541846491C0028E9
:10030000F3D123462A463046BDE8F04100F00CB850
:10031000000000002D0000002B0000002000000065
:1003200070477047704770472DE9F0470D46994672
:100330009246044600F124080168880604D5E06965
:1003400021F01001216000E00120A84201DD471BDF
:1003500000E00027A1697A1902EB0900081AA061E0
:100360002078C00602D42046AFF30080002608E0C3
:10037000D4E901211AF806009047206A401C761C37
:1003800020624E45F4DB2078C0060AD52046AFF344
:10039000008006E0D4E9012130209047206A401C0B
:1003A0002062381EA7F10107F4DC07E0D4E901213F
:1003B00018F805009047206A401C2062281EA5F10D
:1003C0000105F3DC2046AFF300802078000602D55B
:1003D0000220BDE8F0870120FBE7000001694A1C0C
:1003E00002610878704700B58FB0CDE90131002176
:1003F000059105497944CDE9031011466846FFF798
:100400001FFF0FB000BD0000E5FFFFFF0A6802F804
:10041000010B0A607047754600F02CF8AE460500E7
:100420006946534620F00700854618B020B5FFF70F
:10043000DFFEBDE820404FF000064FF000074FF010
:1004400000084FF0000B21F00701AC46ACE8C009F2
:10045000ACE8C009ACE8C009ACE8C0098D467047FB
:1004600010B50446AFF300802046BDE81040FFF70A
:10047000ABBE0000004870473803002000BFFEE715
:100480002DE9F04F8FB004468846164600200D90A7
:100490008146824683460C9000271FE07D1C18F899
:1004A0000700012819D106E018F80500012801D13C
:1004B0006D1C00E001E0B542F6DB00BFA5EB070ACA
:1004C000CA4506DDBB46681E0C90D14600200D9043
:1004D00003E0CA4501D101200D902F46B742DDDB74
:1004E0000D9860610C982060C4F804B0C4F80890BE
:1004F000304602F0B3FC019002F0EEFB00224FF018
:100500008043CDE9020102F0C7F80022344BCDE967
:10051000040102F0F7FACDE908010C9901EB0B0098
:1005200002F084FC039002F0D7FB00224FF08043DE
:10053000CDE9040102F0B0F8CDE90601DDE90823B8
:1005400002F0E0FACDE90A0101F0C0FFE06000200E
:100550002061082E40D1A068042804DA6069C0B385
:10056000A068032836DB01202061E06802F0B4FBBC
:1005700000221B4BCDE90A0102F08EFA0FD8606809
:1005800002F0E2F94FF03332164BCDE9080101F0E9
:10059000CFFFCDE90A0101F099FFE0601CE0E068BF
:1005A00002F09AFB0022104BCDE90A0102F0E4F9B7
:1005B00012D8206802F0C8F94FF03332094BCDE968
:1005C000080102F09FFACDE90A0101F07FFFE06027
:1005D00002E0FFE7002020610FB0BDE8F08F0000CF
:1005E0000000E03F3333E33F0000E0BF10B501F00F
:1005F0008BFD10BD2DE9F04F89B08246894600245D
:10060000002005900690079008900490B9F1000F23
:1006100002D0B9F1020F76D1BAF1000F77D10120E3
:100620008DF8100004A800F0FDFCB9F1000F2ED1E8
:10063000ED484069C0B1ED480068401CEB490860D6
:1006400008460068032802DCE94804684DE0E748F2
:100650000068032806DDE6480068002802DD4FF444
:10066000F07442E0E34C40E0DF48C168E24801F04A
:1006700087FC0646E14902F005FC054602F0BAFB9C
:1006800004460020D9490860D94804602DE0D648C6
:100690004069C0B1D5480068401CD449086008468C
:1006A0000068032802DCD24804681EE0CF480068D6
:1006B000032806DDCE480068002802DD4FF4F07400
:1006C00013E0CC4C11E0C848C168CB4801F058FC9D
:1006D0000646CA4902F0D6FB054602F08BFB0446EB
:1006E0000020C2490860C248046060420590069438
:1006F00005A9484601F046FDBB48006928B1012024
:1007000009B0BDE8F08FF3E001E00020F8E7BAF1AE
:10071000020F75D101208DF812008DF813008DF8AD
:10072000100004A800F07EFCB9F1000F6AD1B448B3
:100730008068012803DCB3488068012810DDB048D8
:100740004069D8B1AF484069C0B1A8480068401CB2
:10075000A649086008460068032802DCA44804682B
:10076000B8E0A2480068032805DDA1480068002819
:1007700001DD3C24AEE06FF03B04ABE0A0484069F3
:1007800068B1A048C1689C4801F0FAFB06469E4942
:1007900002F078FB054602F02DFB04469AE09948EA
:1007A000406968B19648C168934801F0E9FB064684
:1007B000954902F067FB054602F01CFB044689E000
:1007C000904AD1688E4AD06802F0B2FA019002F0E5
:1007D00083FA074600224FF0804301F05DFF054693
:1007E00001F074FE01460290834801F0C9FB834684
:1007F000854902F047FB039002F0FCFA044669E0E9
:10080000EDE0FFE77E488068012803DC7D488068D2
:1008100001285FDD7A484069D8B17A484069C0B1A3
:1008200072480068401C7149086008460068032847
:1008300002DC6F4804684DE06C480068032805DD61
:100840006B480068002801DD3C2443E06FF03B0466
:1008500040E06B48406968B16A48C1686B4801F084
:100860008FFB0646684902F00DFB054602F0C2FA0E
:1008700004462FE06348406968B16148C168634835
:1008800001F07EFB0646604902F0FCFA054602F0E4
:10089000B1FA04461EE05B4AD168594AD06802F0BA
:1008A00047FA019002F018FA054600224FF0804303
:1008B00001F0F2FE074601F009FE0146029053489E
:1008C00001F05EFB5049039002F0DCFA834602F02F
:1008D00091FA044660420590069405A9484601F045
:1008E00051FC4148006908B1012009E7002007E7F1
:1008F000BAF1010F76D101208DF8110004A800F0A3
:1009000091FBB9F1010F2FD141484069C8B1374877
:100910000068401C3549086008460068032802DC6E
:10092000334804684FE031480068032806DD30484A
:100930000068002802DD4FF4F07444E06FF03B04DF
:1009400041E03348C168334801F01AFB06462B49A1
:1009500002F098FA054602F04DFA044600202349B9
:100960000860234804602EE029484069C8B11F4848
:100970000068401C1D49086008460068032802DC26
:100980001B4804681FE019480068032806DD184862
:100990000068002802DD4FF4F07414E06FF03B04AF
:1009A00011E01B48C1681C4801F0EAFA06461349E9
:1009B00002F068FA054602F01DFA044600200B49D1
:1009C00008600B48046008946042079005A94846F7
:1009D00001F0D8FB0E48006910B1012090E601E05B
:1009E00000208DE600208BE6A400002040000020BF
:1009F0003C00002020FEFFFF0401002000002043F7
:100A0000D4000020EC0000200000A04120010020C4
:100A1000BC0000203C0100205801002010B500F06F
:100A2000F3F910BD10B51C4801F09CFB1B4801F008
:100A300099FB1B4801F096FB1A4801F093FB00213B
:100A4000154801F098FB0021144801F094FB0021A7
:100A5000144801F090FB0021114801F08CFB0023A9
:100A60001A464FF07E510C4801F087FB00231A46CE
:100A70004FF07E51094801F080FB00231A464FF0E9
:100A80007E51084801F079FB00231A464FF07E5151
:100A9000034801F072FB10BD04010020200100207A
:100AA0003C0100205801002010B500214FF47A705D
:100AB00000F010FC4FF42F731A461946184600F048
:100AC0001BFA4FF4C8731A461946184600F00AFA82
:100AD00010BD704710B54FF4007000F03FF820B320
:100AE0004FF4007000F034F81548006800F400700E
:100AF000E0B914480078C8B1134800F0B6FC0446C9
:100B000000201049087011480088A04208DD0F48F5
:100B10000088201A44F6206108440C49088004E04B
:100B20000A480088201A0949088007E00120054981
:100B30000870054800F099FC0449088010BD0000C9
:100B40000818014072000020000C004070000020D6
:100B5000014908607047000014040140014600206C
:100B60000022074B1B6803EA0102054B14331B6884
:100B70000B4013B10AB1012000E0002070470000D3
:100B800000040140002123498279002A3AD00A4614
:100B9000126803689A430B461A600A1D12680368BC
:100BA0009A430B1D1A60027911440A6803681A43BC
:100BB0000A60184A0832126803689A43154B0833D2
:100BC0001A601A1D126803689A43124B0C331A609C
:100BD0004279102A0ED11A1F126803681A430D4B6E
:100BE00008331A601A1D126803681A43094B0C3344
:100BF0001A600DE00749427911440A6803681A43F4
:100C00000A6005E0027911440A6803689A430A60A1
:100C1000704700000004014030B500228B071C0F14
:100C20000F2303FA04F20B4B8C1053F82430934338
:100C3000084C8D1044F8253023468C1053F824308E
:100C40008C07240F00FA04F42343024C8D1044F85F
:100C5000253030BD080001402DE9F0410246002555
:100C60000026002000230024002791F803C00CF088
:100C70000F0591F803C00CF0100CBCF1000F03D06D
:100C800091F802C04CEA050591F800C0BCF1000FD4
:100C900031D0146800202BE04FF0010C0CFA00F367
:100CA000B1F800C00CEA03069E4220D183004FF049
:100CB0000F0C0CFA03F7BC4305FA03FC4CEA0404DE
:100CC00091F803C0BCF1280F06D14FF0010C0CFACB
:100CD00000FCC2F814C00AE091F803C0BCF1480F50
:100CE00005D14FF0010C0CFA00FCC2F810C0401CFA
:100CF0000828D1D31460B1F800C0BCF1FF0F34DD77
:100D0000546800202EE000F1080C4FF0010808FAAA
:100D10000CF3B1F800C00CEA03069E4221D1830017
:100D20004FF00F0C0CFA03F7BC4305FA03FC4CEA36
:100D3000040491F803C0BCF1280F05D100F1080CA0
:100D400008FA0CF8C2F8148091F803C0BCF1480FFF
:100D500007D100F1080C4FF0010808FA0CF8C2F8AE
:100D60001080401C0828CED35460BDE8F0810000FC
:100D7000F0B50A46002300240021002500F00046BB
:100D8000B6F1004F02D11D4EF16901E01B4E7168B2
:100D9000C0F3034583B200F44016B6F5401F08D1F6
:100DA00021F07061154E766826F07066134F7E60F4
:100DB00012E000F48016B6F5801F06D1032606FA6D
:100DC00005F4A14341F0706106E0460D360103FAD7
:100DD00006F6B14341F0706122B1460D360103FAC7
:100DE00006F6314300F00046B6F1004F02D1034E43
:100DF000F16101E0014E7160F0BD000000000140B2
:100E0000416170470161704708B50121602000F021
:100E10008FF84FF4FF40ADF8000004208DF8030078
:100E200003208DF8020069460848FFF715FF4FF6CA
:100E3000FF70ADF8000004208DF8030003208DF84A
:100E4000020069460248FFF707FF08BD001801408D
:100E50000014014000BFFEE700BFFEE7704700003E
:100E600070B5002100230F22C47804B3154C246808
:100E700004F4E064C4F5E064210AC1F10403CA404B
:100E8000447804FA03F184781440214309010E4C9C
:100E90000678A155047804F01F050124AC400578BC
:100EA0006D11AD0005F1E025C5F8004109E00478B9
:100EB00004F01F050124AC40044D0678761145F876
:100EC000264070BD0CED00E000E400E080E100E0B1
:100ED00002490143024A1160704700000000FA0510
:100EE0000CED00E010B5034C20606160A260E3608F
:100EF00010BD00004400002010B5034C206061606C
:100F0000A260E36010BD00005400002070470000A4
:100F100029B1064AD2690243044BDA6104E0034A6C
:100F2000D2698243014BDA61704700000010024031
:100F300029B1064A92690243044B9A6104E0034ACC
:100F400092698243014B9A61704700000010024091
:100F500030B500210022002400232D4D6D6805F0DE
:100F60000C0121B1042905D0082923D105E0294D20
:100F7000056022E0274D05601FE0254D6D6805F4F2
:100F80007012234D6D6805F48034022505EB924202
:100F90001CB9214D554305600BE01D4D6D6805F4EE
:100FA00000351DB11C4D5543056002E0194D5543F8
:100FB000056002E0174D056000BF00BF144D6D686D
:100FC00005F0F0010909154D6B5C0568DD404560D1
:100FD0000F4D6D6805F4E061090A104D6B5C4568C2
:100FE000DD4085600A4D6D6805F46051C90A0B4DFE
:100FF0006B5C4568DD40C560054D6D6805F440419A
:10100000890B074D6B5CC568B5FBF3F5056130BD19
:101010000010024000127A0000093D0090000020FC
:10102000A000002010B586B0044600200490059072
:101030000290039001900090207838B104A800F04D
:101040002DF8082204A91148FFF71AFA607838B180
:1010500002A800F035F8082202A90D48FFF710FA9F
:10106000A07838B101A800F03DF8042201A9094890
:10107000FFF706FAE07838B1684600F045F8042238
:1010800069460548FFF7FCF906B010BDA400002032
:10109000BC000020D4000020EC000020014600200D
:1010A00009E0C0F10E02054B03EB8202D2F80021E9
:1010B0000A54421CD0B20828F3DB704700002342D8
:1010C0000146002009E0C0F10702054B03EB820254
:1010D000D2F800210A54421CD0B20828F3DB704732
:1010E000008022420146002009E000F10802054B81
:1010F00003EB8202D2F800210A54421CD0B2042829
:10110000F3DB7047008022420146002009E000F135
:101110000C02054B03EB8202D2F800210A54421C58
:10112000D0B20428F3DB704700802242704710B52C
:1011300000F002F810BD00000CB5002001900090F6
:101140003348006840F480303149086000BF3048BF
:10115000006800F4003000900198401C0190009855
:1011600018B90198B0F5A06FF1D12948006800F4D2
:10117000003010B10120009001E0002000900098A4
:10118000012843D12348006840F01000214908603D
:101190000846006820F0030008600846006840F038
:1011A000020008601A4840681949486008464068CB
:1011B00048600846406840F48060486008464068DF
:1011C00020F47C1048600846406840F4E81048600D
:1011D0000846006840F08070086000BF0C48006856
:1011E00000F000700028F9D00948406820F00300A2
:1011F000074948600846406840F00200486000BF68
:101200000348406800F00C000828F9D10CBD00002C
:101210000010024000200240042808D14FF0E021D5
:10122000096941F004014FF0E022116107E04FF03D
:10123000E021096921F004014FF0E02211617047BB
:101240007047000010B51348006840F001001149D4
:10125000086008464068104908400E494860084642
:1012600000680E4908400B4908600846006820F4F1
:10127000802008600846406820F4FE0048604FF473
:101280001F008860FFF753FF4FF0006004490860BB
:1012900010BD0000001002400000FFF8FFFFF6FE46
:1012A00008ED00E010B50121084800F0E1F858B160
:1012B0000121064800F0CAF80548006808B9012075
:1012C00000E000200249086010BD0000000400405A
:1012D0009401234230B589B005460C460121022015
:1012E000FFF716FE012140F21510FFF721FE012144
:1012F0003348FFF73DFD4FF47070ADF82000182023
:101300008DF8230003208DF8220008A92D48FFF74F
:10131000A3FC4FF4E070ADF8200010208DF82300FE
:1013200003208DF8220008A92748FFF795FC08A99B
:101330002548FFF791FC08A92448FFF78DFC08A970
:101340002148FFF789FCADF81850ADF81440002093
:10135000ADF81A00ADF8160005A91D4800F0FEF919
:101360007020ADF804000120ADF806000020ADF8B3
:101370000C0001A9164800F08DF801A9144800F0EE
:10138000DFF801A9124800F03BF901A9104800F06C
:1013900091F908210E4800F0C9F808210C4800F026
:1013A00021F908210A4800F07BF90821084800F0DB
:1013B000BFF90121064800F04CF809B030BD00002B
:1013C000000C1A00001001400020014000080140FC
:1013D0000004004010B501210C4800F049F858B154
:1013E00001210A4800F032F80948006808B90120D4
:1013F00000E000200649086006480078012804D172
:1014000005480078401C0449087010BD00080040E1
:101410009401234264000020650000203EB504468C
:101420000D46ADF80050ADF804400020ADF80600C0
:10143000ADF802006946044800F090F90121024825
:1014400000F007F83EBD0000000C0040CA430282D5
:10145000704721B1028842F00102028004E0028854
:101460004FF6FE731A40028070470146888C704721
:1014700030B50246002000230024158A05EA010346
:10148000958905EA010413B10CB1012000E00020A8
:1014900030BD000070B5002400220023058C4FF6FB
:1014A000FE7635400584028C8388048B4FF68F7559
:1014B0002C40B51E2C400D882C43751E2A400D89EA
:1014C0002A434D882A43144DA8420BD0134DA842FD
:1014D00008D0134DA84205D0124DA84202D0124D9B
:1014E000A84213D14FF6F7752A404D892A434FF68B
:1014F000FB752A408D882A434FF6FF652B404FF637
:10150000FF552B408D892B43CD892B43838004834A
:10151000CD888586028470BD002C014000340140D6
:101520000040014000440140004801400A460021BB
:10153000018B4FF6F7731940114301837047000088
:1015400070B5002400220023058C4FF6EF7635405D
:101550000584028C8388048B48F6FF752C404FF677
:10156000FF452C400D884FF6FF7606EA05252C43F3
:101570004FF6DF752A400D8906EA05152A434D8886
:1015800006EA05152A43154DA84202D0144DA8427B
:101590001DD14FF67F752A404D894FF6FF7606EA3A
:1015A00005152A434FF6BF752A408D8806EA0515B2
:1015B0002A434FF6FF352B404FF2FF752B408D89A4
:1015C00006EA85052B43CD8906EA85052B438380F2
:1015D0000483CD880587028470BD0000002C014083
:1015E000003401400A460021018B4FF2FF7319407D
:1015F0004FF6FF7303EA022319430183704700008B
:1016000070B5002400220023058C4FF6FF6635409C
:101610000584028C8388848B4FF68F752C404FF69F
:10162000FC752C400D882C434FF6FF552A400D8940
:101630004FF6FF7606EA05252A434D8806EA05257A
:101640002A43154DA84202D0144DA8421DD14FF295
:10165000FF752A404D894FF6FF7606EA05252A4395
:101660004FF6FF352A408D8806EA05252A434EF6B7
:10167000FF752B404DF6FF752B408D8906EA051549
:101680002B43CD8906EA05152B4383808483CD88BF
:101690008587028470BD0000002C014000340140A9
:1016A0000A460021818B4FF6F7731940114381835D
:1016B0007047000070B5002200230024058C4EF610
:1016C000FF7635400584038C8488828B48F6FF754D
:1016D0002A404FF6FF452A400D884FF6FF7606EA6E
:1016E00005252A434DF6FF752B400D8906EA053581
:1016F0002B434D8806EA05352B430B4DA84202D0FB
:101700000A4DA84208D14BF6FF752C408D894FF643
:10171000FF7606EA85152C4384808283CD88A0F865
:101720004050038470BD0000002C01400034014093
:101730000A460021818B4FF2FF7319404FF6FF7369
:1017400003EA02231943818370478186704701872A
:10175000704781877047A0F84010704700220288C8
:101760001D4B98420ED01D4B98420BD0B0F1804FCC
:1017700008D01B4B984205D01A4B984202D01A4B06
:10178000984204D14FF68F731A404B881A43174B77
:10179000984207D0164B984204D04FF6FF431A40A8
:1017A000CB881A4302808B8883850B8803850A4B7C
:1017B00098420BD0094B984208D00E4B984205D066
:1017C0000D4B984202D00D4B984201D10B7A038603
:1017D0000123838270470000002C01400034014047
:1017E0000004004000080040000C004000100040D1
:1017F0000014004000400140004401400048014006
:1018000010B540F22551214800F0A9F810B31F4847
:1018100000F060F9C4B21E48008800F40040C8B966
:101820001B48008800F4804060B10A2C03D00020DF
:101830001749088020E01648008840F40040144909
:10184000088019E00D2C06D11148008840F4804032
:101850000F49088010E00E480088C0F30D000D49C4
:101860000C540B480088401C094908800846008831
:10187000C72801DD002008800548008800F40040EA
:10188000B0F5004F01D100F005FA10BD003801405D
:101890008C000020A601002010B540F22551204800
:1018A00000F05DF810B31E4800F014F9C4B21D48F2
:1018B000008800F40040C8B91A48008800F480404D
:1018C00060B10A2C03D000201649088020E015489A
:1018D000008840F400401349088019E00D2C06D11F
:1018E0001048008840F480400E49088010E00D4800
:1018F0000088C0F30D000C490C540A480088401CB5
:101900000849088008460088C72801DD00200880B3
:101910000448008800F4004008B100F031F910BD1F
:10192000004400408E0000206E02002021B1828918
:1019300042F40052828104E082894DF6FF731A401E
:101940008281704702460020B1F5007F00D100BFC0
:1019500013880B400BB1012000E00020704770B5E8
:101960000246002400230025002040F66A16B142FA
:1019700000D100BFC1F3421501F01F03012606FA92
:1019800003F3012D02D19689334006E0022D02D1E6
:10199000168A334001E0968A33400C12012606FA7B
:1019A00004F41688344013B10CB1012000E000208B
:1019B00070BDF0B50346002400260025002040F647
:1019C0006A17B94200D100BF1846C1F3421401F0B2
:1019D0001F06012707FA06F5012C01D10C3004E09F
:1019E000022C01D1103000E014301AB107682F43E7
:1019F000076002E00768AF430760F0BD2DE9F047DC
:101A000086B005460E460024A24600BFA146002728
:101A1000B08900B100BF2F462C8A4CF6FF700440FD
:101A2000F08804432C82AC894EF6F3100440B08851
:101A300031890843718908430443AC81AC8A4FF66D
:101A4000FF400440B0890443AC8201A8FFF780FA4C
:101A50001F48874202D1DDF810A001E0DDF80CA09C
:101A6000A88900F4004040B10AEBCA0000EB0A105C
:101A700031684900B0FBF1F807E00AEBCA0000EB5F
:101A80000A1031688900B0FBF1F86420B8FBF0F06F
:101A900004012009642101FB1089A88900F4004099
:101AA00040B1322000EBC900B0FBF1F000F00700BC
:101AB000044308E0322000EB09106421B0FBF1F090
:101AC00000F00F0004432C8106B0BDE8F087000051
:101AD0000038014001468888C0F308007047C1F310
:101AE00008028280704700BFFEE770B505460C46CD
:101AF00012E000BF80212846FFF724FF0028F9D01C
:101B000021782846FFF7EBFF00BF40212846FFF76A
:101B100019FF0028F9D1641C20780028E9D170BD94
:101B2000014600BF704700000146002022E051F846
:101B30002020124B53F820301A4440F2B6339A4218
:101B400008DD0E4A52F82020C2F57A72323A41F886
:101B500020200EE051F82020084B53F820301A4482
:101B6000322A06DA054A52F82020C2F1320241F840
:101B70002020401C0428DADB7047000054000020BD
:101B80001B4A128802F40042002A2FD0184A1288F9
:101B9000C2F30D01174A1278432A02D0532A21D1E9
:101BA0000FE008290CD16422124B1A70002005E0C6
:101BB000114A125C114B1A54421CD0B28842F7DB16
:101BC00010E001290DD174220A4B1A70002005E0A3
:101BD000094A125C0A4B1A70421CD0B28842F7DBE9
:101BE00000E000BF00BF0022014B1A8070470000D8
:101BF0008E000020660000206E020020670000209A
:101C00006F00002010B56FF00400FFF705FB0A48D5
:101C100000680A49B0FBF1F00949087008460078ED
:101C200000EB4001C1EBC0104FF6FF7101EAC000AC
:101C30000449088010BD00002800002000127A002E
:101C400074000020760000200146114A12884A43A1
:101C50004FF0E0235A6100229A611A46126942F05D
:101C600001021A6100BF4FF0E022106900F001028A
:101C70001AB100F48032002AF5D04FF0E022126948
:101C800022F001024FF0E0231A6100229A617047AE
:101C90007600002010B5AB480088C0F30D00AA49BB
:101CA0000880AA480078502878D008DC422876D0EE
:101CB000462875D0472874D04C2873D108E05228A4
:101CC00074D0612870D063286FD07328F5D1C3E039
:101CD0009E484078722837D19D48007810B901207D
:101CE0009B49087020219B48FFF78AF84FF4FA704F
:101CF000FFF7AAFF20219748FFF784F84F21964865
:101D0000FFF7EDFE00BF40219348FFF71BFE0128BF
:101D1000F9D14B219048FFF7E2FE00BF40218E48E9
:101D2000FFF710FE0128F9D140F60A518A48FFF763
:101D3000D6FE00BF40218848FFF704FE0128F9D1F4
:101D400000208049088028E080484078712824D10C
:101D50004C218148FFF7C3FE00BF40217E48FFF7BA
:101D6000F1FD0128F9D172217B48FFF7B8FE00BFD1
:101D700040217948FFF7E6FD0128F9D140F60A51E4
:101D80007548FFF7ACFE00BF40217348FFF7DAFD4E
:101D90000128F9D100206B490880CDE014E04DE026
:101DA00020E02AE0C7E001E032E07DE067484078CB
:101DB000722808D16948007810B901206749087075
:101DC000002060490880B7E060484078722808D158
:101DD0006348007810B90120614908700020594912
:101DE0000880A9E059484078722805D101205D4952
:101DF00008700020534908809EE0544840787228BB
:101E000005D101205849087000204E49088093E010
:101E1000012256A15648FEF7FFF955494E48FFF7F3
:101E200064FE40F60A514C48FFF759FE00BF4021BE
:101E30004948FFF787FD0128F9D17DE04348407804
:101E4000722808D14B48007810B901204949087020
:101E500000203C4908806FE001204749087019E0E4
:101E600073213D48FFF73BFE00BF40213A48FFF792
:101E700069FD0128F9D140F60A513748FFF72FFED6
:101E800000BF40213448FFF75DFD0128F9D1002053
:101E90002C4908802B48008800F4004018B12B48DA
:101EA00000787328DCD047E0284840786C2841D17E
:101EB0002648807863283DD100202A4908702449AB
:101EC0000870264908702B4908702C49087024496D
:101ED0000870254908702849087063211E48FFF7DB
:101EE000FEFD00BF40211C48FFF72CFD0128F9D161
:101EF0006C211948FFF7F3FD00BF40211648FFF79A
:101F000021FD0128F9D163211348FFF7E8FD00BF47
:101F100040211148FFF716FD0128F9D140F60A517A
:101F20000D48FFF7DCFD00BF40210B48FFF70AFD1D
:101F30000128F9D100E000BF00BF0020014908805E
:101F400010BD00008C00002084000020A6010020AD
:101F50007B00002000180140003801407C00002078
:101F60007D0000207E0000207F000020256400000E
:101F700074010020800000208200002081000020E9
:101F80002DE9F84F04460D464FF08040216900F0DE
:101F900079FF2946009001F041F88346616900F01D
:101FA000C7FE8246E16800F06DFF80462169A068A7
:101FB00000F068FF00902846216901F039F8834657
:101FC000616800F05FFF8246009900F0B1FE814633
:101FD000414600F0ADFE07463946A06900F0A8FE74
:101FE0000646206960612561A6613046BDE8F88F2C
:101FF000FFF708FEFEF712FDFEF714FDFEF754FD95
:10200000C820FFF721FE4FF4A060FEF761FF4FF4F8
:10201000165000F067F94FF4165000F0B3F900F0D5
:102020003FFA00F001FA472144F61F60FFF7F6F986
:10203000002030490870304908605AE001202D49DD
:1020400008702D49086030E02B4801682948007865
:10205000FEF7D0FA294908700846007810B32848DE
:102060000068401C264908600846006803281CDDFB
:10207000FEF7BCFA4FF4FA70FFF7E6FD4FF4FA7082
:10208000FFF7E2FD4FF4FA70FFF7DEFD4FF4FA7050
:10209000FFF7DAFD4FF4FA70FFF7D6FD002018497C
:1020A000086003E0002016490860CDE700BF1EE08D
:1020B000114801680F480078FEF79CFA0F49087034
:1020C0000846007880B90F480068401C0D49086038
:1020D000084601680068401C0A4A1060032906DDB2
:1020E00000201146086003E0002006490860DFE791
:1020F00000BFA3E700000020040000201C00002017
:10210000180000202000002010B580211248FEF7A2
:1021100077FE4FF480711048FEF772FE4FF4807125
:102120000E48FEF76DFE40210B48FEF769FE40F2B7
:10213000E9310B48FFF709FB40F2E9310848FFF7A6
:1021400006FB40F2E9310648FFF703FB40F2E931B4
:102150000348FFF700FB10BD0020014000080140CC
:1021600000040040002141608160C16001600161A4
:102170004161816170470160704741608260C36066
:102180007047000070B505460C462046FFF7CCFCB2
:10219000284605EBD0714910A5EB410100294CD12F
:1021A000012D19DA80214B48FEF72CFE4FF4807187
:1021B0004848FEF727FE484800882288104481B22C
:1021C0004648FFF7C2FA44488088A288104481B28A
:1021D0004248FFF7BCFA1CE080213E48FEF710FEA3
:1021E0004FF480713B48FEF70BFE3B480068C0F59A
:1021F0007A702288801A81B23848FFF7A6FA3648EA
:102200004068C0F57A70A288801A81B23348FFF71F
:102210009EFA4FF480713248FEF7F2FD40F2E93148
:102220002E48FFF796FA40212A48FEF7E9FD40F2D2
:10223000E9312A48FFF78FFA4BE0022D1DDA4FF4FF
:1022400080712748FEF7DCFD40212248FEF7D8FDCB
:1022500021488068C0F57A702289801A81B21F48AF
:10226000FFF777FA1C48C068C0F57A70A289801A17
:1022700081B21A48FFF76FFA18E04FF480711848DE
:10228000FEF7C0FD40211348FEF7BCFD124800894F
:102290002289104481B21148FFF75BFA0E48808909
:1022A000A289104481B20D48FFF755FA40F2E93196
:1022B0000A48FFF74AFA80210648FEF7A1FD40F2DE
:1022C000E9310648FFF743FA4FF480710148FEF701
:1022D00097FD70BD00200140540000200004004024
:1022E0000008014010B586B00446012144F2040004
:1022F000FEF71EFE4FF40070ADF8140003208DF8B9
:10230000160018208DF8170005A91C48FEF7A4FC3C
:102310004FF48060ADF8140004208DF8170005A973
:102320001648FEF799FC25208DF8000003208DF853
:1023300001008DF8020001208DF803006846FEF7C9
:102340008FFD01940020ADF80800ADF80A00ADF84B
:102350000C00ADF810000C20ADF80E0001A90848E3
:10236000FFF74CFB012240F225510548FFF721FB06
:1023700001210348FFF7DAFA06B010BD000801405A
:102380000038014010B586B0044601210420FEF754
:10239000CFFD01214804FEF7BBFD0420ADF8140079
:1023A00003208DF8160018208DF8170005A91C4889
:1023B000FEF752FC0820ADF8140004208DF8170039
:1023C00005A91748FEF748FC26208DF800000320D9
:1023D0008DF8010002208DF8020001208DF8030025
:1023E0006846FEF73DFD01940020ADF80800ADF809
:1023F0000A00ADF80C00ADF810000C20ADF80E008E
:1024000001A90848FFF7FAFA012240F225510548D0
:10241000FFF7CFFA01210348FFF788FA06B010BD95
:1024200000080140004400400EB54FF40070ADF8C4
:10243000080028208DF80B0003208DF80A0002A95F
:102440001548FEF709FC09210420FEF7E5FB4FF4CF
:102450000070009000208DF804000C208DF805001D
:1024600001208DF806006846FEF78CFB0121402014
:10247000FEF75EFD01210820FEF75AFD2020ADF891
:10248000080010208DF80B0003208DF80A0002A927
:102490000248FEF7E1FB0EBD00180140000C0140B0
:1024A00008B54FF4A060FEF713FD17208DF800006B
:1024B00001208DF8010000208DF8020001208DF828
:1024C00003006846FEF7CCFC08BD000021F0004286
:1024D000A2F16052B2F5801F01F0004328BFD2F193
:1024E0007F6C0BD95FEA001C43EAC20242EB5070DA
:1024F00018BF704728BF20F001007047B2F5801F59
:10250000BCBF184670474FEA410C1CF5001F02D2B1
:10251000084600F07EBD70B500F06AFA0000008940
:10252000FFF7F6BF4FF00040A0F5800070470000B5
:1025300010B591EA030F48BF83F0004300F1EA822F
:10254000841A71EB030C05D2121943EB0C03001B28
:1025500061EB0C01DFF824E14FEA1154A4EB135CAA
:102560001EEA430F18BF9EEA445F73D023EA0E03AE
:10257000DCF1200E21EA045143F4801332D322FA15
:102580000CFE10EB0E0023FA0CFE41EB0E01CCF119
:10259000200E03FA0EFE10EB0E0051F10001B1F512
:1025A000801FCCF1200E32D201EB045112FA0EF250
:1025B000BDE8104058BF7047401C38BF5FEA420278
:1025C00018BF7047002814BF20F0010041F100013E
:1025D0004FEA410313F5001F38BF7047A1F1C04116
:1025E00000F054BA012A43EB0302ACF1200CDCF1F9
:1025F0001F0E32BF4FF0000E23FA0CF310EB030056
:1026000041EB0451B4EB115FD0D0A1EB045101F5C3
:10261000801149085FEA300001EB04510ED350F1FC
:10262000000038BF12FA0EFE08D1BDE81040C9E71D
:10263000401C38BF5FEA4202CAD1C3E7BDE8104080
:102640004FEA410313F5001F38BF7047A1F1C041A5
:1026500000F01CBA9EEA445F08D011EA5E0FBDE8A4
:10266000104004BF01F0004100207047BDE8104059
:1026700070B500F0BDF900BF64FBBE3E0000E0FF96
:10268000491058BFC1F140415B1058BFC3F14043EE
:102690008B42EFF3008070472DE9C04130B4DFF882
:1026A000A0C23CEA111418BF3CEA131400F0EC80FD
:1026B00081EA03051CEA111444EAD57418BF1CEA28
:1026C000131500F0C780A4EB05044FF0004545EA60
:1026D000C12145EAC32341EA505143EA525304F170
:1026E0007F74994204F500344FEAC0204FEAC222B9
:1026F00008BF904200F09C804FEA13650FF240162D
:10270000765D4FEA134506FB05F7C7F1807706FBB8
:1027100007F74FEAD737A7FB03687642C8F580383A
:10272000A7FB06CE38BFA8F1010807FB08E64FF06B
:10273000000EA6FB028CE6FB03CEDCF1000CCEF112
:10274000004E38BFAEF1010EA6FB0C584FF000074B
:102750004FF00005E6FB0E87A1FB08C6A0FB07CEE5
:1027600016EB0E0645F10005E1FB076515F1E04E9D
:102770007EBFA4F580345FEA46066D4116F18007FE
:1027800045F100054FEA17274FEA066647EA056755
:10279000A6F1DE46B6F1805F4FEA15251FD938460F
:1027A00024F0010C05EBC471BCF1FE6F01EB0C11C0
:1027B00002D8F0BCBDE8008124425CBF01F5801E58
:1027C0009EEAC47F02D4F0BCBDE80081244238D424
:1027D000F0BCA1F1C041BDE8004100F057B94FEA9B
:1027E000D22242EA43524FEAD323A7FB02864FEAA2
:1027F000D02040EA415007FB03661EEA0E0F4FEA65
:10280000D12105FB026658BFA6EB0056B6EB005679
:102810004FEA520E4EEAC37E18EB0E0E56EB530EE5
:10282000BDD518EB02085E417F1C55F10005B6E7E7
:102830004FF480154FF000074FF000064FF00008EE
:10284000ADE7F0BC4FF0000001F1C04101F00041E4
:10285000BDE8008111EA0C1F0CEA131500D00CE052
:1028600013EA0C1F00F025804FF00000F0BC81EA55
:10287000030101F00041BDE80081F0BCBDE800416A
:1028800081EA030100F002B9F0BCBDE8004170B577
:1028900000F0AEF8097EFC3E00F007B881EA0301C3
:1028A0004FF0000001F00041704781EA030100F0A1
:1028B000EDB8F0BCBDE800414FF000002149704781
:1028C000FFFDFBF9F7F5F4F2F0EEEDEBE9E8E6E4F5
:1028D000E3E1E0DEDDDBDAD8D7D5D4D3D1D0CFCD7C
:1028E000CCCBCAC8C7C6C5C4C2C1C0BFBEBDBCBBB5
:1028F000BAB9B8B7B6B5B4B3B2B1B0AFAEADACABB0
:10290000AAA9A8A8A7A6A5A4A3A3A2A1A09F9F9E89
:102910009D9C9C9B9A99999897979695959493933B
:10292000929191908F8F8E8E8D8C8C8B8B8A8989D2
:102930008888878786858584848383828281818055
:102940000000FF070000F87F10F0004248BF40423F
:10295000B0FA80F310FA03F10AD0C3F11D0303F5B6
:1029600080634FEA415002EB035202EBD1217047E2
:102970004FF000007047000051EA030C17D41CF51B
:10298000801F58BFBCF5801F00F10680994218BF18
:10299000704708BF9042704707D711F5801F58BF96
:1029A00013F5801F19D499427047894270471CF56E
:1029B000801F08D5BCF5801FF7D58B4218BF704724
:1029C00008BF824270474FF4001C1CEB410F38BF18
:1029D0001CEB430F01D28B42704770B500F008F832
:1029E000922449004FF000514FF08053FFF748BE4A
:1029F0000EF1020E2EF0030E5EF8046B364205D483
:102A0000012A43EB030515F5001F12D8012841EBFD
:102A1000010C1CF5001F0CD80ED14FEAD17C15F526
:102A2000001F0CEB4C0C0CF1020C08BF4CEBD37CE0
:102A300004E04FF0080C01E04FEAD37C0CEB4C05AE
:102A400026FA05F606F00706B6F1040C06D20EEBE0
:102A5000860CBDE870404CF0010C6047DFE80CF0DC
:102A6000090B02024FF000414FF00000A1F50021D8
:102A700070BD19461046012851EB010418BFD4F56A
:102A8000001484BF002001F0004170BD0808A0F5CB
:102A900000114FEA3101704753EA010C17D41CF5BD
:102AA000801F58BFBCF5801F00F106808B4218BF05
:102AB000704708BF8242704707D713F5801F58BF81
:102AC00011F5801F19D48B4270479B4270471CF54B
:102AD000801F08D5BCF5801FF7D5994218BF7047F5
:102AE00008BF904270474FF4001C1CEB430F38BFE7
:102AF0001CEB410F01D2994270470FB40CBC03BCD0
:102B0000FFF76BBF10B591EA030F48BF83F0004396
:102B10003FF516AD841A71EB030C07D212198CF035
:102B2000004C43EB0C03001B61EB0C01DFF8A4E14C
:102B30004FEA1154A4EB135C1EEA430F18BF9EEA40
:102B4000445F00F0B08023EA6E03524221EA045150
:102B5000C3EB6E0338BF5B1EDCF1200E25D322FAD7
:102B60000CFE10EB0E0043FA0CFE41EB0E01CCF113
:102B7000200E03FA0EFE10EB0E0051F10001CCF115
:102B8000200E29D412FA0EF201EB0451BDE81040D8
:102B900058BF7047401C1CBFB2F1004F704700285F
:102BA0000CBF491C20F00100704712EB020E43EBF2
:102BB000030218BF4FF0010E4EEA4202ACF1200CA6
:102BC000DCF11E0E54D943FA0CFE10EB0E0051F14D
:102BD000FF31CCF11E0ED5D50EF1010E12FA0EFE0C
:102BE000404141EB010101EB445C5FEA5C5C10D9C0
:102BF00010EBDE7001EB045138BFBEF1004FBDE8B1
:102C0000104018BF704700280CBF491C20F001007D
:102C1000704730D24FEAD42C11F5001124F400642F
:102C20001BD0B1FA81F20B3AA41AA41ED2F12003F0
:102C3000914030FA03F31943904001EBCC71002C22
:102C400001EB0451BDE81040A8BF704701F1C0413D
:102C50004FF0000001F000417047B0FA80F310FA25
:102C600003F100D110BDE41A173C4805C90AE4E796
:102C700001EB045110BD491001EB0451BDE81040B7
:102C80004FEA300002E04FF0000170474A0008BFF1
:102C90000042F8D0B2F5001F28BF704701F0004194
:102CA0004FF0000070479EEA445F07D011EA5E0FC4
:102CB000BDE8104004BF002100207047BDE810406F
:102CC00070B5FFF795FE00BF40DFF63E83F0004190
:102CD000104670470000E0FF43004FEAD30C4FEA74
:102CE0003C0C43401FBF40070CF1605113F0FE4FF6
:102CF00070471CF0006F03D100200CF000417047BA
:102D00000CF0004343EA507010B540EACC0000F0EC
:102D10003AF900BF000000924FEA0001FFF7B6BE8B
:102D20004FF000414FF00000A1F500217047000076
:102D300090EA010F48BF81F0004100F18081421A02
:102D40003CBF801A89184FEAD0524FF07F4C1CEAE2
:102D5000410FA2EBD15318BF9CEA026F00F03B80F9
:102D60004FF0004C4CEA00204CEA012121FA03FC10
:102D700010EB0C0C1ED202F1FF325FEA1C2040EB7C
:102D8000C25038BF70471CF07F0F4FEA400C18BF8D
:102D9000BCF17F4F38BF7047C3F12003994008BF93
:102DA00020F00100BCF17F4F38BF7047A0F1C04058
:102DB00000F02FB94FEA3C00000A40EBC25028BF98
:102DC0001CF0FF0F4FEA400CE6D018BFBCF17F4F5C
:102DD00038BF7047EAE79CEA026F05D010EA5C0F43
:102DE00008BF00F00040704710B500F0CCF800BFFD
:102DF00064FBBE3E41000B0ED3F19E0208D950F495
:102E000000034FEA032323FA02F048BF4042704711
:102E100010B500F0B8F800BF499224800020704738
:102E20006FF0004282EA20007047000010F000417D
:102E300048BF4042B0FA80F310FA03F2C3F19D0399
:102E40000BD051EAC35101EB1220530638BF704733
:102E500000F1010008BF20F001007047B0FA80F3D4
:102E600010FA03F2C3F19D030AD0D90501EB122039
:102E7000530638BF704700F1010008BF20F0010081
:102E8000704700004FF47F0C1CEAD0121EBF1CEAF2
:102E9000D11392EA0C0F93EA0C0F00F0478090EAEE
:102EA000010F48BF42F480724FF0004C4CEA002002
:102EB0004CEA012102EB0302A0FB0113A2F5000280
:102EC000002918BF43F001035B0028BF4FEA33031A
:102ED00042EB22425FEA132C4CEBC2502EBFBCEBFC
:102EE000436FB2F57C0F70474FEA036CBCF1004FA3
:102EF00008BF20F00100B2F57C0F38BF70470BD53A
:102F000082F0FF0212F5803FC8BF704700F1C04059
:102F1000D8BF00F00040704700F5000C5FEA4C0C91
:102F200048BF7047B0F1C04000F073B890EA010F9D
:102F30000CEAD11348BF42F48072624538BF634542
:102F400004D280EA010000F00040704710B500F0A4
:102F50001AF800BF8900013E00F007B800F009B878
:102F60005FEA410C5FEA1C6C08D080EA010000F0C7
:102F700050B85FEA400C5FEA1C6CF6D14FF000409D
:102F8000A0F5800070470EF1020E2EF0030E5EF8E1
:102F9000044B244204D44FEA4102B2F17F4F11D8CE
:102FA0004FEA4003B3F17F4F0CD80ED14FEAD07CEB
:102FB000B2F17F4F0CEB4C0C0CF1020C08BF4CEB48
:102FC000D17C04E04FF0080C01E04FEAD17C0CEB1F
:102FD0004C0324FA03F404F00704B4F1040C06D201
:102FE0000EEB840CBDE810404CF0010C6047DFE8AC
:102FF0000CF0070802024FF00040A0F5800010BD61
:103000000846420018BFD2F1807288BF00F000402D
:1030100010BDFF2141EAD050C005704780F000404C
:1030200090EA010F7FF58BAE81F0004100F007B808
:1030300090EA010F48BF81F000413FF580AE421A8F
:1030400004D882F00042A0EB020011444FEAD052B3
:103050004FF07F4C1CEA410FA2EBD15318BF9CEA02
:10306000026F4AD04FF0004C4CEA00204CEA01219C
:1030700021FA03FCB0EB0C0C0FD412F0FE0F36D08B
:103080005FEA4C001DD5001240EBC25038BF7047BC
:103090001CF03F0F18BF70470BE0A2F101025FEA7E
:1030A0001C2040EBC25038BF70471CF07F0F18BF88
:1030B0007047C3F12003994014BF401E20F0010067
:1030C000704780084FEA122308BF7047B0FA80FCAF
:1030D000A2EB0C02CCF1280C60FA0CF093EA122F50
:1030E00004BF00EBC25070474FEAC3707047130A29
:1030F0005FEADC1008BF7047F6E79CEA026F04D075
:1031000010EA5C0F08BF0020704710B5FFF73BFFC7
:1031100040DFF63E81F00040704700003C3100087F
:1031200000000020A40000006C010008E03100084D
:10313000A4000020F408000088010008000000003E
:10314000000000000000010203000400FF00000076
:10315000000000000000000000000000000000006F
:103160000000000000A24A0400000000000000006F
:103170000102030406070809000000000000000027
:1031800090010000900100009001000090010000FB
:1031900020030000200300002003000020030000A3
:1031A000000000000000000000000000000000001F
:1031B000000000000000000000000000000000000F
:1031C00000000000000000000000000000000000FF
:1031D00001020304010203040607080902040608A9
:04000005080001D519
:00000001FF
