:020000040800F2
:1000000088090020D5010008B90F0008B10F0008C9
:10001000B50F00087D0400082F1E00080000000036
:10002000000000000000000000000000891200082D
:10003000230C000800000000691000089D13000850
:10004000EF010008EF010008EF010008EF010008D0
:10005000EF010008EF010008EF010008EF010008C0
:10006000EF010008EF010008250C0008EF0100086F
:10007000EF010008EF010008EF010008EF010008A0
:10008000EF010008EF010008EF010008EF01000890
:10009000EF010008EF010008EF010008EF01000880
:1000A000EF010008EF010008EF010008EF01000870
:1000B0000114000871140008A1150008EF010008E0
:1000C000EF010008EF010008EF010008EF01000850
:1000D000EF010008491B0008E11B0008EF010008C0
:1000E000EF010008EF010008EF010008EF01000830
:1000F000EF010008EF010008EF010008EF01000820
:10010000EF010008EF01000891160008EF01000858
:10011000EF010008EF010008EF010008EF010008FF
:10012000EF010008EF010008EF010008EF010008EF
:1001300000F002F800F03FF80AA090E8000C8244BA
:100140008344AAF10107DA4501D100F034F8AFF297
:10015000090EBAE80F0013F0010F18BFFB1A43F0A5
:100160000103184784370000A4370000103A24BF69
:1001700078C878C1FAD8520724BF30C830C144BF0C
:1001800004680C607047000000230024002500264E
:10019000103A28BF78C1FBD8520728BF30C148BFEA
:1001A0000B607047642900F07F80002070471FB506
:1001B0001FBD10B510BD00F02EF91146FFF7F7FF77
:1001C00002F0ECF800F04CF903B4FFF7F2FF03BCC7
:1001D00001F04AFE0948804709480047FEE7FEE76C
:1001E000FEE7FEE7FEE7FEE7FEE7FEE7FEE7FEE7E7
:1001F00004480549054A064B70470000A113000852
:1002000031010008880300208809002088050020AB
:1002100088050020704700000FB41CB5074B06AAE4
:100220007B4469460090059800F0DDF8002069469F
:1002300000F0ECF81CBC5DF814FB0000E9010000C4
:100240002DE9F0410E460446002020622046E16878
:10025000884730B3252805D0D4E901219047206A8A
:10026000401CF2E7E168204600278847050018D0C7
:10027000A5F14100192802D820354FF40067324615
:10028000294620462760FFF78DFF40B1012804D0A2
:10029000F61D26F007060836D8E7361DD6E72846AD
:1002A000DAE7206ABDE8F0812DE9F0410646002436
:1002B00010687529314616A510D0AFF300800028CC
:1002C00002DA404213A507E031688A0701D512A57A
:1002D00002E0490704D511A5012401E0AFF3008035
:1002E00000210A2206F1240709E0B0FBF2FCB0FB72
:1002F000F2F302FB1C00303078541846491C0028E9
:10030000F3D123462A463046BDE8F04100F00CB850
:10031000000000002D0000002B0000002000000065
:1003200070477047704770472DE9F0470D46994672
:100330009246044600F124080168880604D5E06965
:1003400021F01001216000E00120A84201DD471BDF
:1003500000E00027A1697A1902EB0900081AA061E0
:100360002078C00602D42046AFF30080002608E0C3
:10037000D4E901211AF806009047206A401C761C37
:1003800020624E45F4DB2078C0060AD52046AFF344
:10039000008006E0D4E9012130209047206A401C0B
:1003A0002062381EA7F10107F4DC07E0D4E901213F
:1003B00018F805009047206A401C2062281EA5F10D
:1003C0000105F3DC2046AFF300802078000602D55B
:1003D0000220BDE8F0870120FBE7000001694A1C0C
:1003E00002610878704700B58FB0CDE90131002176
:1003F000059105497944CDE9031011466846FFF798
:100400001FFF0FB000BD0000E5FFFFFF0A6802F804
:10041000010B0A607047754600F02CF8AE460500E7
:100420006946534620F00700854618B020B5FFF70F
:10043000DFFEBDE820404FF000064FF000074FF010
:1004400000084FF0000B21F00701AC46ACE8C009F2
:10045000ACE8C009ACE8C009ACE8C0098D467047FB
:1004600010B50446AFF300802046BDE81040FFF70A
:10047000ABBE0000004870472403002000BFFEE729
:100480002DE9F74F8EB00446154600200D908046AA
:100490000C90814682460B900A9025B908200B905B
:1004A00005200A900DE0012D04D107200B900420B7
:1004B0000A9006E0022D02D103200B9001E00420F7
:1004C0000B90002626E0771C0F98805D012820D134
:1004D00006E00F98C05D012801D17F1C00E002E01A
:1004E0000B988742F5DB00BFB81BC0B20C900C988C
:1004F000404509DD06F0FF09781E00F0FF0ADDF82F
:10050000308000200D9004E00C98404501D101207E
:100510000D903E460B988642D5DB0D986074C4F86A
:1005200000A0C4F80490C4F80880012D18D10AEB8B
:10053000090003F061F8834602F0B4FF0022AB0724
:10054000CDE9040102F0ACFB0022514BCDE90601DC
:1005500002F0BEFECDE9080102F0BCFAE06048E01E
:10056000022D18D10AEB090003F046F8834602F089
:1005700099FF00226B07CDE9040102F091FB0022F4
:10058000444BCDE9060102F0A3FECDE9080102F0DB
:10059000A1FAE0602DE00B9803F046F8834602F0E4
:1005A00081FF00224FF08043CDE9000102F078FB8B
:1005B0000022394BCDE9020102F08AFECDE90601A5
:1005C0000AEB090003F018F8834602F06BFF0022E3
:1005D0004FF08043CDE9020102F062FBCDE9040156
:1005E000DDE9062302F074FECDE9080102F072FA9B
:1005F000E060002020740DB1012D3AD1012D02D10F
:100600004FF07E5B01E0DFF894B0A1680A98814268
:1006100004DC607C50B3A068032827DB0120207431
:10062000E06802F03FFF00221B4BCDE9080102F019
:100630000DFE08D8606802F0DFFF5946099002F00D
:100640005DFFE06014E0E06802F02CFF0022144B34
:10065000CDE9080102F0C0FC0AD8206802F0CCFF06
:100660005946099003F0CAF8E06001E000202074C8
:1006700000BFB8F1000F02D00D98012802D101206F
:10068000A07401E00020A07411B0BDE8F08F00005C
:1006900000000C400000F83F0000E03F9A99193F2D
:1006A0000000E0BF10B5084801F0C7FE074801F0A0
:1006B000C4FE074801F0C1FE064801F0BEFE01215C
:1006C000054801F062F810BDE80000200401002098
:1006D0003C01002020010020000800402DE9F04FDF
:1006E00089B0824689460024002005900690079034
:1006F00008900490B9F1000F02D0B9F1020F7DD13A
:10070000BAF1000F7BD101208DF8100004A800F091
:1007100037FDB9F1000F34D1FD48807CF0B1FD48C0
:100720000068401CFB49086008460068032808DC94
:10073000F948016901F0F4FD054602F041FF044665
:1007400053E0F4480068032806DDF44800680028F8
:1007500002DD4FF4877448E0F14C46E0EC48C16894
:10076000ED4801F0DDFD0646EE4902F071FF054659
:1007700002F026FF04460020E6490860E7480460CE
:1007800033E0E348807CF0B1E2480068401CE14976
:10079000086008460068032808DCE348016901F0A6
:1007A000BFFD054602F00CFF04461EE0D948006874
:1007B000032806DDD9480068002802DD4FF487745D
:1007C00013E0D74C11E0D248C168D74801F0A8FD2A
:1007D0000646D44902F03CFF054602F0F1FE04460D
:1007E0000020CC490860CD48046060420590069422
:1007F00005A9484601F026FEC54801E018E107E0DA
:10080000007C18B1012009B0BDE8F08F0020FAE7A4
:10081000BAF1020F7ED101208DF812008DF813007D
:100820008DF8100004A800F0ABFCB9F1000F7AD1EC
:10083000BE488068002803DCBD488068002816DDBB
:10084000BA48807C08B3BA48807CF0B1B1480068EF
:10085000401CB049086008460068032808DCAE4820
:10086000016901F05DFD054602F0AAFE0446D1E0F3
:10087000A8480068032805DDA8480068002801DDB5
:10088000BE24C7E06FF0BD04C4E0A848807C80B1FE
:10089000A748C168A04801F043FD0646A54902F0FB
:1008A000D7FE054602F08CFE0446002099490860F8
:1008B000B0E09F48807C80B19C48C168964801F0B8
:1008C0002FFD06469B4902F0C3FE054602F078FE66
:1008D000044600208F4908609CE0954AD168934AFD
:1008E000D06802F00BFE019002F0DCFD074600220A
:1008F0004FF0804302F0D4F9054602F0EBF80146D0
:100900000290854801F00CFD8A49039002F0A0FE98
:10091000834601E0FBE006E002F052FE04460020C0
:100920007C49086076E081488068012803DC8048C3
:10093000806801286EDD7D48807C08B37C48807C1F
:10094000F0B174480068401C7249086008460068AD
:10095000032808DC7448016901F0E2FC054602F056
:100960002FFE044656E06B480068032805DD6B48FF
:100970000068002801DD87244CE06FF01D0449E089
:100980006A48807C80B16A48C168674801F0C8FC49
:100990000646644902F05CFE054602F011FE04467C
:1009A00000205C49086035E06148807C80B15F4888
:1009B000C1685D4801F0B4FC06465A4902F048FEA1
:1009C000054602F0FDFD044600205249086021E082
:1009D000574AD168554AD06802F090FD019002F064
:1009E00061FD074600224FF0804302F059F90546A9
:1009F00002F070F8014602904B4801F091FC8346EA
:100A0000484902F025FE039002F0DAFD044600207A
:100A10004049086060420590069405A9484601F0E7
:100A200011FD3B48007C08B10120ECE60020EAE61D
:100A3000BAF1010F6BD101208DF8110004A800F06C
:100A40009FFBB9F1010F2ED13B48407CC0B131482A
:100A50000068401C2F49086008460068032802DC33
:100A60002E4804684DE02B480068032806DD2B481B
:100A70000068002802DD4FF4877442E0284C40E013
:100A80002D48C1682D4801F04BFC0646254902F06F
:100A9000DFFD054602F094FD044600201D49086074
:100AA0001E4804602DE02448407CC0B1194800680D
:100AB000401C1849086008460068032802DC1748F3
:100AC00004681EE013480068032806DD1348006828
:100AD000002802DD4FF4877413E0114C11E0164832
:100AE000C168174801F01CFC06460E4902F0B0FD33
:100AF000054602F065FD04460020064908600748E7
:100B0000046008946042079005A948461AE022E074
:100B10009800002018000020E800002014000020A9
:100B2000F2FEFFFF0000B44204010020C0000020DC
:100B3000D40000200000BE42AC00002020010020B4
:100B40003C01002001F07EFC0448007C08B101203B
:100B500059E6002057E6002055E60000AC000020D2
:100B600010B500F0FFF910BD10B51B4801F056FCA0
:100B70001A4801F053FC1A4801F050FC194801F0E2
:100B80004DFC0021144801F052FC0021134801F0F3
:100B90004EFC1549134801F04AFC1349104801F076
:100BA00046FC124B002259070B4801F042FC0F4B48
:100BB00000224FF07E51094801F03BFC0C4B002213
:100BC0000C49084801F035FC094B00224FF07E51DA
:100BD000034801F02EFC10BDE800002004010020B5
:100BE000200100203C0100209A99993E9A99193FD2
:100BF0003333333FCDCC4C3F10B500214FF47A70E6
:100C000000F04EFC40F2EE231A461946184600F05A
:100C100021FA4FF42F731A461946184600F010FABD
:100C200010BD704710B5102000F046F888B3194881
:100C30000068C0B91848007840B3184800F0B1FD0A
:100C4000044600201449087015480078C0F10500DA
:100C500040F27121484304EB401012490968401AE0
:100C60001149086012E00D482430048805200C4921
:100C700008700020094924310880012006490870C5
:100C8000064800F08EFD0749086000BF102000F004
:100C90000DF810BD100121425C000020000C004046
:100CA0005E00002058000020540000200149086028
:100CB0007047000014040140014600200022074B49
:100CC0001B6803EA0102054B14331B680B4013B188
:100CD0000AB1012000E0002070470000000401403C
:100CE000002123498279002A3AD00A461268036813
:100CF0009A430B461A600A1D126803689A430B1D3B
:100D00001A60027911440A6803681A430A60184A93
:100D10000832126803689A43154B08331A601A1D8B
:100D2000126803689A43124B0C331A604279102AF6
:100D30000ED11A1F126803681A430D4B08331A604C
:100D40001A1D126803681A43094B0C331A600DE030
:100D50000749427911440A6803681A430A6005E0AA
:100D6000027911440A6803689A430A6070470000D8
:100D70000004014030B500228B071C0F0F2303FA3B
:100D800004F20B4B8C1053F824309343084C8D1015
:100D900044F8253023468C1053F824308C07240F58
:100DA00000FA04F42343024C8D1044F8253030BD82
:100DB000080001402DE9F0410246002500260020F0
:100DC00000230024002791F803C00CF00F0591F8D0
:100DD00003C00CF0100CBCF1000F03D091F802C05E
:100DE0004CEA050591F800C0BCF1000F31D0146841
:100DF00000202BE04FF0010C0CFA00F3B1F800C01A
:100E00000CEA03069E4220D183004FF00F0C0CFA2F
:100E100003F7BC4305FA03FC4CEA040491F803C051
:100E2000BCF1280F06D14FF0010C0CFA00FCC2F8FF
:100E300014C00AE091F803C0BCF1480F05D14FF08F
:100E4000010C0CFA00FCC2F810C0401C0828D1D3D9
:100E50001460B1F800C0BCF1FF0F34DD546800200D
:100E60002EE000F1080C4FF0010808FA0CF3B1F87D
:100E700000C00CEA03069E4221D183004FF00F0C04
:100E80000CFA03F7BC4305FA03FC4CEA040491F89E
:100E900003C0BCF1280F05D100F1080C08FA0CF8CA
:100EA000C2F8148091F803C0BCF1480F07D100F1DB
:100EB000080C4FF0010808FA0CF8C2F81080401C2A
:100EC0000828CED35460BDE8F0810000F0B50A4692
:100ED000002300240021002500F00046B6F1004F59
:100EE00002D11D4EF16901E01B4E7168C0F303454C
:100EF00083B200F44016B6F5401F08D121F07061AE
:100F0000154E766826F07066134F7E6012E000F48E
:100F10008016B6F5801F06D1032606FA05F4A14314
:100F200041F0706106E0460D360103FA06F6B14362
:100F300041F0706122B1460D360103FA06F63143E5
:100F400000F00046B6F1004F02D1034EF16101E01E
:100F5000014E7160F0BD000000000140416170472A
:100F60000161704708B50121602000F08FF84FF44F
:100F7000FF40ADF8000004208DF8030003208DF839
:100F8000020069460848FFF715FF4FF6FF70ADF8FD
:100F9000000004208DF8030003208DF8020069464C
:100FA0000248FFF707FF08BD001801400014014088
:100FB00000BFFEE700BFFEE77047000070B50021EC
:100FC00000230F22C47804B3154C246804F4E064B1
:100FD000C4F5E064210AC1F10403CA40447804FA6C
:100FE00003F184781440214309010E4C0678A15581
:100FF000047804F01F050124AC4005786D11AD00A4
:1010000005F1E025C5F8004109E0047804F01F056A
:101010000124AC40044D0678761145F8264070BD99
:101020000CED00E000E400E080E100E00249014353
:10103000024A1160704700000000FA050CED00E064
:1010400010B5034C20606160A260E36010BD000039
:101050003000002010B5034C20606160A260E360A6
:1010600010BD0000400000207047000029B1064A72
:10107000D2690243044BDA6104E0034AD269824335
:10108000014BDA61704700000010024029B1064AA6
:1010900092690243044B9A6104E0034A92698243D5
:1010A000014B9A61704700000010024030B50021EA
:1010B0000022002400232D4D6D6805F00C0121B1A4
:1010C000042905D0082923D105E0294D056022E037
:1010D000274D05601FE0254D6D6805F47012234D06
:1010E0006D6805F48034022505EB92421CB9214D50
:1010F000554305600BE01D4D6D6805F400351DB1CD
:101100001C4D5543056002E0194D5543056002E052
:10111000174D056000BF00BF144D6D6805F0F0016C
:101120000909154D6B5C0568DD4045600F4D6D6824
:1011300005F4E061090A104D6B5C4568DD4085608F
:101140000A4D6D6805F46051C90A0B4D6B5C45682A
:10115000DD40C560054D6D6805F44041890B074DC4
:101160006B5CC568B5FBF3F5056130BD001002404E
:1011700000127A0000093D00840000209400002045
:1011800010B586B0044600200490059002900390AC
:1011900001900090207838B104A800F02DF80022CA
:1011A00004A91148FFF76CF9607838B102A800F083
:1011B00035F8012202A90D48FFF762F9A07838B18D
:1011C00001A800F03DF8022201A90948FFF758F9EB
:1011D000E07838B1684600F045F8032269460548D2
:1011E000FFF74EF906B010BD98000020AC000020BB
:1011F000C0000020D40000200146002009E0C0F11A
:101200000E02054B03EB8202D2F800210A54421C65
:10121000D0B20828F3DB70470000234201460020CB
:1012200009E0C0F10702054B03EB8202D2F800216E
:101230000A54421CD0B20728F3DB704700802242D8
:101240000146002009E000F10802054B03EB820291
:10125000D2F800210A54421CD0B20328F3DB7047B5
:10126000008022420146002009E000F10C02054BFB
:1012700003EB8202D2F800210A54421CD0B20428A7
:10128000F3DB704700802242704710B500F002F88F
:1012900010BD00000CB5002001900090334800689C
:1012A00040F480303149086000BF3048006800F4E5
:1012B000003000900198401C0190009818B90198E6
:1012C000B0F5A06FF1D12948006800F4003010B1EA
:1012D0000120009001E0002000900098012843D1F7
:1012E0002348006840F01000214908600846006863
:1012F00020F0030008600846006840F00200086023
:101300001A484068194948600846406848600846DD
:10131000406840F4806048600846406820F47C10D3
:1013200048600846406840F4E81048600846006895
:1013300040F08070086000BF0C48006800F000704A
:101340000028F9D00948406820F0030007494860A8
:101350000846406840F00200486000BF034840680B
:1013600000F00C000828F9D10CBD0000001002406C
:1013700000200240042808D14FF0E021096941F023
:1013800004014FF0E022116107E04FF0E02109690C
:1013900021F004014FF0E022116170477047000016
:1013A00010B51348006840F0010011490860084674
:1013B0004068104908400E494860084600680E49D8
:1013C00008400B4908600846006820F48020086047
:1013D0000846406820F4FE0048604FF41F00886013
:1013E000FFF753FF4FF000600449086010BD000094
:1013F000001002400000FFF8FFFFF6FE08ED00E0DD
:1014000010B50121880700F0CFF918B10121880734
:1014100000F0B8F910BD7FB505460C46012108461D
:10142000FFF724FEADF80850ADF804400020ADF8F9
:101430000A00ADF8060001A94FF0804000F032FB31
:1014400001221146900700F0C0F91C208DF8000021
:1014500000208DF8010001208DF802008DF80300B6
:101460006846FFF7ABFD0121880700F08EF97FBDCC
:1014700010B50121084800F097F958B1012106483C
:1014800000F080F90548006808B9012000E000205C
:101490000249086010BD000000040040940123428E
:1014A00030B589B005460C4601210220FFF7DEFD6C
:1014B000012140F21510FFF7E9FD01213348FFF744
:1014C00005FD4FF47070ADF8200018208DF8230052
:1014D00003208DF8220008A92D48FFF76BFC4FF47C
:1014E000E070ADF8200010208DF8230003208DF867
:1014F000220008A92748FFF75DFC08A92548FFF747
:1015000059FC08A92448FFF755FC08A92148FFF712
:1015100051FCADF81850ADF814400020ADF81A0099
:10152000ADF8160005A91D4800F0BCFA7020ADF812
:1015300004000120ADF806000020ADF80C0001A960
:10154000164800F04BF901A9144800F09DF901A9D3
:10155000124800F0F9F901A9104800F04FFA0821EB
:101560000E4800F087F908210C4800F0DFF9082147
:101570000A4800F039FA0821084800F07DFA0121F4
:10158000064800F002F909B030BD0000000C1A0056
:10159000001001400020014000080140000400400C
:1015A00010B501210C4800F0FFF818B101210A48DC
:1015B00000F0E8F809480078012804D108480068DC
:1015C000401C074908600748016807480078FFF792
:1015D00085F80649087010BD000800401C00002076
:1015E0002000002028000020240000202C000020E3
:1015F0007FB505460C4601210420FFF737FDADF805
:101600000850ADF804400020ADF80A00ADF806001F
:1016100001A90E4800F046FA012211460B4800F0DD
:10162000D4F81E208DF8000000208DF80100032062
:101630008DF8020001208DF803006846FFF7BEFC1C
:101640000021024800F0A1F87FBD00000008004022
:101650003EB504460D4601210820FFF707FDADF811
:101660000050ADF804400020ADF80600ADF80200CF
:101670000121064800F07AF86946044800F012FAA1
:1016800000200249243108803EBD0000000C0040CB
:1016900010B501211C4800F087F818B101211A4843
:1016A00000F070F81948007878B9012017490870DF
:1016B00020211748FFF752FC472144F61F60FFF72F
:1016C000C7FF0520134908701CE010480078012866
:1016D00018D11048007880B900200C4908700E49D4
:1016E000087005200B49087047213C20FFF7B0FF28
:1016F00020210748FFF734FC04E006480078401E2C
:101700000449087010BD0000000C00405D0000207E
:10171000000801405E0000205C00002008B5322077
:101720008DF8000000208DF8010002208DF80200E5
:1017300001208DF803006846FFF740FC08BD00005B
:1017400008B501211020FFF7A1FC4FF48060ADF82F
:10175000000010208DF8030003208DF80200694678
:101760000148FFF727FB08BD0010014021B10288A6
:1017700042F08002028004E002884FF67F731A4034
:1017800002807047CA430282704721B1028842F04A
:101790000102028004E002884FF6FE731A400280C4
:1017A00070470146888C704730B502460020002300
:1017B0000024158A05EA0103958905EA010413B19D
:1017C0000CB1012000E0002030BD1AB183890B4329
:1017D000838102E083898B438381704770B5002445
:1017E00000220023058C4FF6FE7635400584028CDE
:1017F0008388048B4FF68F752C40B51E2C400D88C6
:101800002C43751E2A400D892A434D882A43144DC6
:10181000A8420BD0134DA84208D0134DA84205D0C2
:10182000124DA84202D0124DA84213D14FF6F775BF
:101830002A404D892A434FF6FB752A408D882A435A
:101840004FF6FF652B404FF6FF552B408D892B43FC
:10185000CD892B4383800483CD888586028470BD27
:10186000002C014000340140004001400044014090
:10187000004801400A460021018B4FF6F7731940DA
:10188000114301837047000070B50024002200233B
:10189000058C4FF6EF7635400584028C8388048BE7
:1018A00048F6FF752C404FF6FF452C400D884FF64B
:1018B000FF7606EA05252C434FF6DF752A400D8991
:1018C00006EA05152A434D8806EA05152A43154DF3
:1018D000A84202D0144DA8421DD14FF67F752A4070
:1018E0004D894FF6FF7606EA05152A434FF6BF7578
:1018F0002A408D8806EA05152A434FF6FF352B400E
:101900004FF2FF752B408D8906EA85052B43CD8963
:1019100006EA85052B4383800483CD8805870284EE
:1019200070BD0000002C0140003401400A46002137
:10193000018B4FF2FF7319404FF6FF7303EA022346
:10194000194301837047000070B500240022002372
:10195000058C4FF6FF6635400584028C8388848BA6
:101960004FF68F752C404FF6FC752C400D882C439C
:101970004FF6FF552A400D894FF6FF7606EA0525FA
:101980002A434D8806EA05252A43154DA84202D070
:10199000144DA8421DD14FF2FF752A404D894FF6D4
:1019A000FF7606EA05252A434FF6FF352A408D8843
:1019B00006EA05252A434EF6FF752B404DF6FF75C6
:1019C0002B408D8906EA05152B43CD8906EA0515BE
:1019D0002B4383808483CD888587028470BD00007B
:1019E000002C0140003401400A460021818B4FF653
:1019F000F7731940114381837047000070B50022CE
:101A000000230024058C4EF6FF7635400584038CB8
:101A10008488828B48F6FF752A404FF6FF452A409E
:101A20000D884FF6FF7606EA05252A434DF6FF7529
:101A30002B400D8906EA05352B434D8806EA05350E
:101A40002B430B4DA84202D00A4DA84208D14BF6B9
:101A5000FF752C408D894FF6FF7606EA85152C43DD
:101A600084808283CD88A0F84050038470BD00003C
:101A7000002C0140003401400A460021818B4FF2C6
:101A8000FF7319404FF6FF7303EA02231943818362
:101A90007047818670470187704781877047A0F83B
:101AA00040107047002202881D4B98420ED01D4BFB
:101AB00098420BD0B0F1804F08D01B4B984205D014
:101AC0001A4B984202D01A4B984204D14FF68F73AA
:101AD0001A404B881A43174B984207D0164B98422E
:101AE00004D04FF6FF431A40CB881A4302808B88FC
:101AF00083850B8803850A4B98420BD0094B98428B
:101B000008D00E4B984205D00D4B984202D00D4B99
:101B1000984201D10B7A038601238382704700002B
:101B2000002C014000340140000400400008004047
:101B3000000C004000100040001400400040014034
:101B4000004401400048014010B540F225512148B1
:101B500000F0A9F810B31F4800F060F9C4B21E48A5
:101B6000008800F40040C8B91B48008800F4804099
:101B700060B10A2C03D000201749088020E01648E5
:101B8000008840F400401449088019E00D2C06D16B
:101B90001148008840F480400F49088010E00E484A
:101BA0000088C0F30D000D490C540B480088401C00
:101BB0000949088008460088C72801DD0020088000
:101BC0000548008800F40040B0F5004F01D100F056
:101BD000EFF910BD00380140800000209301002083
:101BE00010B540F22551204800F05DF810B31E48B2
:101BF00000F014F9C4B21D48008800F40040C8B9D0
:101C00001A48008800F4804060B10A2C03D00020FC
:101C10001649088020E01548008840F40040134928
:101C2000088019E00D2C06D11048008840F480404F
:101C30000E49088010E00D480088C0F30D000C49E3
:101C40000C540A480088401C08490880084600884F
:101C5000C72801DD002008800448008800F4004007
:101C600008B100F039F910BD0044004082000020A6
:101C70005B02002021B1828942F40052828104E09B
:101C800082894DF6FF731A40828170470246002018
:101C9000B1F5007F00D100BF13880B400BB10120CC
:101CA00000E00020704770B50246002400230025A4
:101CB000002040F66A16B14200D100BFC1F34215C0
:101CC00001F01F03012606FA03F3012D02D19689C4
:101CD000334006E0022D02D1168A334001E0968A95
:101CE00033400C12012606FA04F41688344013B16E
:101CF0000CB1012000E0002070BDF0B503460024C7
:101D000000260025002040F66A17B94200D100BF26
:101D10001846C1F3421401F01F06012707FA06F521
:101D2000012C01D10C3004E0022C01D1103000E074
:101D300014301AB107682F43076002E00768AF4309
:101D40000760F0BD2DE9F04786B005460E46002439
:101D5000A24600BFA1460027B08900B100BF2F46B0
:101D60002C8A4CF6FF700440F08804432C82AC8926
:101D70004EF6F3100440B088318908437189084356
:101D80000443AC81AC8A4FF6FF400440B089044361
:101D9000AC8201A8FFF78AF91F48874202D1DDF81B
:101DA00010A001E0DDF80CA0A88900F4004040B1CB
:101DB0000AEBCA0000EB0A1031684900B0FBF1F8E9
:101DC00007E00AEBCA0000EB0A1031688900B0FB9B
:101DD000F1F86420B8FBF0F004012009642101FB54
:101DE0001089A88900F4004040B1322000EBC900FE
:101DF000B0FBF1F000F00700044308E0322000EBF4
:101E000009106421B0FBF1F000F00F0004432C81B5
:101E100006B0BDE8F0870000003801400146888820
:101E2000C0F308007047C1F308028280704700BF0A
:101E3000FEE770B505460C4612E000BF802128463B
:101E4000FFF724FF0028F9D021782846FFF7EBFFA1
:101E500000BF40212846FFF719FF0028F9D1641C74
:101E600020780028E9D170BD014600BF704700000E
:101E7000014600202BE051F82020002A03DA51F817
:101E8000202041F8202051F82020124B53F8203018
:101E90001A4440F2B6339A4208DD0E4A52F8202026
:101EA000C2F57A72323A41F820200FE051F8202032
:101EB000084B53F820301A44B2F5FA7F06DA054A87
:101EC00052F82020C2F5FA7241F82020401C042864
:101ED000D1DB7047400000200D4A128802F4004216
:101EE000AAB10B4A1288C2F30D0109290CD1642250
:101EF000084B1A70002005E0074A125C074B1A5481
:101F0000421CD0B28842F7DB0022014B1A80704796
:101F100082000020500000205B02002058010020B9
:101F200010B56FF00400FFF725FA0A4800680A4967
:101F3000B0FBF1F0094908700846007800EB400159
:101F4000C1EBC0104FF6FF7101EAC00004490880E0
:101F500010BD00000000002000127A006200002086
:101F6000640000200146114A12884A434FF0E023E2
:101F70005A6100229A611A46126942F001021A61FE
:101F800000BF4FF0E022106900F001021AB100F426
:101F90008032002AF5D04FF0E022126922F00102CF
:101FA0004FF0E0231A6100229A617047640000201C
:101FB00010B5CA480088C0F30D00C9490880C94857
:101FC0000078502873D008DC422871D0462870D0A1
:101FD00047286FD04C286ED108E052285CD0612889
:101FE0006AD0632869D07328F5D102E1BD484078F2
:101FF000642843D1BC48007810B90120BA49087060
:102000002EE04C21B948FFF70EFF00BF4021B74832
:10201000FFF73CFE0128F9D16421B448FFF703FF24
:1020200000BF4021B148FFF731FE0128F9D10D2151
:10203000AE48FFF7F8FE00BF4021AC48FFF726FE90
:102040000128F9D10A21A948FFF7EDFE00BF402180
:10205000A648FFF71BFE0128F9D100209F49088000
:102060009E48008800F40040A8B19E4800784C28A3
:1020700011D19C4840786428C3D00CE0994840783E
:10208000722808D19A48007810B901209849087040
:102090000020924908801CE19248407864284AD187
:1020A0009448007810B901209249087035E050E05A
:1020B00091E05CE066E00BE177E0C2E052218B4802
:1020C000FFF7B1FE00BF40218848FFF7DFFD012880
:1020D000F9D164218548FFF7A6FE00BF402183485F
:1020E000FFF7D4FD0128F9D10D218048FFF79BFEB1
:1020F00000BF40217D48FFF7C9FD0128F9D10A2121
:102100007A48FFF790FE00BF40217848FFF7BEFDF8
:102110000128F9D10020714908807048008800F436
:102120000040A8B16F480078522811D16D4840781E
:102130006428C3D00CE06B484078722808D16E4800
:10214000007810B901206C490870002063490880AC
:10215000BFE064484078722808D16848007810B918
:1021600001206649087000205C490880B1E05D48A4
:102170004078722805D10120614908700020574934
:102180000880A6E05748407820B9564840785D4915
:10219000087009E053484078722805D101205A4957
:1021A000087000204D49088093E0012257A158484B
:1021B000FEF732F856494D48FFF73BFE40F60A510C
:1021C0004A48FFF730FE00BF40214848FFF75EFD58
:1021D0000128F9D17DE043484078722808D14D4864
:1021E000007810B901204B49087000203B49088055
:1021F0006FE001204849087019E073213B48FFF760
:1022000012FE00BF40213948FFF740FD0128F9D1F7
:1022100040F60A513548FFF706FE00BF402133481B
:10222000FFF734FD0128F9D100202C4908802B4804
:10223000008800F4004018B12A4800787328DCD0E8
:1022400047E0284840786C2841D1264880786328A8
:102250003DD100202A490870254908702649087098
:102260002C4908702D4908702449087026490870C7
:102270002949087063211D48FFF7D5FD00BF4021A3
:102280001A48FFF703FD0128F9D16C211748FFF721
:10229000CAFD00BF40211548FFF7F8FC0128F9D11D
:1022A00063211248FFF7BFFD00BF40210F48FFF731
:1022B000EDFC0128F9D140F60A510C48FFF7B3FDB7
:1022C00000BF40210948FFF7E1FC0128F9D100E0F7
:1022D00000BF00BF00200149088010BD8000002021
:1022E0007600002093010020720000200038014099
:1022F0006C000020730000206D0000206E000020A4
:102300006F0000206B00002070000020256400009A
:102310006101002071000020750000207400002081
:102320002DE9F84F04460D462846216801F066FA6B
:1023300005464FF08040216901F08AF92946009056
:1023400001F052FA8346616901F0D8F88246E168EB
:1023500001F07EF980462169A06801F079F90090CA
:102360002846216901F04AFA8346616801F070F954
:102370008246009901F0C2F88146414601F0BEF85C
:1023800007463946A06901F0B9F806462069606140
:102390002561A6613046BDE8F88F0000FFF7C0FD5B
:1023A000FEF7DEFBFEF7E0FBFEF726FCC820FFF79A
:1023B000D9FD4FF4A060FEF739FE4FF4165000F03F
:1023C0009DFA4FF4165000F0E9FA00F06DFB00F0B2
:1023D00037FBFFF7B5F9472141F28730FFF708F9DE
:1023E000472144F61F60FFF733F900F063FA40F22B
:1023F000CF2142F20F70FFF70EF800F05BFAFEF704
:1024000051F902200349087000200349086000E0E8
:1024100000BFFDE7240000202800002000214160CB
:102420008160C1600160016141618161704701604B
:10243000704741608260C360704700210161416163
:10244000816170472DE9F84F81460C462046FFF721
:102450000FFD484609EBD0714910A9EB4101002955
:102460007DD1B9F1010F7BDA8021FA48FEF778FDC2
:102470004FF48071F748FEF773FDF7480088228813
:10248000104481B2F548FFF704FBF3488088A28826
:10249000104481B2F148FFF7FEFA6068002835DD8C
:1024A0004FF48071EE48FEF759FD4021E948FEF7F0
:1024B00055FD606800F079FD82460022E94B00F08E
:1024C000C7FD07460022E84B00F0F6FE054600F087
:1024D0003FFD80B201460090E048FFF7DEFA6068F9
:1024E00000F063FD82460022DE4B00F0B1FD07469E
:1024F0000022DD4B00F0E0FE054600F029FD80B231
:1025000001460090D548FFF7CAFACCE16068002880
:1025100038DA4FF48071D248FEF722FD4021CD48D1
:10252000FEF71EFD606800F040FD82460022CD4BA4
:1025300000F08EFD07460022CC4B00F0BDFE0546A4
:1025400000F006FD80B201460090C448FFF7A5FAEE
:10255000606800F02AFD82460022C24B01E09DE047
:1025600024E000F075FD07460022C04B00F0A4FEF9
:10257000054600F0EDFC80B201460090B748FFF739
:102580008EFA90E14FF48071B548FEF7E7FC40F217
:10259000E931B248FFF781FA4021AE48FEF7DEFC90
:1025A00040F2E931AD48FFF77AFA7CE18021A94891
:1025B000FEF7D4FC4FF48071A648FEF7CFFCA64886
:1025C0000068C0F57A702288801A81B2A348FFF7AC
:1025D00060FAA1484068C0F57A70A288801A81B27A
:1025E0009E48FFF758FA40F2E9319C48FFF757FA46
:1025F00040219848FEF7B2FC606800281BDD4FF4CC
:1026000080719748FEF7AAFC606800F0CEFC054692
:10261000974A984B00F01CFD07460022924B00F0B1
:102620004BFE824600F094FC80B2014600908B483D
:10263000FFF733FA37E1606800281BDA4FF4807146
:102640008748FEF78DFC606800F0AFFC8246884A40
:10265000884B00F0FDFC07460022844B00F02CFE66
:10266000054600F075FC80B2014600907B48FFF7FC
:1026700014FA18E14FF480717948FEF76FFC40F2CC
:10268000E9317648FFF709FA40217248FEF766FC07
:1026900040F2E9317148FFF702FA04E1B9F1020FA3
:1026A00077DA4FF480716E48FEF758FC4021694894
:1026B000FEF754FC68488068C0F57A702289801A59
:1026C00081B26648FFF7E9F96348C068C0F57A70DF
:1026D000A289801A81B26148FFF7E1F940F2E9313D
:1026E0005E48FFF7D8F94FF480715A48FEF736FC80
:1026F000E06800281ADD80215648FEF72FFCE068CC
:1027000000F053FC05460022564B00F0A1FC0746A2
:102710000022594B00F0D0FD824600F019FC80B237
:10272000014600904D48FFF7B4F9BCE0E06800288E
:102730001ADA80214748FEF713FCE06800F035FC08
:1027400007460022474B00F083FC054600224B4B16
:1027500000F0B2FD824600F0FBFB80B20146009023
:102760003E48FFF796F99EE040F2E9313B48FFF71B
:1027700090F980213748FEF7F1FB40F2E931374804
:10278000FFF789F94FF480713248FEF7E7FB8AE0E2
:10279000FFE74FF480713248FEF7E2FB40212D48FD
:1027A000FEF7DEFB2C4800892289104481B22B48B9
:1027B000FFF773F928488089A289104481B227481D
:1027C000FFF76DF980212348FEF7C8FB40F2E9319D
:1027D0002248FFF75EF9E06800281BDD4FF48071A6
:1027E0001C48FEF7BBFBE06800F0DFFB0746002259
:1027F0001C4B00F02DFC054600221B4B00F05CFD3D
:10280000824600F0A5FB80B2014600901348FFF716
:1028100042F948E0E068002832DA4FF480710D4850
:10282000FEF79EFBE06800F0C0FB074600220D4B60
:1028300000F00EFC054600220C4B00F03DFD8246E8
:1028400000F086FB80B2014600900448FFF723F9B0
:1028500029E000000020014040000020000400406A
:10286000000801400000E03F0050844000E0754057
:102870009A9999999999D93F00406F400070874083
:1028800040F2E9310948FFF704F980210848FEF7D2
:1028900065FB40F2E9310548FFF7FDF84FF4807120
:1028A0000348FEF75BFBBDE8F88F00000004004022
:1028B0000020014010B500200C49087005200C498B
:1028C000087047213C20FEF7C3FEFEF727FF2021BA
:1028D0000848FEF745FB012211460748FEF775FF41
:1028E00001210548FEF751FF10BD00005D000020EA
:1028F0005E00002000080140000C004010B586B0CA
:102900000446012144F20400FEF7C0FB4FF40070BE
:10291000ADF8140003208DF8160018208DF817006C
:1029200005A91C48FEF746FA4FF48060ADF8140084
:1029300004208DF8170005A91648FEF73BFA25205C
:102940008DF8000003208DF801008DF802000120B1
:102950008DF803006846FEF731FB01940020ADF8C6
:102960000800ADF80A00ADF80C00ADF810000C201E
:10297000ADF80E0001A90848FFF7E4F9012240F282
:1029800025510548FFF7B9F901210348FFF772F90E
:1029900006B010BD000801400038014010B586B0F7
:1029A000044601210420FEF771FB01214804FEF7D3
:1029B0005DFB0420ADF8140003208DF816001820EC
:1029C0008DF8170005A91C48FEF7F4F90820ADF8AA
:1029D000140004208DF8170005A91748FEF7EAF93E
:1029E00026208DF8000003208DF8010002208DF8CC
:1029F000020001208DF803006846FEF7DFFA01941B
:102A00000020ADF80800ADF80A00ADF80C00ADF8F4
:102A100010000C20ADF80E0001A90848FFF792F94C
:102A2000012240F225510548FFF767F901210348CB
:102A3000FFF720F906B010BD000801400044004037
:102A40000EB501210420FEF721FB1020ADF808008F
:102A500028208DF80B0003208DF80A0002A91148E8
:102A6000FEF7A8F904210020FEF784F91020009059
:102A700000208DF8040010208DF8050001208DF84D
:102A800006006846FEF72CF92020ADF8080010205B
:102A90008DF80B0003208DF80A0002A90148FEF70B
:102AA00089F90EBD0008014008B54FF4A060FEF79B
:102AB000BDFA0A208DF8000000208DF801000220E8
:102AC0008DF8020001208DF803006846FEF776FAC3
:102AD00008BD000021F00042A2F16052B2F5801F53
:102AE00001F0004328BFD2F17F6C0BD95FEA001CD4
:102AF00043EAC20242EB507018BF704728BF20F073
:102B000001007047B2F5801FBCBF184670474FEAFE
:102B1000410C1CF5001F02D2084600F060BE70B5E3
:102B200000F040FB00000089FFF7F6BF4FF00040C7
:102B3000A0F580007047000010B591EA030F48BF70
:102B400083F0004300F1CC83841A71EB030C05D2AF
:102B5000121943EB0C03001B61EB0C01DFF824E1BD
:102B60004FEA1154A4EB135C1EEA430F18BF9EEA10
:102B7000445F73D023EA0E03DCF1200E21EA0451F6
:102B800043F4801332D322FA0CFE10EB0E0023FA2A
:102B90000CFE41EB0E01CCF1200E03FA0EFE10EB01
:102BA0000E0051F10001B1F5801FCCF1200E32D2A0
:102BB00001EB045112FA0EF2BDE8104058BF704705
:102BC000401C38BF5FEA420218BF7047002814BF9C
:102BD00020F0010041F100014FEA410313F5001F0D
:102BE00038BF7047A1F1C04100F02ABB012A43EB76
:102BF0000302ACF1200CDCF11F0E32BF4FF0000ECF
:102C000023FA0CF310EB030041EB0451B4EB115F1A
:102C1000D0D0A1EB045101F5801149085FEA3000E2
:102C200001EB04510ED350F1000038BF12FA0EFE32
:102C300008D1BDE81040C9E7401C38BF5FEA420236
:102C4000CAD1C3E7BDE810404FEA410313F5001FA6
:102C500038BF7047A1F1C04100F0F2BA9EEA445F6C
:102C600008D011EA5E0FBDE8104004BF01F000413A
:102C700000207047BDE8104070B500F093FA00BF27
:102C800064FBBE3E0000E0FF491058BFC1F1404167
:102C90005B1058BFC3F140438B42EFF30080704795
:102CA0002DE9C04130B4DFF8A0C23CEA111418BFCE
:102CB0003CEA131400F0EC8081EA03051CEA1114CD
:102CC00044EAD57418BF1CEA131500F0C780A4EBC2
:102CD00005044FF0004545EAC12145EAC32341EA16
:102CE000505143EA525304F17F74994204F5003481
:102CF0004FEAC0204FEAC22208BF904200F09C80F9
:102D00004FEA13650FF24016765D4FEA134506FB56
:102D100005F7C7F1807706FB07F74FEAD737A7FB20
:102D200003687642C8F58038A7FB06CE38BFA8F105
:102D3000010807FB08E64FF0000EA6FB028CE6FB3D
:102D400003CEDCF1000CCEF1004E38BFAEF1010E27
:102D5000A6FB0C584FF000074FF00005E6FB0E876E
:102D6000A1FB08C6A0FB07CE16EB0E0645F1000539
:102D7000E1FB076515F1E04E7EBFA4F580345FEA04
:102D800046066D4116F1800745F100054FEA172709
:102D90004FEA066647EA0567A6F1DE46B6F1805FB0
:102DA0004FEA15251FD9384624F0010C05EBC471F4
:102DB000BCF1FE6F01EB0C1102D8F0BCBDE8008144
:102DC00024425CBF01F5801E9EEAC47F02D4F0BCA1
:102DD000BDE80081244238D4F0BCA1F1C041BDE877
:102DE000004100F02DBA4FEAD22242EA43524FEAA4
:102DF000D323A7FB02864FEAD02040EA415007FBCD
:102E000003661EEA0E0F4FEAD12105FB026658BF8A
:102E1000A6EB0056B6EB00564FEA520E4EEAC37EC2
:102E200018EB0E0E56EB530EBDD518EB02085E41A3
:102E30007F1C55F10005B6E74FF480154FF00007F1
:102E40004FF000064FF00008ADE7F0BC4FF0000077
:102E500001F1C04101F00041BDE8008111EA0C1F01
:102E60000CEA131500D00CE013EA0C1F00F02580CB
:102E70004FF00000F0BC81EA030101F00041BDE821
:102E80000081F0BCBDE8004181EA030100F0D8B93F
:102E9000F0BCBDE8004170B500F084F9097EFC3E4D
:102EA00000F007B881EA03014FF0000001F0004193
:102EB000704781EA030100F0C3B9F0BCBDE80041EE
:102EC0004FF0000021497047FFFDFBF9F7F5F4F2E0
:102ED000F0EEEDEBE9E8E6E4E3E1E0DEDDDBDAD8B5
:102EE000D7D5D4D3D1D0CFCDCCCBCAC8C7C6C5C413
:102EF000C2C1C0BFBEBDBCBBBAB9B8B7B6B5B4B32A
:102F0000B2B1B0AFAEADACABAAA9A8A8A7A6A5A414
:102F1000A3A3A2A1A09F9F9E9D9C9C9B9A999998D8
:102F20009797969595949393929191908F8F8E8E7B
:102F30008D8C8C8B8B8A8989888887878685858408
:102F400084838382828181800000FF070000F87FF4
:102F50004FEA1153A3F58063D3F11E03A8BFD3F149
:102F6000200C08DB4FF0004242EAC12252EA5052E4
:102F700032FA03F0704709420BD4102BC4BF002073
:102F8000704703F5787CBCF1FF3F05D04FF0FF3070
:102F900070474FF00000704770B500F003F900BFB4
:102FA0004992248000207047F0E710F0004248BFAB
:102FB0004042B0FA80F310FA03F10AD0C3F11D03C6
:102FC00003F580634FEA415002EB035202EBD1213B
:102FD00070474FF00000704751EA030C17D41CF5FE
:102FE000801F58BFBCF5801F00F10680994218BFB2
:102FF000704708BF9042704707D711F5801F58BF30
:1030000013F5801F19D499427047894270471CF507
:10301000801F08D5BCF5801FF7D58B4218BF7047BD
:1030200008BF824270474FF4001C1CEB410F38BFB1
:103030001CEB430F01D28B42704770B500F0B2F821
:10304000922449004FF000514FF08053FFF71CBE0F
:10305000DFF848C170B51CEA111E1EBF1CEA13152B
:103060009EEA0C0F95EA0C0F00F06F8081EA0304D2
:1030700023EA4C134EEAD47E21EA4C1141F480112C
:1030800043F48013AE44A1FB024CA0FB0365AEF1F8
:103090007F7E361955EB0C05A1FB034C4CF1000368
:1030A000A0FB021C16EB0C06654153F1000309421C
:1030B00018BF46F0010613F4007F0BD14FEA03312D
:1030C0004FEA0530340341EA155140EA16506FF0DB
:1030D00003020AE04FEAC3214FEAC520F40241EAA5
:1030E000555140EA56506FF0020202EB2E4201EBBE
:1030F000025585EACE710AD05FEA440C18BF24F06D
:10310000004450F1000041F1000120EAD47040F287
:10311000FE7C624500D270BDA84214BF4FF08044CF
:103120004FF04044002E08BF0024BEF1806FA8BFBE
:10313000A1F1C041BDE8704080F282804FF00000F4
:1031400001F1C04101F0004170479EEA0C0F0CEA0A
:10315000131518BF95EA0C0F06D04FF0000081EA56
:10316000030E0EF0004170BD00F01CF88900013E16
:1031700000F007B800F009B84FEA430C5FEA5C5C66
:1031800008D081EA030100F05BB84FEA410C5FEA26
:103190005C5CF6D14FF00000014970470000FF076A
:1031A0000000F87F0EF1020E2EF0030E5EF8046BA5
:1031B000364205D4012A43EB030515F5001F12D84A
:1031C000012841EB010C1CF5001F0CD80ED14FEA71
:1031D000D17C15F5001F0CEB4C0C0CF1020C08BF58
:1031E0004CEBD37C04E04FF0080C01E04FEAD37CB9
:1031F0000CEB4C0526FA05F606F00706B6F1040CB2
:1032000006D20EEB860CBDE870404CF0010C604716
:10321000DFE80CF0090B02024FF000414FF0000014
:10322000A1F5002170BD19461046012851EB01049B
:1032300018BFD4F5001484BF002001F0004170BD18
:103240000808A0F500114FEA3101704753EA010C5C
:1032500017D41CF5801F58BFBCF5801F00F10680F5
:103260008B4218BF704708BF8242704707D713F5DB
:10327000801F58BF11F5801F19D48B4270479B42A5
:1032800070471CF5801F08D5BCF5801FF7D5994203
:1032900018BF704708BF904270474FF4001C1CEBEA
:1032A000430F38BF1CEB410F01D2994270470FB456
:1032B0000CBC03BCFFF7C1BE91EA030F10B581F04F
:1032C00000413FF541AC83F0004300F009B8000035
:1032D00010B591EA030F48BF83F000433FF534ACCB
:1032E000841A71EB030C07D212198CF0004C43EBDB
:1032F0000C03001B61EB0C01DFF8A4E14FEA115451
:10330000A4EB135C1EEA430F18BF9EEA445F00F073
:10331000B08023EA6E03524221EA0451C3EB6E03EC
:1033200038BF5B1EDCF1200E25D322FA0CFE10EB19
:103330000E0043FA0CFE41EB0E01CCF1200E03FA15
:103340000EFE10EB0E0051F10001CCF1200E29D43D
:1033500012FA0EF201EB0451BDE8104058BF70475D
:10336000401C1CBFB2F1004F704700280CBF491C25
:1033700020F00100704712EB020E43EB030218BF6E
:103380004FF0010E4EEA4202ACF1200CDCF11E0EB1
:1033900054D943FA0CFE10EB0E0051F1FF31CCF181
:1033A0001E0ED5D50EF1010E12FA0EFE404141EB74
:1033B000010101EB445C5FEA5C5C10D910EBDE704C
:1033C00001EB045138BFBEF1004FBDE8104018BFFB
:1033D000704700280CBF491C20F00100704730D214
:1033E0004FEAD42C11F5001124F400641BD0B1FA7B
:1033F00081F20B3AA41AA41ED2F12003914030FAB4
:1034000003F31943904001EBCC71002C01EB045104
:10341000BDE81040A8BF704701F1C0414FF0000067
:1034200001F000417047B0FA80F310FA03F100D1C7
:1034300010BDE41A173C4805C90AE4E701EB045142
:1034400010BD491001EB0451BDE810404FEA3000B7
:1034500002E04FF0000170474A0008BF0042F8D078
:10346000B2F5001F28BF704701F000414FF0000087
:1034700070479EEA445F07D011EA5E0FBDE8104036
:1034800004BF002100207047BDE8104070B5FFF771
:1034900089FE00BF40DFF63E83F0004110467047D2
:1034A0000000E0FF43004FEAD30C4FEA3C0C4340DE
:1034B0001FBF40070CF1605113F0FE4F70471CF026
:1034C000006F03D100200CF0004170470CF0004366
:1034D00043EA507010B540EACC0000F03AF900BF62
:1034E000000000924FEA0001FFF7AABE4FF0004132
:1034F0004FF00000A1F500217047000090EA010F95
:1035000048BF81F0004100F18081421A3CBF801A1F
:1035100089184FEAD0524FF07F4C1CEA410FA2EBC2
:10352000D15318BF9CEA026F00F03B804FF0004C73
:103530004CEA00204CEA012121FA03FC10EB0C0CB0
:103540001ED202F1FF325FEA1C2040EBC25038BFAE
:1035500070471CF07F0F4FEA400C18BFBCF17F4F43
:1035600038BF7047C3F12003994008BF20F0010025
:10357000BCF17F4F38BF7047A0F1C04000F02FB9B9
:103580004FEA3C00000A40EBC25028BF1CF0FF0F7E
:103590004FEA400CE6D018BFBCF17F4F38BF7047F0
:1035A000EAE79CEA026F05D010EA5C0F08BF00F062
:1035B0000040704710B500F0CCF800BF64FBBE3E81
:1035C00041000B0ED3F19E0208D950F400034FEADC
:1035D000032323FA02F048BF4042704710B500F0C1
:1035E000B8F800BF49922480002070476FF0004275
:1035F00082EA20007047000010F0004148BF4042BE
:10360000B0FA80F310FA03F2C3F19D030BD051EA34
:10361000C35101EB1220530638BF704700F101007F
:1036200008BF20F001007047B0FA80F310FA03F2EF
:10363000C3F19D030AD0D90501EB1220530638BF10
:10364000704700F1010008BF20F001007047000042
:103650004FF47F0C1CEAD0121EBF1CEAD11392EA71
:103660000C0F93EA0C0F00F0478090EA010F48BF5F
:1036700042F480724FF0004C4CEA00204CEA0121E9
:1036800002EB0302A0FB0113A2F50002002918BF00
:1036900043F001035B0028BF4FEA330342EB2242B1
:1036A0005FEA132C4CEBC2502EBFBCEB436FB2F55C
:1036B0007C0F70474FEA036CBCF1004F08BF20F04D
:1036C0000100B2F57C0F38BF70470BD582F0FF02C6
:1036D00012F5803FC8BF704700F1C040D8BF00F06E
:1036E0000040704700F5000C5FEA4C0C48BF704783
:1036F000B0F1C04000F073B890EA010F0CEAD113AA
:1037000048BF42F48072624538BF634504D280EA04
:10371000010000F00040704710B500F01AF800BF3B
:103720008900013E00F007B800F009B85FEA410CDB
:103730005FEA1C6C08D080EA010000F050B85FEA34
:10374000400C5FEA1C6CF6D14FF00040A0F5800001
:1037500070470EF1020E2EF0030E5EF8044B244269
:1037600004D44FEA4102B2F17F4F11D84FEA40032F
:10377000B3F17F4F0CD80ED14FEAD07CB2F17F4F1E
:103780000CEB4C0C0CF1020C08BF4CEBD17C04E0B0
:103790004FF0080C01E04FEAD17C0CEB4C0324FA0B
:1037A00003F404F00704B4F1040C06D20EEB840C0D
:1037B000BDE810404CF0010C6047DFE80CF0070852
:1037C00002024FF00040A0F5800010BD0846420004
:1037D00018BFD2F1807288BF00F0004010BDFF21F9
:1037E00041EAD050C005704780F0004090EA010FD8
:1037F0007FF58BAE81F0004100F007B890EA010F31
:1038000048BF81F000413FF580AE421A04D882F0F3
:103810000042A0EB020011444FEAD0524FF07F4C1F
:103820001CEA410FA2EBD15318BF9CEA026F4AD0A9
:103830004FF0004C4CEA00204CEA012121FA03FC35
:10384000B0EB0C0C0FD412F0FE0F36D05FEA4C0038
:103850001DD5001240EBC25038BF70471CF03F0F1F
:1038600018BF70470BE0A2F101025FEA1C2040EB99
:10387000C25038BF70471CF07F0F18BF7047C3F1AC
:103880002003994014BF401E20F0010070478008BB
:103890004FEA122308BF7047B0FA80FCA2EB0C027B
:1038A000CCF1280C60FA0CF093EA122F04BF00EB65
:1038B000C25070474FEAC3707047130A5FEADC10CA
:1038C00008BF7047F6E79CEA026F04D010EA5C0F6D
:1038D00008BF0020704710B5FFF73BFF40DFF63E02
:1038E00081F0004070470000083900080000002007
:1038F000980000006C010008A03900089800002022
:10390000F00800008801000800A24A04000000003E
:10391000000000000102030406070809000000007F
:103920000000000000000000000000000000000097
:103930000000000000000000900100009001000065
:10394000900100009001000020030000200300000F
:103950002003000020030000000000000000000021
:103960000000000000000000010000000000000056
:103970000000000000000000000000000000000047
:103980000000000000000000000000000000000037
:1039900001020304010203040607080902040608E1
:04000005080001D519
:00000001FF
