:020000040800F2
:10000000D0080020F9400008BD080008BF0800081B
:10001000C3080008C7080008CB080008000000005B
:10002000000000000000000000000000CF080008F1
:10003000D108000800000000D3080008D508000817
:100040001341000813410008134100081341000840
:100050001341000813410008134100081341000830
:100060001341000813410008134100081341000820
:100070001341000813410008134100081341000810
:100080001341000813410008134100081341000800
:10009000134100081341000813410008151E000811
:1000A00013410008134100081341000813410008E0
:1000B0001341000813410008490B000813410008D0
:1000C00013410008134100081341000813410008C0
:1000D000134100088B3F0008174000081341000837
:1000E00013410008134100081341000813410008A0
:1000F0001341000813410008134100081341000890
:10010000134100081341000813410008134100087F
:10011000134100081341000813410008134100086F
:10012000134100081341000813410008134100085F
:1001300000F002F800F042F80AA090E8000C8244B7
:100140008344AAF10107DA4501D100F037F8AFF294
:10015000090EBAE80F0013F0010F18BFFB1A43F0A5
:1001600001031847CC430000EC430000103A24BFC1
:1001700078C878C1FAD8520724BF30C830C144BF0C
:1001800004680C607047000000230024002500264E
:10019000103A28BF78C1FBD8520728BF30C148BFEA
:1001A0000B607047642904F04780732904F03181A3
:1001B000002070471FB51FBD10B510BD04F044F9F5
:1001C0001146FFF7F7FF00F025F804F062F903B4D9
:1001D000FFF7F2FF03BC03F02FFE000004460D46BC
:1001E0002A462146FAA003F0A9FF00BFFEE708B5A2
:1001F0000120ADF8000010208DF8030003208DF8D9
:1002000002006946FE4801F0CFFF0121FD4802F0DF
:100210007AF808BD03F0A6FD01F0AEFB01F046FE42
:10022000FF2003F0DCFD4FF4A06001F061FE4FF40D
:10023000165003F010FEFF2003F0D1FD4FF496405E
:1002400003F055FEFF2003F0CAFD03F05BFCFF2026
:1002500003F0C5FD40F2CF2140F2CF7000F00AFD5F
:10026000FF2003F0BCFD40F2CF2140F2CF7000F040
:10027000BDFC03F0CBFBFF2003F0B1FD03F0F4FB6A
:1002800003F01CFC01F0ECFCFF2003F0A8FD1121A1
:10029000282000F02CFCFF2003F0A1FD472144F6AC
:1002A0001F6001F059FDFF2003F099FD01F069FD89
:1002B000FF2003F094FD01F098FDFF2003F08FFD77
:1002C0002021CF4802F01DF82021CE4802F01BF873
:1002D000CD480188CD4803F04FF9CD480188CB487F
:1002E00003F04CF9CB480188C84803F049F9CA48E3
:1002F0000188C64803F046F9C84801884FF080409D
:1003000003F03AF9C64801884FF0804003F036F90F
:100310004FF40051BB4801F0F4FF4FF48041B9485D
:1003200001F0EFFF9CE200BF00BFBE48007801284B
:1003300068D10220BB49087040F27A71B548008844
:1003400003F0B2FC40F27A70B24908804FF4E261E7
:10035000B248008803F0F2FB4FF4E260AF49088036
:100360004FF4DE61A848008803F046FC4FF4DE60DD
:10037000A54908804FF4F061A648008803F0DEFB31
:100380004FF4F060A549088040F21771A148008839
:1003900003F08AFC40F217709E4908802BE04C2144
:1003A000A14803F06BFA00BF40219F4803F0D4FA44
:1003B0000128F9D164219C4803F060FA00BF402174
:1003C000994803F0C9FA0128F9D10D21964803F0A4
:1003D00055FA00BF4021944803F0BEFA0128F9D134
:1003E0000A21914803F04AFA00BF40218E4803F0E9
:1003F000B3FA0128F9D18D4800780028CFD0002029
:100400008A4908708A480078012867D10220884903
:10041000087040F219718048008803F071FC40F2C6
:1004200019707D490880411E7D48008803F0B5FBA6
:100430004FF4E3607A49088040F2057174480088FF
:1004400003F006FC40F20570714908804FF4EE613C
:100450007348008803F0A1FB4FF4EE6070490880F8
:1004600040F27F716C48008803F04AFC40F27F70D4
:10047000694908802BE052216B4803F0FFF900BF67
:100480004021694803F068FA0128F9D164216648DF
:1004900003F0F4F900BF4021634803F05DFA01283E
:1004A000F9D10D21604803F0E9F900BF40215E4811
:1004B00003F052FA0128F9D10A215B4803F0DEF972
:1004C00000BF4021584803F047FA0128F9D15948A4
:1004D00000780028CFD00020564908705648007890
:1004E000012853D102205449087000204D4908705A
:1004F0004F49087040F217714648008803F0D4FB5A
:1005000040F217704349088040F27F7142480088EA
:1005100003F0F6FB40F27F703F4908804FF4FA7019
:1005200003F05DFC4FF4FA7003F059FC4FF4E46102
:100530003A48008803F002FB4FF4E4603549088034
:100540004FF4E5613648008803F027FB4FF4E5607F
:10055000314908804FF4FA7003F041FC4FF4FA700F
:1005600003F03DFC40F23A712748008803F044FB59
:1005700040F23A70244908804FF4F0612448008822
:1005800003F066FB4FF4F0602149088080211C488D
:1005900001F09DFE00287DD00020224908702449EA
:1005A000087040F217711B48008803F07DFB40F291
:1005B00017701849088040F27F711748008803F0CF
:1005C0009FFB40F27F70144908804FF4FA7035E0C9
:1005D00057726F6E6720706172616D6574657273BA
:1005E0002076616C75653A2066696C6520257320FC
:1005F0006F6E206C696E652025640D0A0000000096
:1006000000180140000C01400400002000040040DC
:1006100006000020080000200A0000200C00002036
:100620000E0000203D000020003801404300002063
:100630003E000020440000203F00002003F0CFFBDC
:100640004FF4FA7003F0CBFB4FF4E4618548008867
:1006500003F074FA4FF4E460834908804FF4E561D5
:100660008248008803F099FA4FF4E56080490880D9
:100670004FF4FA7003F0B3FB4FF4FA7003F0AFFBE2
:1006800040F23A717B48008803F0B6FA40F23A70C3
:10069000784900E00CE008804FF4F061764800886B
:1006A00003F0D6FA4FF4F0607349088003F0EEF9D6
:1006B0007248007801283AD102207049087001F090
:1006C00060FA04462BE047216D4803F0D7F800BFDD
:1006D00040216C4803F040F90128F9D121466848CF
:1006E00003F0CCF800BF4021664803F035F901283B
:1006F000F9D10D21634803F0C1F800BF40216148E2
:1007000003F02AF90128F9D10A215E4803F0B6F86E
:1007100000BF40215B4803F01FF90128F9D15A4876
:1007200000780028CFD000205749087000BF5748F4
:100730000078012802D102205449087054480078FA
:10074000012826D102205249087000205149087022
:10075000012001F0DBFA002404E04F49487803F05F
:100760003EFB641C4C480078A042F6DC01F062FAC3
:10077000022001F0CBFA002404E04849487803F055
:100780002EFB641C45480078A042F6DC01F052FACA
:1007900000BF40480078012828D103F08FF90220DB
:1007A0003C49087000203A490870012001F08EFA97
:1007B000002404E03849487803F011FB641C3648F3
:1007C0000078A042F6DC01F035FA022001F07EFA52
:1007D000002404E03149487803F001FB641C2F48F1
:1007E0000078A042F6DC01F025FA00BF2C48007822
:1007F00040B1002026490870264908702849087031
:1008000001F018FA22480078022812D10121254867
:1008100002F01AFC03F04CF94FF47A602249088088
:10082000224908802249088022490880032018496B
:1008300008701D48008808B903F046F9144800788C
:10084000032806D13C2003F0CAFA01F01AFB01F09C
:1008500017FB0F480078042802D178201649087049
:1008600061E500000C000020080000200E000020C0
:100870000A000020040000200600002041000020A3
:1008800000440040003801404500002042000020A4
:100890004000002046000020000000200200002050
:1008A00047000020000800402C0000202E000020FF
:1008B000300000203200002034000020704700BFCC
:1008C000FEE700BFFEE700BFFEE700BFFEE77047A0
:1008D00070477047704700000CB5002001900090F1
:1008E0006C48006840F480306A49086000BF69487D
:1008F000006800F4003000900198401C01900098BE
:1009000018B90198B0F5A06FF1D16248006800F401
:10091000003010B10120009001E00020009000980C
:10092000012843D15C48006840F010005A49086033
:100930000846006820F0030008600846006840F0A0
:1009400002000860534840685249486008464068C1
:1009500048600846406840F4806048600846406847
:1009600020F47C1048600846406840F4E810486075
:100970000846006840F08070086000BF4548006885
:1009800000F000700028F9D04248406820F00300D1
:10099000404948600846406840F00200486000BF97
:1009A0003C48406800F00C000828F9D10CBD10B597
:1009B000FFF792FF10BD10B53648006840F0010007
:1009C0003449086008464068344908403149486065
:1009D00008460068324908402E4908600846006809
:1009E00020F4802008600846406820F4FE0048603B
:1009F0004FF41F008860FFF7DAFF4FF000602949CD
:100A0000086010BD10B5002100200022214B5B685A
:100A100003F00C0121B1042906D0082928D107E0F0
:100A2000214B224C236027E01F4B204C236023E006
:100A3000184B5B6803F47010164B5B6803F480324C
:100A4000022303EB904022B9194B4343174C236018
:100A50000DE0104B5B6803F4003323B1144B4343A8
:100A6000124C236003E0104B4343104C236003E01F
:100A70000D4B0E4C236000BF00BF064B5B68C3F3F9
:100A800003130C4CE15C094B1B68CB40074C236003
:100A900010BD000000100240002002400000FFF8DE
:100AA000FFFFF6FE08ED00E000127A0018000020BB
:100AB00000093D001C00002070B505460C4612E000
:100AC00000BF8021284602F047FF0028F9D0217896
:100AD000284602F0D3FE00BF4021284602F03CFF2A
:100AE0000028F9D1641C20780028E9D170BD7FB5B9
:100AF00005460C460021FE4802F0A6FAADF8085063
:100B0000ADF804400020ADF80A00ADF8060001A9D8
:100B1000F74801F03DFF01221146F54802F0AFFA17
:100B20001E208DF8000000208DF8010003208DF8B4
:100B3000020001208DF80300684601F0DEF9002173
:100B4000EB4802F081FA7FBD10B50121E84802F0C0
:100B500044FD002849D00121E54802F04FFDE54859
:100B60000078401CE3490870E3480078401CE249E3
:100B70000870E0480078E1490978884235DB0020B8
:100B8000DC490870DE48008800282EDDDD4800784A
:100B900004280ADC022001F099F8DA4800780028DD
:100BA00005DC0A20D749087001E001F043F8D54878
:100BB0000078401ED3490870D3480078D3490860B4
:100BC000D1480078D249C1F89401CF480078C1F8E3
:100BD0009C01CD480078C1F8A401CB48007808B941
:100BE000012000E00020C849087010BD30B587B072
:100BF00005460C460121052001F092FD0121084621
:100C000001F09BFDADF81450ADF810400020ADF898
:100C10001600ADF8120004A94FF0804001F0B8FEB4
:100C20007020ADF800000120ADF802000020ADF802
:100C3000080069464FF0804001F0E7FE0821C80631
:100C400002F032FB7020ADF800000120ADF8020088
:100C50000020ADF8080069464FF0804001F017FF12
:100C60000821C80602F029FB0121880702F0ECF9EF
:100C700007B030BD30B587B005460C4601210920CC
:100C800001F04EFD0121022001F057FDADF8145096
:100C9000ADF810400020ADF81600ADF8120004A920
:100CA0009C4801F075FE7020ADF800000120ADF801
:100CB00002000020ADF808006946964801F0A5FE44
:100CC0000821944802F0F0FA7020ADF800000120ED
:100CD000ADF802000020ADF8080069468D4801F02B
:100CE000D6FE08218B4802F0E8FA7020ADF800002B
:100CF0000120ADF802000020ADF8080069468548E3
:100D000001F012FF0821834802F0E4FA7020ADF8E8
:100D100000000120ADF802000020ADF8080069468F
:100D20007C4801F04CFF08217A4802F0DCFA0121EE
:100D3000784802F089F907B030BD00B591B0764827
:100D4000008800F4004000287ED073480088C0F37B
:100D50000D007249088072480078622875D010DC56
:100D60004C2843D006DC422870D046286FD0472854
:100D70006ED199E150286CD052286BD06128F7D100
:100D8000E2E1732867D006DC63287DD064287CD03C
:100D90006728EDD1FDE3742878D0752802D0762835
:100DA000E6D1E3E375215F4802F068FD00BF402112
:100DB0005C4802F0D1FD0128F9D10D21594802F01B
:100DC0005DFD00BF4021574802F0C6FD0128F9D162
:100DD0000A21544802F052FD00BF4021514802F060
:100DE000BBFD0128F9D101F04CF8FFE14C484078F7
:100DF000712850D14C48007810B901204A49087038
:100E000037E04C21474802F039FD00BF40214548FA
:100E100002F0A2FD0128F9D17221424802F02EFD14
:100E200000BF40213F4802F097FD0128F9D10D2174
:100E30003C4802F023FD00BF40213A4802F08CFDFF
:100E40000128F9D10A2107E0FEE3D0E117E2E6E04C
:100E5000FBE39CE027E05AE2324802F00FFD00BFBE
:100E60004021304802F078FD0128F9D100202A49BC
:100E700008802948008800F4004098B1284800788C
:100E80004C280FD1264802E01FE3FCE3A8E240789B
:100E90007128B6D006E022484078642802D10120AB
:100EA00022490870A1E71E484078712867D1204880
:100EB000007810B901201E49087052E052211948EB
:100EC00002F0DCFC00BF4021164802F045FD01287D
:100ED000F9D17221134802F0D1FC00BF4021114822
:100EE00002F03AFD0128F9D10D210E4822E0000060
:100EF00000080040380000203900002034000020A5
:100F00002C0000203600002037000020988121426C
:100F10000080214200040040A400002010000020B6
:100F2000DA000020003801403D000020430000208E
:100F30003E00002002F0A2FC00BF4021FE4802F06B
:100F40000BFD0128F9D10A21FB4802F097FC00BFF4
:100F50004021F94802F000FD0128F9D10020F749AD
:100F60000880F648008800F4004078B1F448007822
:100F700052280BD1F248407871289FD006E0F04803
:100F80004078642802D10120EE4908702DE7EC4832
:100F90004078712842D1EC48007810B90120EA4924
:100FA00008702EE05021E44802F068FC00BF4021A8
:100FB000E14802F0D1FC0128F9D17221DE4802F0AB
:100FC0005DFC00BF4021DC4802F0C6FC0128F9D1DD
:100FD0000D21D94802F052FC00BF4021D64802F052
:100FE000BBFC0128F9D10A21D34802F047FC00BF1D
:100FF0004021D14802F0B0FC0128F9D10020CF49AE
:101000000880CE48008800F4004038B1CC48007811
:10101000502803D1CA4840787128C3D0E5E6C848B3
:10102000407871283FD10120C84908702EE0462140
:10103000C14802F023FC00BF4021BF4802F08CFCF5
:101040000128F9D17221BC4802F018FC00BF4021F0
:10105000B94802F081FC0128F9D10D21B64802F00F
:101060000DFC00BF4021B44802F076FC0128F9D104
:101070000A21B14802F002FC00BF4021AE4802F054
:101080006BFC0128F9D10020AC490880AB480088EE
:1010900000F4004038B1AA480078462803D1A84897
:1010A00040787128C3D0A0E6A5484078712843D184
:1010B000A748007810B90120A54908702EE0472103
:1010C0009D4802F0DBFB00BF40219B4802F044FC3E
:1010D0000128F9D17221984802F0D0FB00BF4021CD
:1010E000954802F039FC0128F9D10D21924802F00F
:1010F000C5FB00BF4021904802F02EFC0128F9D129
:101100000A218D4802F0BAFB00BF40218A4802F054
:1011100023FC0128F9D100208849088087480088ED
:1011200000F4004078B18648007847280BD1844805
:1011300040787128C3D006E081484078642802D105
:1011400001208449087050E6834800787F49097877
:10115000824A1278824B1B78CDE90C32CDE90E1011
:10116000804802888048008880490988804B1B8815
:10117000CDE90831CDE90A027E4840787D490978F9
:101180007D4A52787C4B1B78CDE90432CDE90610BC
:101190007A4800787A490A787A4909887A4B1B8814
:1011A000CDE90031CDE902207848038878480288EB
:1011B0007849794802F0CEFF77495F48FFF77CFC19
:1011C0000D215D4802F05AFB00BF40215A4802F051
:1011D000C3FB0128F9D10A21574802F04FFB00BF99
:1011E0004021554802F0B8FB0128F9D1BEE354482C
:1011F0004078712842D15848007810B901205649EA
:1012000008702EE062214C4802F038FB00BF4021FC
:10121000494802F0A1FB0128F9D17221464802F0A9
:101220002DFB00BF4021444802F096FB0128F9D174
:101230000D21414802F022FB00BF40213E4802F050
:101240008BFB0128F9D10A213B4802F017FB00BFB4
:101250004021394802F080FB0128F9D100203749AC
:1012600008803648008800F4004038B134480078DF
:10127000622803D1324840787128C3D076E33048E1
:101280004078712842D14548007810B9012043497F
:1012900008702EE04221284802F0F0FA00BF4021F9
:1012A000254802F059FB0128F9D17221224802F0A9
:1012B000E5FA00BF4021204802F04EFB0128F9D199
:1012C0000D211D4802F0DAFA00BF40211A4802F051
:1012D00043FB0128F9D10A21174802F0CFFA00BFD9
:1012E0004021154802F038FB0128F9D100201349AC
:1012F00008801248008800F4004038B11048007897
:10130000422803D10E4840787128C3D02EE3012033
:10131000234908705AE07321074802F0AFFA00BF72
:101320004021054802F018FB0128F9D10D2102489F
:1013300002F0A4FA00BF35E000380140A40000200C
:10134000DA000020440000203F0000204000002080
:10135000410000204500002046000020150000202C
:10136000140000200A0000200800002006000020D1
:1013700004000020020000200000002035000020B2
:101380003400002032000020300000202E00002019
:101390002C000020A8440008A800002042000020E3
:1013A000470000204021FE4802F0D6FA0128C2D1B1
:1013B0000A21FB4802F062FA00BF4021F84802F01F
:1013C000CBFA0128F9D10020F6490880F5480088B9
:1013D00000F4004018B1F448007873289BD0C5E2AF
:1013E000F1484078012802D003286BD13AE0EE485A
:1013F0008078EE490880084600884FF6FF7101EAC0
:101400000020EA490880E848C07809880844E7498C
:101410000880E5480079E64908700020E549087031
:101420005421DF4802F02AFA00BF4021DC4802F0D4
:1014300093FA0128F9D10D21D94802F01FFA00BF13
:101440004021D74802F088FA0128F9D10A21D4486E
:1014500002F014FA00BF4021D14802F07DFA0128C1
:10146000F9D130E0D0488078D34908800846008818
:101470004FF6FF7101EA0020CF490880CA48C078C2
:1014800009880844CC490880C7480079CB490870CE
:101490000020CB4908705421C14802F0EFF900BF89
:1014A0004021BF4802F058FA0128F9D10D21BC486B
:1014B00002F0E4F900BF4021B94802F04DFA0128DA
:1014C000F9D100BF00BF00BF00BFB74840786C280B
:1014D0004BD1B5488078632847D10020B9490870BE
:1014E000B9490870B9490870B9490870B949087014
:1014F000B9490870B9490870B94908706321A8480A
:1015000002F0BCF900BF4021A54802F025FA0128ED
:10151000F9D16C21A24802F0B1F900BF4021A048E6
:1015200002F01AFA0128F9D163219D4802F0A6F9C8
:1015300000BF40219A4802F00FFA0128F9D10D218D
:10154000974802F09BF900BF4021954802F004FA49
:101550000128F9D10A21924802F090F900BF4021F8
:101560008F4802F0F9F90128F9D1FFE176218C4882
:1015700002F084F900BF4021894802F0EDF901280A
:10158000F9D10D21864802F079F900BF4021844845
:1015900000E022E002F0E0F90128F7D10A218048BA
:1015A00002F06CF900BF40217D4802F0D5F9012816
:1015B000F9D17D484078012802D003280AD104E0FF
:1015C000794880787A49087005E0774880787B49C7
:1015D000087000E000BF00BFC8E1734840780728EA
:1015E00072D2DFE800F071043B72A6DBDA006E48CD
:1015F00080787C490880084600884FF6FF7101EA30
:101600000020784908806848C078098808447549EE
:1016100008805421624802F031F900BF402160483F
:1016200002F09AF90128F9D10D215D4802F026F95E
:1016300000BF40215A4802F08FF90128F9D10A2150
:10164000574802F01BF901E094E18EE100BF402110
:10165000534802F081F90128F9D134E152488078E9
:1016600061490880084600884FF6FF7101EA0020B2
:101670005D4908804C48C078098808445A49088068
:101680005421474800E020E102F0F8F800BF402173
:10169000434802F061F90128F9D10D21404802F0D8
:1016A000EDF800BF40213E4802F056F90128F9D17B
:1016B0000A213B4802F0E2F800BF4021384802F01E
:1016C0004BF90128F9D1FEE0FCE037488078474922
:1016D0000880084600884FF6FF7101EA0020434960
:1016E00008803148C078098808444049088054215E
:1016F0002B4802F0C3F800BF4021294802F02CF922
:101700000128F9D10D21264802F0B8F800BF402188
:10171000234802F021F90128F9D10A21204802F0DA
:10172000ADF800BF40211E4802F016F90128F9D19A
:10173000C9E01D4880782E490880084600884FF689
:10174000FF7101EA00202A4908801748C0780988FB
:101750000844274908805421114802F08FF800BF3F
:1017600040210F4802F0F8F80128F9D10D210C486A
:1017700002F084F800BF4021094802F0EDF801288A
:10178000F9D10A21064802F079F800BF4021044847
:1017900002F0E2F80128F9D195E05FE02AE00000CC
:1017A00000380140A4000020DA0000202C000020B6
:1017B00034000020380000203000002035000020D8
:1017C00039000020400000203D0000203E000020A5
:1017D00042000020460000203F0000204100002081
:1017E0004700002004000020060000200800002020
:1017F0000A0000206748807867490880084600880A
:101800004FF6FF7101EA0020634908806148C07803
:1018100009880844604908805421604802F02EF885
:1018200000BF40215D4802F097F80128F9D10D2151
:101830005A4802F023F800BF4021584802F08CF8C3
:101840000128F9D10A21554802F018F800BF4021BB
:10185000524802F081F80128F9D134E04D488078EF
:101860004F490880084600884FF6FF7101EA0020C2
:101870004B4908804748C07809880844484908808F
:101880005421464801F0FAFF00BF4021434802F0CE
:1018900063F80128F9D10D21404801F0EFFF00BFA6
:1018A00040213E4802F058F80128F9D10A213B486E
:1018B00001F0E4FF00BF4021384802F04DF8012854
:1018C000F9D100E000BF00BF50E032484078012865
:1018D0000CD0022812D0742818D12E4880783149B3
:1018E00008702C48C0783049087010E0294880788A
:1018F0002E4908702748C078487008E0254880784D
:101900002B4908702348C078487000E000BF00BF32
:101910004F21224801F0B2FF00BF40211F4802F0D2
:101920001BF80128F9D14B211C4801F0A7FF00BF8B
:1019300040211A4802F010F80128F9D10D2117486A
:1019400001F09CFF00BF4021144802F005F8012877
:10195000F9D10A21114801F091FF00BF40210F4841
:1019600001F0FAFF0128F9D100E000BF00BF00201C
:101970001049088011B000BD10B501210E2000F003
:10198000DCFE0121092000F0CBFE0121442000F003
:10199000C7FE10BDDA0000200C0000200038014016
:1019A0000E00002015000020140000200000002080
:1019B00002000020A40000201FB500200390002496
:1019C0000090019002900A21934802F061FB0EE022
:1019D0009248008800F4004020B103A9684602F054
:1019E0006BFB06E0601CC4B20A2002F0F8F9322C4E
:1019F000EEDB00BF0020894908809DF80C000A2812
:101A000005D19DF8080010B9012004B010BD0020D8
:101A1000FBE730B587B00546142101A802F046FC6B
:101A200009217F4802F034FB00240EE07B48008847
:101A300000F4004020B106A901A802F03DFB06E039
:101A4000601CC4B20A2002F0CAF9322CEEDB00BFDF
:101A50000020724908809DF8180013280DD1002439
:101A600006E001A904F10A00085C2855601CC4B214
:101A7000082CF6DB012007B030BD0020FBE770B575
:101A800086B005460E460024002005900190029085
:101A90000390049000BF06E0295D624A04F109004A
:101AA0001154601CC4B2082CF6DB00205D49C874D8
:101AB000042408E05B48005D5A49C97C4840594904
:101AC000C874601CC4B2132CF4DB1421554802F016
:101AD000DFFA00240EE05148008800F4004020B1F5
:101AE00005A901A802F0E8FA06E0601CC4B20A20C9
:101AF00002F075F9322CEEDB00BF00204749088068
:101B00009DF814000E280DD1002406E001A904F16F
:101B10000900085C3055601CC4B2022CF6DB0120C1
:101B200006B070BD0020FBE71FB500200390002425
:101B30000090019002900A213B4802F0A9FA0EE0C1
:101B40003648008800F4004020B103A9684602F03E
:101B5000B3FA06E0601CC4B20A2002F040F9322C4D
:101B6000EEDB00BF00202D4908809DF80C000A28FC
:101B700005D19DF8080010B9012004B010BD002067
:101B8000FBE770B500250A2408E0FFF715FF0546BE
:101B90004FF47A7002F023F9601EC4B20DB9002C24
:101BA000F3D10A24002509E02048FFF732FF05465B
:101BB0004FF47A7002F013F9601EC4B20DB9002C14
:101BC000F2D10A2400250AE019491848FFF757FF07
:101BD00005464FF47A7002F002F9601EC4B20DB9E6
:101BE000002CF1D10A24002508E0FFF79DFF0546EF
:101BF0004FF47A7002F0F3F8601EC4B20DB9002CF5
:101C0000F3D10A2400250A48407810B90848007822
:101C100070BD0020FCE7000048000020A600002066
:101C2000520000205B0000206F000020790000209F
:101C30008100002010B54FF40061444800F063FBC0
:101C40004FF40051424800F05EFB4FF480513F4892
:101C500000F059FB4FF480413D4800F054FB10BDAB
:101C600008B54FF4C040ADF8000010208DF8030017
:101C700003208DF802006946364800F095FA4FF4CB
:101C80000051344800F03FFB4FF48041314800F0F0
:101C90003AFB4FF4C050ADF8000010208DF803005F
:101CA00003208DF802006946284800F07DFA4FF4C1
:101CB000C040ADF8000010208DF8030003208DF81F
:101CC00002006946224800F06FFA08BD10B50446CC
:101CD000012C02D0022C16D10AE04FF400611B48FF
:101CE00000F00FFB4FF48051184800F00CFB0BE0A4
:101CF0004FF40051164800F004FB4FF480411448A3
:101D000000F001FB00E000BF00BF10BD10B50446AD
:101D1000012C02D0022C16D10AE04FF400610B48CE
:101D200000F0F1FA4FF48051084800F0EAFA0BE0B5
:101D30004FF40051064800F0E6FA4FF480410448A1
:101D400000F0DFFA00E000BF00BF10BD0008014056
:101D500000180140000C01403EB504460D46ADF8A8
:101D60000050ADF804400020ADF80600ADF80200C8
:101D700069464A4800F00CFE0121484801F064F928
:101D80003EBD0EB54FF40070ADF8080028208DF868
:101D90000B0003208DF80A0002A9414800F004FA64
:101DA0000921042000F016FB4FF400700090002081
:101DB0008DF8040010208DF8050001208DF8060034
:101DC000684600F011F90121402000F0A9FC4020F4
:101DD000ADF8080010208DF80B0003208DF80A00E4
:101DE00002A92F4800F0E0F90EBD08B54FF4A0603D
:101DF00000F07EF817208DF8000001208DF801001A
:101E000000208DF8020001208DF80300684600F0E4
:101E100074F808BD10B54FF4007000F04BF928B30A
:101E20004FF4007000F057F91D480830006800F4C6
:101E30000070E0B91B480078C8B1184801F0BBFB3E
:101E4000044600201749087017480088A04208DDA2
:101E500015480088201A44F6206108441249088079
:101E600004E011480088201A0F49088007E001208B
:101E70000C490870094801F09EFB0B49088010BD11
:101E8000704710B54021064800F03BFA3C2001F0B5
:101E900082FF4021024800F036FA10BD000C0040DD
:101EA00000180140860000208400002008B5802032
:101EB000ADF8000028208DF8030003208DF8020003
:101EC00069460A4800F070F92020ADF800001020A3
:101ED0008DF8030003208DF802006946034800F0E6
:101EE00063F92021014800F00EFA08BD00180140F6
:101EF00031490143314A1160704770B50021002318
:101F00000F22C47804B32D4C246804F4E064C4F5B3
:101F1000E064210AC1F10403CA40447804FA03F1E1
:101F20008478144021430901254C0678A155047892
:101F300004F01F050124AC4005786D11AD0005F1DA
:101F4000E025C5F8004109E0047804F01F050124EC
:101F5000AC401C4D0678761145F8264070BD1A4AF3
:101F60000A400243154B1B1F1A60704739B1134AD0
:101F7000121D12680243114B1B1D1A6006E00F4A26
:101F8000121D126882430D4B1B1D1A6070470428F6
:101F900008D14FF0E021096941F004014FF0E0223F
:101FA000116107E04FF0E021096921F004014FF0D1
:101FB000E0221161704700000000FA050CED00E01E
:101FC00000E400E080E100E080FFFF1F00204449C2
:101FD0000860091D0860091D0860091D0860414866
:101FE0003F4914310860704700213D498279002A39
:101FF0003AD00A46126803689A430B461A600A1DD3
:10200000126803689A430B1D1A60027911440A682A
:1020100003681A430A60324A0832126803689A4316
:102020002F4B08331A601A1D126803689A432C4B11
:102030000C331A604279102A0ED11A1F12680368F5
:102040001A43274B08331A601A1D126803681A4393
:10205000234B0C331A600DE02149427911440A6880
:1020600003681A430A6005E0027911440A680368AC
:102070009A430A6070470021016001710C2141718F
:102080000021817170471649103109680143144AD3
:1020900010321160704701460020114A1432126854
:1020A0000A400AB1012000E0002070470C491431B9
:1020B00008607047014600200022094B1B6803EAB4
:1020C0000102074B14331B680B4013B10AB1012006
:1020D00000E000207047024914310860704700009A
:1020E00000040140FFFF0F0010B50446CC488442B5
:1020F00008D10121042000F02DFB0021042000F074
:1021000029FB46E0C748844208D10121082000F09D
:1021100021FB0021082000F01DFB3AE0C248844268
:1021200008D10121102000F015FB0021102000F043
:1021300011FB2EE0BD48844208D10121202000F08F
:1021400009FB0021202000F005FB22E0B848844272
:1021500008D10121402000F0FDFA0021402000F0CC
:10216000F9FA16E0B348844208D10121802000F03A
:10217000F1FA0021802000F0EDFA0AE0AE48844236
:1021800007D10121801500F0E5FA0021A01500F02B
:10219000E1FA10BD10B50121084600F0DBFA00217C
:1021A000012000F0D7FA10BD2DE9F04102460025CC
:1021B0000026002000230024002791F803C00CF023
:1021C0000F0591F803C00CF0100CBCF1000F03D008
:1021D00091F802C04CEA050591F800C0BCF1000F6F
:1021E00031D0146800202BE04FF0010C0CFA00F302
:1021F000B1F800C00CEA03069E4220D183004FF0E4
:102200000F0C0CFA03F7BC4305FA03FC4CEA040478
:1022100091F803C0BCF1280F06D14FF0010C0CFA65
:1022200000FCC2F814C00AE091F803C0BCF1480FEA
:1022300005D14FF0010C0CFA00FCC2F810C0401C94
:102240000828D1D31460B1F800C0BCF1FF0F34DD11
:10225000546800202EE000F1080C4FF0010808FA45
:102260000CF3B1F800C00CEA03069E4221D18300B2
:102270004FF00F0C0CFA03F7BC4305FA03FC4CEAD1
:10228000040491F803C0BCF1280F05D100F1080C3B
:1022900008FA0CF8C2F8148091F803C0BCF1480F9A
:1022A00007D100F1080C4FF0010808FA0CF8C2F849
:1022B0001080401C0828CED35460BDE8F0814FF652
:1022C000FF710180022181700421C17070470246B4
:1022D000002093680B400BB1012000E00020704704
:1022E0000146886880B2704702460020D3680B40E0
:1022F0000BB1012000E0002070470146C86880B2A1
:10230000704701617047416170470AB1016100E0A7
:1023100041617047C16070474FF480320A43826167
:102320008161826182698269704702460020434B65
:1023300018684FF68073184040EA021008433F4B7C
:10234000186070473E49C8617047F0B50A460023DF
:1023500000240021002500F00046B6F1004F02D114
:10236000364EF16901E0354E7168C0F3034583B222
:1023700000F44016B6F5401F08D121F070612F4ED1
:10238000766826F070662D4F7E6012E000F48016AD
:10239000B6F5801F06D1032606FA05F4A14341F0E5
:1023A000706106E0460D360103FA06F6B14341F0CE
:1023B000706122B1460D360103FA06F6314300F092
:1023C0000046B6F1004F02D11C4EF16101E01B4EF8
:1023D0007160F0BD30B500228B071C0F0F2303FA8C
:1023E00004F2164B08338C1053F824309343134CEB
:1023F00008348D1044F8253023468C1053F82430CF
:102400008C07240F00FA04F423430C4C08348D107D
:1024100044F8253030BD0A49DC31086070470000BF
:1024200000080140000C0140001001400014014070
:1024300000180140001C0140002001400000014044
:1024400000002042DF48006840F00100DD490860DC
:1024500008464068DC490840DA4948600846006898
:10246000DA490840D74908600846006820F480200F
:1024700008600846406820F4FE0048604FF41F00E2
:1024800088607047CF49096821F48031CD4A1160D6
:102490001146096821F480211160B0F5803F03D016
:1024A000B0F5802F0ED106E0C649096841F48031AD
:1024B000C44A116007E0C349096841F4A021C14A38
:1024C000116000E000BF00BF704710B50146002258
:1024D000002300204A11012A02D1BA4C236806E0E9
:1024E000022A02D1B74C236A01E0B64C636A01F0BC
:1024F0001F02012494401C400CB1012000E0002088
:1025000010BD38B5002000900024002500BF312008
:10251000FFF7DBFF05460098401C00900098B0F5DF
:10252000A06F01D0002DF2D03120FFF7CEFF08B10F
:10253000012400E00024204638BD01460020A14AC5
:10254000106820F0F80040EAC10010607047A04910
:1025500008607047024600209A4B586820F47C10AF
:1025600042EA01031843974B586070479849086640
:10257000704701460020934A506820F0030008434A
:10258000506070478F48406800F00C00704701466B
:1025900000208C4A506820F0F000084350607047DB
:1025A00001460020874A506820F4E06008435060EC
:1025B000704701460020834A506820F4605040EA8A
:1025C000C1005060704729B17E4A527A02437D4B68
:1025D0005A7204E07B4A527A82437A4B5A727047AD
:1025E0007B49D8310860704701460020754A506821
:1025F00020F440400843506070470021714A203267
:102600001170704A82F82010012802D004280AD1E3
:1026100004E001216B4A2032117005E00521694A6E
:102620002032117000E000BF00BF704769490860A8
:1026300070476449096A0143624A116270476549FB
:1026400044390860704730B500210022002400237F
:102650005C4D6D6805F00C0121B1042905D00829F5
:1026600023D105E05C4D056022E05B4D05601FE075
:10267000544D6D6805F47012524D6D6805F4803448
:10268000022505EB92421CB9544D554305600BE001
:102690004C4D6D6805F400351DB1504D5543056036
:1026A00002E04D4D5543056002E04B4D056000BF13
:1026B00000BF444D6D6805F0F0010909484D6B5CA1
:1026C0000568DD4045603F4D6D6805F4E061090A2D
:1026D000434D6B5C4568DD4085603A4D6D6805F49F
:1026E0006051C90A3E4D6B5C4568DD40C560354DA3
:1026F0006D6805F44041890B3A4D6B5CC568B5FBCC
:10270000F3F5056130BD29B12E4A526902432D4BC4
:102710005A6104E02B4A526982432A4B5A6170473E
:1027200029B1284A92690243264B9A6104E0254A5E
:1027300092698243234B9A61704729B1214AD26939
:102740000243204BDA6104E01E4AD26982431D4BEA
:10275000DA61704729B11B4AD2680243194BDA602B
:1027600004E0184AD2688243164BDA60704729B1F8
:10277000144A12690243134B1A6104E0114A1269A8
:102780008243104B1A617047124940390860704704
:102790000F49C86470470B49C87170470948406ABF
:1027A00040F0807007494862704701460020054AA2
:1027B00092680A400AB1012000E0002070470149F8
:1027C00088727047001002400000FFF8FFFFF6FE1D
:1027D000000042428004424200127A0000093D009B
:1027E000870000209700002010B50446FE48844270
:1027F00008D10121C014FFF7ADFF0021E014FFF75D
:10280000A9FFC4E0B4F1804F08D101210846FFF7C9
:10281000AEFF00210120FFF7AAFFB8E0F348844291
:1028200008D101210220FFF7A2FF00210220FFF7BB
:102830009EFFACE0EE48844208D101210420FFF75E
:1028400096FF00210420FFF792FFA0E0E9488442B0
:1028500008D101210820FFF78AFF00210820FFF797
:1028600086FF94E0E448844208D101211020FFF75C
:102870007EFF00211020FFF77AFF88E0DF488442C6
:1028800008D101212020FFF772FF00212020FFF74F
:102890006EFF7CE0DA48844208D101214014FFF742
:1028A00059FF00216014FFF755FF70E0D5488442BE
:1028B00009D10121C804FFF74DFF00214FF400208A
:1028C000FFF748FF63E0D048844209D101210805A1
:1028D000FFF740FF00214FF48010FFF73BFF56E069
:1028E000CA48844209D101214805FFF733FF00217E
:1028F0004FF40010FFF72EFF49E0C548844208D18D
:1029000001214020FFF733FF00214020FFF72FFF78
:102910003DE0C048844208D101218020FFF727FF15
:1029200000218020FFF723FF31E0BB48844208D11B
:1029300001218015FFF71BFF0021A015FFF717FFEE
:1029400025E0B648844209D101210804FFF702FFBF
:1029500000214FF48030FFF7FDFE18E0B0488442BC
:1029600009D101214804FFF7F5FE00214FF40030A2
:10297000FFF7F0FE0BE0AB48844208D10121880448
:10298000FFF7E8FE00214FF48020FFF7E3FE10BDC3
:1029900000220288944B98420ED0994B98420BD05B
:1029A000B0F1804F08D0914B984205D0904B98429F
:1029B00002D0904B984204D14FF68F731A404B8847
:1029C0001A438D4B984207D08C4B984204D04FF657
:1029D000FF431A40CB881A4302808B8883850B887B
:1029E0000385814B98420BD0854B984208D08B4B86
:1029F000984205D08A4B984202D08A4B984201D126
:102A00000B7A038601238382704770B5002400226D
:102A10000023058C4FF6FE7635400584028C8388B2
:102A2000048B4FF68F752C40B51E2C400D882C431F
:102A3000751E2A400D892A434D882A436A4DA842B3
:102A40000BD06F4DA84208D0744DA84205D0744DEC
:102A5000A84202D0734DA84213D14FF6F7752A4011
:102A60004D892A434FF6FB752A408D882A434FF63D
:102A7000FF652B404FF6FF552B408D892B43CD89A9
:102A80002B4383800483CD888586028470BD70B516
:102A9000002400220023058C4FF6EF763540058494
:102AA000028C8388048B48F6FF752C404FF6FF4557
:102AB0002C400D884FF6FF7606EA05252C434FF68D
:102AC000DF752A400D8906EA05152A434D8806EA76
:102AD00005152A43444DA84202D0494DA8421DD1B4
:102AE0004FF67F752A404D894FF6FF7606EA0515A9
:102AF0002A434FF6BF752A408D8806EA05152A43FA
:102B00004FF6FF352B404FF2FF752B408D8906EABB
:102B100085052B43CD8906EA85052B4383800483F5
:102B2000CD880587028470BD70B500240022002383
:102B3000058C4FF6FF6635400584028C8388848BB4
:102B40004FF68F752C404FF6FC752C400D882C43AA
:102B50004FF6FF552A400D894FF6FF7606EA052508
:102B60002A434D8806EA05252A431F4DA84202D074
:102B7000234DA8421DD14FF2FF752A404D894FF6D3
:102B8000FF7606EA05252A434FF6FF352A408D8851
:102B900006EA05252A434EF6FF752B404DF6FF75D4
:102BA0002B408D8906EA05152B43CD8906EA0515CC
:102BB0002B4383808483CD888587028470BD70B564
:102BC000002200230024058C4EF6FF763540058454
:102BD000038C8488828B48F6FF752A404FF6FF45A8
:102BE0002A400D8820E00000002C01400004004035
:102BF00000080040000C004000100040001400409D
:102C000000340140004C014000500140005401409C
:102C100000180040001C004000200040004001401F
:102C200000440140004801404FF6FF7606EA0525C2
:102C30002A434DF6FF752B400D8906EA05352B43D7
:102C40004D8806EA05352B43FA4DA84202D0FA4DCD
:102C5000A84208D14BF6FF752C408D894FF6FF76C0
:102C600006EA85152C4384808283CD88A0F84050E5
:102C7000038470BD828B4FF2FF331A408283828BB4
:102C80004FF6FF7303EA01231A4382837047F0B5BE
:102C90000C461546002200210026078C4EF6FF7CCC
:102CA00007EA0C070784828B018C4FF6FF7707EA4F
:102CB000043640F6FF473A404FF6FF7707EA05270C
:102CC0003A434FF6FF7707EA03373A43D94FB84202
:102CD0000ED0D94FB8420BD0B0F1804F08D0D74FAB
:102CE000B84205D0D64FB84202D0D64FB84206D12E
:102CF0004DF6FF77394046F48057394305E047F6F3
:102D0000FF57394044F48057394382830184F0BD32
:102D1000828B4FF6F3731A408283828B0A4382833D
:102D20007047F0B50C461546002200210026078C9E
:102D30004FF6FF6C07EA0C070784828B018C4FF675
:102D4000FF7707EA04264FF60C773A404FF6FF77F5
:102D500007EA03172F433A43B64FB8420ED0B64F97
:102D6000B8420BD0B0F1804F08D0B44FB84205D074
:102D7000B34FB84202D0B34FB84206D14FF6FF5717
:102D8000394046F48077394305E04FF2FF57394028
:102D900044F48077394382830184F0BD028B4FF283
:102DA000FF331A400283028B4FF6FF7303EA0123BD
:102DB0001A4302837047F0B50C46154600220021E5
:102DC0000026078C4FF6EF7C07EA0C070784028B7E
:102DD000018C4FF6FF7707EA041640F6FF473A40AA
:102DE0004FF6FF7707EA03373A434FF6FF7707EAD4
:102DF00005273A438F4FB8420ED08F4FB8420BD0C1
:102E0000B0F1804F08D08D4FB84205D08C4FB842FA
:102E100002D08C4FB84206D14FF6DF77394046F0EA
:102E20001007394305E04FF65F77394044F010074B
:102E3000394302830184F0BD028B4FF6F3731A40CD
:102E40000283028B0A4302837047F0B50C46154695
:102E500000220021068C4FF6FE773E400684028B4E
:102E6000018C4FF60C7632407E1C06EA03162E4388
:102E70003243704EB0420ED06F4EB0420BD0B0F124
:102E8000804F08D06D4EB04205D06D4EB04202D09A
:102E90006C4EB04206D14FF6FD76314044F001064B
:102EA000314305E04FF6F576314044F001063143F9
:102EB00002830184F0BD70B505460C465D4885422D
:102EC0000ED05D4885420BD0B5F1804F08D05B48ED
:102ED000854205D05A48854202D05A48854200D1E1
:102EE00000E000BF208850B92389A2886188284665
:102EF000FFF7ABFFE1882846FFF79EFF25E020881B
:102F000004280AD12389A28861882846FFF753FF45
:102F1000E1882846FFF742FF17E0208808280AD1F9
:102F20002389A28861882846FFF7FBFEE1882846AE
:102F3000FFF7EEFE09E02389A28861882846FFF7A3
:102F4000A6FEE1882846FFF795FE70BD2DE9F04109
:102F500005460C4600260127608808B9022600E0D5
:102F60000026A088012801D1022700E0012720883F
:102F7000A0B92389A28861882846FFF766FFE18807
:102F80002846FFF759FF23893A4631462846FFF77E
:102F900012FFE1882846FFF701FF13E02389A2888A
:102FA00061882846FFF707FFE1882846FFF7F6FE0D
:102FB00023893A4631462846FFF747FFE1882846ED
:102FC000FFF73AFFBDE8F0810A884B881A438B88E7
:102FD0001A43CB881A430B891A434B891A438B89AE
:102FE0001A43A0F8442070474FF6FF7181800021FA
:102FF0000180C180418001727047002101804180C1
:103000008180C180018141818181C181704700211E
:1030100001804180012181800021C18001817047B0
:103020000021018041808180C180018141818181B5
:1030300070470000002C01400034014000040040B3
:1030400000080040000C004021B1028842F001025B
:10305000028004E002884FF6FE731A400280704737
:1030600031B1B0F8442042F40042A0F8442005E019
:10307000B0F84420C2F30E02A0F8442070471AB101
:1030800083890B43838102E083898B43838170476B
:103090008182704741EA0203A0F8483070471AB1B4
:1030A00083890B43838102E083898B43838170474B
:1030B00001894FF6F8721140018170470A460021DC
:1030C00001894FF68F73194011430181704730B564
:1030D00004460D4629462046FFF7F0FF208940F0C0
:1030E0000700208130BD2DE9F04104460D4616460B
:1030F0001F46602D06D13B46012231462046FFF790
:103100005AFE05E03B46012231462046FFF79DFE70
:1031100029462046FFF7D2FF208940F00700208192
:10312000BDE8F08130B50C4600210189C9B24FF6E7
:10313000FF7505EA0325154325432943018130BD69
:103140002DE9F04105460E461746984600244346B1
:103150003A4631462846FFF7E5FF2C894FF6F870CE
:10316000044044F007044FF68F70044044F07004AC
:103170002C81BDE8F081F0B504460D4616461F4689
:103180003B46324629462046FFF7CCFF208940F4D3
:1031900080402081F0BD0185828270470A4600216F
:1031A00001884FF68F731940114301807047F0B5C5
:1031B0000C4615461E460021002200230189028B81
:1031C000038C4FF6F877394021434FF6FC473A40DD
:1031D00040F201173A434FF6DD773B404FF6FF7759
:1031E00007EA06172F433B43018102830384F0BDA6
:1031F0000A460021018B4FF68F731940114301835A
:1032000070470A460021018B48F6FF7319404FF6BC
:10321000FF7303EA02231943018370470A46002122
:10322000818B4FF68F7319401143818370470A4693
:103230000021818B48F6FF7319404FF6FF7303EAB4
:10324000022319438183704721B1028842F0800232
:10325000028004E002884FF67F731A4002807047B4
:1032600021B1828842F00402828004E082884FF615
:10327000FB731A408280704721B1828842F00802B5
:10328000828004E082884FF6F7731A40828070478C
:1032900021B1828842F00102828004E082884FF6E8
:1032A000FE731A40828070470A460021018B4FF658
:1032B000F77319401143018370470A460021018BBF
:1032C0004FF2FF7319404FF6FF7303EA02231943CD
:1032D000018370470A460021818B4FF6F77319402E
:1032E0001143818370470A460021818B4FF2FF739F
:1032F00019404FF6FF7303EA022319438183704795
:103300000A460021018B4FF6FB73194011430183DC
:1033100070470A460021018B4FF6FF3319404FF6E4
:10332000FF7303EA02231943018370470A46002111
:10333000818B4FF6FB7319401143818370470A4616
:103340000021818B4FF6FF3319404FF6FF7303EADC
:1033500002231943818370470A460021018B4FF6EF
:103360007F7319401143018370470A460021018B86
:10337000C1F30E014FF6FF7303EA022319430183E1
:1033800070470A460021818B4FF67F731940114325
:10339000818370470A460021818BC1F30E014FF6ED
:1033A000FF7303EA02231943818370470A46002111
:1033B000018C4FF6FD7319401143018470470A4692
:1033C0000021018C4FF6F7731940114301847047B7
:1033D0000A460021018C4FF6DF7319404FF6FF7348
:1033E00003EA02131943018470470A460021018C45
:1033F0004FF67F7319404FF6FF7303EA0213194328
:10340000018470470A460021018C4FF6FF53194092
:103410004FF6FF7303EA02231943018470470A46FB
:103420000021018C4FF2FF7319404FF6FF7303EA3E
:1034300002231943018470470A460021018C4DF68E
:10344000FF7319404FF6FF7303EA023319430184F7
:10345000704730B5002301248C40A3B2048C9C43F8
:103460000484048C02FA01F5ADB22C43048430BD0F
:1034700030B5002304248C40A3B2048C9C43048404
:10348000048C02FA01F5ADB22C43048430BD70B552
:103490000346002000241846183001258D40ACB2A8
:1034A0001D8CA5431D8409B1082909D100EB6100D9
:1034B000056825F0700505600568154305600EE098
:1034C0000D1FC5F34E052844056825F4E045056049
:1034D00005684FF6FF7606EA02263543056070BDA3
:1034E00021B1028842F00202028004E002884FF615
:1034F000FD731A400280704721B1028842F0040235
:10350000028004E002884FF6FB731A400280704785
:1035100021B1828842F08002828004E082884FF6E6
:103520007F731A408280704702884FF6F7731A4003
:10353000028002880A430280704782884FF68F73A8
:103540001A40828082880A438280704702894FF63F
:10355000F8731A40028102890A4302817047028986
:103560004FF67F731A40028102890A430281704735
:1035700081847047818570478186704701877047D5
:1035800081877047A0F84010704702884FF6FF43CC
:103590001A40028002880A43028070470146888EE2
:1035A00070470146088F70470146888F7047014673
:1035B000B1F8400070470146888C70470146088D7D
:1035C000704702460020138A0B400BB1012000E037
:1035D00000207047CA430282704730B5024600207F
:1035E00000230024158A05EA0103958905EA0104F0
:1035F00013B10CB1012000E0002030BDCA430282AB
:103600007047000010B50446FB48844209D10121EF
:103610008803FFF79FF800214FF48040FFF79AF8E6
:1036200032E0F648844209D101214804FFF79FF8AF
:1036300000214FF40030FFF79AF825E0F04884426B
:1036400009D101218804FFF792F800214FF480206E
:10365000FFF78DF818E0EB48844209D10121C80436
:10366000FFF785F800214FF40020FFF780F80BE00A
:10367000E548844208D101210805FFF778F80021C8
:103680004FF48010FFF773F810BD2DE9F04786B0B6
:1036900005460E460024A24600BFA1460027B08979
:1036A00000B100BF2F462C8A4CF6FF700440F08812
:1036B00004432C82AC894EF6F3100440B088318963
:1036C0000843718908430443AC81AC8A4FF6FF403C
:1036D0000440B0890443AC8201A8FEF7B4FFC64899
:1036E000874202D1DDF810A001E0DDF80CA0A88926
:1036F00000F4004040B10AEBCA0000EB0A10316848
:103700004900B0FBF1F807E00AEBCA0000EB0A1031
:1037100031688900B0FBF1F86420B8FBF0F00401D7
:103720002009642101FB1089A88900F4004040B100
:10373000322000EBC900B0FBF1F000F007000443B9
:1037400008E0322000EB09106421B0FBF1F000F03A
:103750000F0004432C8106B0BDE8F0874FF41651EA
:10376000016000218180C18001810C214181002103
:103770008181704710B502460020108A4FF2FF0386
:1037800018400B884C8823438C882343CC882343E0
:103790001843108210BD0021018041808180C180CA
:1037A000704721B1828942F40052828104E082890B
:1037B0004DF6FF731A4082817047F0B5034600242E
:1037C00000260025002040F66A17B94200D100BF4C
:1037D0001846C1F3421401F01F06012707FA06F547
:1037E000012C01D10C3004E0022C01D1103000E09A
:1037F00014301AB107682F43076002E00768AF432F
:103800000760F0BD1AB1838A0B43838202E0838A8A
:103810008B4383827047028A4FF6F0731A4002820C
:10382000028A0A430282704782894FF2FF731A406C
:10383000828182890A438281704721B1828942F064
:103840000202828104E082894FF6FD731A40828170
:103850007047028A4FF6DF731A400282028A0A43D7
:103860000282704721B1028A42F48042028204E05F
:10387000028A4BF6FF731A4002827047C1F30802B6
:103880008280704701468888C0F3080070478189AC
:1038900041F0010181817047028BD2B20283028B19
:1038A00042EA012202837047028B02F47F420283C4
:1038B000028B0A430283704721B1828A42F02002C0
:1038C000828204E0828A4FF6DF731A408282704758
:1038D00021B1828A42F01002828204E0828A4FF68D
:1038E000EF731A408282704721B1828A42F0080247
:1038F000828204E0828A4FF6F7731A408282704710
:1039000021B1828942F40042828103E08289C2F3BC
:103910000E028281704721B1828A42F40062828263
:1039200004E0828A4FF2FF731A4082827047828AD3
:103930004FF6FB731A408282828A0A438282704762
:1039400021B1828A42F00202828204E0828A4FF62A
:10395000FD731A408282704702460020B1F5007F55
:1039600000D100BF13880B400BB1012000E0002004
:10397000704701F40072B2F5007F00D100BFCA4366
:103980000280704770B50246002400230025002005
:1039900040F66A16B14200D100BFC1F3421501F0F2
:1039A0001F03012606FA03F3012D02D19689334045
:1039B00006E0022D02D1168A334001E0968A334098
:1039C0000C12012606FA04F41688344013B10CB127
:1039D000012000E0002070BD10B50022002340F659
:1039E0006A14A14200D100BF0A1201249440A3B27C
:1039F000DC43048010BD000000380140004400405A
:103A000000480040004C00400050004008B54FF412
:103A10003870ADF8000010208DF8030003208DF8F9
:103A2000020069463448FEF7BFFB20213248FEF70A
:103A30006AFC40213048FEF766FC80212E48FEF7E4
:103A400062FC4FF400712C48FEF75DFC1F20ADF8BE
:103A5000000010208DF8030003208DF80200694655
:103A60002648FEF7A1FB08BD10B502212348FEF74A
:103A70004AFC04212148FEF746FC10211F48FEF7AE
:103A800042FC08211D48FEF73CFC10BD10B5022188
:103A90001A48FEF736FC04211848FEF732FC1021C4
:103AA0001648FEF72EFC08211448FEF72CFC10BD2A
:103AB00010B501211148FEF726FC10BD10B50121FB
:103AC0000E48FEF71EFC10BD10B500210C48FFF794
:103AD000BBFA20210848FEF714FC40210648FEF7F7
:103AE00010FC80210448FEF70CFC4FF400710248E2
:103AF000FEF707FC10BD0000000C0140001801405B
:103B00000008004008B50320ADF8000018208DF82B
:103B1000030003208DF8020069468F48FEF744FB3E
:103B2000C320ADF8000018208DF8030003208DF8A5
:103B3000020069468948FEF737FB08BD2DE9F041D0
:103B400004460D46AC420FDD26462F4609E03146BD
:103B50004FF08040FFF710FD192000F040F9701E73
:103B600086B2BE42F3DC11E0AC420FDA26462F46A5
:103B700009E031464FF08040FFF7FEFC192000F0CD
:103B80002EF9701C86B2BE42F3DB00BF29464FF00F
:103B90008040FFF7F1FCBDE8F0812DE9F0410446DB
:103BA0000D46AC420FDD26462F4609E031464FF068
:103BB0008040FFF7E3FC192000F011F9701E86B277
:103BC000BE42F3DC11E0AC420FDA26462F4609E094
:103BD00031464FF08040FFF7D1FC192000F0FFF88C
:103BE000701C86B2BE42F3DB00BF29464FF0804016
:103BF000FFF7C4FCBDE8F0812DE9F04104460D4615
:103C0000AC420EDD26462F4608E031465448FFF709
:103C1000B3FC192000F0E3F8701E86B2BE42F4DC5B
:103C200010E0AC420EDA26462F4608E031464C48FA
:103C3000FFF7A2FC192000F0D2F8701C86B2BE4239
:103C4000F4DB00BF29464648FFF796FCBDE8F0814B
:103C50002DE9F04104460D46AC420EDD26462F46C6
:103C600008E031463E48FFF789FC192000F0B7F81C
:103C7000701E86B2BE42F4DC10E0AC420EDA26467C
:103C80002F4608E031463648FFF778FC192000F04F
:103C9000A6F8701C86B2BE42F4DB00BF294630484D
:103CA000FFF76CFCBDE8F0812DE9F04104460D46BC
:103CB000AC420EDD26462F4608E031462848FFF785
:103CC0005FFC192000F08BF8701E86B2BE42F4DC57
:103CD00010E0AC420EDA26462F4608E03146204876
:103CE000FFF74EFC192000F07AF8701C86B2BE4235
:103CF000F4DB00BF29461A48FFF742FCBDE8F0811B
:103D00002DE9F04104460D46AC420EDD26462F4615
:103D100008E031461248FFF735FC192000F05FF843
:103D2000701E86B2BE42F4DC10E0AC420EDA2646CB
:103D30002F4608E031460A48FFF724FC192000F01E
:103D40004EF8701C86B2BE42F4DB00BF2946044820
:103D5000FFF718FCBDE8F081000C014000080140AD
:103D60000004004010B56FF00400FEF710F92E4873
:103D700000682E49B0FBF1F02D4908700846007824
:103D800000EB4001C1EBC0104FF6FF7101EAC0002B
:103D90002849088010BD0146254A12784A434FF051
:103DA000E0235A6100229A611A46126942F0010228
:103DB0001A6100BF4FF0E022106900F001021AB151
:103DC00000F48032002AF5D04FF0E022126922F090
:103DD00001024FF0E0231A6100229A617047014608
:103DE000144A12884A434FF0E0235A6100229A6134
:103DF0001A46126942F001021A6100BF4FF0E02238
:103E0000106900F001021AB100F48032002AF5D0E6
:103E10004FF0E022126922F001024FF0E0231A6114
:103E200000229A61704700001800002000127A00FA
:103E30009C0000209E000020014600BF704700BF8C
:103E4000A54A128802F04002002AF9D0C2B2A24B61
:103E50001B1D1A80704710B586B00446012144F23C
:103E60000400FEF75DFC4FF40070ADF81400032071
:103E70008DF8160018208DF8170005A99748FEF751
:103E800093F94FF48060ADF8140004208DF817000A
:103E900005A99248FEF788F925208DF80000032037
:103EA0008DF801008DF8020001208DF803006846AE
:103EB000FEF723F801940020ADF80800ADF80A00E1
:103EC000ADF80C00ADF810000C20ADF80E0001A903
:103ED0008148FFF7DAFB012240F225517E48FFF7C7
:103EE0006CFC01217C48FFF75CFC06B010BD10B5EE
:103EF00086B0044601210420FEF712FC012148048B
:103F0000FEF71BFC0420ADF8140003208DF816000A
:103F100018208DF8170005A97048FEF745F908200C
:103F2000ADF8140004208DF8170005A96B48FEF7C2
:103F30003BF926208DF8000003208DF801000220B7
:103F40008DF8020001208DF803006846FDF7D5FFCB
:103F500001940020ADF80800ADF80A00ADF80C009F
:103F6000ADF810000C20ADF80E0001A95C48FFF779
:103F70008CFB012240F225515948FFF71EFC01211C
:103F80005748FFF70EFC06B010BD10B540F22551A2
:103F90005148FFF7F7FC10B34F48FFF773FCC4B26A
:103FA0005048008800F40040C8B94E48008800F42A
:103FB000804060B10A2C03D000204A49088020E0EC
:103FC0004848008840F400404649088019E00D2C1C
:103FD00006D14448008840F480404249088010E0FF
:103FE00040480088C0F30D003F490C543D4800880C
:103FF000401C3C49088008460088C72801DD002095
:1040000008803848008800F40040B0F5004F01D126
:10401000FCF793FE10BD10B540F225513048FFF774
:10402000B1FC002833D02E48FFF72CFCC4B2AA2CD8
:104030000CD12E48008848B92C48008840F48040B4
:104040002A4908800846007829490C5427480088E6
:1040500080B12648007826490C5424480178254828
:104060000088C01C814205D12048008840F40040EF
:104070001E4908801D480078022803D11C4880781A
:104080001C49088019480088401C1849088010BD48
:1040900070B505460E4600240BE0295D1048FFF779
:1040A000EDFB00BF40210E48FFF756FC0128F9D177
:1040B000641CB442F1DB70BD024600200B4B1B7840
:1040C0000B7000BF04E00A4B1B5C1354431CD8B2B6
:1040D0000B788342F7DC704700380140000801404C
:1040E00000440040A4000020DA000020A6000020C8
:1040F000A20100201200002009488047094800471B
:10410000FEE7FEE7FEE7FEE7FEE7FEE7FEE7FEE787
:10411000FEE7FEE704480549054A064B70470000E4
:10412000B709000831010008D0020020D0080020A3
:10413000D0040020D0040020704700000FB40449D0
:1041400010B503AA029800F069F910BC5DF814FBE1
:10415000A00000200FB41CB5074B06AA7B4469469B
:104160000090059800F02BF90020694600F03AF91C
:104170001CBC5DF814FB0000850200002DE9F04135
:104180000E460446002020622046E168884730B38E
:10419000252805D0D4E901219047206A401CF2E788
:1041A000E168204600278847050018D0A5F14100A6
:1041B000192802D820354FF4006732462946204698
:1041C0002760FBF7EFFF40B1012804D0F61D26F071
:1041D00007060836D8E7361DD6E72846DAE7206A0C
:1041E000BDE8F08170B50C460546012A05D0287857
:1041F000800600D5EA69002302E0012305E05B1C8C
:10420000934202D2E05C0028F9D1A869E618C01AEE
:10421000A861286A184428622846AFF3008004E0A9
:10422000D5E9012114F8010B9047B442F8D3284690
:10423000AFF3008070BD00002DE9F0410646002478
:1042400010687529314615A510D0AFF300800028FD
:1042500002DA404212A507E031688A0701D511A5AC
:1042600002E0490704D510A5012401E0AFF3008066
:1042700000210A2306F1240707E0B0FBF3F203FB59
:104280001200303078541046491C0028F5D12346DE
:104290002A463046BDE8F04100F033B80000000087
:1042A0002D0000002B000000200000004FF0000255
:1042B00000B5134694469646203922BFA0E80C501C
:1042C000A0E80C50B1F12001BFF4F7AF090728BFF7
:1042D000A0E80C5048BF0CC05DF804EB890028BF73
:1042E00040F8042B08BF704748BF20F8022B11F09C
:1042F000804F18BF00F8012B704770477047704718
:1043000070472DE9F0470D4699469246044600F164
:1043100024080168880604D5E06921F010012160B5
:1043200000E00120A84201DD471B00E00027A16951
:104330007A1902EB0900081AA0612078C00602D49D
:104340002046AFF30080002608E0D4E901211AF8E6
:1043500006009047206A401C761C20624E45F4DB24
:104360002078C0060AD52046AFF3008006E0D4E9E5
:10437000012130209047206A401C2062381EA7F19E
:104380000107F4DC07E0D4E9012118F805009047A3
:10439000206A401C2062281EA5F10105F3DC20469E
:1043A000AFF300802078000602D50220BDE8F08738
:1043B0000120FBE701694A1C02610878704700B5DB
:1043C0008FB0CDE901310021059105497944CDE94E
:1043D000031011466846FFF7D1FE0FB000BD000084
:1043E000E5FFFFFF0A6802F8010B0A60704710B58D
:1043F000436913B1AFF3008001E0FFF7F3FE012042
:1044000010BD127800F124010A7000224A700122C6
:10441000EDE711684FF0FF32E9E70000074B70B598
:104420000D467B44FFF7CBFF0446284600F008F812
:1044300010B14FF0FF3070BD204670BD19FAFFFF7C
:10444000007B00F080007047754600F029F8AE460A
:1044500005006946534620F00700854618B020B590
:10446000FFF758FEBDE820404FF000064FF0000770
:104470004FF000084FF0000B21F00701AC46ACE80C
:10448000C009ACE8C009ACE8C009ACE8C0098D4679
:1044900070470446AFF300802046FBF798FE00000B
:1044A000004870476C0200206D6F746F72202564A5
:1044B000202564202564202564200D0A2073706562
:1044C000656420202564202564200D0A206469612C
:1044D0006E67616E67202564202564202564202591
:1044E00064200D0A206D6720256420256420256442
:1044F0002025640D0A206D6779616E736869206CF0
:104500006F6F7074696D652564202064656C6179D6
:1045100074696D6525640A20465F666C61673D2598
:10452000640A20625F666C61673D25640A000000D2
:104530005045000800000020A80000006C010008A1
:10454000F8450008A800002028080000880100089D
:104550001E641E646C073A0717077F0780078007F1
:10456000000000001E64000000A24A0400000000D9
:104570000000000001020304060708090000000013
:1045800000000000280A32000000000000000000C7
:104590000000000000000000AABB060000000801A7
:1045A0003138AABB05000000011011AABB100000A1
:1045B000000510020000000000000000000100AA39
:1045C000BB060000000C01000D0000000000000010
:1045D00000000000000000000000000102030401D0
:1045E0000203040607080902040608000000000090
:0845F0000000000000000000C3
:0400000508000131BD
:00000001FF
