:020000040800F2
:10000000C808002021220008B9060008BB06000825
:10001000BF060008C3060008C7060008000000006D
:10002000000000000000000000000000CB060008F7
:10003000CD06000800000000CF060008D106000829
:100040003B2200083B2200083B2200083B2200081C
:100050003B2200083B2200083B2200083B2200080C
:100060003B2200083B2200083B2200083B220008FC
:100070003B2200083B2200083B2200083B220008EC
:100080003B2200083B2200083B2200083B220008DC
:100090003B2200083B2200083B220008F51D000817
:1000A0003B2200083B2200083B2200083B220008BC
:1000B0003B2200083B2200083D0900083B220008C3
:1000C0003B2200083B2200083B2200083B2200089C
:1000D0003B220008B32000083F2100083B22000813
:1000E0003B2200083B2200083B2200083B2200087C
:1000F0003B2200083B2200083B2200083B2200086C
:100100003B2200083B2200083B2200083B2200085B
:100110003B2200083B2200083B2200083B2200084B
:100120003B2200083B2200083B2200083B2200083B
:1001300000F002F800F042F80AA090E8000C8244B7
:100140008344AAF10107DA4501D100F037F8AFF294
:10015000090EBAE80F0013F0010F18BFFB1A43F0A5
:10016000010318471440000034400000103A24BF37
:1001700078C878C1FAD8520724BF30C830C144BF0C
:1001800004680C607047000000230024002500264E
:10019000103A28BF78C1FBD8520728BF30C148BFEA
:1001A0000B607047642903F06986732903F0538755
:1001B000002070471FB51FBD10B510BD03F066FFCE
:1001C0001146FFF7F7FF00F025F803F084FF03B4B2
:1001D000FFF7F2FF03BC01F0C3FE000004460D462A
:1001E0002A462146FAA003F0CBFD00BFFEE708B582
:1001F0000120ADF8000010208DF8030003208DF8D9
:1002000002006946FE4802F0F9F80121FD4802F0BB
:10021000A4F908BD01F03AFE01F0D0FA01F066FD44
:10022000FF2001F070FE4FF4A06002F019F84FF4C7
:10023000165001F0A4FEFF2001F065FE4FF41650A9
:1002400001F0E9FEFF2001F05EFE01F04FFBFF2010
:1002500001F059FE40F2CF2140F2CF7000F012FCC5
:10026000FF2001F050FEFF2001F04DFE01F0DCFA0E
:10027000FF2001F048FE47214FF4F97000F035FBF4
:10028000FF2001F040FE472144F61F6001F050FDC1
:10029000FF2001F038FE01F060FDFF2001F033FE89
:1002A00001F093FDFF2001F02EFE2021D54802F041
:1002B00054F92021D24802F04EF9D3480188D3489E
:1002C00003F084FAD2480188D04803F081FAD1487B
:1002D0000188CE4803F07EFACF480188CB4803F06E
:1002E0007BFAD6E100BF00BFCC48007801280CD1D2
:1002F0000220CA4908704FF4DE61C348008801F04B
:1003000011FB4FF4DE60C0490880C5480078012821
:100310000CD10220C249087040F21571BC48008817
:1003200001F02CFB40F21570B9490880BD480078F7
:10033000012858D10220BB4908700020B749087035
:10034000B74908705021B84803F0C2FB00BF4021F4
:10035000B54803F02BFC0128F9D10A21B24803F07B
:10036000B7FB00BF4021B04803F020FC0128F9D1C1
:1003700040F60A51AC4803F0ABFB00BF4021AA484D
:1003800003F014FC0128F9D14FF4DE61A148008884
:1003900001F022FB4FF4DE609E49088001469E4832
:1003A000008801F047FB4FF4DE609B4908804FF462
:1003B000FA7001F0A8FD4FF4FA7001F0A4FD40F2CC
:1003C0003A719148008801F0ADFA40F23A708E49D6
:1003D00008804FF4F0618E48008801F0CFFA4FF4A6
:1003E000F0608B4908808021854802F09AF8002847
:1003F00055D00020894908708949087050218A48E1
:1004000003F066FB00BF4021874803F0CFFB0128C3
:10041000F9D10A21844803F05BFB00BF40218248E8
:1004200003F0C4FB0128F9D140F60A517E4803F0DD
:100430004FFB00BF40217C4803F0B8FB0128F9D1F5
:100440004FF4DE617348008801F0C6FA4FF4DE60B5
:100450007049088001467048008801F0EBFA4FF4BB
:10046000DE606D4908804FF4FA7001F04CFD4FF4E6
:10047000FA7001F048FD40F23A716348008801F0DB
:1004800051FA40F23A70604908804FF4F0616048D8
:10049000008801F073FA4FF4F0605D49088063480A
:1004A0000078012807D101F0DEFB044621465E48B2
:1004B00003F00EFB00BF5E480078012815D14FF411
:1004C000F2615448008801F087FA4FF4F260514914
:1004D000088001465048008801F0ACFA4FF4F26001
:1004E0004D4908800220524908705248007801287E
:1004F00026D102204F49087000204F490870012082
:1005000001F0D0F9002404E04C49487801F0FBFCEC
:10051000641C4A480078A042F6DC01F06FF9022022
:1005200001F0C0F9002404E04549487801F0EBFCF3
:10053000641C43480078A042F6DC01F05FF900BF7C
:100540003D480078012826D102203B490870002050
:1005500038490870012001F085F9002404E037498A
:10056000487801F0D0FC641C34480078A042F6DCE6
:1005700001F044F9022001F075F9002404E030494B
:10058000487801F0C0FC641C2D480078A042F6DCDD
:1005900001F034F900BF2B48007840B10020254914
:1005A0000870254908702749087001F027F9264886
:1005B0000088B0F5E15F02DB04201E4908701D4889
:1005C000007802284DD14FF47A60204908803FE03E
:1005D00057726F6E6720706172616D6574657273BA
:1005E0002076616C75653A2066696C6520257320FC
:1005F0006F6E206C696E652025640D0A0000000096
:1006000000180140000C01400400002000040040DC
:1006100006000020080000200A0000203B00002007
:100620003C0000203D000020003801403F00002039
:10063000400000203E00002041000020000000207B
:1006400002000020420000207C0000202800002042
:10065000104908801049088010490880032010497B
:1006600008700F480078032806D100200D49088043
:1006700001F0F7FB01F0F4FB09480078042808D1E9
:100680007820094908700949087009490870094922
:10069000087027E62A0000202C0000202E000020F1
:1006A0003E0000207C0000203000002031000020AF
:1006B0003200002033000020704700BFFEE700BF7B
:1006C000FEE700BFFEE700BFFEE7704770477047D8
:1006D000704700000CB50020019000906C48006845
:1006E00040F480306A49086000BF6948006800F43F
:1006F000003000900198401C0190009818B90198B2
:10070000B0F5A06FF1D16248006800F4003010B17C
:100710000120009001E0002000900098012843D1C2
:100720005C48006840F010005A49086008460068BC
:1007300020F0030008600846006840F002000860EE
:100740005348406852494860084640684860084637
:10075000406840F4806048600846406820F47C109F
:1007600048600846406840F4E81048600846006861
:1007700040F08070086000BF4548006800F00070DD
:100780000028F9D04248406820F003004049486002
:100790000846406840F00200486000BF3C4840689E
:1007A00000F00C000828F9D10CBD10B5FFF792FF3E
:1007B00010BD10B53648006840F0010034490860AB
:1007C0000846406834490840314948600846006896
:1007D000324908402E4908600846006820F480200D
:1007E00008600846406820F4FE0048604FF41F008F
:1007F0008860FFF7DAFF4FF000602949086010BDFC
:1008000010B5002100200022214B5B6803F00C0191
:1008100021B1042906D0082928D107E0214B224C18
:10082000236027E01F4B204C236023E0184B5B68BC
:1008300003F47010164B5B6803F48032022303EB61
:10084000904022B9194B4343174C23600DE0104BE5
:100850005B6803F4003323B1144B4343124C236011
:1008600003E0104B4343104C236003E00D4B0E4C50
:10087000236000BF00BF064B5B68C3F303130C4C3F
:10088000E15C094B1B68CB40074C236010BD0000A6
:1008900000100240002002400000FFF8FFFFF6FEBB
:1008A00008ED00E000127A001400002000093D006D
:1008B0001800002070B505460C4612E000BF8021EC
:1008C000284603F073F90028F9D02178284603F070
:1008D000FFF800BF4021284603F068F90028F9D14D
:1008E000641C20780028E9D170BD7FB505460C4610
:1008F000ADF80850ADF804400020ADF80A00ADF89E
:10090000060001A9FE4802F06DF901221146FC48DB
:1009100002F0DFFC1E208DF8000000208DF80100A1
:1009200003208DF8020001208DF80300684601F0D5
:100930009CFC0121F24802F0B1FC7FBD10B5012101
:10094000EF4802F074FF002873D00121EC4802F058
:100950007FFFEC480078401CEA490870EA480078BC
:10096000401CE9490870E9480078401CE7490870D4
:10097000E7480078401CE6490870E2480078E549FD
:100980000978884219DB0020DE490870E2480088B7
:10099000002812DD4021E14801F0D0FD48B140219E
:1009A000DE4801F0DAFDDC480088401EDA490880A4
:1009B00003E04021D94801F0CEFDD3480078D84962
:1009C0000978884219DB0020CF490870D548008893
:1009D000002812DD8021D14801F0B0FD48B180210E
:1009E000CE4801F0BAFDCF480088401ECD490880AE
:1009F00003E08021C94801F0AEFDC4480078CA492F
:100A0000097888421ADB0020C0490870C74800886E
:100A1000002813DD2021C14801F090FD50B12021B4
:100A2000BE4801F09AFDC1480088401EBF490880B9
:100A300004E020E02021B94801F08DFDB4480078A1
:100A4000BB49097888421CDB0020B1490870B948CD
:100A50000088002815DD4FF40071B04801F06EFDEC
:100A600050B14FF40071AD4801F077FDB1480088F6
:100A7000401EB049088004E04FF40071A74801F01F
:100A80006AFD10BD30B587B005460C46012109202E
:100A900001F070FF0121022001F079FFADF8145040
:100AA000ADF810400020ADF81600ADF8120004A912
:100AB000A14802F097F87020ADF800000120ADF8D1
:100AC00002000020ADF8080069469B4802F0C7F814
:100AD0000821994802F012FD7020ADF800000120B5
:100AE000ADF802000020ADF808006946924802F017
:100AF000F8F80821904802F00AFD7020ADF80000D7
:100B00000120ADF802000020ADF8080069468A48CF
:100B100002F034F90821884802F006FD7020ADF893
:100B200000000120ADF802000020ADF80800694681
:100B3000814802F06EF908217F4802F0FEFC012195
:100B40007D4802F0ABFB07B030BD00B593B07B48E9
:100B5000008800F4004000287ED078480088C0F368
:100B60000D007749088077480078622875D010DC3E
:100B70004C2843D006DC422870D046286FD0472846
:100B80006ED190E150286CD052286BD06128F7D1FB
:100B9000CEE1732867D006DC63287DD064287CD042
:100BA0006728EDD1FEE3742878D0752802D0762826
:100BB000E6D1F8E37521644802F08AFF00BF4021C6
:100BC000614802F0F3FF0128F9D10D215E4802F0DF
:100BD0007FFF00BF40215C4802F0E8FF0128F9D107
:100BE0000A21594802F074FF00BF4021564802F024
:100BF000DDFF0128F9D101F034F939E2514840789C
:100C000071284FD15148007810B901204F49087020
:100C100037E04C214C4802F05BFF00BF40214A48BE
:100C200002F0C4FF0128F9D17221474802F050FFB9
:100C300000BF4021444802F0B9FF0128F9D10D213D
:100C4000414802F045FF00BF40213F4802F0AEFF9F
:100C50000128F9D10A2107E0FEE3C2E109E2DDE063
:100C6000FBE393E01FE04CE2374802F031FF00BFA6
:100C70004021354802F09AFF0128F9D100202F4980
:100C800008802E48008800F4004058B12D480078B4
:100C90004C2807D12B4802E091E3FDE39AE240782B
:100CA0007128B6D0A9E72748407871286DD1284827
:100CB000007810B901202649087059E052212248D5
:100CC00002F006FF00BF40211F4802F06FFF01281D
:100CD000F9D172211C4802F0FBFE00BF40211A48E6
:100CE00002F064FF0128F9D10D21174802F0F0FE4F
:100CF00000BF4021144802F059FF0128F9D129E032
:100D0000000800403400002035000020360000209C
:100D1000370000203000002028000020000C014097
:100D2000310000202A000020320000202C0000208A
:100D3000330000202E000020000400408800002026
:100D40000C000020D2000020003801403B000020B1
:100D50003C0000200A21FE4802F0BAFE00BF4021FC
:100D6000FB4802F023FF0128F9D10020F94908804F
:100D7000F848008800F4004038B1F748007852285D
:100D800003D1F5484078712898D036E7F24840788A
:100D9000712842D1F148007810B90120EF4908705C
:100DA0002EE05021EA4802F093FE00BF4021E848BF
:100DB00002F0FCFE0128F9D17221E54802F088FE1C
:100DC00000BF4021E24802F0F1FE0128F9D10D21D7
:100DD000DF4802F07DFE00BF4021DD4802F0E6FE64
:100DE0000128F9D10A21DA4802F072FE00BF402141
:100DF000D74802F0DBFE0128F9D10020D549088050
:100E0000D448008800F4004038B1D3480078502816
:100E100003D1D14840787128C3D0EEE6CE4840785F
:100E200071283FD10120CE4908702EE04621C848E4
:100E300002F04EFE00BF4021C54802F0B7FE012877
:100E4000F9D17221C24802F043FE00BF4021C048E0
:100E500002F0ACFE0128F9D10D21BD4802F038FEA8
:100E600000BF4021BA4802F0A1FE0128F9D10A21B1
:100E7000B74802F02DFE00BF4021B54802F096FEB3
:100E80000128F9D10020B3490880B248008800F455
:100E9000004038B1B0480078462803D1AE484078C9
:100EA0007128C3D0A9E6AC48407871283FD1012011
:100EB000AC4908702EE04721A54802F009FE00BFAA
:100EC0004021A34802F072FE0128F9D17221A04806
:100ED00002F0FEFD00BF40219D4802F067FE0128A0
:100EE000F9D10D219A4802F0F3FD00BF4021984846
:100EF00002F05CFE0128F9D10A21954802F0E8FDD4
:100F000000BF4021924802F051FE0128F9D1002093
:100F1000904908808F48008800F4004038B18E481E
:100F20000078472803D18C4840787128C3D064E604
:100F30008D4800788A4909788C4A12788C4B1B7846
:100F4000CDE90E32CDE910108A4800888A49098817
:100F50008A4A12888A4B1B88CDE90A32CDE90C10E7
:100F60008848407887490978874A5278864B1B78A9
:100F7000CDE90632CDE90810844800788449097823
:100F8000844A1278844B1B78CDE90232CDE90410F3
:100F90008248008882490988CDE900108148038889
:100FA000814802888149824802F0F6FE80496848FB
:100FB000FFF780FC0D21664802F08AFD00BF40214A
:100FC000634802F0F3FD0128F9D10A21604802F0DC
:100FD0007FFD00BF40215E4802F0E8FD0128F9D105
:100FE000E6E35D484078712842D15F48007810B947
:100FF00001205D4908702EE06221554802F068FD2D
:1010000000BF4021524802F0D1FD0128F9D17221E0
:101010004F4802F05DFD00BF40214D4802F0C6FD83
:101020000128F9D10D214A4802F052FD00BF4021AC
:10103000474802F0BBFD0128F9D10A21444802F0DB
:1010400047FD00BF4021424802F0B0FD0128F9D120
:101050000020404908803F48008800F4004038B133
:101060003D480078622803D13B4840787128C3D0BE
:101070009EE339484078712842D14E48007810B933
:1010800001204C4908702EE04221314802F020FD39
:1010900000BF40212E4802F089FD0128F9D17221BC
:1010A0002B4802F015FD00BF4021294802F07EFDCB
:1010B0000128F9D10D21264802F00AFD00BF402188
:1010C000234802F073FD0128F9D10A21204802F0DB
:1010D000FFFC00BF40211E4802F068FD0128F9D145
:1010E00000201C4908801B48008800F4004038B1EB
:1010F00019480078422803D1174840787128C3D096
:1011000056E301202C4908705AE07321104802F080
:10111000DFFC00BF40210E4802F048FD0128F9D154
:101120000D210B4802F0D4FC00BF4021084802F01A
:101130003DFD0128F9D10A21054802F0C9FC00BF94
:101140004021034802F032FD0128F9D1002035E0AA
:101150000038014088000020D20000203D0000201F
:101160003E0000203F000020410000201100002030
:10117000100000200A0000200800002006000020C7
:1011800004000020020000200000002033000020A6
:101190003200002031000020300000202E0000200E
:1011A0002C0000202A00002028000020EC4000082D
:1011B000A00000204000002042000020FE490880DE
:1011C000FD48008800F4004018B1FC4800787328FE
:1011D0009BD0EDE2F9484078012806D002283FD0A4
:1011E00003287AD0042877D1B2E0F4488078F44913
:1011F0000880084600884FF6FF7101EA0020F04998
:101200000880EE48C07809880844ED490880EB481A
:101210000079EC4908700020EB4908705421EB4834
:1012200002F056FC00BF4021E84802F0BFFC012854
:10123000F9D10D21E54802F04BFC00BF4021E34805
:1012400002F0B4FC0128F9D10A21E04802F040FC88
:1012500000BF4021DD4802F0A9FC0128F9D1ACE033
:10126000D6488078DA490880084600884FF6FF7132
:1012700001EA0020D6490880D048C078098808448F
:10128000D3490880CD480079D24908700020D2495E
:1012900008705421CD4802F01BFC00BF4021CB4810
:1012A00002F084FC0128F9D10D21C84802F010FC9D
:1012B00000BF4021C54802F079FC0128F9D10A217C
:1012C000C24802F005FC00BF4021C04802F06EFC9D
:1012D0000128F9D171E000E06EE0B8488078BF499C
:1012E0000880084600884FF6FF7101EA0020BB49DC
:1012F0000880B248C07809880844B8490880AF48D7
:101300000079B74908700020B34908705421AF48EC
:1013100002F0DEFB00BF4021AC4802F047FC012890
:10132000F9D10D21A94802F0D3FB00BF4021A74805
:1013300002F03CFC0128F9D10A21A44802F0C8FBC4
:1013400000BF4021A14802F031FC0128F9D100BFC3
:101350009A488078A3490880084600884FF6FF71B4
:1013600001EA00209F4908809448C0780988084411
:101370009C490880914800799B4908700020964953
:1013800008705421914802F0A3FB00BF40218F4810
:1013900002F00CFC0128F9D140F60A518B4802F00A
:1013A00097FB01E0A4E05EE000BF4021874802F027
:1013B000FDFB0128F9D100E000BF00BF00BF7F485E
:1013C00040786C284ED17D48807863284AD100202F
:1013D00086490870864908708649087086490870F1
:1013E00086490870864908708649087086490870E1
:1013F0006321764802F06CFB00BF4021734802F085
:10140000D5FB0128F9D16C21704802F061FB00BFC7
:1014100040216E4802F0CAFB0128F9D163216B48D4
:1014200002F056FB00BF4021684802F0BFFB0128D4
:10143000F9D10D21654802F04BFB00BF4021634804
:1014400002F0B4FB0128F9D10A21604802F040FB08
:1014500000BF40215D4801E0AEE1A8E102F0A6FB3B
:101460000128F6D1A4E17621584802F031FB00BFF3
:101470004021564802F09AFB0128F9D10D2153482A
:1014800002F026FB00BF4021504802F08FFB0128EC
:10149000F9D10A214D4800E039E102F019FB00BF03
:1014A00040214A4802F082FB0128F9D143484078A4
:1014B000012806D0022809D003280CD0042814D112
:1014C0000EE03E4880783F4908700FE03B48807846
:1014D000404908700AE0394880784149087005E0C1
:1014E000364880784049087000E000BF00BF5FE1E7
:1014F00032484078012806D0022838D0032859D035
:10150000042858D1CCE02D4880784049088008460E
:1015100000884FF6FF7101EA00203C490880274807
:10152000C07809880844394908805421274802F0C6
:10153000CFFA00BF4021254802F038FB0128F9D13D
:101540000D21224802F0C4FA00BF40211F4802F0DA
:101550002DFB0128F9D10A211C4802F0B9FA00BF7D
:1015600040211A4802F022FB0128F9D1CDE01348AE
:10157000807827490880084600884FF6FF7101EA05
:101580000020234908800D48C07809880844204974
:10159000088054210D4802F09BFA00BF40210B48FF
:1015A00002F004FB0128F9D10D21084802F090FA5D
:1015B00000BF2FE040E0A7E088000020D20000201C
:1015C00028000020300000203400002000380140B6
:1015D0002A00002031000020350000202C000020CF
:1015E000320000202E000020330000203E000020AA
:1015F0003B0000203C000020400000204100002073
:101600003D0000203F000020420000200400002098
:10161000060000204021704802F0C8FA0128C8D115
:101620000A216D4802F054FA00BF40216A4802F0D6
:10163000BDFA0128F9D168E06848807868490880D7
:10164000084600884FF6FF7101EA002064490880CF
:101650006248C078098808446149088054215E487E
:1016600002F036FA00BF40215B4802F09FFA0128E1
:10167000F9D10D21584802F02BFA00BF40215648FD
:1016800002F094FA0128F9D10A21534802F020FA15
:1016900000BF4021504802F089FA0128F9D134E016
:1016A0004E4880784F490880084600884FF6FF7101
:1016B00001EA00204B4908804848C078098808445E
:1016C000484908805421444802F002FA00BF4021F2
:1016D000414802F06BFA0128F9D10D213E4802F091
:1016E000F7F900BF40213C4802F060FA0128F9D127
:1016F0000A21394802F0ECF900BF4021364802F0D7
:1017000055FA0128F9D100E000BF00BF50E033488E
:10171000407801280CD0022812D0742818D12F4804
:101720008078314908702D48C0783049087010E041
:101730002A4880782E4908702848C078487008E008
:10174000264880782B4908702448C078487000E00B
:1017500000BF00BF4F21204802F0BAF900BF40216E
:101760001D4802F023FA0128F9D14B211A4802F052
:10177000AFF900BF4021184802F018FA0128F9D14A
:101780000D21154802F0A4F900BF4021124802F0D3
:101790000DFA0128F9D10A210F4802F099F900BF8A
:1017A00040210D4802F002FA0128F9D100E000BF03
:1017B00000BF00201049088013B000BD10B5012102
:1017C0000E2001F0E4F80121092001F0D3F80121F5
:1017D000442001F0CFF810BD00380140D2000020B5
:1017E000080000200A000020110000201000002046
:1017F00000000020020000208800002010B54FF4F7
:101800000061384800F0A9FE4FF48051354800F0DF
:10181000A4FE4FF40051344800F09FFE4FF4804185
:10182000314800F09AFE10BD08B54FF4C050ADF835
:10183000000010208DF8030003208DF80200694697
:10184000284800F0DBFD4FF4C040ADF80000102048
:101850008DF8030003208DF802006946224800F04D
:10186000CDFD08BD10B50446012C02D0022C16D1C6
:101870000AE04FF400611B4800F06DFE4FF4805108
:10188000184800F06AFE0BE04FF40051164800F0D3
:1018900062FE4FF48041144800F05FFE00E000BF9C
:1018A00000BF10BD10B50446012C02D0022C16D189
:1018B0000AE04FF400610B4800F04FFE4FF48051F6
:1018C000084800F048FE0BE04FF40051064800F0D5
:1018D00044FE4FF48041044800F03DFE00E000BFAC
:1018E00000BF10BD000801400018014008B50320EA
:1018F000ADF8000018208DF8030003208DF80200D9
:101900006946634800F07AFDC020ADF80000182059
:101910008DF8030003208DF8020069465D4800F051
:101920006DFD08BD2DE9F04104460D46AC420EDDCB
:1019300026462F4608E03146574801F047FF64200D
:1019400000F0E1FAB01E86B2BE42F4DC10E0AC4218
:101950000EDA26462F4608E031464F4801F036FFA2
:10196000642000F0D0FAB01C86B2BE42F4DB00BFA7
:101970002946494801F02AFFBDE8F0812DE9F041F0
:1019800004460D46AC420FDD26462F4609E031469F
:10199000414801F01DFF642000F0B5FAA6F11000E7
:1019A00086B2BE42F3DC11E0AC420FDA26462F4687
:1019B00009E03146384801F00BFF642000F0A3FA3B
:1019C00006F1100086B2BE42F3DB00BF2946324862
:1019D00001F0FEFEBDE8F0812DE9F04104460D4620
:1019E000AC420FDD26462F4609E031462A4801F079
:1019F000F1FE642000F087FAA6F1100086B2BE4224
:101A0000F3DC11E0AC420FDA26462F4609E03146FE
:101A1000214801F0DFFE642000F075FA06F11000A5
:101A200086B2BE42F3DB00BF29461B4801F0D2FE5E
:101A3000BDE8F0812DE9F04104460D46AC420FDDD2
:101A400026462F4609E03146134801F0C5FE6420C2
:101A500000F059FAA6F1100086B2BE42F3DC11E0A4
:101A6000AC420FDA26462F4609E031460A4801F01B
:101A7000B3FE642000F047FA06F1100086B2BE42C1
:101A8000F3DB00BF2946044801F0A6FEBDE8F08163
:101A9000000C014000080140000400401FB5002078
:101AA000039000240090019002900A21884800F0E1
:101AB00083FB0EE08748008800F4004020B103A9B2
:101AC000684600F08DFB06E0601CC4B20A2000F0FE
:101AD0001AFA322CEEDB00BF00207E4908809DF808
:101AE0000C000A2805D19DF8080010B9012004B0A7
:101AF00010BD0020FBE730B587B00546142101A8D2
:101B000002F0F6F90921744800F056FB00240EE0BB
:101B10007048008800F4004020B106A901A800F038
:101B20005FFB06E0601CC4B20A2000F0ECF9322C26
:101B3000EEDB00BF0020674908809DF818001328DD
:101B40000DD1002406E001A904F10A00085C285523
:101B5000601CC4B2082CF6DB012007B030BD0020A9
:101B6000FBE770B586B005460E46002400200590C0
:101B7000019002900390049000BF06E0295D574A4F
:101B800004F109001154601CC4B2082CF6DB0020DB
:101B900052494874042408E05048005D4F49497C8C
:101BA00048404E494874601CC4B2112CF4DB122129
:101BB0004A4800F001FB00240EE04648008800F48B
:101BC000004020B105A901A800F00AFB06E0601C56
:101BD000C4B20A2000F097F9322CEEDB00BF0020DF
:101BE0003C4908809DF814000E280DD1002406E021
:101BF00001A904F10900085C3055601CC4B2022C34
:101C0000F6DB012006B070BD0020FBE71FB5002009
:101C1000039000240090019002900A21304800F0C7
:101C2000CBFA0EE02B48008800F4004020B103A955
:101C3000684600F0D5FA06E0601CC4B20A2000F045
:101C400062F9322CEEDB00BF0020224908809DF8AB
:101C50000C000A2805D19DF8080010B9012004B035
:101C600010BD0020FBE710B50024FFF717FF044666
:101C70004FF47A7000F047F90CB9002010BD1948F4
:101C8000FFF739FF04464FF47A7000F03CF90CB9C5
:101C90000020F3E714491348FFF763FF04464FF4AD
:101CA0007A7000F030F90CB90020E7E7FFF7AEFFDB
:101CB00004464FF47A7000F026F90CB90020DDE7F5
:101CC0000948407810B908480078D7E70020D5E7E0
:101CD000430000208A0000204D0000205600002014
:101CE00068000020720000207A00002008B58020E3
:101CF000ADF8000028208DF8030003208DF80200C5
:101D000069460A4800F07AFB2020ADF80000102058
:101D10008DF8030003208DF802006946034800F0A7
:101D20006DFB2021014800F018FC08BD001801409F
:101D30003EB504460D46ADF80050ADF80440002015
:101D4000ADF80600ADF8020069464C4800F04AFFC5
:101D500001214A4801F0A2FA3EBD0EB54FF40070D1
:101D6000ADF8080028208DF80B0003208DF80A003C
:101D700002A9434800F042FB0921042000F054FC72
:101D80004FF40070009000208DF804000C208DF8B6
:101D9000050001208DF80600684601F06FFF012163
:101DA000402000F0E7FD0121082000F0E3FD402085
:101DB000ADF8080010208DF80B0003208DF80A0004
:101DC00002A92F4800F01AFB0EBD08B54FF4A06021
:101DD00000F046FA17208DF8000001208DF8010070
:101DE00000208DF8020001208DF80300684600F005
:101DF0003CFA08BD10B54FF4007001F0A5FF28B300
:101E00004FF4007001F0B1FF1D480830006800F485
:101E10000070E0B91B480078C8B1184801F0F5FC23
:101E2000044600201749087017480088A04208DDC2
:101E300015480088201A44F6206108441249088099
:101E400004E011480088201A0F49088007E00120AB
:101E50000C490870094801F0D8FC0B49088010BDF6
:101E6000704710B54021064800F075FB3C2000F09B
:101E700026F84021024800F070FB10BD000C004025
:101E8000001801407E0000207C00002010B56FF09B
:101E9000040000F034FA2E4800682E49B0FBF1F03F
:101EA0002D4908700846007800EB4001C1EBC010D6
:101EB0004FF6FF7101EAC0002849088010BD0146B5
:101EC000254A12784A434FF0E0235A6100229A6172
:101ED0001A46126942F001021A6100BF4FF0E02277
:101EE000106900F001021AB100F48032002AF5D026
:101EF0004FF0E022126922F001024FF0E0231A6154
:101F000000229A6170470146144A12884A434FF0F2
:101F1000E0235A6100229A611A46126942F00102D6
:101F20001A6100BF4FF0E022106900F001021AB1FF
:101F300000F48032002AF5D04FF0E022126922F03E
:101F400001024FF0E0231A6100229A6170470000FD
:101F50001400002000127A0080000020820000207F
:101F6000014600BF704700BFA54A128802F0400238
:101F7000002AF9D0C2B2A24B1B1D1A80704710B5BF
:101F800086B00446012144F2040000F0F3FC4FF453
:101F90000070ADF8140003208DF8160018208DF89D
:101FA000170005A9974800F029FA4FF48060ADF8B2
:101FB000140004208DF8170005A9924800F01EFABD
:101FC00025208DF8000003208DF801008DF8020017
:101FD00001208DF80300684600F047F901940020C5
:101FE000ADF80800ADF80A00ADF80C00ADF810002F
:101FF0000C20ADF80E0001A9814801F070FC01220F
:1020000040F225517E4801F002FD01217C4801F09B
:10201000F2FC06B010BD10B586B0044601210420C4
:1020200000F0A8FC0121480400F0B1FC0420ADF848
:10203000140003208DF8160018208DF8170005A94C
:10204000704800F0DBF90820ADF8140004208DF88A
:10205000170005A96B4800F0D1F926208DF8000083
:1020600003208DF8010002208DF8020001208DF878
:102070000300684600F0F9F801940020ADF808006C
:10208000ADF80A00ADF80C00ADF810000C20ADF86A
:102090000E0001A95C4801F022FC012240F225510A
:1020A000594801F0B4FC0121574801F0A4FC06B0E6
:1020B00010BD10B540F22551514801F08DFD10B30F
:1020C0004F4801F009FDC4B25048008800F40040B8
:1020D000C8B94E48008800F4804060B10A2C03D093
:1020E00000204A49088020E04848008840F4004029
:1020F0004649088019E00D2C06D14448008840F478
:1021000080404249088010E040480088C0F30D003C
:102110003F490C543D480088401C3C490880084613
:102120000088C72801DD002008803848008800F4B6
:102130000040B0F5004F01D1FEF707FD10BD10B50E
:1021400040F22551304801F047FD002833D02E4899
:1021500001F0C2FCC4B2AA2C0CD12E48008848B9A8
:102160002C48008840F480402A49088008460078BE
:1021700029490C542748008880B126480078264910
:102180000C542448017825480088C01C814205D1A0
:102190002048008840F400401E4908801D4800780F
:1021A000022803D11C4880781C49088019480088FF
:1021B000401C1849088010BD70B505460E46002425
:1021C0000BE0295D104801F083FC00BF40210E4860
:1021D00001F0ECFC0128F9D1641CB442F1DB70BDC4
:1021E000024600200B4B1B780B7000BF04E00A4B2B
:1021F0001B5C1354431CD8B20B788342F7DC704746
:1022000000380140000801400044004088000020E0
:10221000D20000208A0000209A0100200E00002039
:102220000948804709480047FEE7FEE7FEE7FEE76A
:10223000FEE7FEE7FEE7FEE7FEE7FEE704480549A6
:10224000054A064B70470000B3070008310100083B
:10225000C8020020C8080020C8040020C8040020CC
:1022600031490143314A1160704770B500210023A4
:102270000F22C47804B32D4C246804F4E064C4F540
:10228000E064210AC1F10403CA40447804FA03F16E
:102290008478144021430901254C0678A15504781F
:1022A00004F01F050124AC4005786D11AD0005F167
:1022B000E025C5F8004109E0047804F01F05012479
:1022C000AC401C4D0678761145F8264070BD1A4A80
:1022D0000A400243154B1B1F1A60704739B1134A5D
:1022E000121D12680243114B1B1D1A6006E00F4AB3
:1022F000121D126882430D4B1B1D1A607047042883
:1023000008D14FF0E021096941F004014FF0E022CB
:10231000116107E04FF0E021096921F004014FF05D
:10232000E0221161704700000000FA050CED00E0AA
:1023300000E400E080E100E080FFFF1F10B50446EC
:10234000CC48844208D10121042000F02DFB00215B
:10235000042000F029FB46E0C748844208D101214F
:10236000082000F021FB0021082000F01DFB3AE0CE
:10237000C248844208D10121102000F015FB002141
:10238000102000F011FB2EE0BD48844208D101214D
:10239000202000F009FB0021202000F005FB22E0B6
:1023A000B848844208D10121402000F0FDFA002104
:1023B000402000F0F9FA16E0B348844208D1012128
:1023C000802000F0F1FA0021802000F0EDFA0AE010
:1023D000AE48844207D10121801500F0E5FA0021C2
:1023E000A01500F0E1FA10BD10B50121084600F07B
:1023F000DBFA0021012000F0D7FA10BD2DE9F041F1
:10240000024600250026002000230024002791F822
:1024100003C00CF00F0591F803C00CF0100CBCF1D8
:10242000000F03D091F802C04CEA050591F800C0F6
:10243000BCF1000F31D0146800202BE04FF0010CEC
:102440000CFA00F3B1F800C00CEA03069E4220D15A
:1024500083004FF00F0C0CFA03F7BC4305FA03FCA2
:102460004CEA040491F803C0BCF1280F06D14FF0E8
:10247000010C0CFA00FCC2F814C00AE091F803C089
:10248000BCF1480F05D14FF0010C0CFA00FCC2F86A
:1024900010C0401C0828D1D31460B1F800C0BCF1B2
:1024A000FF0F34DD546800202EE000F1080C4FF0DF
:1024B000010808FA0CF3B1F800C00CEA03069E42CA
:1024C00021D183004FF00F0C0CFA03F7BC4305FA3F
:1024D00003FC4CEA040491F803C0BCF1280F05D1B9
:1024E00000F1080C08FA0CF8C2F8148091F803C047
:1024F000BCF1480F07D100F1080C4FF0010808FAB1
:102500000CF8C2F81080401C0828CED35460BDE8F7
:10251000F0814FF6FF710180022181700421C170AA
:1025200070470246002093680B400BB1012000E089
:10253000002070470146886880B27047024600203C
:10254000D3680B400BB1012000E00020704701462A
:10255000C86880B2704701617047416170470AB135
:10256000016100E041617047C16070474FF4803203
:102570000A43826181618261826982697047024691
:102580000020434B18684FF68073184040EA021051
:1025900008433F4B186070473E49C8617047F0B52B
:1025A0000A46002300240021002500F00046B6F171
:1025B000004F02D1364EF16901E0354E7168C0F32B
:1025C000034583B200F44016B6F5401F08D121F050
:1025D00070612F4E766826F070662D4F7E6012E097
:1025E00000F48016B6F5801F06D1032606FA05F41E
:1025F000A14341F0706106E0460D360103FA06F68C
:10260000B14341F0706122B1460D360103FA06F67E
:10261000314300F00046B6F1004F02D11C4EF1618B
:1026200001E01B4E7160F0BD30B500228B071C0F1E
:102630000F2303FA04F2164B08338C1053F824309E
:102640009343134C08348D1044F8253023468C10E6
:1026500053F824308C07240F00FA04F423430C4C65
:1026600008348D1044F8253030BD0A49DC3108604B
:102670007047000000080140000C014000100140BC
:102680000014014000180140001C014000200140DE
:102690000000014000002042DF48006840F00100D7
:1026A000DD49086008464068DC490840DA4948606E
:1026B00008460068DA490840D749086008460068BB
:1026C00020F4802008600846406820F4FE0048603E
:1026D0004FF41F0088607047CF49096821F48031AA
:1026E000CD4A11601146096821F480211160B0F5CE
:1026F000803F03D0B0F5802F0ED106E0C6490968AF
:1027000041F48031C44A116007E0C349096841F4CB
:10271000A021C14A116000E000BF00BF704710B5A2
:1027200001460022002300204A11012A02D1BA4C9E
:10273000236806E0022A02D1B74C236A01E0B64CB6
:10274000636A01F01F02012494401C400CB1012077
:1027500000E0002010BD38B50020009000240025C6
:1027600000BF3120FFF7DBFF05460098401C0090BA
:102770000098B0F5A06F01D0002DF2D03120FFF706
:10278000CEFF08B1012400E00024204638BD0146F8
:102790000020A14A106820F0F80040EAC100106053
:1027A0007047A04908607047024600209A4B58685D
:1027B00020F47C1042EA01031843974B586070479D
:1027C00098490866704701460020934A506820F0F7
:1027D00003000843506070478F48406800F00C00C9
:1027E0007047014600208C4A506820F0F0000843F2
:1027F0005060704701460020874A506820F4E0602E
:1028000008435060704701460020834A506820F416
:10281000605040EAC1005060704729B17E4A527A48
:1028200002437D4B5A7204E07B4A527A82437A4BD0
:102830005A7270477B49D8310860704701460020C2
:10284000754A506820F440400843506070470021AA
:10285000714A20321170704A82F82010012802D08B
:1028600004280AD104E001216B4A2032117005E0EE
:102870000521694A2032117000E000BF00BF704797
:102880006949086070476449096A0143624A1162F4
:102890007047654944390860704730B5002100220F
:1028A000002400235C4D6D6805F00C0121B1042962
:1028B00005D0082923D105E05C4D056022E05B4D81
:1028C00005601FE0544D6D6805F47012524D6D683F
:1028D00005F48034022505EB92421CB9544D554352
:1028E00005600BE04C4D6D6805F400351DB1504D91
:1028F0005543056002E04D4D5543056002E04B4DE8
:10290000056000BF00BF444D6D6805F0F001090986
:10291000484D6B5C0568DD4045603F4D6D6805F4D2
:10292000E061090A434D6B5C4568DD4085603A4DC6
:102930006D6805F46051C90A3E4D6B5C4568DD4029
:10294000C560354D6D6805F44041890B3A4D6B5CAF
:10295000C568B5FBF3F5056130BD29B12E4A526952
:1029600002432D4B5A6104E02B4A526982432A4BA1
:102970005A61704729B1284A92690243264B9A61ED
:1029800004E0254A92698243234B9A61704729B13A
:10299000214AD2690243204BDA6104E01E4AD2691F
:1029A00082431D4BDA61704729B11B4AD26802434A
:1029B000194BDA6004E0184AD2688243164BDA6099
:1029C000704729B1144A12690243134B1A6104E09B
:1029D000114A12698243104B1A61704712494039FB
:1029E000086070470F49C86470470B49C871704749
:1029F0000948406A40F080700749486270470146C4
:102A00000020054A92680A400AB1012000E0002037
:102A10007047014988727047001002400000FFF8BB
:102A2000FFFFF6FE000042428004424200127A009C
:102A300000093D008C0000209C00002010B50446D9
:102A4000FE48844208D10121C014FFF7ADFF0021E8
:102A5000E014FFF7A9FFC4E0B4F1804F08D10121D1
:102A60000846FFF7AEFF00210120FFF7AAFFB8E0FC
:102A7000F348844208D101210220FFF7A2FF002180
:102A80000220FFF79EFFACE0EE48844208D101210E
:102A90000420FFF796FF00210420FFF792FFA0E03B
:102AA000E948844208D101210820FFF78AFF00216C
:102AB0000820FFF786FF94E0E448844208D1012112
:102AC0001020FFF77EFF00211020FFF77AFF88E03B
:102AD000DF48844208D101212020FFF772FF002146
:102AE0002020FFF76EFF7CE0DA48844208D1012104
:102AF0004014FFF759FF00216014FFF755FF70E005
:102B0000D548844209D10121C804FFF74DFF0021B7
:102B10004FF40020FFF748FF63E0D048844209D11A
:102B200001210805FFF740FF00214FF48010FFF757
:102B30003BFF56E0CA48844209D101214805FFF70E
:102B400033FF00214FF40010FFF72EFF49E0C54886
:102B5000844208D101214020FFF733FF00214020AB
:102B6000FFF72FFF3DE0C048844208D101218020BB
:102B7000FFF727FF00218020FFF723FF31E0BB484C
:102B8000844208D101218015FFF71BFF0021A01509
:102B9000FFF717FF25E0B648844209D10121080458
:102BA000FFF702FF00214FF48030FFF7FDFE18E031
:102BB000B048844209D101214804FFF7F5FE002105
:102BC0004FF40030FFF7F0FE0BE0AB48844208D131
:102BD00001218804FFF7E8FE00214FF48020FFF771
:102BE000E3FE10BD00220288944B98420ED0994B10
:102BF00098420BD0B0F1804F08D0914B984205D04D
:102C0000904B984202D0904B984204D14FF68F736C
:102C10001A404B881A438D4B984207D08C4B9842F0
:102C200004D04FF6FF431A40CB881A4302808B88AA
:102C300083850B880385814B98420BD0854B984246
:102C400008D08B4B984205D08A4B984202D08A4BD1
:102C5000984201D10B7A038601238382704770B5B5
:102C6000002400220023058C4FF6FE7635400584B3
:102C7000028C8388048B4FF68F752C40B51E2C4038
:102C80000D882C43751E2A400D892A434D882A43FE
:102C90006A4DA8420BD06F4DA84208D0744DA8428F
:102CA00005D0744DA84202D0734DA84213D14FF6FF
:102CB000F7752A404D892A434FF6FB752A408D88C7
:102CC0002A434FF6FF652B404FF6FF552B408D8969
:102CD0002B43CD892B4383800483CD888586028452
:102CE00070BD70B5002400220023058C4FF6EF76EE
:102CF00035400584028C8388048B48F6FF752C4090
:102D00004FF6FF452C400D884FF6FF7606EA052565
:102D10002C434FF6DF752A400D8906EA05152A4334
:102D20004D8806EA05152A43444DA84202D0494D74
:102D3000A8421DD14FF67F752A404D894FF6FF7688
:102D400006EA05152A434FF6BF752A408D8806EA24
:102D500005152A434FF6FF352B404FF2FF752B40E8
:102D60008D8906EA85052B43CD8906EA85052B4327
:102D700083800483CD880587028470BD70B50024EC
:102D800000220023058C4FF6FF6635400584028C37
:102D90008388848B4FF68F752C404FF6FC752C4042
:102DA0000D882C434FF6FF552A400D894FF6FF76CC
:102DB00006EA05252A434D8806EA05252A431F4DC4
:102DC000A84202D0234DA8421DD14FF2FF752A40E0
:102DD0004D894FF6FF7606EA05252A434FF6FF3563
:102DE0002A408D8806EA05252A434EF6FF752B40BA
:102DF0004DF6FF752B408D8906EA05152B43CD89CD
:102E000006EA05152B4383808483CD888587028459
:102E100070BD70B5002200230024058C4EF6FF76AD
:102E200035400584038C8488828B48F6FF752A40E0
:102E30004FF6FF452A400D8820E00000002C01409D
:102E40000004004000080040000C0040001000405A
:102E50000014004000340140004C0140005001408B
:102E60000054014000180040001C004000200040B9
:102E70000040014000440140004801404FF6FF7609
:102E800006EA05252A434DF6FF752B400D8906EA13
:102E900005352B434D8806EA05352B43FA4DA842EC
:102EA00002D0FA4DA84208D14BF6FF752C408D890F
:102EB0004FF6FF7606EA85152C4384808283CD8801
:102EC000A0F84050038470BD828B4FF2FF331A404C
:102ED0008283828B4FF6FF7303EA01231A438283B6
:102EE0007047F0B50C461546002200210026078CDD
:102EF0004EF6FF7C07EA0C070784828B018C4FF6A5
:102F0000FF7707EA043640F6FF473A404FF6FF776F
:102F100007EA05273A434FF6FF7707EA03373A43B4
:102F2000D94FB8420ED0D94FB8420BD0B0F1804F34
:102F300008D0D74FB84205D0D64FB84202D0D64FAE
:102F4000B84206D14DF6FF77394046F480573943F1
:102F500005E047F6FF57394044F4805739438283F0
:102F60000184F0BD828B4FF6F3731A408283828B0B
:102F70000A4382837047F0B50C46154600220021B3
:102F80000026078C4FF6FF6C07EA0C070784828B3C
:102F9000018C4FF6FF7707EA04264FF60C773A408C
:102FA0004FF6FF7707EA03172F433A43B64FB8426D
:102FB0000ED0B64FB8420BD0B0F1804F08D0B44F0E
:102FC000B84205D0B34FB84202D0B34FB84206D191
:102FD0004FF6FF57394046F48077394305E04FF20A
:102FE000FF57394044F48077394382830184F0BD30
:102FF000028B4FF2FF331A400283028B4FF6FF73AE
:1030000003EA01231A4302837047F0B50C461546C4
:10301000002200210026078C4FF6EF7C07EA0C0700
:103020000784028B018C4FF6FF7707EA041640F6FF
:10303000FF473A404FF6FF7707EA03373A434FF628
:10304000FF7707EA05273A438F4FB8420ED08F4FDC
:10305000B8420BD0B0F1804F08D08D4FB84205D0A8
:103060008C4FB84202D08C4FB84206D14FF6DF7772
:10307000394046F01007394305E04FF65F77394095
:1030800044F01007394302830184F0BD028B4FF6F0
:10309000F3731A400283028B0A4302837047F0B530
:1030A0000C46154600220021068C4FF6FE773E4066
:1030B0000684028B018C4FF60C7632407E1C06EAA9
:1030C00003162E433243704EB0420ED06F4EB042C4
:1030D0000BD0B0F1804F08D06D4EB04205D06D4E90
:1030E000B04202D06C4EB04206D14FF6FD76314070
:1030F00044F00106314305E04FF6F576314044F0E7
:103100000106314302830184F0BD70B505460C46CB
:103110005D4885420ED05D4885420BD0B5F1804FA9
:1031200008D05B48854205D05A48854202D05A48AB
:10313000854200D100E000BF208850B92389A288D1
:1031400061882846FFF7ABFFE1882846FFF79EFF1E
:1031500025E0208804280AD12389A288618828468E
:10316000FFF753FFE1882846FFF742FF17E020886A
:1031700008280AD12389A28861882846FFF7FBFE28
:10318000E1882846FFF7EEFE09E02389A2886188DE
:103190002846FFF7A6FEE1882846FFF795FE70BD9A
:1031A0002DE9F04105460C4600260127608808B944
:1031B000022600E00026A088012801D1022700E0B5
:1031C00001272088A0B92389A28861882846FFF7B3
:1031D00066FFE1882846FFF759FF23893A463146C2
:1031E0002846FFF712FFE1882846FFF701FF13E0AA
:1031F0002389A28861882846FFF707FFE1882846CF
:10320000FFF7F6FE23893A4631462846FFF747FF87
:10321000E1882846FFF73AFFBDE8F0810A884B882D
:103220001A438B881A43CB881A430B891A434B895C
:103230001A438B891A43A0F8442070474FF6FF7158
:10324000818000210180C18041800172704700218E
:10325000018041808180C180018141818181C18162
:103260007047002101804180012181800021C180BF
:10327000018170470021018041808180C1800181EE
:103280004181818170470000002C014000340140E1
:103290000004004000080040000C004021B10288FA
:1032A00042F00102028004E002884FF6FE731A40E9
:1032B0000280704731B1B0F8442042F40042A0F8D7
:1032C000442005E0B0F84420C2F30E02A0F84420E8
:1032D00070471AB183890B43838102E083898B4352
:1032E000838170478182704741EA0203A0F8483029
:1032F00070471AB183890B43838102E083898B4332
:103300008381704701894FF6F8721140018170473F
:103310000A46002101894FF68F731940114301813C
:10332000704730B504460D4629462046FFF7F0FFAA
:10333000208940F00700208130BD2DE9F04104468E
:103340000D4616461F46602D06D13B4601223146EA
:103350002046FFF75AFE05E03B4601223146204653
:10336000FFF79DFE29462046FFF7D2FF208940F057
:1033700007002081BDE8F08130B50C4600210189AD
:10338000C9B24FF6FF7505EA0325154325432943C6
:10339000018130BD2DE9F04105460E46174698469D
:1033A000002443463A4631462846FFF7E5FF2C897C
:1033B0004FF6F870044044F007044FF68F70044055
:1033C00044F070042C81BDE8F081F0B504460D4650
:1033D00016461F463B46324629462046FFF7CCFF9D
:1033E000208940F480402081F0BD018582827047B1
:1033F0000A46002101884FF68F731940114301805E
:103400007047F0B50C4615461E46002100220023E9
:103410000189028B038C4FF6F877394021434FF630
:10342000FC473A4040F201173A434FF6DD773B4004
:103430004FF6FF7707EA06172F433B4301810283CC
:103440000384F0BD0A460021018B4FF68F731940AB
:103450001143018370470A460021018B48F6FF7330
:1034600019404FF6FF7303EA0223194301837047A3
:103470000A460021818B4FF68F73194011438183D7
:1034800070470A460021818B48F6FF7319404FF6BA
:10349000FF7303EA022319438183704721B1028835
:1034A00042F08002028004E002884FF67F731A40E7
:1034B0000280704721B1828842F00402828004E0D9
:1034C00082884FF6FB731A408280704721B1828850
:1034D00042F00802828004E082884FF6F7731A40B7
:1034E0008280704721B1828842F00102828004E02C
:1034F00082884FF6FE731A40828070470A46002188
:10350000018B4FF6F77319401143018370470A4648
:103510000021018B4FF2FF7319404FF6FF7303EA4E
:1035200002231943018370470A460021818B4FF61D
:10353000F77319401143818370470A460021818B3C
:103540004FF2FF7319404FF6FF7303EA022319434A
:10355000818370470A460021018B4FF6FB731940A7
:103560001143018370470A460021018B4FF6FF3358
:1035700019404FF6FF7303EA022319430183704792
:103580000A460021818B4FF6FB731940114381835A
:1035900070470A460021818B4FF6FF3319404FF6E2
:1035A000FF7303EA02231943818370470A4600210F
:1035B000018B4FF67F7319401143018370470A4610
:1035C0000021018BC1F30E014FF6FF7303EA0223C2
:1035D0001943018370470A460021818B4FF67F73A0
:1035E00019401143818370470A460021818BC1F342
:1035F0000E014FF6FF7303EA0223194381837047DC
:103600000A460021018C4FF6FD73194011430184D5
:1036100070470A460021018C4FF6F7731940114399
:10362000018470470A460021018C4FF6DF73194070
:103630004FF6FF7303EA02131943018470470A46E9
:103640000021018C4FF67F7319404FF6FF7303EA98
:1036500002131943018470470A460021018C4FF67A
:10366000FF5319404FF6FF7303EA02231943018405
:1036700070470A460021018C4FF2FF7319404FF644
:10368000FF7303EA02231943018470470A460021AD
:10369000018C4DF6FF7319404FF6FF7303EA0233B6
:1036A00019430184704730B5002301248C40A3B234
:1036B000048C9C430484048C02FA01F5ADB22C43C3
:1036C000048430BD30B5002304248C40A3B2048CA4
:1036D0009C430484048C02FA01F5ADB22C430484AB
:1036E00030BD70B50346002000241846183001256F
:1036F0008D40ACB21D8CA5431D8409B1082909D1A8
:1037000000EB6100056825F070050560056815434C
:1037100005600EE00D1FC5F34E052844056825F42D
:10372000E045056005684FF6FF7606EA0226354358
:10373000056070BD21B1028842F00202028004E0FF
:1037400002884FF6FD731A400280704721B102884B
:1037500042F00402028004E002884FF6FB731A4034
:103760000280704721B1828842F08002828004E0AA
:1037700082884FF67F731A408280704702884FF626
:10378000F7731A40028002880A43028070478288D9
:103790004FF68F731A40828082880A438280704776
:1037A00002894FF6F8731A40028102890A430281A6
:1037B000704702894FF67F731A40028102890A43DB
:1037C0000281704781847047818570478186704788
:1037D0000187704781877047A0F8401070470288C2
:1037E0004FF6FF431A40028002880A430280704766
:1037F0000146888E70470146088F70470146888FC2
:1038000070470146B1F8400070470146888C704708
:103810000146088D704702460020138A0B400BB109
:10382000012000E000207047CA430282704730B593
:103830000246002000230024158A05EA0103958929
:1038400005EA010413B10CB1012000E0002030BDF5
:10385000CA4302827047000010B50446FB48844208
:1038600009D101218803FFF79FF800214FF4804020
:10387000FFF79AF832E0F648844209D10121480462
:10388000FFF79FF800214FF40030FFF79AF825E08A
:10389000F048844209D101218804FFF792F8002101
:1038A0004FF48020FFF78DF818E0EB48844209D1EF
:1038B0000121C804FFF785F800214FF40020FFF72D
:1038C00080F80BE0E548844208D101210805FFF7A4
:1038D00078F800214FF48010FFF773F810BD2DE940
:1038E000F04786B005460E460024A24600BFA1461A
:1038F0000027B08900B100BF2F462C8A4CF6FF701C
:103900000440F08804432C82AC894EF6F310044046
:10391000B08831890843718908430443AC81AC8A7B
:103920004FF6FF400440B0890443AC8201A8FEF783
:10393000B4FFC648874202D1DDF810A001E0DDF8EF
:103940000CA0A88900F4004040B10AEBCA0000EBCB
:103950000A1031684900B0FBF1F807E00AEBCA0031
:1039600000EB0A1031688900B0FBF1F86420B8FB65
:10397000F0F004012009642101FB1089A88900F4FA
:10398000004040B1322000EBC900B0FBF1F000F084
:103990000700044308E0322000EB09106421B0FB6B
:1039A000F1F000F00F0004432C8106B0BDE8F08771
:1039B0004FF41651016000218180C18001810C21EA
:1039C000418100218181704710B502460020108A94
:1039D0004FF2FF0318400B884C8823438C88234305
:1039E000CC8823431843108210BD00210180418000
:1039F0008180C180704721B1828942F40052828166
:103A000004E082894DF6FF731A4082817047F0B559
:103A10000346002400260025002040F66A17B9421C
:103A200000D100BF1846C1F3421401F01F06012760
:103A300007FA06F5012C01D10C3004E0022C01D16B
:103A4000103000E014301AB107682F43076002E01D
:103A50000768AF430760F0BD1AB1838A0B438382C6
:103A600002E0838A8B4383827047028A4FF6F073A9
:103A70001A400282028A0A430282704782894FF208
:103A8000FF731A40828182890A438281704721B183
:103A9000828942F00202828104E082894FF6FD733E
:103AA0001A4082817047028A4FF6DF731A40028201
:103AB000028A0A430282704721B1028A42F480429C
:103AC000028204E0028A4BF6FF731A4002827047BA
:103AD000C1F308028280704701468888C0F308005D
:103AE0007047818941F0010181817047028BD2B218
:103AF0000283028B42EA012202837047028B02F4A6
:103B00007F420283028B0A430283704721B1828A7B
:103B100042F02002828204E0828A4FF6DF731A406C
:103B20008282704721B1828A42F01002828204E0D0
:103B3000828A4FF6EF731A408282704721B1828ADF
:103B400042F00802828204E0828A4FF6F7731A403C
:103B50008282704721B1828942F40042828103E06F
:103B60008289C2F30E028281704721B1828A42F4B7
:103B70000062828204E0828A4FF2FF731A408282DE
:103B80007047828A4FF6FB731A408282828A0A4308
:103B90008282704721B1828A42F00202828204E06E
:103BA000828A4FF6FD731A408282704702460020D7
:103BB000B1F5007F00D100BF13880B400BB101208D
:103BC00000E00020704701F40072B2F5007F00D1E0
:103BD00000BFCA430280704770B50246002400232C
:103BE0000025002040F66A16B14200D100BFC1F3A3
:103BF000421501F01F03012606FA03F3012D02D13D
:103C00009689334006E0022D02D1168A334001E046
:103C1000968A33400C12012606FA04F416883440C2
:103C200013B10CB1012000E0002070BD10B50022DE
:103C3000002340F66A14A14200D100BF0A120124F9
:103C40009440A3B2DC43048010BD00000038014062
:103C50000044004000480040004C0040005000403C
:103C6000002044490860091D0860091D0860091DFD
:103C7000086041483F4914310860704700213D49C0
:103C80008279002A3AD00A46126803689A430B46A2
:103C90001A600A1D126803689A430B1D1A600279A4
:103CA00011440A6803681A430A60324A08321268EB
:103CB00003689A432F4B08331A601A1D1268036871
:103CC0009A432C4B0C331A604279102A0ED11A1FDA
:103CD000126803681A43274B08331A601A1D1268CA
:103CE00003681A43234B0C331A600DE021494279D3
:103CF00011440A6803681A430A6005E00279114416
:103D00000A6803689A430A607047002101600171E4
:103D10000C214171002181717047164910310968E9
:103D20000143144A10321160704701460020114AC5
:103D3000143212680A400AB1012000E000207047E6
:103D40000C49143108607047014600200022094BDD
:103D50001B6803EA0102074B14331B680B4013B1C5
:103D60000AB1012000E000207047024914310860C8
:103D70007047000000040140FFFF0F007047000083
:103D80000FB4044910B503AA029800F069F910BCF9
:103D90005DF814FB840000200FB41CB5074B06AA85
:103DA0007B4469460090059800F02BF90020694695
:103DB00000F03AF91CBC5DF814FB0000850200001D
:103DC0002DE9F0410E460446002020622046E168BD
:103DD000884730B3252805D0D4E901219047206ACF
:103DE000401CF2E7E168204600278847050018D00C
:103DF000A5F14100192802D820354FF4006732465A
:103E0000294620462760FCF7CDF940B1012804D0AF
:103E1000F61D26F007060836D8E7361DD6E72846F1
:103E2000DAE7206ABDE8F08170B50C460546012A44
:103E300005D02878800600D5EA69002302E0012336
:103E400005E05B1C934202D2E05C0028F9D1A8692E
:103E5000E618C01AA861286A184428622846AFF3F9
:103E6000008004E0D5E9012114F8010B9047B44229
:103E7000F8D32846AFF3008070BD00002DE9F04173
:103E80000646002410687529314615A510D0AFF3F9
:103E90000080002802DA404212A507E031688A0754
:103EA00001D511A502E0490704D510A5012401E0C0
:103EB000AFF3008000210A2306F1240707E0B0FBDE
:103EC000F3F203FB1200303078541046491C0028EE
:103ED000F5D123462A463046BDE8F04100F033B81C
:103EE000000000002D0000002B000000200000005A
:103EF0004FF0000200B5134694469646203922BF83
:103F0000A0E80C50A0E80C50B1F12001BFF4F7AFCD
:103F1000090728BFA0E80C5048BF0CC05DF804EBAF
:103F2000890028BF40F8042B08BF704748BF20F81D
:103F3000022B11F0804F18BF00F8012B704770471B
:103F40007047704770472DE9F0470D4699469246F5
:103F5000044600F124080168880604D5E06921F0D0
:103F60001001216000E00120A84201DD471B00E0B4
:103F70000027A1697A1902EB0900081AA0612078CC
:103F8000C00602D42046AFF30080002608E0D4E942
:103F900001211AF806009047206A401C761C206216
:103FA0004E45F4DB2078C0060AD52046AFF30080EA
:103FB00006E0D4E9012130209047206A401C2062AD
:103FC000381EA7F10107F4DC07E0D4E9012118F855
:103FD00005009047206A401C2062281EA5F10105BB
:103FE000F3DC2046AFF300802078000602D50220E3
:103FF000BDE8F0870120FBE701694A1C02610878EF
:10400000704700B58FB0CDE9013100210591054918
:104010007944CDE9031011466846FFF7D1FE0FB091
:1040200000BD0000E5FFFFFF0A6802F8010B0A600F
:10403000704710B5436913B1AFF3008001E0FFF79B
:10404000F3FE012010BD127800F124010A70002255
:104050004A700122EDE711684FF0FF32E9E70000F6
:10406000074B70B50D467B44FFF7CBFF044628464F
:1040700000F008F810B14FF0FF3070BD204670BD61
:10408000FDDEFFFF007B00F080007047754600F00A
:1040900029F8AE4605006946534620F007008546DC
:1040A00018B020B5FEF7CAF8BDE820404FF0000672
:1040B0004FF000074FF000084FF0000B21F0070110
:1040C000AC46ACE8C009ACE8C009ACE8C009ACE853
:1040D000C0098D4670470446AFF300802046FCF7C8
:1040E00076F8000000487047640200206D6F746F1E
:1040F00072202564202564202564202564200D0A73
:104100002073706565642025642025642025642063
:104110002564200D0A206469616E67616E67202541
:1041200064202564202564202564200D0A206D6705
:104130002025642025642025642025640D0A206D37
:104140006779616E736869206C6F6F7074696D65F3
:104150002564202064656C617974696D6525640A45
:1041600020465F666C61673D25640A20625F666C6D
:1041700061673D25640A00009841000800000020A6
:10418000A00000006C01000838420008A0000020D8
:104190002808000088010008006400643A073A0714
:1041A0003A073A07000000001E64000000A24A041B
:1041B00000000000000000000102030406070809D7
:1041C000FEFF0000000000000202020200000000EA
:1041D0000000000000000000000000AABB06000074
:1041E0000008013138AABB05000000011011AABB6C
:1041F0001000000005100200000000000000010097
:10420000AABB060000000C01000D00000000000029
:10421000000000000000000000000000000000009E
:10422000000000000000000001020304010203047A
:08423000060708090204060854
:0400000508000131BD
:00000001FF
